{
  "contractName": "Borrow",
  "abi": [
    {
      "inputs": [
        {
          "internalType": "address",
          "name": "_stacking",
          "type": "address"
        },
        {
          "internalType": "address",
          "name": "_proxySimple",
          "type": "address"
        }
      ],
      "stateMutability": "nonpayable",
      "type": "constructor"
    },
    {
      "anonymous": false,
      "inputs": [
        {
          "indexed": false,
          "internalType": "address[]",
          "name": "soliAddress",
          "type": "address[]"
        }
      ],
      "name": "EntityRegistered",
      "type": "event"
    },
    {
      "anonymous": false,
      "inputs": [
        {
          "indexed": true,
          "internalType": "address",
          "name": "previousOwner",
          "type": "address"
        },
        {
          "indexed": true,
          "internalType": "address",
          "name": "newOwner",
          "type": "address"
        }
      ],
      "name": "OwnershipTransferred",
      "type": "event"
    },
    {
      "anonymous": false,
      "inputs": [
        {
          "indexed": false,
          "internalType": "uint256",
          "name": "loanRequestId",
          "type": "uint256"
        }
      ],
      "name": "ProposalRegistered",
      "type": "event"
    },
    {
      "anonymous": false,
      "inputs": [],
      "name": "ProposalsRegistrationEnded",
      "type": "event"
    },
    {
      "anonymous": false,
      "inputs": [],
      "name": "ProposalsRegistrationStarted",
      "type": "event"
    },
    {
      "anonymous": false,
      "inputs": [
        {
          "indexed": false,
          "internalType": "address",
          "name": "entity",
          "type": "address"
        },
        {
          "indexed": false,
          "internalType": "uint256",
          "name": "loanRequestId",
          "type": "uint256"
        }
      ],
      "name": "Voted",
      "type": "event"
    },
    {
      "anonymous": false,
      "inputs": [],
      "name": "VotesTallied",
      "type": "event"
    },
    {
      "anonymous": false,
      "inputs": [],
      "name": "VotingSessionEnded",
      "type": "event"
    },
    {
      "anonymous": false,
      "inputs": [],
      "name": "VotingSessionStarted",
      "type": "event"
    },
    {
      "anonymous": false,
      "inputs": [
        {
          "indexed": false,
          "internalType": "enum Borrow.WorkflowStatus",
          "name": "previousStatus",
          "type": "uint8"
        },
        {
          "indexed": false,
          "internalType": "enum Borrow.WorkflowStatus",
          "name": "newStatus",
          "type": "uint8"
        }
      ],
      "name": "WorkflowStatusChange",
      "type": "event"
    },
    {
      "anonymous": false,
      "inputs": [
        {
          "indexed": false,
          "internalType": "address",
          "name": "receiver",
          "type": "address"
        }
      ],
      "name": "receiverAddressUpdated",
      "type": "event"
    },
    {
      "inputs": [
        {
          "internalType": "uint256",
          "name": "",
          "type": "uint256"
        }
      ],
      "name": "loans",
      "outputs": [
        {
          "internalType": "string",
          "name": "description",
          "type": "string"
        },
        {
          "internalType": "uint256",
          "name": "voteCount",
          "type": "uint256"
        },
        {
          "internalType": "address",
          "name": "receiver",
          "type": "address"
        }
      ],
      "stateMutability": "view",
      "type": "function",
      "constant": true
    },
    {
      "inputs": [],
      "name": "owner",
      "outputs": [
        {
          "internalType": "address",
          "name": "",
          "type": "address"
        }
      ],
      "stateMutability": "view",
      "type": "function",
      "constant": true
    },
    {
      "inputs": [],
      "name": "proxySimple",
      "outputs": [
        {
          "internalType": "address",
          "name": "",
          "type": "address"
        }
      ],
      "stateMutability": "view",
      "type": "function",
      "constant": true
    },
    {
      "inputs": [],
      "name": "renounceOwnership",
      "outputs": [],
      "stateMutability": "nonpayable",
      "type": "function"
    },
    {
      "inputs": [],
      "name": "stacking",
      "outputs": [
        {
          "internalType": "address",
          "name": "",
          "type": "address"
        }
      ],
      "stateMutability": "view",
      "type": "function",
      "constant": true
    },
    {
      "inputs": [],
      "name": "status",
      "outputs": [
        {
          "internalType": "enum Borrow.WorkflowStatus",
          "name": "",
          "type": "uint8"
        }
      ],
      "stateMutability": "view",
      "type": "function",
      "constant": true
    },
    {
      "inputs": [
        {
          "internalType": "address",
          "name": "newOwner",
          "type": "address"
        }
      ],
      "name": "transferOwnership",
      "outputs": [],
      "stateMutability": "nonpayable",
      "type": "function"
    },
    {
      "inputs": [
        {
          "internalType": "address",
          "name": "",
          "type": "address"
        }
      ],
      "name": "voters",
      "outputs": [
        {
          "internalType": "bool",
          "name": "isRegistered",
          "type": "bool"
        },
        {
          "internalType": "bool",
          "name": "hasVoted",
          "type": "bool"
        },
        {
          "internalType": "uint256",
          "name": "votingPower",
          "type": "uint256"
        },
        {
          "internalType": "uint256",
          "name": "proposalId",
          "type": "uint256"
        }
      ],
      "stateMutability": "view",
      "type": "function",
      "constant": true
    },
    {
      "inputs": [
        {
          "internalType": "string",
          "name": "_description",
          "type": "string"
        },
        {
          "internalType": "address",
          "name": "receiver",
          "type": "address"
        }
      ],
      "name": "registerLoanRequest",
      "outputs": [],
      "stateMutability": "nonpayable",
      "type": "function"
    },
    {
      "inputs": [],
      "name": "setEntity",
      "outputs": [],
      "stateMutability": "nonpayable",
      "type": "function"
    },
    {
      "inputs": [
        {
          "internalType": "uint256",
          "name": "_proposalId",
          "type": "uint256"
        }
      ],
      "name": "addVote",
      "outputs": [],
      "stateMutability": "nonpayable",
      "type": "function"
    },
    {
      "inputs": [],
      "name": "getWinningProposal",
      "outputs": [
        {
          "internalType": "uint256",
          "name": "_proposalId",
          "type": "uint256"
        }
      ],
      "stateMutability": "nonpayable",
      "type": "function"
    },
    {
      "inputs": [],
      "name": "nextStep",
      "outputs": [],
      "stateMutability": "nonpayable",
      "type": "function"
    },
    {
      "inputs": [],
      "name": "getWinningProposalId",
      "outputs": [
        {
          "internalType": "uint256",
          "name": "",
          "type": "uint256"
        }
      ],
      "stateMutability": "view",
      "type": "function",
      "constant": true
    },
    {
      "inputs": [],
      "name": "getReceiverAddress",
      "outputs": [
        {
          "internalType": "address",
          "name": "",
          "type": "address"
        }
      ],
      "stateMutability": "view",
      "type": "function",
      "constant": true
    }
  ],
  "bytecode": "0x60806040523480156200001157600080fd5b506040516200245c3803806200245c833981810160405281019062000037919062000248565b6000620000496200020060201b60201c565b9050806000806101000a81548173ffffffffffffffffffffffffffffffffffffffff021916908373ffffffffffffffffffffffffffffffffffffffff1602179055508073ffffffffffffffffffffffffffffffffffffffff16600073ffffffffffffffffffffffffffffffffffffffff167f8be0079c531659141344cd1fd0a4f28419497f9722a3daafe3b4186f6b6457e060405160405180910390a350620000f76200020060201b60201c565b73ffffffffffffffffffffffffffffffffffffffff166200011d6200020860201b60201c565b73ffffffffffffffffffffffffffffffffffffffff161462000176576040517f08c379a00000000000000000000000000000000000000000000000000000000081526004016200016d90620002cb565b60405180910390fd5b81600260006101000a81548173ffffffffffffffffffffffffffffffffffffffff021916908373ffffffffffffffffffffffffffffffffffffffff16021790555080600160006101000a81548173ffffffffffffffffffffffffffffffffffffffff021916908373ffffffffffffffffffffffffffffffffffffffff16021790555050506200034c565b600033905090565b60008060009054906101000a900473ffffffffffffffffffffffffffffffffffffffff16905090565b600081519050620002428162000332565b92915050565b600080604083850312156200025c57600080fd5b60006200026c8582860162000231565b92505060206200027f8582860162000231565b9150509250929050565b600062000298602083620002ed565b91507f4f776e61626c653a2063616c6c6572206973206e6f7420746865206f776e65726000830152602082019050919050565b60006020820190508181036000830152620002e68162000289565b9050919050565b600082825260208201905092915050565b60006200030b8262000312565b9050919050565b600073ffffffffffffffffffffffffffffffffffffffff82169050919050565b6200033d81620002fe565b81146200034957600080fd5b50565b612100806200035c6000396000f3fe608060405234801561001057600080fd5b50600436106100f55760003560e01c8063a513462011610097578063cd5e413711610066578063cd5e41371461022d578063e1ec3c6814610237578063e81e977b14610269578063f2fde38b14610287576100f5565b8063a5134620146101c9578063b3cc6bee146101e7578063c62bfd8f14610205578063c900072614610223576100f5565b8063715018a6116100d3578063715018a6146101525780638da5cb5b1461015c5780639c4e4d501461017a578063a3ec138d14610196576100f5565b80630383badc146100fa578063200d2ed214610116578063531ebce514610134575b600080fd5b610114600480360381019061010f919061195a565b6102a3565b005b61011e6105a4565b60405161012b9190611d46565b60405180910390f35b61013c6105b7565b6040516101499190611c9b565b60405180910390f35b61015a6105e1565b005b61016461071c565b6040516101719190611c9b565b60405180910390f35b610194600480360381019061018f9190611906565b610745565b005b6101b060048036038101906101ab919061189c565b61095b565b6040516101c09493929190611d01565b60405180910390f35b6101d16109a5565b6040516101de9190611ea8565b60405180910390f35b6101ef610c7d565b6040516101fc9190611c9b565b60405180910390f35b61020d610ca3565b60405161021a9190611c9b565b60405180910390f35b61022b610cc9565b005b610235611038565b005b610251600480360381019061024c919061195a565b611345565b60405161026093929190611d8a565b60405180910390f35b610271611434565b60405161027e9190611ea8565b60405180910390f35b6102a1600480360381019061029c919061189c565b61143e565b005b60011515600660003373ffffffffffffffffffffffffffffffffffffffff1673ffffffffffffffffffffffffffffffffffffffff16815260200190815260200160002060000160009054906101000a900460ff16151514610339576040517f08c379a000000000000000000000000000000000000000000000000000000000815260040161033090611e88565b60405180910390fd5b6003600581111561034657fe5b600060149054906101000a900460ff16600581111561036157fe5b146103a1576040517f08c379a000000000000000000000000000000000000000000000000000000000815260040161039890611e48565b60405180910390fd5b600660003373ffffffffffffffffffffffffffffffffffffffff1673ffffffffffffffffffffffffffffffffffffffff16815260200190815260200160002060000160019054906101000a900460ff1615610431576040517f08c379a000000000000000000000000000000000000000000000000000000000815260040161042890611e28565b60405180910390fd5b6001600660003373ffffffffffffffffffffffffffffffffffffffff1673ffffffffffffffffffffffffffffffffffffffff16815260200190815260200160002060000160016101000a81548160ff02191690831515021790555080600660003373ffffffffffffffffffffffffffffffffffffffff1673ffffffffffffffffffffffffffffffffffffffff168152602001908152602001600020600201819055507f4d99b957a2bc29a30ebd96a7be8e68fe50a3c701db28a91436490b7d53870ca43382604051610504929190611cb6565b60405180910390a161057f600660003373ffffffffffffffffffffffffffffffffffffffff1673ffffffffffffffffffffffffffffffffffffffff168152602001908152602001600020600101546007838154811061055f57fe5b9060005260206000209060030201600101546115e890919063ffffffff16565b6007828154811061058c57fe5b90600052602060002090600302016001018190555050565b600060149054906101000a900460ff1681565b6000600560009054906101000a900473ffffffffffffffffffffffffffffffffffffffff16905090565b6105e961163d565b73ffffffffffffffffffffffffffffffffffffffff1661060761071c565b73ffffffffffffffffffffffffffffffffffffffff161461065d576040517f08c379a000000000000000000000000000000000000000000000000000000000815260040161065490611e68565b60405180910390fd5b600073ffffffffffffffffffffffffffffffffffffffff166000809054906101000a900473ffffffffffffffffffffffffffffffffffffffff1673ffffffffffffffffffffffffffffffffffffffff167f8be0079c531659141344cd1fd0a4f28419497f9722a3daafe3b4186f6b6457e060405160405180910390a360008060006101000a81548173ffffffffffffffffffffffffffffffffffffffff021916908373ffffffffffffffffffffffffffffffffffffffff160217905550565b60008060009054906101000a900473ffffffffffffffffffffffffffffffffffffffff16905090565b61074d61163d565b73ffffffffffffffffffffffffffffffffffffffff1661076b61071c565b73ffffffffffffffffffffffffffffffffffffffff16146107c1576040517f08c379a00000000000000000000000000000000000000000000000000000000081526004016107b890611e68565b60405180910390fd5b600160058111156107ce57fe5b600060149054906101000a900460ff1660058111156107e957fe5b14610829576040517f08c379a000000000000000000000000000000000000000000000000000000000815260040161082090611e48565b60405180910390fd5b610831611695565b6040518060600160405280848152602001600081526020018373ffffffffffffffffffffffffffffffffffffffff168152509050600781908060018154018082558091505060019003906000526020600020906003020160009091909190915060008201518160000190805190602001906108ad9291906116cc565b506020820151816001015560408201518160020160006101000a81548173ffffffffffffffffffffffffffffffffffffffff021916908373ffffffffffffffffffffffffffffffffffffffff1602179055505050600061091c600160078054905061164590919063ffffffff16565b90507f92e393e9b54e2f801d3ea4beb0c5e71a21cc34a5d34b77d0fb8a3aa1650dc18f8160405161094d9190611ea8565b60405180910390a150505050565b60066020528060005260406000206000915090508060000160009054906101000a900460ff16908060000160019054906101000a900460ff16908060010154908060020154905084565b60006109af61163d565b73ffffffffffffffffffffffffffffffffffffffff166109cd61071c565b73ffffffffffffffffffffffffffffffffffffffff1614610a23576040517f08c379a0000000000000000000000000000000000000000000000000000000008152600401610a1a90611e68565b60405180910390fd5b60046005811115610a3057fe5b600060149054906101000a900460ff166005811115610a4b57fe5b14610a8b576040517f08c379a0000000000000000000000000000000000000000000000000000000008152600401610a8290611e48565b60405180910390fd5b6000809050600080905060005b600780549050811015610b2c578260078281548110610ab357fe5b9060005260206000209060030201600101541115610af45760078181548110610ad857fe5b9060005260206000209060030201600101549250809350610b1f565b8260078281548110610b0257fe5b9060005260206000209060030201600101541415610b1e578091505b5b8080600101915050610a98565b508260048190555060078181548110610b4157fe5b906000526020600020906003020160010154821415610bc6576000600481905550600260009054906101000a900473ffffffffffffffffffffffffffffffffffffffff16600560006101000a81548173ffffffffffffffffffffffffffffffffffffffff021916908373ffffffffffffffffffffffffffffffffffffffff1602179055505b7f0e5e95ff8725ab3e7a4b6b59998a4c344c2aa8d1485f5e60cb7f337768e6134760405160405180910390a1600760045481548110610c0157fe5b906000526020600020906003020160020160009054906101000a900473ffffffffffffffffffffffffffffffffffffffff16600560006101000a81548173ffffffffffffffffffffffffffffffffffffffff021916908373ffffffffffffffffffffffffffffffffffffffff1602179055506004549250505090565b600360009054906101000a900473ffffffffffffffffffffffffffffffffffffffff1681565b600260009054906101000a900473ffffffffffffffffffffffffffffffffffffffff1681565b610cd161163d565b73ffffffffffffffffffffffffffffffffffffffff16610cef61071c565b73ffffffffffffffffffffffffffffffffffffffff1614610d45576040517f08c379a0000000000000000000000000000000000000000000000000000000008152600401610d3c90611e68565b60405180910390fd5b60008060149054906101000a900460ff16905060006005811115610d6557fe5b600060149054906101000a900460ff166005811115610d8057fe5b1415610e3c576001600060146101000a81548160ff02191690836005811115610da557fe5b0217905550610e0b6040518060400160405280601b81526020017f6e6f6e65206f6620666f6c6c6f77696e672070726f706f73616c730000000000815250600260009054906101000a900473ffffffffffffffffffffffffffffffffffffffff16610745565b7f344c25562921d075a298d34b6dd1fd00d36ff293974539dfd4a8c625d9f0064c60405160405180910390a1610fed565b60016005811115610e4957fe5b600060149054906101000a900460ff166005811115610e6457fe5b1415610ebf576002600060146101000a81548160ff02191690836005811115610e8957fe5b02179055507f240cb87b2e4df4c318e72bd714d45a9cad60249e883ff56b1fffd83a4595a8fa60405160405180910390a1610fec565b60026005811115610ecc57fe5b600060149054906101000a900460ff166005811115610ee757fe5b1415610f42576003600060146101000a81548160ff02191690836005811115610f0c57fe5b02179055507f1b8e19a458c1bcd88553332c518cc5c4e2d5793e712ee766d4f1c14f672ef1f560405160405180910390a1610feb565b60036005811115610f4f57fe5b600060149054906101000a900460ff166005811115610f6a57fe5b1415610fc5576004600060146101000a81548160ff02191690836005811115610f8f57fe5b02179055507fc379d349a6301baf50fb2f98d829f4ae10b1cdb7c66f4e4d8117302df7b8cd4c60405160405180910390a1610fea565b6005600060146101000a81548160ff02191690836005811115610fe457fe5b02179055505b5b5b5b7f0a97a4ee45751e2abf3e4fc8946939630b11b371ea8ae39ccdc3056e98f5cc3f81600060149054906101000a900460ff1660405161102d929190611d61565b60405180910390a150565b61104061163d565b73ffffffffffffffffffffffffffffffffffffffff1661105e61071c565b73ffffffffffffffffffffffffffffffffffffffff16146110b4576040517f08c379a00000000000000000000000000000000000000000000000000000000081526004016110ab90611e68565b60405180910390fd5b6060600160009054906101000a900473ffffffffffffffffffffffffffffffffffffffff1673ffffffffffffffffffffffffffffffffffffffff16636c8751a86040518163ffffffff1660e01b815260040160006040518083038186803b15801561111e57600080fd5b505afa158015611132573d6000803e3d6000fd5b505050506040513d6000823e3d601f19601f8201168201806040525081019061115b91906118c5565b905060005b815181101561130a57600082828151811061117757fe5b602002602001015190506040518060800160405280600115158152602001600015158152602001600160009054906101000a900473ffffffffffffffffffffffffffffffffffffffff1673ffffffffffffffffffffffffffffffffffffffff16632a5bf6d28686815181106111e857fe5b60200260200101516040518263ffffffff1660e01b815260040161120c9190611c9b565b60206040518083038186803b15801561122457600080fd5b505afa158015611238573d6000803e3d6000fd5b505050506040513d601f19601f8201168201806040525081019061125c9190611983565b81526020016000815250600660008373ffffffffffffffffffffffffffffffffffffffff1673ffffffffffffffffffffffffffffffffffffffff16815260200190815260200160002060008201518160000160006101000a81548160ff02191690831515021790555060208201518160000160016101000a81548160ff0219169083151502179055506040820151816001015560608201518160020155905050508080600101915050611160565b507f8ef2f85f6f41542a256e6350fd173692359028ad0ac8482349d118ceee88cea68160405161133a9190611cdf565b60405180910390a150565b6007818154811061135257fe5b9060005260206000209060030201600091509050806000018054600181600116156101000203166002900480601f0160208091040260200160405190810160405280929190818152602001828054600181600116156101000203166002900480156113fe5780601f106113d3576101008083540402835291602001916113fe565b820191906000526020600020905b8154815290600101906020018083116113e157829003601f168201915b5050505050908060010154908060020160009054906101000a900473ffffffffffffffffffffffffffffffffffffffff16905083565b6000600454905090565b61144661163d565b73ffffffffffffffffffffffffffffffffffffffff1661146461071c565b73ffffffffffffffffffffffffffffffffffffffff16146114ba576040517f08c379a00000000000000000000000000000000000000000000000000000000081526004016114b190611e68565b60405180910390fd5b600073ffffffffffffffffffffffffffffffffffffffff168173ffffffffffffffffffffffffffffffffffffffff16141561152a576040517f08c379a000000000000000000000000000000000000000000000000000000000815260040161152190611dc8565b60405180910390fd5b8073ffffffffffffffffffffffffffffffffffffffff166000809054906101000a900473ffffffffffffffffffffffffffffffffffffffff1673ffffffffffffffffffffffffffffffffffffffff167f8be0079c531659141344cd1fd0a4f28419497f9722a3daafe3b4186f6b6457e060405160405180910390a3806000806101000a81548173ffffffffffffffffffffffffffffffffffffffff021916908373ffffffffffffffffffffffffffffffffffffffff16021790555050565b600080828401905083811015611633576040517f08c379a000000000000000000000000000000000000000000000000000000000815260040161162a90611de8565b60405180910390fd5b8091505092915050565b600033905090565b60008282111561168a576040517f08c379a000000000000000000000000000000000000000000000000000000000815260040161168190611e08565b60405180910390fd5b818303905092915050565b60405180606001604052806060815260200160008152602001600073ffffffffffffffffffffffffffffffffffffffff1681525090565b828054600181600116156101000203166002900490600052602060002090601f016020900481019282601f1061170d57805160ff191683800117855561173b565b8280016001018555821561173b579182015b8281111561173a57825182559160200191906001019061171f565b5b509050611748919061174c565b5090565b61176e91905b8082111561176a576000816000905550600101611752565b5090565b90565b6000813590506117808161209c565b92915050565b6000815190506117958161209c565b92915050565b600082601f8301126117ac57600080fd5b81516117bf6117ba82611ef0565b611ec3565b915081818352602084019350602081019050838560208402820111156117e457600080fd5b60005b8381101561181457816117fa8882611786565b8452602084019350602083019250506001810190506117e7565b5050505092915050565b600082601f83011261182f57600080fd5b813561184261183d82611f18565b611ec3565b9150808252602083016020830185838301111561185e57600080fd5b61186983828461203c565b50505092915050565b600081359050611881816120b3565b92915050565b600081519050611896816120b3565b92915050565b6000602082840312156118ae57600080fd5b60006118bc84828501611771565b91505092915050565b6000602082840312156118d757600080fd5b600082015167ffffffffffffffff8111156118f157600080fd5b6118fd8482850161179b565b91505092915050565b6000806040838503121561191957600080fd5b600083013567ffffffffffffffff81111561193357600080fd5b61193f8582860161181e565b925050602061195085828601611771565b9150509250929050565b60006020828403121561196c57600080fd5b600061197a84828501611872565b91505092915050565b60006020828403121561199557600080fd5b60006119a384828501611887565b91505092915050565b60006119b883836119d3565b60208301905092915050565b6119cd81611ff4565b82525050565b6119dc81611f99565b82525050565b6119eb81611f99565b82525050565b60006119fc82611f54565b611a068185611f77565b9350611a1183611f44565b8060005b83811015611a42578151611a2988826119ac565b9750611a3483611f6a565b925050600181019050611a15565b5085935050505092915050565b611a5881611fab565b82525050565b611a6781612006565b82525050565b6000611a7882611f5f565b611a828185611f88565b9350611a9281856020860161204b565b611a9b8161207e565b840191505092915050565b6000611ab3602683611f88565b91507f4f776e61626c653a206e6577206f776e657220697320746865207a65726f206160008301527f64647265737300000000000000000000000000000000000000000000000000006020830152604082019050919050565b6000611b19601b83611f88565b91507f536166654d6174683a206164646974696f6e206f766572666c6f7700000000006000830152602082019050919050565b6000611b59601e83611f88565b91507f536166654d6174683a207375627472616374696f6e206f766572666c6f7700006000830152602082019050919050565b6000611b99600d83611f88565b91507f416c726561647920766f746564000000000000000000000000000000000000006000830152602082019050919050565b6000611bd9600b83611f88565b91507f4e6f7420616c6c6f7765640000000000000000000000000000000000000000006000830152602082019050919050565b6000611c19602083611f88565b91507f4f776e61626c653a2063616c6c6572206973206e6f7420746865206f776e65726000830152602082019050919050565b6000611c59600b83611f88565b91507f756e7265676973747265640000000000000000000000000000000000000000006000830152602082019050919050565b611c9581611fea565b82525050565b6000602082019050611cb060008301846119e2565b92915050565b6000604082019050611ccb60008301856119c4565b611cd86020830184611c8c565b9392505050565b60006020820190508181036000830152611cf981846119f1565b905092915050565b6000608082019050611d166000830187611a4f565b611d236020830186611a4f565b611d306040830185611c8c565b611d3d6060830184611c8c565b95945050505050565b6000602082019050611d5b6000830184611a5e565b92915050565b6000604082019050611d766000830185611a5e565b611d836020830184611a5e565b9392505050565b60006060820190508181036000830152611da48186611a6d565b9050611db36020830185611c8c565b611dc060408301846119e2565b949350505050565b60006020820190508181036000830152611de181611aa6565b9050919050565b60006020820190508181036000830152611e0181611b0c565b9050919050565b60006020820190508181036000830152611e2181611b4c565b9050919050565b60006020820190508181036000830152611e4181611b8c565b9050919050565b60006020820190508181036000830152611e6181611bcc565b9050919050565b60006020820190508181036000830152611e8181611c0c565b9050919050565b60006020820190508181036000830152611ea181611c4c565b9050919050565b6000602082019050611ebd6000830184611c8c565b92915050565b6000604051905081810181811067ffffffffffffffff82111715611ee657600080fd5b8060405250919050565b600067ffffffffffffffff821115611f0757600080fd5b602082029050602081019050919050565b600067ffffffffffffffff821115611f2f57600080fd5b601f19601f8301169050602081019050919050565b6000819050602082019050919050565b600081519050919050565b600081519050919050565b6000602082019050919050565b600082825260208201905092915050565b600082825260208201905092915050565b6000611fa482611fca565b9050919050565b60008115159050919050565b6000819050611fc58261208f565b919050565b600073ffffffffffffffffffffffffffffffffffffffff82169050919050565b6000819050919050565b6000611fff82612018565b9050919050565b600061201182611fb7565b9050919050565b60006120238261202a565b9050919050565b600061203582611fca565b9050919050565b82818337600083830152505050565b60005b8381101561206957808201518184015260208101905061204e565b83811115612078576000848401525b50505050565b6000601f19601f8301169050919050565b6006811061209957fe5b50565b6120a581611f99565b81146120b057600080fd5b50565b6120bc81611fea565b81146120c757600080fd5b5056fea2646970667358221220c62313bae2655951ef5bf51e68d7a080777650e1c163a3914e594e773aada0da64736f6c634300060b0033",
  "immutableReferences": {},
  "source": "// SPDX-License-Identifier: MIT\npragma solidity 0.6.11;\npragma experimental ABIEncoderV2;\nimport \"@openzeppelin/contracts/access/Ownable.sol\";\nimport \"@openzeppelin/contracts/math/SafeMath.sol\";\nimport \"./interfaces/IProxy.sol\";\n\n/// @title A contract for the management of votes\n/// @dev The contract can still be improved\ncontract Borrow is Ownable{\n    using SafeMath for uint;\n\n\n//Enum\n    enum WorkflowStatus {\n        RegisteringEntities,\n        LoanRequestStarted,\n        LoanRequestEnded,\n        VotingSessionStarted,\n        VotingSessionEnded,\n        VotesTallied\n    }\n\n//Struct\n    struct Voter {\n        bool isRegistered;\n        bool hasVoted;\n        uint votingPower;\n        uint proposalId;\n    }\n\n\n    struct LoanRequest {\n        string description;\n        uint voteCount;\n        address receiver;\n  //      uint amountRequest;\n  //      bool state;\n    }\n\n//Variable\n\n//    bool borrowOpen;\n    WorkflowStatus public status;\n    IProxy proxy;\n    address public stacking;\n    address public proxySimple;\n    uint winningProposalId;\n    address receiverAddress;\n\n\n//Mapping\n    mapping(address => Voter) public voters;\n    /* mapping(address => uint) public debts;\n    mapping(uint => address) public borrowers; // LoanRequest est un struct */\n\n//Tableau\n    LoanRequest[] public loans;\n\n//Event\n    event EntityRegistered(address[] soliAddress);\n    event ProposalsRegistrationStarted();\n    event ProposalsRegistrationEnded();\n    event ProposalRegistered(uint loanRequestId);\n    event VotingSessionStarted();\n    event VotingSessionEnded();\n    event Voted(address entity, uint loanRequestId);\n    event VotesTallied();\n    event WorkflowStatusChange(WorkflowStatus previousStatus, WorkflowStatus newStatus);\n    event receiverAddressUpdated(address receiver);\n\n\n//Constructor\n    constructor(address _stacking, address _proxySimple) public onlyOwner{\n        stacking=_stacking;\n        proxy = IProxy(_proxySimple);\n\n    }\n\n\n    modifier isRegistred {\n      require(voters[msg.sender].isRegistered == true, \"unregistred\");\n      _;\n    }\n\n\n\n    /// @param _description receiver description of the project to fund and it address\n    function registerLoanRequest(string memory _description, address receiver) public onlyOwner {\n        require(status == WorkflowStatus.LoanRequestStarted, \"Not allowed\");\n        LoanRequest memory loanR = LoanRequest(_description, 0, receiver);\n        loans.push(loanR);\n        uint id = loans.length.sub(1);\n        emit ProposalRegistered(id);\n\n    //    uint proposalId = loans.length.sub(1);\n    //    borrowers[loanRequestId] = msg.sender;\n    }\n\n    /// @notice Records the addresses of participants\n    /// @dev Copy the array of users to the proxy, Error with Client call in ProxySimple.sol\n    function setEntity() public onlyOwner {\n      address[] memory copyTab = proxy.getAdrClients();\n\n        for(uint i; i < copyTab.length; i++) {\n          address _address = copyTab[i];\n           voters[_address] = Voter(true,false,proxy.getUserDeposits(copyTab[i]),0);\n          }\n          emit EntityRegistered(copyTab);\n        }\n\n\n\n    /// @notice Function to vote, Id 0 for blank vote\n    /// @dev For the moment we only vote once\n    /// @param _proposalId Proxy address\n    function addVote(uint _proposalId) external isRegistred {\n        require(status == WorkflowStatus.VotingSessionStarted,\"Not allowed\");\n        require(!voters[msg.sender].hasVoted, \"Already voted\");\n\n        voters[msg.sender].hasVoted = true;\n        voters[msg.sender].proposalId = _proposalId;\n\n        emit Voted(msg.sender, _proposalId);\n\n        loans[_proposalId].voteCount = loans[_proposalId].voteCount.add(voters[msg.sender].votingPower);\n    }\n\n  //function borrowMode\n\n\n\n    /* function okLoans(uint _loanRequestId) external onlyOwner {\n        //require (borrowOpen == true);\n        require(status == WorkflowStatus.VotingSessionEnded, \"Not allowed\");\n        //require(voteCount>((votingPowerTotal/2),\"pas assez de vote pour vous\");\n\n        uint count;\n<<<<<<< HEAD\n        uint quorum = proxy.totalVotingPower().div(2);\n=======\n      //  uint quorum = ProxySimple(proxySimple).totalVotingPower.div(2);\n>>>>>>> refs/remotes/origin/master\n        for(uint i; i == loans.length; i++) {\n            count = loans[i].voteCount;\n            if( count <= quorum){\n                loans[i].state = true;\n            }\n        }\n\n        emit VotesTallied();\n    } */\n\n    function getWinningProposal() external onlyOwner returns (uint _proposalId) {\n        require(status == WorkflowStatus.VotingSessionEnded, \"Not allowed\");\n            uint winnerVoteCount = 0;\n            uint challenger = 0;\n            for (uint i; i < loans.length; i++) {\n                if (loans[i].voteCount > winnerVoteCount) {\n                    winnerVoteCount = loans[i].voteCount;\n                    _proposalId = i;\n                } else if (loans[i].voteCount == winnerVoteCount) {\n                    challenger = i;\n                }\n            }\n            winningProposalId = _proposalId;\n            if(winnerVoteCount == loans[challenger].voteCount) {\n                 winningProposalId = 0;\n                 receiverAddress = stacking;\n            }\n            emit VotesTallied();\n            receiverAddress = loans[winningProposalId].receiver;\n            return winningProposalId;\n          }\n\n    /// @notice Change the current status\n    /// @dev\n\n    function nextStep() external onlyOwner {\n        WorkflowStatus previousStatus = status;\n\n        if (status == WorkflowStatus.RegisteringEntities) {\n            status = WorkflowStatus.LoanRequestStarted;\n            registerLoanRequest(\"none of following proposals\",stacking);\n            emit ProposalsRegistrationStarted();\n        }\n        else if (status == WorkflowStatus.LoanRequestStarted) {\n            status = WorkflowStatus.LoanRequestEnded;\n            emit ProposalsRegistrationEnded();\n        }\n        else if (status == WorkflowStatus.LoanRequestEnded) {\n            status = WorkflowStatus.VotingSessionStarted;\n            emit VotingSessionStarted();\n        }\n        else if (status == WorkflowStatus.VotingSessionStarted) {\n            status = WorkflowStatus.VotingSessionEnded;\n            emit VotingSessionEnded();\n        }\n        else {\n            status = WorkflowStatus.VotesTallied;\n\n        }\n\n        emit WorkflowStatusChange(previousStatus, status);\n    }\n\n    function getWinningProposalId() external view returns(uint){\n      return winningProposalId;\n    }\n\n    function getReceiverAddress() external view returns(address){\n      return receiverAddress;\n    }\n\n}\n",
  "sourcePath": "/Users/arnauddauber/Desktop/DEXsoFi/solipay/Solipay/contracts/Borrow.sol",
  "compiler": {
    "name": "solc",
    "version": "0.6.11+commit.5ef660b1.Emscripten.clang"
  },
  "schemaVersion": "3.3.4",
  "updatedAt": "2021-05-05T22:16:29.265Z",
  "networkType": "ethereum",
  "devdoc": {
    "details": "The contract can still be improved",
    "kind": "dev",
    "methods": {
      "addVote(uint256)": {
        "details": "For the moment we only vote once",
        "params": {
          "_proposalId": "Proxy address"
        }
      },
      "owner()": {
        "details": "Returns the address of the current owner."
      },
      "registerLoanRequest(string,address)": {
        "params": {
          "_description": "receiver description of the project to fund and it address"
        }
      },
      "renounceOwnership()": {
        "details": "Leaves the contract without owner. It will not be possible to call `onlyOwner` functions anymore. Can only be called by the current owner. NOTE: Renouncing ownership will leave the contract without an owner, thereby removing any functionality that is only available to the owner."
      },
      "setEntity()": {
        "details": "Copy the array of users to the proxy, Error with Client call in ProxySimple.sol"
      },
      "transferOwnership(address)": {
        "details": "Transfers ownership of the contract to a new account (`newOwner`). Can only be called by the current owner."
      }
    },
    "title": "A contract for the management of votes",
    "version": 1
  },
  "userdoc": {
    "kind": "user",
    "methods": {
      "addVote(uint256)": {
        "notice": "Function to vote, Id 0 for blank vote"
      },
      "nextStep()": {
        "notice": "Change the current status"
      },
      "setEntity()": {
        "notice": "Records the addresses of participants"
      }
    },
    "version": 1
  }
}