{
  "contractName": "Loan",
  "abi": [
    {
      "inputs": [
        {
          "internalType": "address",
          "name": "_stacking",
          "type": "address"
        },
        {
          "internalType": "address",
          "name": "_proxySimple",
          "type": "address"
        }
      ],
      "stateMutability": "nonpayable",
      "type": "constructor"
    },
    {
      "anonymous": false,
      "inputs": [
        {
          "indexed": false,
          "internalType": "address",
          "name": "entitiesAddress",
          "type": "address"
        }
      ],
      "name": "EntityRegistered",
      "type": "event"
    },
    {
      "anonymous": false,
      "inputs": [
        {
          "indexed": false,
          "internalType": "uint256",
          "name": "loanRequestId",
          "type": "uint256"
        }
      ],
      "name": "LoanRequestRegistered",
      "type": "event"
    },
    {
      "anonymous": false,
      "inputs": [],
      "name": "LoanRequestRegistrationEnded",
      "type": "event"
    },
    {
      "anonymous": false,
      "inputs": [],
      "name": "LoanRequestRegistrationStarted",
      "type": "event"
    },
    {
      "anonymous": false,
      "inputs": [
        {
          "indexed": true,
          "internalType": "address",
          "name": "previousOwner",
          "type": "address"
        },
        {
          "indexed": true,
          "internalType": "address",
          "name": "newOwner",
          "type": "address"
        }
      ],
      "name": "OwnershipTransferred",
      "type": "event"
    },
    {
      "anonymous": false,
      "inputs": [
        {
          "indexed": false,
          "internalType": "address",
          "name": "entity",
          "type": "address"
        },
        {
          "indexed": false,
          "internalType": "uint256",
          "name": "loanRequestId",
          "type": "uint256"
        }
      ],
      "name": "Voted",
      "type": "event"
    },
    {
      "anonymous": false,
      "inputs": [],
      "name": "VotesTallied",
      "type": "event"
    },
    {
      "anonymous": false,
      "inputs": [],
      "name": "VotingSessionEnded",
      "type": "event"
    },
    {
      "anonymous": false,
      "inputs": [],
      "name": "VotingSessionStarted",
      "type": "event"
    },
    {
      "anonymous": false,
      "inputs": [
        {
          "indexed": false,
          "internalType": "enum Loan.WorkflowStatus",
          "name": "previousStatus",
          "type": "uint8"
        },
        {
          "indexed": false,
          "internalType": "enum Loan.WorkflowStatus",
          "name": "newStatus",
          "type": "uint8"
        }
      ],
      "name": "WorkflowStatusChange",
      "type": "event"
    },
    {
      "inputs": [
        {
          "internalType": "uint256",
          "name": "",
          "type": "uint256"
        }
      ],
      "name": "loans",
      "outputs": [
        {
          "internalType": "string",
          "name": "description",
          "type": "string"
        },
        {
          "internalType": "uint256",
          "name": "voteCount",
          "type": "uint256"
        },
        {
          "internalType": "address",
          "name": "receiver",
          "type": "address"
        }
      ],
      "stateMutability": "view",
      "type": "function"
    },
    {
      "inputs": [],
      "name": "owner",
      "outputs": [
        {
          "internalType": "address",
          "name": "",
          "type": "address"
        }
      ],
      "stateMutability": "view",
      "type": "function"
    },
    {
      "inputs": [],
      "name": "proxySimple",
      "outputs": [
        {
          "internalType": "address",
          "name": "",
          "type": "address"
        }
      ],
      "stateMutability": "view",
      "type": "function"
    },
    {
      "inputs": [],
      "name": "renounceOwnership",
      "outputs": [],
      "stateMutability": "nonpayable",
      "type": "function"
    },
    {
      "inputs": [],
      "name": "stacking",
      "outputs": [
        {
          "internalType": "address",
          "name": "",
          "type": "address"
        }
      ],
      "stateMutability": "view",
      "type": "function"
    },
    {
      "inputs": [],
      "name": "status",
      "outputs": [
        {
          "internalType": "enum Loan.WorkflowStatus",
          "name": "",
          "type": "uint8"
        }
      ],
      "stateMutability": "view",
      "type": "function"
    },
    {
      "inputs": [
        {
          "internalType": "address",
          "name": "newOwner",
          "type": "address"
        }
      ],
      "name": "transferOwnership",
      "outputs": [],
      "stateMutability": "nonpayable",
      "type": "function"
    },
    {
      "inputs": [
        {
          "internalType": "address",
          "name": "",
          "type": "address"
        }
      ],
      "name": "voters",
      "outputs": [
        {
          "internalType": "bool",
          "name": "isRegistered",
          "type": "bool"
        },
        {
          "internalType": "bool",
          "name": "hasVoted",
          "type": "bool"
        },
        {
          "internalType": "uint256",
          "name": "votingPower",
          "type": "uint256"
        },
        {
          "internalType": "uint256",
          "name": "proposalId",
          "type": "uint256"
        }
      ],
      "stateMutability": "view",
      "type": "function"
    },
    {
      "inputs": [
        {
          "internalType": "uint256",
          "name": "",
          "type": "uint256"
        }
      ],
      "name": "votes",
      "outputs": [
        {
          "internalType": "bool",
          "name": "isRegistered",
          "type": "bool"
        },
        {
          "internalType": "bool",
          "name": "hasVoted",
          "type": "bool"
        },
        {
          "internalType": "uint256",
          "name": "votingPower",
          "type": "uint256"
        },
        {
          "internalType": "uint256",
          "name": "proposalId",
          "type": "uint256"
        }
      ],
      "stateMutability": "view",
      "type": "function"
    },
    {
      "inputs": [
        {
          "internalType": "string",
          "name": "_description",
          "type": "string"
        },
        {
          "internalType": "address",
          "name": "receiver",
          "type": "address"
        }
      ],
      "name": "registerLoanRequest",
      "outputs": [],
      "stateMutability": "nonpayable",
      "type": "function"
    },
    {
      "inputs": [
        {
          "internalType": "address",
          "name": "_addr",
          "type": "address"
        }
      ],
      "name": "setEntity",
      "outputs": [],
      "stateMutability": "nonpayable",
      "type": "function"
    },
    {
      "inputs": [
        {
          "internalType": "uint256",
          "name": "_proposalId",
          "type": "uint256"
        }
      ],
      "name": "vote",
      "outputs": [],
      "stateMutability": "nonpayable",
      "type": "function"
    },
    {
      "inputs": [],
      "name": "changeToNextStatus",
      "outputs": [],
      "stateMutability": "nonpayable",
      "type": "function"
    },
    {
      "inputs": [],
      "name": "setWiningAddress",
      "outputs": [],
      "stateMutability": "nonpayable",
      "type": "function"
    }
  ],
  "bytecode": "0x60806040523480156200001157600080fd5b506040516200203f3803806200203f833981810160405281019062000037919062000248565b6000620000496200020060201b60201c565b9050806000806101000a81548173ffffffffffffffffffffffffffffffffffffffff021916908373ffffffffffffffffffffffffffffffffffffffff1602179055508073ffffffffffffffffffffffffffffffffffffffff16600073ffffffffffffffffffffffffffffffffffffffff167f8be0079c531659141344cd1fd0a4f28419497f9722a3daafe3b4186f6b6457e060405160405180910390a350620000f76200020060201b60201c565b73ffffffffffffffffffffffffffffffffffffffff166200011d6200020860201b60201c565b73ffffffffffffffffffffffffffffffffffffffff161462000176576040517f08c379a00000000000000000000000000000000000000000000000000000000081526004016200016d90620002cb565b60405180910390fd5b81600260006101000a81548173ffffffffffffffffffffffffffffffffffffffff021916908373ffffffffffffffffffffffffffffffffffffffff16021790555080600160006101000a81548173ffffffffffffffffffffffffffffffffffffffff021916908373ffffffffffffffffffffffffffffffffffffffff16021790555050506200034c565b600033905090565b60008060009054906101000a900473ffffffffffffffffffffffffffffffffffffffff16905090565b600081519050620002428162000332565b92915050565b600080604083850312156200025c57600080fd5b60006200026c8582860162000231565b92505060206200027f8582860162000231565b9150509250929050565b600062000298602083620002ed565b91507f4f776e61626c653a2063616c6c6572206973206e6f7420746865206f776e65726000830152602082019050919050565b60006020820190508181036000830152620002e68162000289565b9050919050565b600082825260208201905092915050565b60006200030b8262000312565b9050919050565b600073ffffffffffffffffffffffffffffffffffffffff82169050919050565b6200033d81620002fe565b81146200034957600080fd5b50565b611ce3806200035c6000396000f3fe608060405234801561001057600080fd5b50600436106100ea5760003560e01c80639c4e4d501161008c578063bf69bb8611610066578063bf69bb8614610205578063c62bfd8f14610221578063e1ec3c681461023f578063f2fde38b14610271576100ea565b80639c4e4d5014610198578063a3ec138d146101b4578063b3cc6bee146101e7576100ea565b806347da0bb2116100c857806347da0bb2146101335780635df813301461013d578063715018a6146101705780638da5cb5b1461017a576100ea565b80630121b93f146100ef578063200d2ed21461010b5780633fcba4eb14610129575b600080fd5b61010960048036038101906101049190611698565b61028d565b005b610113610587565b604051610120919061199d565b60405180910390f35b61013161059a565b005b61013b610859565b005b61015760048036038101906101529190611698565b610989565b6040516101679493929190611958565b60405180910390f35b6101786109e0565b005b610182610b1b565b60405161018f9190611914565b60405180910390f35b6101b260048036038101906101ad9190611644565b610b44565b005b6101ce60048036038101906101c991906115da565b610d94565b6040516101de9493929190611958565b60405180910390f35b6101ef610dde565b6040516101fc9190611914565b60405180910390f35b61021f600480360381019061021a91906115da565b610e04565b005b6102296110b7565b6040516102369190611914565b60405180910390f35b61025960048036038101906102549190611698565b6110dd565b604051610268939291906119e1565b60405180910390f35b61028b600480360381019061028691906115da565b6111cc565b005b6003600581111561029a57fe5b600060149054906101000a900460ff1660058111156102b557fe5b146102f5576040517f08c379a00000000000000000000000000000000000000000000000000000000081526004016102ec90611a9f565b60405180910390fd5b600660003373ffffffffffffffffffffffffffffffffffffffff1673ffffffffffffffffffffffffffffffffffffffff16815260200190815260200160002060000160009054906101000a900460ff16610384576040517f08c379a000000000000000000000000000000000000000000000000000000000815260040161037b90611a1f565b60405180910390fd5b600660003373ffffffffffffffffffffffffffffffffffffffff1673ffffffffffffffffffffffffffffffffffffffff16815260200190815260200160002060000160019054906101000a900460ff1615610414576040517f08c379a000000000000000000000000000000000000000000000000000000000815260040161040b90611a7f565b60405180910390fd5b6001600660003373ffffffffffffffffffffffffffffffffffffffff1673ffffffffffffffffffffffffffffffffffffffff16815260200190815260200160002060000160016101000a81548160ff02191690831515021790555080600660003373ffffffffffffffffffffffffffffffffffffffff1673ffffffffffffffffffffffffffffffffffffffff168152602001908152602001600020600201819055507f4d99b957a2bc29a30ebd96a7be8e68fe50a3c701db28a91436490b7d53870ca433826040516104e792919061192f565b60405180910390a1610562600660003373ffffffffffffffffffffffffffffffffffffffff1673ffffffffffffffffffffffffffffffffffffffff168152602001908152602001600020600101546008838154811061054257fe5b90600052602060002090600302016001015461137690919063ffffffff16565b6008828154811061056f57fe5b90600052602060002090600302016001018190555050565b600060149054906101000a900460ff1681565b6105a26113cb565b73ffffffffffffffffffffffffffffffffffffffff166105c0610b1b565b73ffffffffffffffffffffffffffffffffffffffff1614610616576040517f08c379a000000000000000000000000000000000000000000000000000000000815260040161060d90611abf565b60405180910390fd5b60008060149054906101000a900460ff1690506000600581111561063657fe5b600060149054906101000a900460ff16600581111561065157fe5b14156106e1576001600060146101000a81548160ff0219169083600581111561067657fe5b02179055506106dc6040518060400160405280601b81526020017f6e6f6e65206f6620666f6c6c6f77696e672070726f706f73616c730000000000815250600260009054906101000a900473ffffffffffffffffffffffffffffffffffffffff16610b44565b61080e565b600160058111156106ee57fe5b600060149054906101000a900460ff16600581111561070957fe5b1415610738576002600060146101000a81548160ff0219169083600581111561072e57fe5b021790555061080d565b6002600581111561074557fe5b600060149054906101000a900460ff16600581111561076057fe5b141561078f576003600060146101000a81548160ff0219169083600581111561078557fe5b021790555061080c565b6003600581111561079c57fe5b600060149054906101000a900460ff1660058111156107b757fe5b14156107e6576004600060146101000a81548160ff021916908360058111156107dc57fe5b021790555061080b565b6005600060146101000a81548160ff0219169083600581111561080557fe5b02179055505b5b5b5b7f0a97a4ee45751e2abf3e4fc8946939630b11b371ea8ae39ccdc3056e98f5cc3f81600060149054906101000a900460ff1660405161084e9291906119b8565b60405180910390a150565b6108616113cb565b73ffffffffffffffffffffffffffffffffffffffff1661087f610b1b565b73ffffffffffffffffffffffffffffffffffffffff16146108d5576040517f08c379a00000000000000000000000000000000000000000000000000000000081526004016108cc90611abf565b60405180910390fd5b6005808111156108e157fe5b600060149054906101000a900460ff1660058111156108fc57fe5b1461090657600080fd5b60086004548154811061091557fe5b906000526020600020906003020160020160009054906101000a900473ffffffffffffffffffffffffffffffffffffffff16600560006101000a81548173ffffffffffffffffffffffffffffffffffffffff021916908373ffffffffffffffffffffffffffffffffffffffff160217905550565b6007818154811061099657fe5b90600052602060002090600302016000915090508060000160009054906101000a900460ff16908060000160019054906101000a900460ff16908060010154908060020154905084565b6109e86113cb565b73ffffffffffffffffffffffffffffffffffffffff16610a06610b1b565b73ffffffffffffffffffffffffffffffffffffffff1614610a5c576040517f08c379a0000000000000000000000000000000000000000000000000000000008152600401610a5390611abf565b60405180910390fd5b600073ffffffffffffffffffffffffffffffffffffffff166000809054906101000a900473ffffffffffffffffffffffffffffffffffffffff1673ffffffffffffffffffffffffffffffffffffffff167f8be0079c531659141344cd1fd0a4f28419497f9722a3daafe3b4186f6b6457e060405160405180910390a360008060006101000a81548173ffffffffffffffffffffffffffffffffffffffff021916908373ffffffffffffffffffffffffffffffffffffffff160217905550565b60008060009054906101000a900473ffffffffffffffffffffffffffffffffffffffff16905090565b610b4c6113cb565b73ffffffffffffffffffffffffffffffffffffffff16610b6a610b1b565b73ffffffffffffffffffffffffffffffffffffffff1614610bc0576040517f08c379a0000000000000000000000000000000000000000000000000000000008152600401610bb790611abf565b60405180910390fd5b60016005811115610bcd57fe5b600060149054906101000a900460ff166005811115610be857fe5b14610c28576040517f08c379a0000000000000000000000000000000000000000000000000000000008152600401610c1f90611a9f565b60405180910390fd5b600660003373ffffffffffffffffffffffffffffffffffffffff1673ffffffffffffffffffffffffffffffffffffffff16815260200190815260200160002060000160009054906101000a900460ff16610cb7576040517f08c379a0000000000000000000000000000000000000000000000000000000008152600401610cae90611a1f565b60405180910390fd5b610cbf6113d3565b6040518060600160405280848152602001600081526020018373ffffffffffffffffffffffffffffffffffffffff16815250905060088190806001815401808255809150506001900390600052602060002090600302016000909190919091506000820151816000019080519060200190610d3b92919061140a565b506020820151816001015560408201518160020160006101000a81548173ffffffffffffffffffffffffffffffffffffffff021916908373ffffffffffffffffffffffffffffffffffffffff1602179055505050505050565b60066020528060005260406000206000915090508060000160009054906101000a900460ff16908060000160019054906101000a900460ff16908060010154908060020154905084565b600360009054906101000a900473ffffffffffffffffffffffffffffffffffffffff1681565b610e0c6113cb565b73ffffffffffffffffffffffffffffffffffffffff16610e2a610b1b565b73ffffffffffffffffffffffffffffffffffffffff1614610e80576040517f08c379a0000000000000000000000000000000000000000000000000000000008152600401610e7790611abf565b60405180910390fd5b6060600160009054906101000a900473ffffffffffffffffffffffffffffffffffffffff1673ffffffffffffffffffffffffffffffffffffffff16636c8751a86040518163ffffffff1660e01b815260040160006040518083038186803b158015610eea57600080fd5b505afa158015610efe573d6000803e3d6000fd5b505050506040513d6000823e3d601f19601f82011682018060405250810190610f279190611603565b905060005b81518114156110b2576040518060800160405280600115158152602001600015158152602001600160009054906101000a900473ffffffffffffffffffffffffffffffffffffffff1673ffffffffffffffffffffffffffffffffffffffff16632a5bf6d2858581518110610f9c57fe5b60200260200101516040518263ffffffff1660e01b8152600401610fc09190611914565b60206040518083038186803b158015610fd857600080fd5b505afa158015610fec573d6000803e3d6000fd5b505050506040513d601f19601f8201168201806040525081019061101091906116c1565b815260200160008152506007828154811061102757fe5b906000526020600020906003020160008201518160000160006101000a81548160ff02191690831515021790555060208201518160000160016101000a81548160ff0219169083151502179055506040820151816001015560608201518160020155905050600082828151811061109a57fe5b60200260200101519050508080600101915050610f2c565b505050565b600260009054906101000a900473ffffffffffffffffffffffffffffffffffffffff1681565b600881815481106110ea57fe5b9060005260206000209060030201600091509050806000018054600181600116156101000203166002900480601f0160208091040260200160405190810160405280929190818152602001828054600181600116156101000203166002900480156111965780601f1061116b57610100808354040283529160200191611196565b820191906000526020600020905b81548152906001019060200180831161117957829003601f168201915b5050505050908060010154908060020160009054906101000a900473ffffffffffffffffffffffffffffffffffffffff16905083565b6111d46113cb565b73ffffffffffffffffffffffffffffffffffffffff166111f2610b1b565b73ffffffffffffffffffffffffffffffffffffffff1614611248576040517f08c379a000000000000000000000000000000000000000000000000000000000815260040161123f90611abf565b60405180910390fd5b600073ffffffffffffffffffffffffffffffffffffffff168173ffffffffffffffffffffffffffffffffffffffff1614156112b8576040517f08c379a00000000000000000000000000000000000000000000000000000000081526004016112af90611a3f565b60405180910390fd5b8073ffffffffffffffffffffffffffffffffffffffff166000809054906101000a900473ffffffffffffffffffffffffffffffffffffffff1673ffffffffffffffffffffffffffffffffffffffff167f8be0079c531659141344cd1fd0a4f28419497f9722a3daafe3b4186f6b6457e060405160405180910390a3806000806101000a81548173ffffffffffffffffffffffffffffffffffffffff021916908373ffffffffffffffffffffffffffffffffffffffff16021790555050565b6000808284019050838110156113c1576040517f08c379a00000000000000000000000000000000000000000000000000000000081526004016113b890611a5f565b60405180910390fd5b8091505092915050565b600033905090565b60405180606001604052806060815260200160008152602001600073ffffffffffffffffffffffffffffffffffffffff1681525090565b828054600181600116156101000203166002900490600052602060002090601f016020900481019282601f1061144b57805160ff1916838001178555611479565b82800160010185558215611479579182015b8281111561147857825182559160200191906001019061145d565b5b509050611486919061148a565b5090565b6114ac91905b808211156114a8576000816000905550600101611490565b5090565b90565b6000813590506114be81611c7f565b92915050565b6000815190506114d381611c7f565b92915050565b600082601f8301126114ea57600080fd5b81516114fd6114f882611b0c565b611adf565b9150818183526020840193506020810190508385602084028201111561152257600080fd5b60005b83811015611552578161153888826114c4565b845260208401935060208301925050600181019050611525565b5050505092915050565b600082601f83011261156d57600080fd5b813561158061157b82611b34565b611adf565b9150808252602083016020830185838301111561159c57600080fd5b6115a7838284611c1f565b50505092915050565b6000813590506115bf81611c96565b92915050565b6000815190506115d481611c96565b92915050565b6000602082840312156115ec57600080fd5b60006115fa848285016114af565b91505092915050565b60006020828403121561161557600080fd5b600082015167ffffffffffffffff81111561162f57600080fd5b61163b848285016114d9565b91505092915050565b6000806040838503121561165757600080fd5b600083013567ffffffffffffffff81111561167157600080fd5b61167d8582860161155c565b925050602061168e858286016114af565b9150509250929050565b6000602082840312156116aa57600080fd5b60006116b8848285016115b0565b91505092915050565b6000602082840312156116d357600080fd5b60006116e1848285016115c5565b91505092915050565b6116f381611bd7565b82525050565b61170281611b7c565b82525050565b61171181611b8e565b82525050565b61172081611be9565b82525050565b600061173182611b60565b61173b8185611b6b565b935061174b818560208601611c2e565b61175481611c61565b840191505092915050565b600061176c601583611b6b565b91507f596f7520617265206e6f742072656769737472656400000000000000000000006000830152602082019050919050565b60006117ac602683611b6b565b91507f4f776e61626c653a206e6577206f776e657220697320746865207a65726f206160008301527f64647265737300000000000000000000000000000000000000000000000000006020830152604082019050919050565b6000611812601b83611b6b565b91507f536166654d6174683a206164646974696f6e206f766572666c6f7700000000006000830152602082019050919050565b6000611852600d83611b6b565b91507f416c726561647920766f746564000000000000000000000000000000000000006000830152602082019050919050565b6000611892600b83611b6b565b91507f4e6f7420616c6c6f7765640000000000000000000000000000000000000000006000830152602082019050919050565b60006118d2602083611b6b565b91507f4f776e61626c653a2063616c6c6572206973206e6f7420746865206f776e65726000830152602082019050919050565b61190e81611bcd565b82525050565b600060208201905061192960008301846116f9565b92915050565b600060408201905061194460008301856116ea565b6119516020830184611905565b9392505050565b600060808201905061196d6000830187611708565b61197a6020830186611708565b6119876040830185611905565b6119946060830184611905565b95945050505050565b60006020820190506119b26000830184611717565b92915050565b60006040820190506119cd6000830185611717565b6119da6020830184611717565b9392505050565b600060608201905081810360008301526119fb8186611726565b9050611a0a6020830185611905565b611a1760408301846116f9565b949350505050565b60006020820190508181036000830152611a388161175f565b9050919050565b60006020820190508181036000830152611a588161179f565b9050919050565b60006020820190508181036000830152611a7881611805565b9050919050565b60006020820190508181036000830152611a9881611845565b9050919050565b60006020820190508181036000830152611ab881611885565b9050919050565b60006020820190508181036000830152611ad8816118c5565b9050919050565b6000604051905081810181811067ffffffffffffffff82111715611b0257600080fd5b8060405250919050565b600067ffffffffffffffff821115611b2357600080fd5b602082029050602081019050919050565b600067ffffffffffffffff821115611b4b57600080fd5b601f19601f8301169050602081019050919050565b600081519050919050565b600082825260208201905092915050565b6000611b8782611bad565b9050919050565b60008115159050919050565b6000819050611ba882611c72565b919050565b600073ffffffffffffffffffffffffffffffffffffffff82169050919050565b6000819050919050565b6000611be282611bfb565b9050919050565b6000611bf482611b9a565b9050919050565b6000611c0682611c0d565b9050919050565b6000611c1882611bad565b9050919050565b82818337600083830152505050565b60005b83811015611c4c578082015181840152602081019050611c31565b83811115611c5b576000848401525b50505050565b6000601f19601f8301169050919050565b60068110611c7c57fe5b50565b611c8881611b7c565b8114611c9357600080fd5b50565b611c9f81611bcd565b8114611caa57600080fd5b5056fea2646970667358221220f2d6dd832a9f14273070815f669724140aa8d9ef0eb3e1588c698905d8852f1264736f6c634300060b0033",
  "immutableReferences": {},
  "source": "// SPDX-License-Identifier: MIT\npragma solidity 0.6.11;\npragma experimental ABIEncoderV2;\nimport \"@openzeppelin/contracts/access/Ownable.sol\";\nimport \"@openzeppelin/contracts/math/SafeMath.sol\";\nimport \"./interfaces/IProxy.sol\";\n\n/// @title A contract for the management of votes\n/// @dev The contract can still be improved\ncontract Loan is Ownable{\n    using SafeMath for uint;\n\n\n//Enum\n    enum WorkflowStatus {\n        RegisteringEntities,\n        LoanRequestStarted,\n        LoanRequestEnded,\n        VotingSessionStarted,\n        VotingSessionEnded,\n        VotesTallied\n    }\n\n//Struct\n    struct Voter {\n        bool isRegistered;\n        bool hasVoted;\n        uint votingPower;\n        uint proposalId;\n    }\n\n\n    struct LoanRequest {\n        string description;\n        uint voteCount;\n        address receiver;\n  //      uint amountRequest;\n  //      bool state;\n    }\n\n//Variable\n    /* uint numberOfLoanRequest;\n    uint numberOfEntity; */\n//    bool borrowOpen;\n    WorkflowStatus public status;\n    IProxy proxy;\n    address public stacking;\n    address public proxySimple;\n    uint winningProposalId;\n    address receiverAddress;\n\n\n//Mapping\n    mapping(address => Voter) public voters;\n    /* mapping(address => uint) public debts;\n    mapping(uint => address) public borrowers; // LoanRequest est un struct */\n\n//Tableau\n    Voter[] public votes;\n    LoanRequest[] public loans;\n\n//Event\n    event EntityRegistered(address entitiesAddress);\n    event LoanRequestRegistrationStarted();\n    event LoanRequestRegistrationEnded();\n    event LoanRequestRegistered(uint loanRequestId);\n    event VotingSessionStarted();\n    event VotingSessionEnded();\n    event Voted (address entity, uint loanRequestId);\n    event VotesTallied();\n    event WorkflowStatusChange(WorkflowStatus previousStatus, WorkflowStatus newStatus);\n\n\n//Constructor\n    constructor(address _stacking, address _proxySimple) public onlyOwner{\n        stacking=_stacking;\n        proxy = IProxy(_proxySimple);\n\n    }\n\n\n//Function\n\n\n\n    /// @param _description receiver description of the project to fund and it address\n    function registerLoanRequest(string memory _description, address receiver) public onlyOwner {\n\n\n        require(status == WorkflowStatus.LoanRequestStarted, \"Not allowed\");\n        require(voters[msg.sender].isRegistered,\"You are not registred\");\n\n        LoanRequest memory loanR = LoanRequest(_description, 0, receiver);\n        loans.push(loanR);\n\n    //    uint proposalId = loans.length.sub(1);\n    //    borrowers[loanRequestId] = msg.sender;\n    }\n\n    /// @notice Records the addresses of participants\n    /// @dev Copy the array of users to the proxy, Error with Client call in ProxySimple.sol\n    /// @param _addr proxy address\n    function setEntity(address _addr) public onlyOwner {\n      address[] memory copyTab = proxy.getAdrClients();\n\n        for(uint i; i == copyTab.length; i++) {\n           votes[i] = Voter(true,false,proxy.getUserDeposits(copyTab[i]),0);\n            address voterAddr = copyTab[i];\n\n          }\n        }\n\n\n\n    /// @notice Function to vote, Id 0 for blank vote\n    /// @dev For the moment we only vote once\n    /// @param _proposalId Proxy address\n    function vote(uint _proposalId) external {\n        require(status == WorkflowStatus.VotingSessionStarted, \"Not allowed\");\n        require(voters[msg.sender].isRegistered,\"You are not registred\");\n        require(!voters[msg.sender].hasVoted, \"Already voted\");\n\n        voters[msg.sender].hasVoted = true;\n        voters[msg.sender].proposalId = _proposalId;\n\n        emit Voted(msg.sender, _proposalId);\n\n        loans[_proposalId].voteCount = loans[_proposalId].voteCount.add(voters[msg.sender].votingPower);\n    }\n\n  //function borrowMode\n\n\n\n    /* function okLoans(uint _loanRequestId) external onlyOwner {\n        //require (borrowOpen == true);\n        require(status == WorkflowStatus.VotingSessionEnded, \"Not allowed\");\n        //require(voteCount>((votingPowerTotal/2),\"pas assez de vote pour vous\");\n\n        uint count;\n<<<<<<< HEAD\n        uint quorum = proxy.totalVotingPower().div(2);\n=======\n      //  uint quorum = ProxySimple(proxySimple).totalVotingPower.div(2);\n>>>>>>> refs/remotes/origin/master\n        for(uint i; i == loans.length; i++) {\n            count = loans[i].voteCount;\n            if( count <= quorum){\n                loans[i].state = true;\n            }\n        }\n\n        emit VotesTallied();\n    } */\n\n    function getWinningProposal() private onlyOwner returns (uint _proposalId) {\n        require(status == WorkflowStatus.VotingSessionEnded);\n            uint winnerVoteCount = 0;\n            uint challenger = 0;\n            for (uint i = 0; i < loans.length; i++) {\n                if (loans[i].voteCount > winnerVoteCount) {\n                    winnerVoteCount = loans[i].voteCount;\n                    _proposalId = i;\n                } else if (loans[i].voteCount == winnerVoteCount) {\n                    challenger = i;\n                }\n            }\n            winningProposalId = _proposalId;\n            if(winnerVoteCount == loans[challenger].voteCount) {\n                 winningProposalId = 0;\n            }\n            emit VotesTallied();\n            return winningProposalId;\n          }\n\n    /// @notice Change the current status\n    /// @dev\n\n    function changeToNextStatus() external onlyOwner {\n        WorkflowStatus previousStatus = status;\n\n        if (status == WorkflowStatus.RegisteringEntities) {\n            status = WorkflowStatus.LoanRequestStarted;\n            registerLoanRequest(\"none of following proposals\",stacking);\n        }\n        else if (status == WorkflowStatus.LoanRequestStarted) {\n            status = WorkflowStatus.LoanRequestEnded;\n        }\n        else if (status == WorkflowStatus.LoanRequestEnded) {\n            status = WorkflowStatus.VotingSessionStarted;\n        }\n        else if (status == WorkflowStatus.VotingSessionStarted) {\n            status = WorkflowStatus.VotingSessionEnded;\n        }\n        else {\n            status = WorkflowStatus.VotesTallied;\n        }\n\n        emit WorkflowStatusChange(previousStatus, status);\n    }\n\n\n    function setWiningAddress() external onlyOwner {\n      require(status == WorkflowStatus.VotesTallied);\n      receiverAddress = loans[winningProposalId].receiver;\n    }\n\n}\n",
  "sourcePath": "/Users/hamzamessaoudi/Desktop/Solipay-master/contracts/Borrow.sol",
  "compiler": {
    "name": "solc",
    "version": "0.6.11+commit.5ef660b1.Emscripten.clang"
  },
  "schemaVersion": "3.3.4",
  "updatedAt": "2021-04-28T13:11:33.659Z",
  "devdoc": {
    "details": "The contract can still be improved",
    "kind": "dev",
    "methods": {
      "owner()": {
        "details": "Returns the address of the current owner."
      },
      "registerLoanRequest(string,address)": {
        "params": {
          "_description": "receiver description of the project to fund and it address"
        }
      },
      "renounceOwnership()": {
        "details": "Leaves the contract without owner. It will not be possible to call `onlyOwner` functions anymore. Can only be called by the current owner. NOTE: Renouncing ownership will leave the contract without an owner, thereby removing any functionality that is only available to the owner."
      },
      "setEntity(address)": {
        "details": "Copy the array of users to the proxy, Error with Client call in ProxySimple.sol",
        "params": {
          "_addr": "proxy address"
        }
      },
      "transferOwnership(address)": {
        "details": "Transfers ownership of the contract to a new account (`newOwner`). Can only be called by the current owner."
      },
      "vote(uint256)": {
        "details": "For the moment we only vote once",
        "params": {
          "_proposalId": "Proxy address"
        }
      }
    },
    "title": "A contract for the management of votes",
    "version": 1
  },
  "userdoc": {
    "kind": "user",
    "methods": {
      "changeToNextStatus()": {
        "notice": "Change the current status"
      },
      "setEntity(address)": {
        "notice": "Records the addresses of participants"
      },
      "vote(uint256)": {
        "notice": "Function to vote, Id 0 for blank vote"
      }
    },
    "version": 1
  }
}