{
  "contractName": "Loan",
  "abi": [
    {
      "anonymous": false,
      "inputs": [
        {
          "indexed": false,
          "internalType": "address",
          "name": "entitiesAddress",
          "type": "address"
        }
      ],
      "name": "EntityRegistered",
      "type": "event"
    },
    {
      "anonymous": false,
      "inputs": [
        {
          "indexed": false,
          "internalType": "uint256",
          "name": "loanRequestId",
          "type": "uint256"
        }
      ],
      "name": "LoanRequestRegistered",
      "type": "event"
    },
    {
      "anonymous": false,
      "inputs": [],
      "name": "LoanRequestRegistrationEnded",
      "type": "event"
    },
    {
      "anonymous": false,
      "inputs": [],
      "name": "LoanRequestRegistrationStarted",
      "type": "event"
    },
    {
      "anonymous": false,
      "inputs": [
        {
          "indexed": true,
          "internalType": "address",
          "name": "previousOwner",
          "type": "address"
        },
        {
          "indexed": true,
          "internalType": "address",
          "name": "newOwner",
          "type": "address"
        }
      ],
      "name": "OwnershipTransferred",
      "type": "event"
    },
    {
      "anonymous": false,
      "inputs": [
        {
          "indexed": false,
          "internalType": "address",
          "name": "entity",
          "type": "address"
        },
        {
          "indexed": false,
          "internalType": "uint256",
          "name": "loanRequestId",
          "type": "uint256"
        }
      ],
      "name": "Voted",
      "type": "event"
    },
    {
      "anonymous": false,
      "inputs": [],
      "name": "VotesTallied",
      "type": "event"
    },
    {
      "anonymous": false,
      "inputs": [],
      "name": "VotingSessionEnded",
      "type": "event"
    },
    {
      "anonymous": false,
      "inputs": [],
      "name": "VotingSessionStarted",
      "type": "event"
    },
    {
      "anonymous": false,
      "inputs": [
        {
          "indexed": false,
          "internalType": "enum Loan.WorkflowStatus",
          "name": "previousStatus",
          "type": "uint8"
        },
        {
          "indexed": false,
          "internalType": "enum Loan.WorkflowStatus",
          "name": "newStatus",
          "type": "uint8"
        }
      ],
      "name": "WorkflowStatusChange",
      "type": "event"
    },
    {
      "anonymous": false,
      "inputs": [
        {
          "indexed": false,
          "internalType": "address",
          "name": "client",
          "type": "address"
        },
        {
          "indexed": false,
          "internalType": "uint256",
          "name": "amount",
          "type": "uint256"
        }
      ],
      "name": "authorizedWithdrawal",
      "type": "event"
    },
    {
      "anonymous": false,
      "inputs": [
        {
          "indexed": false,
          "internalType": "address",
          "name": "client",
          "type": "address"
        },
        {
          "indexed": false,
          "internalType": "uint256",
          "name": "amount",
          "type": "uint256"
        }
      ],
      "name": "valideDepot",
      "type": "event"
    },
    {
      "inputs": [
        {
          "internalType": "address",
          "name": "",
          "type": "address"
        }
      ],
      "name": "User",
      "outputs": [
        {
          "internalType": "bool",
          "name": "lister",
          "type": "bool"
        },
        {
          "internalType": "uint256",
          "name": "dayLock",
          "type": "uint256"
        },
        {
          "internalType": "uint256",
          "name": "amount",
          "type": "uint256"
        },
        {
          "internalType": "uint256",
          "name": "depositData",
          "type": "uint256"
        },
        {
          "internalType": "uint256",
          "name": "withdrawalPending",
          "type": "uint256"
        }
      ],
      "stateMutability": "view",
      "type": "function"
    },
    {
      "inputs": [
        {
          "internalType": "contract IERC20",
          "name": "_address",
          "type": "address"
        }
      ],
      "name": "Withdraw",
      "outputs": [],
      "stateMutability": "payable",
      "type": "function"
    },
    {
      "inputs": [
        {
          "internalType": "uint256",
          "name": "",
          "type": "uint256"
        }
      ],
      "name": "backToUser",
      "outputs": [
        {
          "internalType": "address",
          "name": "",
          "type": "address"
        }
      ],
      "stateMutability": "view",
      "type": "function"
    },
    {
      "inputs": [
        {
          "internalType": "uint256",
          "name": "",
          "type": "uint256"
        }
      ],
      "name": "borrowers",
      "outputs": [
        {
          "internalType": "address",
          "name": "",
          "type": "address"
        }
      ],
      "stateMutability": "view",
      "type": "function"
    },
    {
      "inputs": [
        {
          "internalType": "uint256",
          "name": "",
          "type": "uint256"
        }
      ],
      "name": "clients",
      "outputs": [
        {
          "internalType": "bool",
          "name": "lister",
          "type": "bool"
        },
        {
          "internalType": "uint256",
          "name": "dayLock",
          "type": "uint256"
        },
        {
          "internalType": "uint256",
          "name": "amount",
          "type": "uint256"
        },
        {
          "internalType": "uint256",
          "name": "depositData",
          "type": "uint256"
        },
        {
          "internalType": "uint256",
          "name": "withdrawalPending",
          "type": "uint256"
        }
      ],
      "stateMutability": "view",
      "type": "function"
    },
    {
      "inputs": [
        {
          "internalType": "address",
          "name": "",
          "type": "address"
        }
      ],
      "name": "debts",
      "outputs": [
        {
          "internalType": "uint256",
          "name": "",
          "type": "uint256"
        }
      ],
      "stateMutability": "view",
      "type": "function"
    },
    {
      "inputs": [
        {
          "internalType": "uint256",
          "name": "nb_dayLock",
          "type": "uint256"
        },
        {
          "internalType": "uint256",
          "name": "amount",
          "type": "uint256"
        }
      ],
      "name": "deposite",
      "outputs": [],
      "stateMutability": "payable",
      "type": "function"
    },
    {
      "inputs": [],
      "name": "getClients",
      "outputs": [
        {
          "components": [
            {
              "internalType": "bool",
              "name": "lister",
              "type": "bool"
            },
            {
              "internalType": "uint256",
              "name": "dayLock",
              "type": "uint256"
            },
            {
              "internalType": "uint256",
              "name": "amount",
              "type": "uint256"
            },
            {
              "internalType": "uint256",
              "name": "depositData",
              "type": "uint256"
            },
            {
              "internalType": "uint256",
              "name": "withdrawalPending",
              "type": "uint256"
            }
          ],
          "internalType": "struct ProxySimple.Client[]",
          "name": "",
          "type": "tuple[]"
        }
      ],
      "stateMutability": "view",
      "type": "function"
    },
    {
      "inputs": [
        {
          "internalType": "uint256",
          "name": "",
          "type": "uint256"
        }
      ],
      "name": "loans",
      "outputs": [
        {
          "internalType": "string",
          "name": "description",
          "type": "string"
        },
        {
          "internalType": "uint256",
          "name": "voteCount",
          "type": "uint256"
        },
        {
          "internalType": "uint256",
          "name": "amountRequest",
          "type": "uint256"
        },
        {
          "internalType": "bool",
          "name": "state",
          "type": "bool"
        }
      ],
      "stateMutability": "view",
      "type": "function"
    },
    {
      "inputs": [],
      "name": "owner",
      "outputs": [
        {
          "internalType": "address",
          "name": "",
          "type": "address"
        }
      ],
      "stateMutability": "view",
      "type": "function"
    },
    {
      "inputs": [],
      "name": "renounceOwnership",
      "outputs": [],
      "stateMutability": "nonpayable",
      "type": "function"
    },
    {
      "inputs": [],
      "name": "status",
      "outputs": [
        {
          "internalType": "enum Loan.WorkflowStatus",
          "name": "",
          "type": "uint8"
        }
      ],
      "stateMutability": "view",
      "type": "function"
    },
    {
      "inputs": [
        {
          "internalType": "address",
          "name": "newOwner",
          "type": "address"
        }
      ],
      "name": "transferOwnership",
      "outputs": [],
      "stateMutability": "nonpayable",
      "type": "function"
    },
    {
      "inputs": [
        {
          "internalType": "address",
          "name": "",
          "type": "address"
        }
      ],
      "name": "voters",
      "outputs": [
        {
          "internalType": "bool",
          "name": "isRegistered",
          "type": "bool"
        },
        {
          "internalType": "bool",
          "name": "hasVoted",
          "type": "bool"
        },
        {
          "internalType": "uint256",
          "name": "votingPower",
          "type": "uint256"
        },
        {
          "internalType": "uint256",
          "name": "loanRequestID",
          "type": "uint256"
        }
      ],
      "stateMutability": "view",
      "type": "function"
    },
    {
      "inputs": [
        {
          "internalType": "uint256",
          "name": "",
          "type": "uint256"
        }
      ],
      "name": "votes",
      "outputs": [
        {
          "internalType": "bool",
          "name": "isRegistered",
          "type": "bool"
        },
        {
          "internalType": "bool",
          "name": "hasVoted",
          "type": "bool"
        },
        {
          "internalType": "uint256",
          "name": "votingPower",
          "type": "uint256"
        },
        {
          "internalType": "uint256",
          "name": "loanRequestID",
          "type": "uint256"
        }
      ],
      "stateMutability": "view",
      "type": "function"
    },
    {
      "inputs": [
        {
          "internalType": "uint256",
          "name": "withdrawalAmount",
          "type": "uint256"
        }
      ],
      "name": "withdrawPending",
      "outputs": [],
      "stateMutability": "payable",
      "type": "function"
    },
    {
      "inputs": [
        {
          "internalType": "string",
          "name": "_description",
          "type": "string"
        },
        {
          "internalType": "uint256",
          "name": "_amount",
          "type": "uint256"
        }
      ],
      "name": "registerLoanRequest",
      "outputs": [],
      "stateMutability": "nonpayable",
      "type": "function"
    },
    {
      "inputs": [
        {
          "internalType": "address",
          "name": "_addr",
          "type": "address"
        }
      ],
      "name": "setEntity",
      "outputs": [],
      "stateMutability": "nonpayable",
      "type": "function"
    },
    {
      "inputs": [
        {
          "internalType": "uint256",
          "name": "_loanRequestId",
          "type": "uint256"
        }
      ],
      "name": "vote",
      "outputs": [],
      "stateMutability": "nonpayable",
      "type": "function"
    },
    {
      "inputs": [
        {
          "internalType": "uint256",
          "name": "_loanRequestId",
          "type": "uint256"
        }
      ],
      "name": "okLoans",
      "outputs": [],
      "stateMutability": "nonpayable",
      "type": "function"
    },
    {
      "inputs": [],
      "name": "changeToNextStatus",
      "outputs": [],
      "stateMutability": "nonpayable",
      "type": "function"
    }
  ],
  "bytecode": "0x6080604052600560035534801561001557600080fd5b5060006100266100c960201b60201c565b9050806000806101000a81548173ffffffffffffffffffffffffffffffffffffffff021916908373ffffffffffffffffffffffffffffffffffffffff1602179055508073ffffffffffffffffffffffffffffffffffffffff16600073ffffffffffffffffffffffffffffffffffffffff167f8be0079c531659141344cd1fd0a4f28419497f9722a3daafe3b4186f6b6457e060405160405180910390a3506100d1565b600033905090565b612ddb80620000e16000396000f3fe60806040526004361061012a5760003560e01c806388e7fb3f116100ab578063bf69bb861161006f578063bf69bb86146103e0578063c5bc26bf14610409578063e1ec3c6814610432578063f2fde38b14610472578063f67611511461049b578063f88af21d146104b75761012a565b806388e7fb3f146102f35780638d403b29146103305780638da5cb5b14610359578063a2c2f1b014610384578063a3ec138d146103a05761012a565b80633fcba4eb116100f25780633fcba4eb1461021d5780635df81330146102345780636db8099514610274578063715018a61461029f5780637924d93f146102b65761012a565b80630121b93f1461012f578063200d2ed214610158578063230eb9c6146101835780632e585fd8146101c45780632ecd4e7d146101e0575b600080fd5b34801561013b57600080fd5b50610156600480360381019061015191906125b8565b6104f8565b005b34801561016457600080fd5b5061016d6107f2565b60405161017a91906129f8565b60405180910390f35b34801561018f57600080fd5b506101aa60048036038101906101a5919061247f565b610805565b6040516101bb9594939291906129a5565b60405180910390f35b6101de60048036038101906101d991906125b8565b610848565b005b3480156101ec57600080fd5b506102076004803603810190610202919061247f565b610b49565b6040516102149190612b08565b60405180910390f35b34801561022957600080fd5b50610232610b61565b005b34801561024057600080fd5b5061025b600480360381019061025691906125b8565b610df3565b60405161026b9493929190612960565b60405180910390f35b34801561028057600080fd5b50610289610e4d565b604051610296919061293e565b60405180910390f35b3480156102ab57600080fd5b506102b4610eef565b005b3480156102c257600080fd5b506102dd60048036038101906102d891906125b8565b61105c565b6040516102ea91906128c3565b60405180910390f35b3480156102ff57600080fd5b5061031a600480360381019061031591906125b8565b61108f565b60405161032791906128c3565b60405180910390f35b34801561033c57600080fd5b5061035760048036038101906103529190612564565b6110c2565b005b34801561036557600080fd5b5061036e6112dc565b60405161037b91906128c3565b60405180910390f35b61039e600480360381019061039991906125e1565b611305565b005b3480156103ac57600080fd5b506103c760048036038101906103c2919061247f565b611531565b6040516103d79493929190612960565b60405180910390f35b3480156103ec57600080fd5b506104076004803603810190610402919061247f565b61157b565b005b34801561041557600080fd5b50610430600480360381019061042b91906125b8565b6118d9565b005b34801561043e57600080fd5b50610459600480360381019061045491906125b8565b611aba565b6040516104699493929190612a3c565b60405180910390f35b34801561047e57600080fd5b506104996004803603810190610494919061247f565b611b9f565b005b6104b560048036038101906104b0919061253b565b611d91565b005b3480156104c357600080fd5b506104de60048036038101906104d991906125b8565b611f92565b6040516104ef9594939291906129a5565b60405180910390f35b6003600581111561050557fe5b600960019054906101000a900460ff16600581111561052057fe5b14610560576040517f08c379a000000000000000000000000000000000000000000000000000000000815260040161055790612ae8565b60405180910390fd5b600a60003373ffffffffffffffffffffffffffffffffffffffff1673ffffffffffffffffffffffffffffffffffffffff16815260200190815260200160002060000160009054906101000a900460ff166105ef576040517f08c379a00000000000000000000000000000000000000000000000000000000081526004016105e690612a88565b60405180910390fd5b600a60003373ffffffffffffffffffffffffffffffffffffffff1673ffffffffffffffffffffffffffffffffffffffff16815260200190815260200160002060000160019054906101000a900460ff161561067f576040517f08c379a000000000000000000000000000000000000000000000000000000000815260040161067690612aa8565b60405180910390fd5b6001600a60003373ffffffffffffffffffffffffffffffffffffffff1673ffffffffffffffffffffffffffffffffffffffff16815260200190815260200160002060000160016101000a81548160ff02191690831515021790555080600a60003373ffffffffffffffffffffffffffffffffffffffff1673ffffffffffffffffffffffffffffffffffffffff168152602001908152602001600020600201819055507f4d99b957a2bc29a30ebd96a7be8e68fe50a3c701db28a91436490b7d53870ca43382604051610752929190612915565b60405180910390a16107cd600a60003373ffffffffffffffffffffffffffffffffffffffff1673ffffffffffffffffffffffffffffffffffffffff16815260200190815260200160002060010154600e83815481106107ad57fe5b906000526020600020906004020160010154611fe590919063ffffffff16565b600e82815481106107da57fe5b90600052602060002090600402016001018190555050565b600960019054906101000a900460ff1681565b60016020528060005260406000206000915090508060000160009054906101000a900460ff16908060010154908060020154908060030154908060040154905085565b60006108e1600160003373ffffffffffffffffffffffffffffffffffffffff1673ffffffffffffffffffffffffffffffffffffffff16815260200190815260200160002060010154600160003373ffffffffffffffffffffffffffffffffffffffff1673ffffffffffffffffffffffffffffffffffffffff16815260200190815260200160002060030154611fe590919063ffffffff16565b905042811115610926576040517f08c379a000000000000000000000000000000000000000000000000000000000815260040161091d90612ac8565b60405180910390fd5b6000600160003373ffffffffffffffffffffffffffffffffffffffff1673ffffffffffffffffffffffffffffffffffffffff16815260200190815260200160002060030154420390506000610a296064610a1b6064610a0d600160003373ffffffffffffffffffffffffffffffffffffffff1673ffffffffffffffffffffffffffffffffffffffff168152602001908152602001600020600201546109ff6003546109f16312cc03006109e360648d61206890919063ffffffff16565b6120fd90919063ffffffff16565b61206890919063ffffffff16565b61206890919063ffffffff16565b61206890919063ffffffff16565b6120fd90919063ffffffff16565b90506000610a8282600160003373ffffffffffffffffffffffffffffffffffffffff1673ffffffffffffffffffffffffffffffffffffffff16815260200190815260200160002060020154611fe590919063ffffffff16565b905080851115610a9157600080fd5b610aa685600454611fe590919063ffffffff16565b6004819055507f289473d20f7dbb55ce607f3e02b0de290bceb88a7728f441f04f7179c12da5163386604051610add929190612915565b60405180910390a1610b3c600160003373ffffffffffffffffffffffffffffffffffffffff1673ffffffffffffffffffffffffffffffffffffffff1681526020019081526020016000206002015460055461211190919063ffffffff16565b6005819055505050505050565b600b6020528060005260406000206000915090505481565b610b69612194565b73ffffffffffffffffffffffffffffffffffffffff16610b876112dc565b73ffffffffffffffffffffffffffffffffffffffff1614610c10576040517f08c379a00000000000000000000000000000000000000000000000000000000081526004018080602001828103825260208152602001807f4f776e61626c653a2063616c6c6572206973206e6f7420746865206f776e657281525060200191505060405180910390fd5b6000600960019054906101000a900460ff16905060006005811115610c3157fe5b600960019054906101000a900460ff166005811115610c4c57fe5b1415610c7b576001600960016101000a81548160ff02191690836005811115610c7157fe5b0217905550610da8565b60016005811115610c8857fe5b600960019054906101000a900460ff166005811115610ca357fe5b1415610cd2576002600960016101000a81548160ff02191690836005811115610cc857fe5b0217905550610da7565b60026005811115610cdf57fe5b600960019054906101000a900460ff166005811115610cfa57fe5b1415610d29576003600960016101000a81548160ff02191690836005811115610d1f57fe5b0217905550610da6565b60036005811115610d3657fe5b600960019054906101000a900460ff166005811115610d5157fe5b1415610d80576004600960016101000a81548160ff02191690836005811115610d7657fe5b0217905550610da5565b6005600960016101000a81548160ff02191690836005811115610d9f57fe5b02179055505b5b5b5b7f0a97a4ee45751e2abf3e4fc8946939630b11b371ea8ae39ccdc3056e98f5cc3f81600960019054906101000a900460ff16604051610de8929190612a13565b60405180910390a150565b600d8181548110610e0357600080fd5b90600052602060002090600302016000915090508060000160009054906101000a900460ff16908060000160019054906101000a900460ff16908060010154908060020154905084565b60606006805480602002602001604051908101604052809291908181526020016000905b82821015610ee657838290600052602060002090600502016040518060a00160405290816000820160009054906101000a900460ff1615151515815260200160018201548152602001600282015481526020016003820154815260200160048201548152505081526020019060010190610e71565b50505050905090565b610ef7612194565b73ffffffffffffffffffffffffffffffffffffffff16610f156112dc565b73ffffffffffffffffffffffffffffffffffffffff1614610f9e576040517f08c379a00000000000000000000000000000000000000000000000000000000081526004018080602001828103825260208152602001807f4f776e61626c653a2063616c6c6572206973206e6f7420746865206f776e657281525060200191505060405180910390fd5b600073ffffffffffffffffffffffffffffffffffffffff1660008054906101000a900473ffffffffffffffffffffffffffffffffffffffff1673ffffffffffffffffffffffffffffffffffffffff167f8be0079c531659141344cd1fd0a4f28419497f9722a3daafe3b4186f6b6457e060405160405180910390a360008060006101000a81548173ffffffffffffffffffffffffffffffffffffffff021916908373ffffffffffffffffffffffffffffffffffffffff160217905550565b600c6020528060005260406000206000915054906101000a900473ffffffffffffffffffffffffffffffffffffffff1681565b60026020528060005260406000206000915054906101000a900473ffffffffffffffffffffffffffffffffffffffff1681565b600160058111156110cf57fe5b600960019054906101000a900460ff1660058111156110ea57fe5b1461112a576040517f08c379a000000000000000000000000000000000000000000000000000000000815260040161112190612ae8565b60405180910390fd5b600a60003373ffffffffffffffffffffffffffffffffffffffff1673ffffffffffffffffffffffffffffffffffffffff16815260200190815260200160002060000160009054906101000a900460ff166111b9576040517f08c379a00000000000000000000000000000000000000000000000000000000081526004016111b090612a88565b60405180910390fd5b6111c161219c565b604051806080016040528084815260200160008152602001838152602001600015158152509050600e81908060018154018082558091505060019003906000526020600020906004020160009091909190915060008201518160000190805190602001906112309291906121c6565b50602082015181600101556040820151816002015560608201518160030160006101000a81548160ff021916908315150217905550505060006112826001600e8054905061211190919063ffffffff16565b905033600c600083815260200190815260200160002060006101000a81548173ffffffffffffffffffffffffffffffffffffffff021916908373ffffffffffffffffffffffffffffffffffffffff16021790555050505050565b60008060009054906101000a900473ffffffffffffffffffffffffffffffffffffffff16905090565b6000429050611312612254565b6040518060a0016040528060011515815260200185815260200184815260200183815260200160008152509050600681908060018154018082558091505060019003906000526020600020906005020160009091909190915060008201518160000160006101000a81548160ff02191690831515021790555060208201518160010155604082015181600201556060820151816003015560808201518160040155505060006113d0600160068054905061211190919063ffffffff16565b9050600681815481106113df57fe5b9060005260206000209060050201600160003373ffffffffffffffffffffffffffffffffffffffff1673ffffffffffffffffffffffffffffffffffffffff1681526020019081526020016000206000820160009054906101000a900460ff168160000160006101000a81548160ff02191690831515021790555060018201548160010155600282015481600201556003820154816003015560048201548160040155905050336002600083815260200190815260200160002060006101000a81548173ffffffffffffffffffffffffffffffffffffffff021916908373ffffffffffffffffffffffffffffffffffffffff1602179055507f6839821ee8329994ce64b70bede16246719daa5bc775fc4e65e5bc1e71ccb79a3385604051611507929190612915565b60405180910390a161152484600554611fe590919063ffffffff16565b6005819055505050505050565b600a6020528060005260406000206000915090508060000160009054906101000a900460ff16908060000160019054906101000a900460ff16908060010154908060020154905084565b611583612194565b73ffffffffffffffffffffffffffffffffffffffff166115a16112dc565b73ffffffffffffffffffffffffffffffffffffffff161461162a576040517f08c379a00000000000000000000000000000000000000000000000000000000081526004018080602001828103825260208152602001807f4f776e61626c653a2063616c6c6572206973206e6f7420746865206f776e657281525060200191505060405180910390fd5b60608173ffffffffffffffffffffffffffffffffffffffff16636db809956040518163ffffffff1660e01b815260040160006040518083038186803b15801561167257600080fd5b505afa158015611686573d6000803e3d6000fd5b505050506040513d6000823e3d601f19601f820116820180604052508101906116af91906124d1565b905060005b81518114156118d45760405180608001604052806001151581526020016000151581526020018383815181106116e657fe5b60200260200101516040015181526020016000815250600d828154811061170957fe5b906000526020600020906003020160008201518160000160006101000a81548160ff02191690831515021790555060208201518160000160016101000a81548160ff021916908315150217905550604082015181600101556060820151816002015590505060008373ffffffffffffffffffffffffffffffffffffffff166388e7fb3f836040518263ffffffff1660e01b81526004016117a99190612b08565b60206040518083038186803b1580156117c157600080fd5b505afa1580156117d5573d6000803e3d6000fd5b505050506040513d601f19601f820116820180604052508101906117f991906124a8565b9050600d828154811061180857fe5b9060005260206000209060030201600a60008373ffffffffffffffffffffffffffffffffffffffff1673ffffffffffffffffffffffffffffffffffffffff1681526020019081526020016000206000820160009054906101000a900460ff168160000160006101000a81548160ff0219169083151502179055506000820160019054906101000a900460ff168160000160016101000a81548160ff02191690831515021790555060018201548160010155600282015481600201559050505080806001019150506116b4565b505050565b6118e1612194565b73ffffffffffffffffffffffffffffffffffffffff166118ff6112dc565b73ffffffffffffffffffffffffffffffffffffffff1614611988576040517f08c379a00000000000000000000000000000000000000000000000000000000081526004018080602001828103825260208152602001807f4f776e61626c653a2063616c6c6572206973206e6f7420746865206f776e657281525060200191505060405180910390fd5b6004600581111561199557fe5b600960019054906101000a900460ff1660058111156119b057fe5b146119f0576040517f08c379a00000000000000000000000000000000000000000000000000000000081526004016119e790612ae8565b60405180910390fd5b600080611a0960026005546120fd90919063ffffffff16565b905060005b600e80549050811415611a8857600e8181548110611a2857fe5b9060005260206000209060040201600101549250818311611a7b576001600e8281548110611a5257fe5b906000526020600020906004020160030160006101000a81548160ff0219169083151502179055505b8080600101915050611a0e565b507f0e5e95ff8725ab3e7a4b6b59998a4c344c2aa8d1485f5e60cb7f337768e6134760405160405180910390a1505050565b600e8181548110611aca57600080fd5b9060005260206000209060040201600091509050806000018054600181600116156101000203166002900480601f016020809104026020016040519081016040528092919081815260200182805460018160011615610100020316600290048015611b765780601f10611b4b57610100808354040283529160200191611b76565b820191906000526020600020905b815481529060010190602001808311611b5957829003601f168201915b5050505050908060010154908060020154908060030160009054906101000a900460ff16905084565b611ba7612194565b73ffffffffffffffffffffffffffffffffffffffff16611bc56112dc565b73ffffffffffffffffffffffffffffffffffffffff1614611c4e576040517f08c379a00000000000000000000000000000000000000000000000000000000081526004018080602001828103825260208152602001807f4f776e61626c653a2063616c6c6572206973206e6f7420746865206f776e657281525060200191505060405180910390fd5b600073ffffffffffffffffffffffffffffffffffffffff168173ffffffffffffffffffffffffffffffffffffffff161415611cd4576040517f08c379a0000000000000000000000000000000000000000000000000000000008152600401808060200182810382526026815260200180612d806026913960400191505060405180910390fd5b8073ffffffffffffffffffffffffffffffffffffffff1660008054906101000a900473ffffffffffffffffffffffffffffffffffffffff1673ffffffffffffffffffffffffffffffffffffffff167f8be0079c531659141344cd1fd0a4f28419497f9722a3daafe3b4186f6b6457e060405160405180910390a3806000806101000a81548173ffffffffffffffffffffffffffffffffffffffff021916908373ffffffffffffffffffffffffffffffffffffffff16021790555050565b611d99612194565b73ffffffffffffffffffffffffffffffffffffffff16611db76112dc565b73ffffffffffffffffffffffffffffffffffffffff1614611e40576040517f08c379a00000000000000000000000000000000000000000000000000000000081526004018080602001828103825260208152602001807f4f776e61626c653a2063616c6c6572206973206e6f7420746865206f776e657281525060200191505060405180910390fd5b6000806000600680549050905060005b81811415611f8b5760068181548110611e6557fe5b90600052602060002090600502016004015493506002600082815260200190815260200160002060009054906101000a900473ffffffffffffffffffffffffffffffffffffffff1692508473ffffffffffffffffffffffffffffffffffffffff166323b872dd3385876040518463ffffffff1660e01b8152600401611eec939291906128de565b602060405180830381600087803b158015611f0657600080fd5b505af1158015611f1a573d6000803e3d6000fd5b505050506040513d601f19601f82011682018060405250810190611f3e9190612512565b50611f548460045461211190919063ffffffff16565b600481905550600060068281548110611f6957fe5b9060005260206000209060050201600401819055508080600101915050611e50565b5050505050565b60068181548110611fa257600080fd5b90600052602060002090600502016000915090508060000160009054906101000a900460ff16908060010154908060020154908060030154908060040154905085565b6000828284019150811015612062576040517f08c379a00000000000000000000000000000000000000000000000000000000081526004018080602001828103825260148152602001807f64732d6d6174682d6164642d6f766572666c6f7700000000000000000000000081525060200191505060405180910390fd5b92915050565b600080821480612085575082828385029250828161208257fe5b04145b6120f7576040517f08c379a00000000000000000000000000000000000000000000000000000000081526004018080602001828103825260148152602001807f64732d6d6174682d6d756c2d6f766572666c6f7700000000000000000000000081525060200191505060405180910390fd5b92915050565b600081838161210857fe5b04905092915050565b600082828403915081111561218e576040517f08c379a00000000000000000000000000000000000000000000000000000000081526004018080602001828103825260158152602001807f64732d6d6174682d7375622d756e646572666c6f77000000000000000000000081525060200191505060405180910390fd5b92915050565b600033905090565b60405180608001604052806060815260200160008152602001600081526020016000151581525090565b828054600181600116156101000203166002900490600052602060002090601f0160209004810192826121fc5760008555612243565b82601f1061221557805160ff1916838001178555612243565b82800160010185558215612243579182015b82811115612242578251825591602001919060010190612227565b5b5090506122509190612285565b5090565b6040518060a00160405280600015158152602001600081526020016000815260200160008152602001600081525090565b5b8082111561229e576000816000905550600101612286565b5090565b6000813590506122b181612d23565b92915050565b6000815190506122c681612d23565b92915050565b600082601f8301126122dd57600080fd5b81516122f06122eb82612b54565b612b23565b915081818352602084019350602081019050838560a084028201111561231557600080fd5b60005b83811015612345578161232b88826123cd565b845260208401935060a08301925050600181019050612318565b5050505092915050565b60008151905061235e81612d3a565b92915050565b60008135905061237381612d51565b92915050565b600082601f83011261238a57600080fd5b813561239d61239882612b80565b612b23565b915080825260208301602083018583830111156123b957600080fd5b6123c4838284612cba565b50505092915050565b600060a082840312156123df57600080fd5b6123e960a0612b23565b905060006123f98482850161234f565b600083015250602061240d8482850161246a565b60208301525060406124218482850161246a565b60408301525060606124358482850161246a565b60608301525060806124498482850161246a565b60808301525092915050565b60008135905061246481612d68565b92915050565b60008151905061247981612d68565b92915050565b60006020828403121561249157600080fd5b600061249f848285016122a2565b91505092915050565b6000602082840312156124ba57600080fd5b60006124c8848285016122b7565b91505092915050565b6000602082840312156124e357600080fd5b600082015167ffffffffffffffff8111156124fd57600080fd5b612509848285016122cc565b91505092915050565b60006020828403121561252457600080fd5b60006125328482850161234f565b91505092915050565b60006020828403121561254d57600080fd5b600061255b84828501612364565b91505092915050565b6000806040838503121561257757600080fd5b600083013567ffffffffffffffff81111561259157600080fd5b61259d85828601612379565b92505060206125ae85828601612455565b9150509250929050565b6000602082840312156125ca57600080fd5b60006125d884828501612455565b91505092915050565b600080604083850312156125f457600080fd5b600061260285828601612455565b925050602061261385828601612455565b9150509250929050565b6000612629838361283d565b60a08301905092915050565b61263e81612c72565b82525050565b61264d81612c05565b82525050565b600061265e82612bc0565b6126688185612be3565b935061267383612bb0565b8060005b838110156126a457815161268b888261261d565b975061269683612bd6565b925050600181019050612677565b5085935050505092915050565b6126ba81612c17565b82525050565b6126c981612c17565b82525050565b6126d881612c84565b82525050565b60006126e982612bcb565b6126f38185612bf4565b9350612703818560208601612cc9565b61270c81612cfe565b840191505092915050565b6000612724601583612bf4565b91507f596f7520617265206e6f742072656769737472656400000000000000000000006000830152602082019050919050565b6000612764600d83612bf4565b91507f416c726561647920766f746564000000000000000000000000000000000000006000830152602082019050919050565b60006127a4602883612bf4565b91507f646561646c696e657320666f7220626c6f636b696e672066756e6473206e6f7460008301527f20656c61707365640000000000000000000000000000000000000000000000006020830152604082019050919050565b600061280a600b83612bf4565b91507f4e6f7420616c6c6f7765640000000000000000000000000000000000000000006000830152602082019050919050565b60a08201600082015161285360008501826126b1565b50602082015161286660208501826128a5565b50604082015161287960408501826128a5565b50606082015161288c60608501826128a5565b50608082015161289f60808501826128a5565b50505050565b6128ae81612c68565b82525050565b6128bd81612c68565b82525050565b60006020820190506128d86000830184612644565b92915050565b60006060820190506128f36000830186612635565b6129006020830185612644565b61290d60408301846128b4565b949350505050565b600060408201905061292a6000830185612635565b61293760208301846128b4565b9392505050565b600060208201905081810360008301526129588184612653565b905092915050565b600060808201905061297560008301876126c0565b61298260208301866126c0565b61298f60408301856128b4565b61299c60608301846128b4565b95945050505050565b600060a0820190506129ba60008301886126c0565b6129c760208301876128b4565b6129d460408301866128b4565b6129e160608301856128b4565b6129ee60808301846128b4565b9695505050505050565b6000602082019050612a0d60008301846126cf565b92915050565b6000604082019050612a2860008301856126cf565b612a3560208301846126cf565b9392505050565b60006080820190508181036000830152612a5681876126de565b9050612a6560208301866128b4565b612a7260408301856128b4565b612a7f60608301846126c0565b95945050505050565b60006020820190508181036000830152612aa181612717565b9050919050565b60006020820190508181036000830152612ac181612757565b9050919050565b60006020820190508181036000830152612ae181612797565b9050919050565b60006020820190508181036000830152612b01816127fd565b9050919050565b6000602082019050612b1d60008301846128b4565b92915050565b6000604051905081810181811067ffffffffffffffff82111715612b4a57612b49612cfc565b5b8060405250919050565b600067ffffffffffffffff821115612b6f57612b6e612cfc565b5b602082029050602081019050919050565b600067ffffffffffffffff821115612b9b57612b9a612cfc565b5b601f19601f8301169050602081019050919050565b6000819050602082019050919050565b600081519050919050565b600081519050919050565b6000602082019050919050565b600082825260208201905092915050565b600082825260208201905092915050565b6000612c1082612c48565b9050919050565b60008115159050919050565b6000612c2e82612c05565b9050919050565b6000819050612c4382612d0f565b919050565b600073ffffffffffffffffffffffffffffffffffffffff82169050919050565b6000819050919050565b6000612c7d82612c96565b9050919050565b6000612c8f82612c35565b9050919050565b6000612ca182612ca8565b9050919050565b6000612cb382612c48565b9050919050565b82818337600083830152505050565b60005b83811015612ce7578082015181840152602081019050612ccc565b83811115612cf6576000848401525b50505050565bfe5b6000601f19601f8301169050919050565b60068110612d2057612d1f612cfc565b5b50565b612d2c81612c05565b8114612d3757600080fd5b50565b612d4381612c17565b8114612d4e57600080fd5b50565b612d5a81612c23565b8114612d6557600080fd5b50565b612d7181612c68565b8114612d7c57600080fd5b5056fe4f776e61626c653a206e6577206f776e657220697320746865207a65726f2061646472657373a2646970667358221220c4090ae571accc96e92b6e08f8e75d6446aa32bf95be2b8f22b4a042eb8f68ec64736f6c63430007040033",
  "immutableReferences": {},
  "source": "pragma solidity 0.7.4;\npragma experimental ABIEncoderV2;\nimport \"@openzeppelin/contracts/access/Ownable.sol\";\nimport \"@uniswap/v2-core/contracts/libraries/SafeMath.sol\";\nimport \"./ProxySimple.sol\";\n\n/// @title A contract for the management of votes\n/// @dev The contract can still be improved\ncontract Loan is ProxySimple {\n    using SafeMath for uint;\n\n//Enum\n    enum WorkflowStatus {\n        RegisteringEntities,\n        LoanRequestStarted,\n        LoanRequestEnded,\n        VotingSessionStarted,\n        VotingSessionEnded,\n        VotesTallied\n    }\n\n//Struct\n    struct Voter {\n        bool isRegistered;\n        bool hasVoted;\n        uint votingPower;\n        uint loanRequestID;\n    }\n\n\n    struct LoanRequest {\n        string description;\n        uint voteCount;\n        uint amountRequest;\n        bool state;\n    }\n\n//Variable\n    uint numberOfLoanRequest;\n    uint numberOfEntity;\n    bool borrowOpen;\n    WorkflowStatus public status;\n    //uint coffre;\n\n//Mapping\n    mapping(address => Voter) public voters;\n    mapping(address => uint) public debts;\n    mapping(uint => address) public borrowers; // LoanRequest est un struct\n\n//Tableau\n    Voter[] public votes;\n    LoanRequest[] public loans;\n\n//Event\n    event EntityRegistered(address entitiesAddress);\n    event LoanRequestRegistrationStarted();\n    event LoanRequestRegistrationEnded();\n    event LoanRequestRegistered(uint loanRequestId);\n    event VotingSessionStarted();\n    event VotingSessionEnded();\n    event Voted (address entity, uint loanRequestId);\n    event VotesTallied();\n    event WorkflowStatusChange(WorkflowStatus previousStatus, WorkflowStatus newStatus);\n\n//Function\n\n\n    /// @notice Records loan requests\n    /// @dev\n    /// @param _description Borrower motivation\n    /// @param _amount Amount requested\n    function registerLoanRequest(string memory _description, uint _amount) external {\n\n        require(status == WorkflowStatus.LoanRequestStarted, \"Not allowed\");\n        require(voters[msg.sender].isRegistered,\"You are not registred\");\n\n        LoanRequest memory loanR = LoanRequest(_description, 0, _amount, false);\n        loans.push(loanR);\n\n        uint loanRequestId = loans.length.sub(1);\n        borrowers[loanRequestId] = msg.sender;\n    }\n\n    /// @notice Records the addresses of participants\n    /// @dev Copy the array of users to the proxy, Error with Client call in ProxySimple.sol\n    /// @param _addr proxy address\n    function setEntity(address _addr) public onlyOwner {\n      Client[] memory copyTab = ProxySimple(_addr).getClients();\n\n        for(uint i; i == copyTab.length; i++) {\n            votes[i] = Voter(true,false,copyTab[i].amount,0);\n            address voterAddr = ProxySimple(_addr).backToUser(i); //backToUser est un getter dans ce contrat(borrow)\n            voters[voterAddr] = votes[i];\n        }\n    }\n\n    /// @notice Function to vote, Id 0 for blank vote\n    /// @dev For the moment we only vote once\n    /// @param _loanRequestId Proxy address\n    function vote(uint _loanRequestId) external {\n        require(status == WorkflowStatus.VotingSessionStarted, \"Not allowed\");\n        require(voters[msg.sender].isRegistered,\"You are not registred\");\n        require(!voters[msg.sender].hasVoted, \"Already voted\");\n\n        voters[msg.sender].hasVoted = true;\n        voters[msg.sender].loanRequestID = _loanRequestId;\n\n        emit Voted(msg.sender, _loanRequestId);\n\n        loans[_loanRequestId].voteCount = loans[_loanRequestId].voteCount.add(voters[msg.sender].votingPower);\n    }\n\n  //function borrowMode\n  //( change le bool)\n\n    /// @notice See if the loan is possible\n    /// @dev For the moment we only vote once\n    /// @param _loanRequestId of the loan request\n\n    function okLoans(uint _loanRequestId) external onlyOwner {\n        //require (borrowOpen == true);\n        require(status == WorkflowStatus.VotingSessionEnded, \"Not allowed\");\n        //require(voteCount>((votingPowerTotal/2),\"pas assez de vote pour vous\");\n\n        uint count;\n        uint quorum = ProxySimple.totalVotingPower.div(2);\n        for(uint i; i == loans.length; i++) {\n            count = loans[i].voteCount;\n            if( count <= quorum){\n                loans[i].state = true;\n            }\n        }\n\n        emit VotesTallied();\n    }\n\n    /// @notice Change the current status\n    /// @dev\n\n    function changeToNextStatus() external onlyOwner {\n        WorkflowStatus previousStatus = status;\n\n        if (status == WorkflowStatus.RegisteringEntities) {\n            status = WorkflowStatus.LoanRequestStarted;\n        }\n        else if (status == WorkflowStatus.LoanRequestStarted) {\n            status = WorkflowStatus.LoanRequestEnded;\n        }\n        else if (status == WorkflowStatus.LoanRequestEnded) {\n            status = WorkflowStatus.VotingSessionStarted;\n        }\n        else if (status == WorkflowStatus.VotingSessionStarted) {\n            status = WorkflowStatus.VotingSessionEnded;\n        }\n        else {\n            status = WorkflowStatus.VotesTallied;\n        }\n\n        emit WorkflowStatusChange(previousStatus, status);\n    }\n}\n",
  "sourcePath": "/Users/arnauddauber/Desktop/DEXsoFi/DEXSO/contracts/Borrow.sol",
  "compiler": {
    "name": "solc",
    "version": "0.7.4+commit.3f05b770.Emscripten.clang"
  },
  "schemaVersion": "3.3.4",
  "updatedAt": "2021-04-14T10:14:51.290Z",
  "devdoc": {
    "details": "The contract can still be improved",
    "kind": "dev",
    "methods": {
      "okLoans(uint256)": {
        "details": "For the moment we only vote once",
        "params": {
          "_loanRequestId": "of the loan request"
        }
      },
      "owner()": {
        "details": "Returns the address of the current owner."
      },
      "registerLoanRequest(string,uint256)": {
        "details": "@param _description Borrower motivation",
        "params": {
          "_amount": "Amount requested"
        }
      },
      "renounceOwnership()": {
        "details": "Leaves the contract without owner. It will not be possible to call `onlyOwner` functions anymore. Can only be called by the current owner. NOTE: Renouncing ownership will leave the contract without an owner, thereby removing any functionality that is only available to the owner."
      },
      "setEntity(address)": {
        "details": "Copy the array of users to the proxy, Error with Client call in ProxySimple.sol",
        "params": {
          "_addr": "proxy address"
        }
      },
      "transferOwnership(address)": {
        "details": "Transfers ownership of the contract to a new account (`newOwner`). Can only be called by the current owner."
      },
      "vote(uint256)": {
        "details": "For the moment we only vote once",
        "params": {
          "_loanRequestId": "Proxy address"
        }
      }
    },
    "title": "A contract for the management of votes",
    "version": 1
  },
  "userdoc": {
    "kind": "user",
    "methods": {
      "changeToNextStatus()": {
        "notice": "Change the current status"
      },
      "okLoans(uint256)": {
        "notice": "See if the loan is possible"
      },
      "registerLoanRequest(string,uint256)": {
        "notice": "Records loan requests"
      },
      "setEntity(address)": {
        "notice": "Records the addresses of participants"
      },
      "vote(uint256)": {
        "notice": "Function to vote, Id 0 for blank vote"
      }
    },
    "version": 1
  }
}