{
  "contractName": "MyDeFiProject",
  "abi": [
    {
      "inputs": [
        {
          "internalType": "address",
          "name": "_uniswap",
          "type": "address"
        }
      ],
      "stateMutability": "nonpayable",
      "type": "constructor"
    },
    {
      "stateMutability": "payable",
      "type": "receive"
    },
    {
      "inputs": [
        {
          "internalType": "address",
          "name": "token",
          "type": "address"
        },
        {
          "internalType": "address",
          "name": "owner",
          "type": "address"
        }
      ],
      "name": "getBalance",
      "outputs": [
        {
          "internalType": "uint256",
          "name": "",
          "type": "uint256"
        }
      ],
      "stateMutability": "view",
      "type": "function"
    },
    {
      "inputs": [
        {
          "internalType": "contract IERC20",
          "name": "token",
          "type": "address"
        },
        {
          "internalType": "address",
          "name": "owner",
          "type": "address"
        },
        {
          "internalType": "address",
          "name": "spender",
          "type": "address"
        }
      ],
      "name": "getAllowance",
      "outputs": [
        {
          "internalType": "uint256",
          "name": "",
          "type": "uint256"
        }
      ],
      "stateMutability": "view",
      "type": "function"
    },
    {
      "inputs": [
        {
          "internalType": "contract IERC20",
          "name": "token",
          "type": "address"
        },
        {
          "internalType": "address",
          "name": "spender",
          "type": "address"
        },
        {
          "internalType": "uint256",
          "name": "value",
          "type": "uint256"
        }
      ],
      "name": "approveStack",
      "outputs": [
        {
          "internalType": "uint256",
          "name": "",
          "type": "uint256"
        }
      ],
      "stateMutability": "nonpayable",
      "type": "function"
    },
    {
      "inputs": [
        {
          "internalType": "address",
          "name": "token",
          "type": "address"
        },
        {
          "internalType": "uint256",
          "name": "amountIn",
          "type": "uint256"
        },
        {
          "internalType": "uint256",
          "name": "amountOutMin",
          "type": "uint256"
        },
        {
          "internalType": "uint256",
          "name": "deadline",
          "type": "uint256"
        }
      ],
      "name": "swapTokensForEth",
      "outputs": [],
      "stateMutability": "nonpayable",
      "type": "function"
    },
    {
      "inputs": [
        {
          "internalType": "address",
          "name": "token",
          "type": "address"
        },
        {
          "internalType": "uint256",
          "name": "amountTokenDesired",
          "type": "uint256"
        },
        {
          "internalType": "uint256",
          "name": "amountTokenMin",
          "type": "uint256"
        },
        {
          "internalType": "uint256",
          "name": "amountETHMin",
          "type": "uint256"
        },
        {
          "internalType": "uint256",
          "name": "deadline",
          "type": "uint256"
        }
      ],
      "name": "addLiquidityeth",
      "outputs": [
        {
          "internalType": "uint256",
          "name": "amountToken",
          "type": "uint256"
        },
        {
          "internalType": "uint256",
          "name": "amountETH",
          "type": "uint256"
        },
        {
          "internalType": "uint256",
          "name": "liquidity",
          "type": "uint256"
        }
      ],
      "stateMutability": "payable",
      "type": "function"
    }
  ],
  "bytecode": "0x60806040523480156200001157600080fd5b50604051620012d3380380620012d3833981810160405281019062000037919062000095565b806000806101000a81548173ffffffffffffffffffffffffffffffffffffffff021916908373ffffffffffffffffffffffffffffffffffffffff160217905550506200010f565b6000815190506200008f81620000f5565b92915050565b600060208284031215620000a857600080fd5b6000620000b8848285016200007e565b91505092915050565b6000620000ce82620000d5565b9050919050565b600073ffffffffffffffffffffffffffffffffffffffff82169050919050565b6200010081620000c1565b81146200010c57600080fd5b50565b6111b4806200011f6000396000f3fe60806040526004361061004e5760003560e01c806309b26bb41461005a5780638365546714610097578063d4fac45d146100c0578063e7092b41146100fd578063fd54666d1461013a57610055565b3661005557005b600080fd5b34801561006657600080fd5b50610081600480360381019061007c9190610bd8565b61016c565b60405161008e9190610efe565b60405180910390f35b3480156100a357600080fd5b506100be60048036038101906100b99190610a45565b6102c9565b005b3480156100cc57600080fd5b506100e760048036038101906100e29190610a09565b610640565b6040516100f49190610efe565b60405180910390f35b34801561010957600080fd5b50610124600480360381019061011f9190610b89565b6106d3565b6040516101319190610efe565b60405180910390f35b610154600480360381019061014f9190610aa8565b610769565b60405161016393929190610f73565b60405180910390f35b60008060608573ffffffffffffffffffffffffffffffffffffffff16858560405160240161019b929190610e54565b6040516020818303038152906040527f095ea7b3000000000000000000000000000000000000000000000000000000007bffffffffffffffffffffffffffffffffffffffffffffffffffffffff19166020820180517bffffffffffffffffffffffffffffffffffffffffffffffffffffffff83818316178352505050506040516102259190610dc2565b600060405180830381855af49150503d8060008114610260576040519150601f19603f3d011682016040523d82523d6000602084013e610265565b606091505b5091509150816102aa576040517f08c379a00000000000000000000000000000000000000000000000000000000081526004016102a190610ede565b60405180910390fd5b808060200190518101906102be9190610c27565b925050509392505050565b8373ffffffffffffffffffffffffffffffffffffffff166323b872dd3330866040518463ffffffff1660e01b815260040161030693929190610df4565b602060405180830381600087803b15801561032057600080fd5b505af1158015610334573d6000803e3d6000fd5b505050506040513d601f19601f820116820180604052508101906103589190610b60565b506060600267ffffffffffffffff8111801561037357600080fd5b506040519080825280602002602001820160405280156103a25781602001602082028036833780820191505090505b50905084816000815181106103b357fe5b602002602001019073ffffffffffffffffffffffffffffffffffffffff16908173ffffffffffffffffffffffffffffffffffffffff168152505060008054906101000a900473ffffffffffffffffffffffffffffffffffffffff1673ffffffffffffffffffffffffffffffffffffffff1663ad5c46486040518163ffffffff1660e01b815260040160206040518083038186803b15801561045357600080fd5b505afa158015610467573d6000803e3d6000fd5b505050506040513d601f19601f8201168201806040525081019061048b91906109e0565b8160018151811061049857fe5b602002602001019073ffffffffffffffffffffffffffffffffffffffff16908173ffffffffffffffffffffffffffffffffffffffff16815250508473ffffffffffffffffffffffffffffffffffffffff1663095ea7b360008054906101000a900473ffffffffffffffffffffffffffffffffffffffff16866040518363ffffffff1660e01b815260040161052d929190610e54565b602060405180830381600087803b15801561054757600080fd5b505af115801561055b573d6000803e3d6000fd5b505050506040513d601f19601f8201168201806040525081019061057f9190610b60565b5060008054906101000a900473ffffffffffffffffffffffffffffffffffffffff1673ffffffffffffffffffffffffffffffffffffffff166318cbafe585858433876040518663ffffffff1660e01b81526004016105e1959493929190610f19565b600060405180830381600087803b1580156105fb57600080fd5b505af115801561060f573d6000803e3d6000fd5b505050506040513d6000823e3d601f19601f820116820180604052508101906106389190610b1f565b505050505050565b60008273ffffffffffffffffffffffffffffffffffffffff166370a08231836040518263ffffffff1660e01b815260040161067b9190610dd9565b60206040518083038186803b15801561069357600080fd5b505afa1580156106a7573d6000803e3d6000fd5b505050506040513d601f19601f820116820180604052508101906106cb9190610c27565b905092915050565b60008373ffffffffffffffffffffffffffffffffffffffff1663dd62ed3e84846040518363ffffffff1660e01b8152600401610710929190610e2b565b60206040518083038186803b15801561072857600080fd5b505afa15801561073c573d6000803e3d6000fd5b505050506040513d601f19601f820116820180604052508101906107609190610c27565b90509392505050565b60008060008773ffffffffffffffffffffffffffffffffffffffff1663095ea7b360008054906101000a900473ffffffffffffffffffffffffffffffffffffffff16896040518363ffffffff1660e01b81526004016107c9929190610e54565b602060405180830381600087803b1580156107e357600080fd5b505af11580156107f7573d6000803e3d6000fd5b505050506040513d601f19601f8201168201806040525081019061081b9190610b60565b5060008054906101000a900473ffffffffffffffffffffffffffffffffffffffff1673ffffffffffffffffffffffffffffffffffffffff1663f305d71989898989338a6040518763ffffffff1660e01b815260040161087f96959493929190610e7d565b606060405180830381600087803b15801561089957600080fd5b505af11580156108ad573d6000803e3d6000fd5b505050506040513d601f19601f820116820180604052508101906108d19190610c50565b505050955095509592505050565b6000813590506108ee81611122565b92915050565b60008151905061090381611122565b92915050565b600082601f83011261091a57600080fd5b815161092d61092882610fd7565b610faa565b9150818183526020840193506020810190508385602084028201111561095257600080fd5b60005b83811015610982578161096888826109cb565b845260208401935060208301925050600181019050610955565b5050505092915050565b60008151905061099b81611139565b92915050565b6000813590506109b081611150565b92915050565b6000813590506109c581611167565b92915050565b6000815190506109da81611167565b92915050565b6000602082840312156109f257600080fd5b6000610a00848285016108f4565b91505092915050565b60008060408385031215610a1c57600080fd5b6000610a2a858286016108df565b9250506020610a3b858286016108df565b9150509250929050565b60008060008060808587031215610a5b57600080fd5b6000610a69878288016108df565b9450506020610a7a878288016109b6565b9350506040610a8b878288016109b6565b9250506060610a9c878288016109b6565b91505092959194509250565b600080600080600060a08688031215610ac057600080fd5b6000610ace888289016108df565b9550506020610adf888289016109b6565b9450506040610af0888289016109b6565b9350506060610b01888289016109b6565b9250506080610b12888289016109b6565b9150509295509295909350565b600060208284031215610b3157600080fd5b600082015167ffffffffffffffff811115610b4b57600080fd5b610b5784828501610909565b91505092915050565b600060208284031215610b7257600080fd5b6000610b808482850161098c565b91505092915050565b600080600060608486031215610b9e57600080fd5b6000610bac868287016109a1565b9350506020610bbd868287016108df565b9250506040610bce868287016108df565b9150509250925092565b600080600060608486031215610bed57600080fd5b6000610bfb868287016109a1565b9350506020610c0c868287016108df565b9250506040610c1d868287016109b6565b9150509250925092565b600060208284031215610c3957600080fd5b6000610c47848285016109cb565b91505092915050565b600080600060608486031215610c6557600080fd5b6000610c73868287016109cb565b9350506020610c84868287016109cb565b9250506040610c95868287016109cb565b9150509250925092565b6000610cab8383610cc6565b60208301905092915050565b610cc0816110b9565b82525050565b610ccf8161105f565b82525050565b610cde8161105f565b82525050565b6000610cef8261100f565b610cf98185611032565b9350610d0483610fff565b8060005b83811015610d35578151610d1c8882610c9f565b9750610d2783611025565b925050600181019050610d08565b5085935050505092915050565b6000610d4d8261101a565b610d578185611043565b9350610d678185602086016110ef565b80840191505092915050565b6000610d80600c8361104e565b91507f6e6f7420617070726f76656400000000000000000000000000000000000000006000830152602082019050919050565b610dbc816110af565b82525050565b6000610dce8284610d42565b915081905092915050565b6000602082019050610dee6000830184610cd5565b92915050565b6000606082019050610e096000830186610cb7565b610e166020830185610cb7565b610e236040830184610db3565b949350505050565b6000604082019050610e406000830185610cd5565b610e4d6020830184610cd5565b9392505050565b6000604082019050610e696000830185610cd5565b610e766020830184610db3565b9392505050565b600060c082019050610e926000830189610cd5565b610e9f6020830188610db3565b610eac6040830187610db3565b610eb96060830186610db3565b610ec66080830185610cb7565b610ed360a0830184610db3565b979650505050505050565b60006020820190508181036000830152610ef781610d73565b9050919050565b6000602082019050610f136000830184610db3565b92915050565b600060a082019050610f2e6000830188610db3565b610f3b6020830187610db3565b8181036040830152610f4d8186610ce4565b9050610f5c6060830185610cb7565b610f696080830184610db3565b9695505050505050565b6000606082019050610f886000830186610db3565b610f956020830185610db3565b610fa26040830184610db3565b949350505050565b6000604051905081810181811067ffffffffffffffff82111715610fcd57600080fd5b8060405250919050565b600067ffffffffffffffff821115610fee57600080fd5b602082029050602081019050919050565b6000819050602082019050919050565b600081519050919050565b600081519050919050565b6000602082019050919050565b600082825260208201905092915050565b600081905092915050565b600082825260208201905092915050565b600061106a8261108f565b9050919050565b60008115159050919050565b60006110888261105f565b9050919050565b600073ffffffffffffffffffffffffffffffffffffffff82169050919050565b6000819050919050565b60006110c4826110cb565b9050919050565b60006110d6826110dd565b9050919050565b60006110e88261108f565b9050919050565b60005b8381101561110d5780820151818401526020810190506110f2565b8381111561111c576000848401525b50505050565b61112b8161105f565b811461113657600080fd5b50565b61114281611071565b811461114d57600080fd5b50565b6111598161107d565b811461116457600080fd5b50565b611170816110af565b811461117b57600080fd5b5056fea2646970667358221220e5f12235cf6c05a0242044e741132545f916cf92f4b292085b1877fd0af2deec64736f6c634300060c0033",
  "immutableReferences": {},
  "source": "pragma solidity ^0.6.12;\npragma experimental ABIEncoderV2;\n\nimport \"@uniswap/v2-periphery/contracts/interfaces/IUniswapV2Router02.sol\";\nimport \"@uniswap/v2-periphery/contracts/interfaces/IERC20.sol\";\nimport \"@uniswap/v2-periphery/contracts/interfaces/IWETH.sol\";\n\n\ncontract MyDeFiProject {\n IUniswapV2Router02 uniswapRouter;\n\n\n\n constructor(address _uniswap) public {\n   uniswapRouter = IUniswapV2Router02(_uniswap);\n }\n\nreceive() external payable { }\n\n\n function getBalance(address token, address owner) external view returns (uint) {\n   return IERC20(token).balanceOf(owner);\n }\n\n function getAllowance(IERC20 token,address owner, address spender) external view returns(uint) {\n   return token.allowance(owner, spender);\n\n }\n\n function approveStack(IERC20 token, address spender, uint value) external returns(uint)  {\n   //IERC20(token).approve(spender, value);\n   (bool success, bytes memory data) = address(token).delegatecall(abi.encodeWithSignature(\"approve(address,uint256)\",spender,value));\n   require(success, \"not approved\");\n   return abi.decode(data, (uint));\n }\n\n  // La fonction qui va permettre le swap\n function swapTokensForEth(address token, uint amountIn, uint amountOutMin, uint deadline) external {\n   IERC20(token).transferFrom(msg.sender, address(this), amountIn);// Transfert des tokens en question au smart contract ! Il faut penser à approve ce transfert avant l’utilisation de cette fonction\n   address[] memory path = new address[](2); // Création du path\n   path[0] = address(token); // initialisation du path avec l'address du token à échanger\n   path[1] = uniswapRouter.WETH(); // initialisation du path avec l'address du WETH d'Uniswap\n   IERC20(token).approve(address(uniswapRouter), amountIn); // autoriser uniswap à utiliser nos tokens\n   uniswapRouter.swapExactTokensForETH(\n     amountIn,\n     amountOutMin,\n     path,\n     msg.sender,\n     deadline\n   ); // effectuer le swap, ETH sera transférer directement au msg.sender\n }\n\n function addLiquidityeth(address token, uint amountTokenDesired, uint amountTokenMin, uint amountETHMin, uint deadline) external payable returns (uint amountToken, uint amountETH, uint liquidity) {\n   IERC20(token).approve(address(uniswapRouter), amountTokenDesired);\n   uniswapRouter.addLiquidityETH(token, amountTokenDesired, amountTokenMin, amountETHMin, msg.sender, deadline);\n }\n}\n",
  "sourcePath": "/Users/arnauddauber/Desktop/UNItest/contracts/MyDefi.sol",
  "compiler": {
    "name": "solc",
    "version": "0.6.12+commit.27d51765.Emscripten.clang"
  },
  "schemaVersion": "3.3.4",
  "updatedAt": "2021-04-09T17:21:22.507Z",
  "devdoc": {
    "kind": "dev",
    "methods": {},
    "version": 1
  },
  "userdoc": {
    "kind": "user",
    "methods": {},
    "version": 1
  }
}