{
  "contractName": "ProxySimple",
  "abi": [
    {
      "anonymous": false,
      "inputs": [
        {
          "indexed": true,
          "internalType": "address",
          "name": "previousOwner",
          "type": "address"
        },
        {
          "indexed": true,
          "internalType": "address",
          "name": "newOwner",
          "type": "address"
        }
      ],
      "name": "OwnershipTransferred",
      "type": "event"
    },
    {
      "anonymous": false,
      "inputs": [
        {
          "indexed": false,
          "internalType": "address",
          "name": "client",
          "type": "address"
        },
        {
          "indexed": false,
          "internalType": "uint256",
          "name": "amount",
          "type": "uint256"
        }
      ],
      "name": "authorizedWithdrawal",
      "type": "event"
    },
    {
      "anonymous": false,
      "inputs": [
        {
          "indexed": false,
          "internalType": "address",
          "name": "client",
          "type": "address"
        },
        {
          "indexed": false,
          "internalType": "uint256",
          "name": "amount",
          "type": "uint256"
        }
      ],
      "name": "valideDepot",
      "type": "event"
    },
    {
      "inputs": [
        {
          "internalType": "address",
          "name": "",
          "type": "address"
        }
      ],
      "name": "User",
      "outputs": [
        {
          "internalType": "bool",
          "name": "lister",
          "type": "bool"
        },
        {
          "internalType": "uint256",
          "name": "dayLock",
          "type": "uint256"
        },
        {
          "internalType": "uint256",
          "name": "amount",
          "type": "uint256"
        },
        {
          "internalType": "uint256",
          "name": "depositData",
          "type": "uint256"
        },
        {
          "internalType": "uint256",
          "name": "withdrawalPending",
          "type": "uint256"
        }
      ],
      "stateMutability": "view",
      "type": "function"
    },
    {
      "inputs": [
        {
          "internalType": "uint256",
          "name": "",
          "type": "uint256"
        }
      ],
      "name": "backToUser",
      "outputs": [
        {
          "internalType": "address",
          "name": "",
          "type": "address"
        }
      ],
      "stateMutability": "view",
      "type": "function"
    },
    {
      "inputs": [
        {
          "internalType": "uint256",
          "name": "",
          "type": "uint256"
        }
      ],
      "name": "clients",
      "outputs": [
        {
          "internalType": "bool",
          "name": "lister",
          "type": "bool"
        },
        {
          "internalType": "uint256",
          "name": "dayLock",
          "type": "uint256"
        },
        {
          "internalType": "uint256",
          "name": "amount",
          "type": "uint256"
        },
        {
          "internalType": "uint256",
          "name": "depositData",
          "type": "uint256"
        },
        {
          "internalType": "uint256",
          "name": "withdrawalPending",
          "type": "uint256"
        }
      ],
      "stateMutability": "view",
      "type": "function"
    },
    {
      "inputs": [],
      "name": "owner",
      "outputs": [
        {
          "internalType": "address",
          "name": "",
          "type": "address"
        }
      ],
      "stateMutability": "view",
      "type": "function"
    },
    {
      "inputs": [],
      "name": "renounceOwnership",
      "outputs": [],
      "stateMutability": "nonpayable",
      "type": "function"
    },
    {
      "inputs": [
        {
          "internalType": "address",
          "name": "newOwner",
          "type": "address"
        }
      ],
      "name": "transferOwnership",
      "outputs": [],
      "stateMutability": "nonpayable",
      "type": "function"
    },
    {
      "inputs": [
        {
          "internalType": "uint256",
          "name": "nb_dayLock",
          "type": "uint256"
        },
        {
          "internalType": "uint256",
          "name": "amount",
          "type": "uint256"
        }
      ],
      "name": "deposite",
      "outputs": [],
      "stateMutability": "payable",
      "type": "function"
    },
    {
      "inputs": [
        {
          "internalType": "uint256",
          "name": "withdrawalAmount",
          "type": "uint256"
        }
      ],
      "name": "withdrawPending",
      "outputs": [],
      "stateMutability": "payable",
      "type": "function"
    },
    {
      "inputs": [],
      "name": "getClients",
      "outputs": [
        {
          "components": [
            {
              "internalType": "bool",
              "name": "lister",
              "type": "bool"
            },
            {
              "internalType": "uint256",
              "name": "dayLock",
              "type": "uint256"
            },
            {
              "internalType": "uint256",
              "name": "amount",
              "type": "uint256"
            },
            {
              "internalType": "uint256",
              "name": "depositData",
              "type": "uint256"
            },
            {
              "internalType": "uint256",
              "name": "withdrawalPending",
              "type": "uint256"
            }
          ],
          "internalType": "struct ProxySimple.Client[]",
          "name": "",
          "type": "tuple[]"
        }
      ],
      "stateMutability": "view",
      "type": "function"
    },
    {
      "inputs": [
        {
          "internalType": "contract IERC20",
          "name": "_address",
          "type": "address"
        }
      ],
      "name": "Withdraw",
      "outputs": [],
      "stateMutability": "payable",
      "type": "function"
    }
  ],
  "bytecode": "0x6080604052600560035534801561001557600080fd5b5060006100266100c960201b60201c565b9050806000806101000a81548173ffffffffffffffffffffffffffffffffffffffff021916908373ffffffffffffffffffffffffffffffffffffffff1602179055508073ffffffffffffffffffffffffffffffffffffffff16600073ffffffffffffffffffffffffffffffffffffffff167f8be0079c531659141344cd1fd0a4f28419497f9722a3daafe3b4186f6b6457e060405160405180910390a3506100d1565b600033905090565b6115bc806100e06000396000f3fe6080604052600436106100915760003560e01c80638da5cb5b116100595780638da5cb5b14610172578063a2c2f1b01461019d578063f2fde38b146101b9578063f6761151146101e2578063f88af21d146101fe57610091565b8063230eb9c6146100965780632e585fd8146100d75780636db80995146100f3578063715018a61461011e57806388e7fb3f14610135575b600080fd5b3480156100a257600080fd5b506100bd60048036038101906100b8919061109c565b61023f565b6040516100ce9594939291906113b7565b60405180910390f35b6100f160048036038101906100ec9190611117565b610282565b005b3480156100ff57600080fd5b50610108610583565b6040516101159190611395565b60405180910390f35b34801561012a57600080fd5b50610133610625565b005b34801561014157600080fd5b5061015c60048036038101906101579190611117565b610792565b604051610169919061131a565b60405180910390f35b34801561017e57600080fd5b506101876107c5565b604051610194919061131a565b60405180910390f35b6101b760048036038101906101b29190611140565b6107ee565b005b3480156101c557600080fd5b506101e060048036038101906101db919061109c565b610a1a565b005b6101fc60048036038101906101f791906110ee565b610c0c565b005b34801561020a57600080fd5b5061022560048036038101906102209190611117565b610e0d565b6040516102369594939291906113b7565b60405180910390f35b60016020528060005260406000206000915090508060000160009054906101000a900460ff16908060010154908060020154908060030154908060040154905085565b600061031b600160003373ffffffffffffffffffffffffffffffffffffffff1673ffffffffffffffffffffffffffffffffffffffff16815260200190815260200160002060010154600160003373ffffffffffffffffffffffffffffffffffffffff1673ffffffffffffffffffffffffffffffffffffffff16815260200190815260200160002060030154610e6090919063ffffffff16565b905042811115610360576040517f08c379a00000000000000000000000000000000000000000000000000000000081526004016103579061140a565b60405180910390fd5b6000600160003373ffffffffffffffffffffffffffffffffffffffff1673ffffffffffffffffffffffffffffffffffffffff1681526020019081526020016000206003015442039050600061046360646104556064610447600160003373ffffffffffffffffffffffffffffffffffffffff1673ffffffffffffffffffffffffffffffffffffffff1681526020019081526020016000206002015461043960035461042b6312cc030061041d60648d610ee390919063ffffffff16565b610f7890919063ffffffff16565b610ee390919063ffffffff16565b610ee390919063ffffffff16565b610ee390919063ffffffff16565b610f7890919063ffffffff16565b905060006104bc82600160003373ffffffffffffffffffffffffffffffffffffffff1673ffffffffffffffffffffffffffffffffffffffff16815260200190815260200160002060020154610e6090919063ffffffff16565b9050808511156104cb57600080fd5b6104e085600454610e6090919063ffffffff16565b6004819055507f289473d20f7dbb55ce607f3e02b0de290bceb88a7728f441f04f7179c12da516338660405161051792919061136c565b60405180910390a1610576600160003373ffffffffffffffffffffffffffffffffffffffff1673ffffffffffffffffffffffffffffffffffffffff16815260200190815260200160002060020154600554610f8c90919063ffffffff16565b6005819055505050505050565b60606006805480602002602001604051908101604052809291908181526020016000905b8282101561061c57838290600052602060002090600502016040518060a00160405290816000820160009054906101000a900460ff16151515158152602001600182015481526020016002820154815260200160038201548152602001600482015481525050815260200190600101906105a7565b50505050905090565b61062d61100f565b73ffffffffffffffffffffffffffffffffffffffff1661064b6107c5565b73ffffffffffffffffffffffffffffffffffffffff16146106d4576040517f08c379a00000000000000000000000000000000000000000000000000000000081526004018080602001828103825260208152602001807f4f776e61626c653a2063616c6c6572206973206e6f7420746865206f776e657281525060200191505060405180910390fd5b600073ffffffffffffffffffffffffffffffffffffffff1660008054906101000a900473ffffffffffffffffffffffffffffffffffffffff1673ffffffffffffffffffffffffffffffffffffffff167f8be0079c531659141344cd1fd0a4f28419497f9722a3daafe3b4186f6b6457e060405160405180910390a360008060006101000a81548173ffffffffffffffffffffffffffffffffffffffff021916908373ffffffffffffffffffffffffffffffffffffffff160217905550565b60026020528060005260406000206000915054906101000a900473ffffffffffffffffffffffffffffffffffffffff1681565b60008060009054906101000a900473ffffffffffffffffffffffffffffffffffffffff16905090565b60004290506107fb611017565b6040518060a0016040528060011515815260200185815260200184815260200183815260200160008152509050600681908060018154018082558091505060019003906000526020600020906005020160009091909190915060008201518160000160006101000a81548160ff02191690831515021790555060208201518160010155604082015181600201556060820151816003015560808201518160040155505060006108b96001600680549050610f8c90919063ffffffff16565b9050600681815481106108c857fe5b9060005260206000209060050201600160003373ffffffffffffffffffffffffffffffffffffffff1673ffffffffffffffffffffffffffffffffffffffff1681526020019081526020016000206000820160009054906101000a900460ff168160000160006101000a81548160ff02191690831515021790555060018201548160010155600282015481600201556003820154816003015560048201548160040155905050336002600083815260200190815260200160002060006101000a81548173ffffffffffffffffffffffffffffffffffffffff021916908373ffffffffffffffffffffffffffffffffffffffff1602179055507f6839821ee8329994ce64b70bede16246719daa5bc775fc4e65e5bc1e71ccb79a33856040516109f092919061136c565b60405180910390a1610a0d84600554610e6090919063ffffffff16565b6005819055505050505050565b610a2261100f565b73ffffffffffffffffffffffffffffffffffffffff16610a406107c5565b73ffffffffffffffffffffffffffffffffffffffff1614610ac9576040517f08c379a00000000000000000000000000000000000000000000000000000000081526004018080602001828103825260208152602001807f4f776e61626c653a2063616c6c6572206973206e6f7420746865206f776e657281525060200191505060405180910390fd5b600073ffffffffffffffffffffffffffffffffffffffff168173ffffffffffffffffffffffffffffffffffffffff161415610b4f576040517f08c379a00000000000000000000000000000000000000000000000000000000081526004018080602001828103825260268152602001806115616026913960400191505060405180910390fd5b8073ffffffffffffffffffffffffffffffffffffffff1660008054906101000a900473ffffffffffffffffffffffffffffffffffffffff1673ffffffffffffffffffffffffffffffffffffffff167f8be0079c531659141344cd1fd0a4f28419497f9722a3daafe3b4186f6b6457e060405160405180910390a3806000806101000a81548173ffffffffffffffffffffffffffffffffffffffff021916908373ffffffffffffffffffffffffffffffffffffffff16021790555050565b610c1461100f565b73ffffffffffffffffffffffffffffffffffffffff16610c326107c5565b73ffffffffffffffffffffffffffffffffffffffff1614610cbb576040517f08c379a00000000000000000000000000000000000000000000000000000000081526004018080602001828103825260208152602001807f4f776e61626c653a2063616c6c6572206973206e6f7420746865206f776e657281525060200191505060405180910390fd5b6000806000600680549050905060005b81811415610e065760068181548110610ce057fe5b90600052602060002090600502016004015493506002600082815260200190815260200160002060009054906101000a900473ffffffffffffffffffffffffffffffffffffffff1692508473ffffffffffffffffffffffffffffffffffffffff166323b872dd3385876040518463ffffffff1660e01b8152600401610d6793929190611335565b602060405180830381600087803b158015610d8157600080fd5b505af1158015610d95573d6000803e3d6000fd5b505050506040513d601f19601f82011682018060405250810190610db991906110c5565b50610dcf84600454610f8c90919063ffffffff16565b600481905550600060068281548110610de457fe5b9060005260206000209060050201600401819055508080600101915050610ccb565b5050505050565b60068181548110610e1d57600080fd5b90600052602060002090600502016000915090508060000160009054906101000a900460ff16908060010154908060020154908060030154908060040154905085565b6000828284019150811015610edd576040517f08c379a00000000000000000000000000000000000000000000000000000000081526004018080602001828103825260148152602001807f64732d6d6174682d6164642d6f766572666c6f7700000000000000000000000081525060200191505060405180910390fd5b92915050565b600080821480610f005750828283850292508281610efd57fe5b04145b610f72576040517f08c379a00000000000000000000000000000000000000000000000000000000081526004018080602001828103825260148152602001807f64732d6d6174682d6d756c2d6f766572666c6f7700000000000000000000000081525060200191505060405180910390fd5b92915050565b6000818381610f8357fe5b04905092915050565b6000828284039150811115611009576040517f08c379a00000000000000000000000000000000000000000000000000000000081526004018080602001828103825260158152602001807f64732d6d6174682d7375622d756e646572666c6f77000000000000000000000081525060200191505060405180910390fd5b92915050565b600033905090565b6040518060a00160405280600015158152602001600081526020016000815260200160008152602001600081525090565b60008135905061105781611504565b92915050565b60008151905061106c8161151b565b92915050565b60008135905061108181611532565b92915050565b60008135905061109681611549565b92915050565b6000602082840312156110ae57600080fd5b60006110bc84828501611048565b91505092915050565b6000602082840312156110d757600080fd5b60006110e58482850161105d565b91505092915050565b60006020828403121561110057600080fd5b600061110e84828501611072565b91505092915050565b60006020828403121561112957600080fd5b600061113784828501611087565b91505092915050565b6000806040838503121561115357600080fd5b600061116185828601611087565b925050602061117285828601611087565b9150509250929050565b60006111888383611294565b60a08301905092915050565b61119d816114ce565b82525050565b6111ac81611474565b82525050565b60006111bd8261143a565b6111c78185611452565b93506111d28361142a565b8060005b838110156112035781516111ea888261117c565b97506111f583611445565b9250506001810190506111d6565b5085935050505092915050565b61121981611486565b82525050565b61122881611486565b82525050565b600061123b602883611463565b91507f646561646c696e657320666f7220626c6f636b696e672066756e6473206e6f7460008301527f20656c61707365640000000000000000000000000000000000000000000000006020830152604082019050919050565b60a0820160008201516112aa6000850182611210565b5060208201516112bd60208501826112fc565b5060408201516112d060408501826112fc565b5060608201516112e360608501826112fc565b5060808201516112f660808501826112fc565b50505050565b611305816114c4565b82525050565b611314816114c4565b82525050565b600060208201905061132f60008301846111a3565b92915050565b600060608201905061134a6000830186611194565b61135760208301856111a3565b611364604083018461130b565b949350505050565b60006040820190506113816000830185611194565b61138e602083018461130b565b9392505050565b600060208201905081810360008301526113af81846111b2565b905092915050565b600060a0820190506113cc600083018861121f565b6113d9602083018761130b565b6113e6604083018661130b565b6113f3606083018561130b565b611400608083018461130b565b9695505050505050565b600060208201905081810360008301526114238161122e565b9050919050565b6000819050602082019050919050565b600081519050919050565b6000602082019050919050565b600082825260208201905092915050565b600082825260208201905092915050565b600061147f826114a4565b9050919050565b60008115159050919050565b600061149d82611474565b9050919050565b600073ffffffffffffffffffffffffffffffffffffffff82169050919050565b6000819050919050565b60006114d9826114e0565b9050919050565b60006114eb826114f2565b9050919050565b60006114fd826114a4565b9050919050565b61150d81611474565b811461151857600080fd5b50565b61152481611486565b811461152f57600080fd5b50565b61153b81611492565b811461154657600080fd5b50565b611552816114c4565b811461155d57600080fd5b5056fe4f776e61626c653a206e6577206f776e657220697320746865207a65726f2061646472657373a26469706673582212201aa6f1f1c2dbd2ffb6314e89c65b61eab2f6166fc78df663978b2158c245d80e64736f6c63430007040033",
  "immutableReferences": {},
  "source": "// SPDX-License-Identifier: MIT\npragma solidity 0.7.4;\npragma experimental ABIEncoderV2;\n\nimport \"@openzeppelin/contracts/access/Ownable.sol\";\nimport \"@uniswap/v2-core/contracts/libraries/SafeMath.sol\";\nimport \"@openzeppelin/contracts/utils/Address.sol\";\nimport \"@openzeppelin/contracts/utils/Context.sol\";\nimport \"@openzeppelin/contracts/token/ERC20/IERC20.sol\";\n\n\ncontract ProxySimple is Ownable{\nusing SafeMath for uint;\n\n// Structure Client\n\n    struct Client {\n        bool lister;\n        uint dayLock;\n        uint amount;\n        uint depositData;\n        uint withdrawalPending;\n    }\n\n// Mapping\n\n    mapping (address => Client) public User;\n\n    // client\n    mapping (uint => address) public backToUser;\n\n// Variable\n\n    // Taux d'interet\n    uint apy = 5 ;\n\n    // Somme Global disponible prt  payer\n    uint totalWithdrawalAmount;\n\n    uint totalVotingPower;\n\n// Tableaux Client\n\n    Client[] public clients;\n\n// Event\n\n     event valideDepot(address client, uint amount);\n     event authorizedWithdrawal(address client, uint amount);\n\n// Function dposer des fonds - parametre nombre de jours bloqu =>(nb_dayLock) et le amount\n\n    function deposite (uint nb_dayLock, uint amount)  public payable  {\n\n    // Initialisation d'un variable  \"now\"\n    uint depositData = uint(block.timestamp);\n\n    // Enregistrement(blockChain) dans le Tableau Client\n    Client memory _client ;\n\n    // Variable _client = aux params(struct)\n    _client = Client(true, nb_dayLock, amount, depositData,0);\n\n    // Push les elements dans le Client[] public clients;\n    clients.push(_client);\n    uint Id = clients.length.sub(1);\n    User[msg.sender]=clients[Id];\n    backToUser[Id] = msg.sender;\n\n    // Validation de l'event\n    emit valideDepot(msg.sender, amount);\n\n    // Maj des amount de dpt\n    totalVotingPower= totalVotingPower.add(amount);\n  }\n\n// Function demande de retrait - parametre amount souhaitant retirer\n\n    function withdrawPending (uint withdrawalAmount) public payable {\n\n    // Verification du DayLock\n        uint minWithdrawalDate =User[msg.sender].depositData.add(User[msg.sender].dayLock);\n        require(minWithdrawalDate <= uint(block.timestamp),\"deadlines for blocking funds not elapsed\");\n\n    // Calcule du amount des interets disponible + le amount de depot initial = amount Total Disponible  l'instant\n        uint depositTime = uint(block.timestamp) - User[msg.sender].depositData;\n        uint interestAmount = ((depositTime.mul(100).div(315360000)).mul(apy).mul(User[msg.sender].amount).mul(100)).div(100);\n        uint amountTotal = User[msg.sender].amount.add(interestAmount);\n\n        require(withdrawalAmount <=  amountTotal);\n\n    // Maj du amount Global Payement\n        totalWithdrawalAmount = totalWithdrawalAmount.add(withdrawalAmount);\n\n    // Validation de l'event\n        emit authorizedWithdrawal(msg.sender, withdrawalAmount);\n\n    // Maj des amount de dpt\n       totalVotingPower= totalVotingPower.sub(User[msg.sender].amount);\n  }\n\n  function getClients() external view returns(Client[] memory) {\n    return clients;\n  }\n\n// Function de Retrait\n\n    function Withdraw (IERC20 _address) public payable onlyOwner {\n\n    uint aPayer;\n    address userRefund;\n    uint length = clients.length;\n    // recherche de tous les clients ayant fait une demande de retrait\n    for(uint i; i == length ; i++) {\n      aPayer = clients[i].withdrawalPending;\n      userRefund = backToUser[i];\n\n      IERC20(_address).transferFrom(msg.sender, userRefund, aPayer);\n\n    //Maj du totalWithdrawalAmount\n    totalWithdrawalAmount = totalWithdrawalAmount.sub(aPayer);\n    clients[i].withdrawalPending = 0;\n    }\n  }\n}\n",
  "sourcePath": "/Users/arnauddauber/Desktop/DEXsoFi/DEXSO/contracts/ProxySimple.sol",
  "compiler": {
    "name": "solc",
    "version": "0.7.4+commit.3f05b770.Emscripten.clang"
  },
  "schemaVersion": "3.3.4",
  "updatedAt": "2021-04-14T10:14:51.325Z",
  "devdoc": {
    "kind": "dev",
    "methods": {
      "owner()": {
        "details": "Returns the address of the current owner."
      },
      "renounceOwnership()": {
        "details": "Leaves the contract without owner. It will not be possible to call `onlyOwner` functions anymore. Can only be called by the current owner. NOTE: Renouncing ownership will leave the contract without an owner, thereby removing any functionality that is only available to the owner."
      },
      "transferOwnership(address)": {
        "details": "Transfers ownership of the contract to a new account (`newOwner`). Can only be called by the current owner."
      }
    },
    "version": 1
  },
  "userdoc": {
    "kind": "user",
    "methods": {},
    "version": 1
  }
}