{
  "contractName": "ProxySimple",
  "abi": [
    {
      "inputs": [],
      "stateMutability": "nonpayable",
      "type": "constructor"
    },
    {
      "anonymous": false,
      "inputs": [
        {
          "indexed": true,
          "internalType": "address",
          "name": "previousOwner",
          "type": "address"
        },
        {
          "indexed": true,
          "internalType": "address",
          "name": "newOwner",
          "type": "address"
        }
      ],
      "name": "OwnershipTransferred",
      "type": "event"
    },
    {
      "anonymous": false,
      "inputs": [
        {
          "indexed": false,
          "internalType": "address",
          "name": "client",
          "type": "address"
        },
        {
          "indexed": false,
          "internalType": "uint256",
          "name": "amount",
          "type": "uint256"
        }
      ],
      "name": "authorizedWithdrawal",
      "type": "event"
    },
    {
      "anonymous": false,
      "inputs": [
        {
          "indexed": false,
          "internalType": "address",
          "name": "client",
          "type": "address"
        },
        {
          "indexed": false,
          "internalType": "uint256",
          "name": "amount",
          "type": "uint256"
        }
      ],
      "name": "validDeposit",
      "type": "event"
    },
    {
      "anonymous": false,
      "inputs": [
        {
          "indexed": false,
          "internalType": "uint256",
          "name": "amount",
          "type": "uint256"
        }
      ],
      "name": "withdrawn",
      "type": "event"
    },
    {
      "inputs": [
        {
          "internalType": "uint256",
          "name": "",
          "type": "uint256"
        }
      ],
      "name": "adrClients",
      "outputs": [
        {
          "internalType": "address",
          "name": "",
          "type": "address"
        }
      ],
      "stateMutability": "view",
      "type": "function",
      "constant": true
    },
    {
      "inputs": [],
      "name": "owner",
      "outputs": [
        {
          "internalType": "address",
          "name": "",
          "type": "address"
        }
      ],
      "stateMutability": "view",
      "type": "function",
      "constant": true
    },
    {
      "inputs": [],
      "name": "renounceOwnership",
      "outputs": [],
      "stateMutability": "nonpayable",
      "type": "function"
    },
    {
      "inputs": [],
      "name": "stacking",
      "outputs": [
        {
          "internalType": "address",
          "name": "",
          "type": "address"
        }
      ],
      "stateMutability": "view",
      "type": "function",
      "constant": true
    },
    {
      "inputs": [],
      "name": "totalVotingPower",
      "outputs": [
        {
          "internalType": "uint256",
          "name": "",
          "type": "uint256"
        }
      ],
      "stateMutability": "view",
      "type": "function",
      "constant": true
    },
    {
      "inputs": [],
      "name": "totalWithdrawalAmount",
      "outputs": [
        {
          "internalType": "uint256",
          "name": "",
          "type": "uint256"
        }
      ],
      "stateMutability": "view",
      "type": "function",
      "constant": true
    },
    {
      "inputs": [
        {
          "internalType": "address",
          "name": "newOwner",
          "type": "address"
        }
      ],
      "name": "transferOwnership",
      "outputs": [],
      "stateMutability": "nonpayable",
      "type": "function"
    },
    {
      "inputs": [
        {
          "internalType": "address",
          "name": "",
          "type": "address"
        }
      ],
      "name": "user",
      "outputs": [
        {
          "internalType": "bool",
          "name": "lister",
          "type": "bool"
        },
        {
          "internalType": "uint256",
          "name": "withdrawPending",
          "type": "uint256"
        },
        {
          "internalType": "uint256",
          "name": "xTotalDeposit",
          "type": "uint256"
        }
      ],
      "stateMutability": "view",
      "type": "function",
      "constant": true
    },
    {
      "inputs": [],
      "name": "xLaunch",
      "outputs": [
        {
          "internalType": "uint256",
          "name": "",
          "type": "uint256"
        }
      ],
      "stateMutability": "view",
      "type": "function",
      "constant": true
    },
    {
      "inputs": [
        {
          "internalType": "contract IERC20",
          "name": "token",
          "type": "address"
        },
        {
          "internalType": "address",
          "name": "sender",
          "type": "address"
        },
        {
          "internalType": "address",
          "name": "recipient",
          "type": "address"
        },
        {
          "internalType": "uint256",
          "name": "amount",
          "type": "uint256"
        }
      ],
      "name": "transferProxy",
      "outputs": [],
      "stateMutability": "nonpayable",
      "type": "function"
    },
    {
      "inputs": [
        {
          "internalType": "contract IERC20",
          "name": "_tokenAd",
          "type": "address"
        }
      ],
      "name": "setTokenAd",
      "outputs": [],
      "stateMutability": "nonpayable",
      "type": "function"
    },
    {
      "inputs": [
        {
          "internalType": "address",
          "name": "contractAddr",
          "type": "address"
        }
      ],
      "name": "setStackingAddress",
      "outputs": [],
      "stateMutability": "nonpayable",
      "type": "function"
    },
    {
      "inputs": [
        {
          "internalType": "uint256",
          "name": "date",
          "type": "uint256"
        }
      ],
      "name": "updateXprice",
      "outputs": [
        {
          "internalType": "uint256",
          "name": "x",
          "type": "uint256"
        }
      ],
      "stateMutability": "view",
      "type": "function",
      "constant": true
    },
    {
      "inputs": [],
      "name": "totalWithdraw",
      "outputs": [
        {
          "internalType": "uint256",
          "name": "",
          "type": "uint256"
        }
      ],
      "stateMutability": "view",
      "type": "function",
      "constant": true
    },
    {
      "inputs": [],
      "name": "getAdrClients",
      "outputs": [
        {
          "internalType": "address[]",
          "name": "",
          "type": "address[]"
        }
      ],
      "stateMutability": "view",
      "type": "function",
      "constant": true
    },
    {
      "inputs": [],
      "name": "getTotalVotingPower",
      "outputs": [
        {
          "internalType": "uint256",
          "name": "",
          "type": "uint256"
        }
      ],
      "stateMutability": "view",
      "type": "function",
      "constant": true
    },
    {
      "inputs": [
        {
          "internalType": "address",
          "name": "_user",
          "type": "address"
        }
      ],
      "name": "getUser",
      "outputs": [
        {
          "components": [
            {
              "internalType": "bool",
              "name": "lister",
              "type": "bool"
            },
            {
              "internalType": "uint256",
              "name": "withdrawPending",
              "type": "uint256"
            },
            {
              "internalType": "uint256",
              "name": "xTotalDeposit",
              "type": "uint256"
            },
            {
              "internalType": "uint256[]",
              "name": "xDeposit",
              "type": "uint256[]"
            },
            {
              "internalType": "uint256[]",
              "name": "DepositLocked",
              "type": "uint256[]"
            }
          ],
          "internalType": "struct ProxySimple.Client",
          "name": "",
          "type": "tuple"
        }
      ],
      "stateMutability": "view",
      "type": "function",
      "constant": true
    },
    {
      "inputs": [
        {
          "internalType": "address",
          "name": "_user",
          "type": "address"
        }
      ],
      "name": "getUserDeposits",
      "outputs": [
        {
          "internalType": "uint256",
          "name": "",
          "type": "uint256"
        }
      ],
      "stateMutability": "view",
      "type": "function",
      "constant": true
    },
    {
      "inputs": [
        {
          "internalType": "address",
          "name": "borrowAddress",
          "type": "address"
        }
      ],
      "name": "setFundingProject",
      "outputs": [
        {
          "internalType": "address",
          "name": "",
          "type": "address"
        }
      ],
      "stateMutability": "nonpayable",
      "type": "function"
    },
    {
      "inputs": [
        {
          "internalType": "uint256",
          "name": "amount",
          "type": "uint256"
        }
      ],
      "name": "approveStacking",
      "outputs": [
        {
          "internalType": "bool",
          "name": "",
          "type": "bool"
        }
      ],
      "stateMutability": "nonpayable",
      "type": "function"
    },
    {
      "inputs": [
        {
          "internalType": "uint256",
          "name": "amount",
          "type": "uint256"
        }
      ],
      "name": "deposit",
      "outputs": [],
      "stateMutability": "payable",
      "type": "function",
      "payable": true
    },
    {
      "inputs": [
        {
          "internalType": "uint256",
          "name": "withdrawAmount",
          "type": "uint256"
        }
      ],
      "name": "wantWithdraw",
      "outputs": [
        {
          "internalType": "uint256",
          "name": "",
          "type": "uint256"
        }
      ],
      "stateMutability": "nonpayable",
      "type": "function"
    },
    {
      "inputs": [
        {
          "internalType": "contract IERC20",
          "name": "_address",
          "type": "address"
        }
      ],
      "name": "withdraw",
      "outputs": [],
      "stateMutability": "payable",
      "type": "function",
      "payable": true
    }
  ],
  "bytecode": "0x6080604052600560045562a066806005553480156200001d57600080fd5b50600062000030620000db60201b60201c565b9050806000806101000a81548173ffffffffffffffffffffffffffffffffffffffff021916908373ffffffffffffffffffffffffffffffffffffffff1602179055508073ffffffffffffffffffffffffffffffffffffffff16600073ffffffffffffffffffffffffffffffffffffffff167f8be0079c531659141344cd1fd0a4f28419497f9722a3daafe3b4186f6b6457e060405160405180910390a35042600681905550620000e3565b600033905090565b61338e80620000f36000396000f3fe6080604052600436106101405760003560e01c8063715018a6116100b6578063b6b55f251161006f578063b6b55f2514610479578063c62bfd8f14610495578063db1f497a146104c0578063dea07d41146104fd578063e23e0e0814610526578063f2fde38b1461055157610140565b8063715018a614610355578063771616021461036c57806381e7e20e146103a95780638a977b19146103e85780638da5cb5b146104255780639cc901bc1461045057610140565b806349be5f3a1161010857806349be5f3a1461025257806351cff8d91461027b578063671b3793146102975780636777f70c146102c25780636c8751a8146102ed5780636f77926b1461031857610140565b806311acc1a714610145578063164deade1461017057806324d6072c146101ad5780632a5bf6d2146101ea578063455fd62314610227575b600080fd5b34801561015157600080fd5b5061015a61057a565b6040516101679190613185565b60405180910390f35b34801561017c57600080fd5b50610197600480360381019061019291906128a4565b610584565b6040516101a49190612ecb565b60405180910390f35b3480156101b957600080fd5b506101d460048036038101906101cf91906128a4565b6105c0565b6040516101e19190613185565b60405180910390f35b3480156101f657600080fd5b50610211600480360381019061020c919061279d565b61104e565b60405161021e9190613185565b60405180910390f35b34801561023357600080fd5b5061023c61109a565b6040516102499190613185565b60405180910390f35b34801561025e57600080fd5b5061027960048036038101906102749190612841565b6110a4565b005b61029560048036038101906102909190612818565b6111b6565b005b3480156102a357600080fd5b506102ac611450565b6040516102b99190613185565b60405180910390f35b3480156102ce57600080fd5b506102d7611456565b6040516102e49190613185565b60405180910390f35b3480156102f957600080fd5b5061030261145c565b60405161030f9190612f6f565b60405180910390f35b34801561032457600080fd5b5061033f600480360381019061033a919061279d565b6114ea565b60405161034c9190613163565b60405180910390f35b34801561036157600080fd5b5061036a611622565b005b34801561037857600080fd5b50610393600480360381019061038e91906128a4565b61175d565b6040516103a09190612f91565b60405180910390f35b3480156103b557600080fd5b506103d060048036038101906103cb919061279d565b611887565b6040516103df93929190612fac565b60405180910390f35b3480156103f457600080fd5b5061040f600480360381019061040a919061279d565b6118be565b60405161041c9190612ecb565b60405180910390f35b34801561043157600080fd5b5061043a6119ff565b6040516104479190612ecb565b60405180910390f35b34801561045c57600080fd5b506104776004803603810190610472919061279d565b611a28565b005b610493600480360381019061048e91906128a4565b611ae8565b005b3480156104a157600080fd5b506104aa611fa7565b6040516104b79190612ecb565b60405180910390f35b3480156104cc57600080fd5b506104e760048036038101906104e291906128a4565b611fcd565b6040516104f49190613185565b60405180910390f35b34801561050957600080fd5b50610524600480360381019061051f9190612818565b612066565b005b34801561053257600080fd5b5061053b612126565b6040516105489190613185565b60405180910390f35b34801561055d57600080fd5b506105786004803603810190610573919061279d565b61212c565b005b6000600854905090565b600a818154811061059157fe5b906000526020600020016000915054906101000a900473ffffffffffffffffffffffffffffffffffffffff1681565b6000806105cd6000611fcd565b90506000620f4240905060006105fe836105f084886122d690919063ffffffff16565b61234690919063ffffffff16565b9050600160003373ffffffffffffffffffffffffffffffffffffffff1673ffffffffffffffffffffffffffffffffffffffff16815260200190815260200160002060020154811115610685576040517f08c379a000000000000000000000000000000000000000000000000000000000815260040161067c90613143565b60405180910390fd5b6000610704836106f686600160003373ffffffffffffffffffffffffffffffffffffffff1673ffffffffffffffffffffffffffffffffffffffff1681526020019081526020016000206003016000815481106106dd57fe5b90600052602060002001546122d690919063ffffffff16565b61234690919063ffffffff16565b9050600160003373ffffffffffffffffffffffffffffffffffffffff1673ffffffffffffffffffffffffffffffffffffffff16815260200190815260200160002060040160008154811061075457fe5b90600052602060002001548110156107a1576040517f08c379a000000000000000000000000000000000000000000000000000000000815260040161079890613103565b60405180910390fd5b6000600160003373ffffffffffffffffffffffffffffffffffffffff1673ffffffffffffffffffffffffffffffffffffffff1681526020019081526020016000206004018054905090506000806000805b84811015610ad957610864600160003373ffffffffffffffffffffffffffffffffffffffff1673ffffffffffffffffffffffffffffffffffffffff168152602001908152602001600020600401828154811061084a57fe5b90600052602060002001548361239c90919063ffffffff16565b915060006108e4896108d68c600160003373ffffffffffffffffffffffffffffffffffffffff1673ffffffffffffffffffffffffffffffffffffffff16815260200190815260200160002060030186815481106108bd57fe5b90600052602060002001546122d690919063ffffffff16565b61234690919063ffffffff16565b9050828c1061098f57600160003373ffffffffffffffffffffffffffffffffffffffff1673ffffffffffffffffffffffffffffffffffffffff168152602001908152602001600020600401828154811061093a57fe5b9060005260206000200154811015610987576040517f08c379a000000000000000000000000000000000000000000000000000000000815260040161097e906130c3565b60405180910390fd5b819450610acb565b828c1080156109f55750600160003373ffffffffffffffffffffffffffffffffffffffff1673ffffffffffffffffffffffffffffffffffffffff16815260200190815260200160002060040182815481106109e657fe5b90600052602060002001548110155b15610a1757819450610a108c846123f190919063ffffffff16565b9350610aca565b6000610a83600160003373ffffffffffffffffffffffffffffffffffffffff1673ffffffffffffffffffffffffffffffffffffffff1681526020019081526020016000206004018481548110610a6957fe5b9060005260206000200154856123f190919063ffffffff16565b9050808d1115610ac8576040517f08c379a0000000000000000000000000000000000000000000000000000000008152600401610abf90613083565b60405180910390fd5b505b5b5080806001019150506107f2565b50610b2f8a600160003373ffffffffffffffffffffffffffffffffffffffff1673ffffffffffffffffffffffffffffffffffffffff1681526020019081526020016000206001015461239c90919063ffffffff16565b600160003373ffffffffffffffffffffffffffffffffffffffff1673ffffffffffffffffffffffffffffffffffffffff168152602001908152602001600020600101819055506000339050610b85818587612441565b6000831115610e86576000610bb58a610ba78b876122d690919063ffffffff16565b61234690919063ffffffff16565b9050600160003373ffffffffffffffffffffffffffffffffffffffff1673ffffffffffffffffffffffffffffffffffffffff168152602001908152602001600020600301819080600181540180825580915050600190039060005260206000200160009091909190915055600160003373ffffffffffffffffffffffffffffffffffffffff1673ffffffffffffffffffffffffffffffffffffffff1681526020019081526020016000206004018190806001815401808255809150506001900390600052602060002001600090919091909150556000600160003373ffffffffffffffffffffffffffffffffffffffff1673ffffffffffffffffffffffffffffffffffffffff1681526020019081526020016000206003018054905090506000610ce96001836123f190919063ffffffff16565b90505b6000811115610e82576000610d0b6001836123f190919063ffffffff16565b9050600160003373ffffffffffffffffffffffffffffffffffffffff1673ffffffffffffffffffffffffffffffffffffffff1681526020019081526020016000206003018181548110610d5a57fe5b9060005260206000200154600160003373ffffffffffffffffffffffffffffffffffffffff1673ffffffffffffffffffffffffffffffffffffffff1681526020019081526020016000206003018381548110610db257fe5b9060005260206000200181905550600160003373ffffffffffffffffffffffffffffffffffffffff1673ffffffffffffffffffffffffffffffffffffffff1681526020019081526020016000206004018181548110610e0d57fe5b9060005260206000200154600160003373ffffffffffffffffffffffffffffffffffffffff1673ffffffffffffffffffffffffffffffffffffffff1681526020019081526020016000206004018381548110610e6557fe5b906000526020600020018190555050808060019003915050610cec565b5050505b610edb87600160003373ffffffffffffffffffffffffffffffffffffffff1673ffffffffffffffffffffffffffffffffffffffff168152602001908152602001600020600201546123f190919063ffffffff16565b600160003373ffffffffffffffffffffffffffffffffffffffff1673ffffffffffffffffffffffffffffffffffffffff16815260200190815260200160002060020181905550610f368b60075461239c90919063ffffffff16565b600781905550600260009054906101000a900473ffffffffffffffffffffffffffffffffffffffff1673ffffffffffffffffffffffffffffffffffffffff1663095ea7b3338d6040518363ffffffff1660e01b8152600401610f99929190612ee6565b602060405180830381600087803b158015610fb357600080fd5b505af1158015610fc7573d6000803e3d6000fd5b505050506040513d601f19601f82011682018060405250810190610feb91906127ef565b50611001876008546123f190919063ffffffff16565b6008819055507f289473d20f7dbb55ce607f3e02b0de290bceb88a7728f441f04f7179c12da516338c604051611038929190612ee6565b60405180910390a1505050505050505050919050565b6000600160008373ffffffffffffffffffffffffffffffffffffffff1673ffffffffffffffffffffffffffffffffffffffff168152602001908152602001600020600201549050919050565b6000600754905090565b6110ac6126fb565b73ffffffffffffffffffffffffffffffffffffffff166110ca6119ff565b73ffffffffffffffffffffffffffffffffffffffff1614611120576040517f08c379a0000000000000000000000000000000000000000000000000000000008152600401611117906130e3565b60405180910390fd5b8373ffffffffffffffffffffffffffffffffffffffff166323b872dd8484846040518463ffffffff1660e01b815260040161115d93929190612f0f565b602060405180830381600087803b15801561117757600080fd5b505af115801561118b573d6000803e3d6000fd5b505050506040513d601f19601f820116820180604052508101906111af91906127ef565b5050505050565b6111be6126fb565b73ffffffffffffffffffffffffffffffffffffffff166111dc6119ff565b73ffffffffffffffffffffffffffffffffffffffff1614611232576040517f08c379a0000000000000000000000000000000000000000000000000000000008152600401611229906130e3565b60405180910390fd5b600080600a8054905090506000805b82811015611408576000600a828154811061125857fe5b9060005260206000200160009054906101000a900473ffffffffffffffffffffffffffffffffffffffff169050600160008273ffffffffffffffffffffffffffffffffffffffff1673ffffffffffffffffffffffffffffffffffffffff1681526020019081526020016000206001015494506112dd858461239c90919063ffffffff16565b9250600754831115611324576040517f08c379a000000000000000000000000000000000000000000000000000000000815260040161131b90613123565b60405180910390fd5b8573ffffffffffffffffffffffffffffffffffffffff1663a9059cbb82876040518363ffffffff1660e01b815260040161135f929190612f46565b602060405180830381600087803b15801561137957600080fd5b505af115801561138d573d6000803e3d6000fd5b505050506040513d601f19601f820116820180604052508101906113b191906127ef565b506000600160008373ffffffffffffffffffffffffffffffffffffffff1673ffffffffffffffffffffffffffffffffffffffff16815260200190815260200160002060010181905550508080600101915050611241565b507fe6b43d01275ea8d9d25bfaa418ad4c2cba4924a59bae1903979130e0a2bbf19260075460405161143a9190613185565b60405180910390a1600060078190555050505050565b60085481565b60065481565b6060600a8054806020026020016040519081016040528092919081815260200182805480156114e057602002820191906000526020600020905b8160009054906101000a900473ffffffffffffffffffffffffffffffffffffffff1673ffffffffffffffffffffffffffffffffffffffff1681526020019060010190808311611496575b5050505050905090565b6114f2612703565b600160008373ffffffffffffffffffffffffffffffffffffffff1673ffffffffffffffffffffffffffffffffffffffff1681526020019081526020016000206040518060a00160405290816000820160009054906101000a900460ff161515151581526020016001820154815260200160028201548152602001600382018054806020026020016040519081016040528092919081815260200182805480156115ba57602002820191906000526020600020905b8154815260200190600101908083116115a6575b505050505081526020016004820180548060200260200160405190810160405280929190818152602001828054801561161257602002820191906000526020600020905b8154815260200190600101908083116115fe575b5050505050815250509050919050565b61162a6126fb565b73ffffffffffffffffffffffffffffffffffffffff166116486119ff565b73ffffffffffffffffffffffffffffffffffffffff161461169e576040517f08c379a0000000000000000000000000000000000000000000000000000000008152600401611695906130e3565b60405180910390fd5b600073ffffffffffffffffffffffffffffffffffffffff166000809054906101000a900473ffffffffffffffffffffffffffffffffffffffff1673ffffffffffffffffffffffffffffffffffffffff167f8be0079c531659141344cd1fd0a4f28419497f9722a3daafe3b4186f6b6457e060405160405180910390a360008060006101000a81548173ffffffffffffffffffffffffffffffffffffffff021916908373ffffffffffffffffffffffffffffffffffffffff160217905550565b6000806060600260009054906101000a900473ffffffffffffffffffffffffffffffffffffffff1673ffffffffffffffffffffffffffffffffffffffff1630856040516024016117ae929190612f46565b6040516020818303038152906040527f095ea7b3000000000000000000000000000000000000000000000000000000007bffffffffffffffffffffffffffffffffffffffffffffffffffffffff19166020820180517bffffffffffffffffffffffffffffffffffffffffffffffffffffffff83818316178352505050506040516118389190612eb4565b600060405180830381855af49150503d8060008114611873576040519150601f19603f3d011682016040523d82523d6000602084013e611878565b606091505b50915091508192505050919050565b60016020528060005260406000206000915090508060000160009054906101000a900460ff16908060010154908060020154905083565b60006118c86126fb565b73ffffffffffffffffffffffffffffffffffffffff166118e66119ff565b73ffffffffffffffffffffffffffffffffffffffff161461193c576040517f08c379a0000000000000000000000000000000000000000000000000000000008152600401611933906130e3565b60405180910390fd5b8173ffffffffffffffffffffffffffffffffffffffff166316fed3e26040518163ffffffff1660e01b815260040160206040518083038186803b15801561198257600080fd5b505afa158015611996573d6000803e3d6000fd5b505050506040513d601f19601f820116820180604052508101906119ba91906127c6565b600960006101000a81548173ffffffffffffffffffffffffffffffffffffffff021916908373ffffffffffffffffffffffffffffffffffffffff160217905550919050565b60008060009054906101000a900473ffffffffffffffffffffffffffffffffffffffff16905090565b611a306126fb565b73ffffffffffffffffffffffffffffffffffffffff16611a4e6119ff565b73ffffffffffffffffffffffffffffffffffffffff1614611aa4576040517f08c379a0000000000000000000000000000000000000000000000000000000008152600401611a9b906130e3565b60405180910390fd5b80600360006101000a81548173ffffffffffffffffffffffffffffffffffffffff021916908373ffffffffffffffffffffffffffffffffffffffff16021790555050565b60008111611b2b576040517f08c379a0000000000000000000000000000000000000000000000000000000008152600401611b2290612fe3565b60405180910390fd5b6000611b376000611fcd565b90506000620f424090506000339050600260009054906101000a900473ffffffffffffffffffffffffffffffffffffffff1673ffffffffffffffffffffffffffffffffffffffff166323b872dd82600360009054906101000a900473ffffffffffffffffffffffffffffffffffffffff16876040518463ffffffff1660e01b8152600401611bc793929190612f0f565b602060405180830381600087803b158015611be157600080fd5b505af1158015611bf5573d6000803e3d6000fd5b505050506040513d601f19601f82011682018060405250810190611c1991906127ef565b506000611c4184611c3385886122d690919063ffffffff16565b61234690919063ffffffff16565b9050600160003373ffffffffffffffffffffffffffffffffffffffff1673ffffffffffffffffffffffffffffffffffffffff168152602001908152602001600020600301819080600181540180825580915050600190039060005260206000200160009091909190915055611d0181600160003373ffffffffffffffffffffffffffffffffffffffff1673ffffffffffffffffffffffffffffffffffffffff1681526020019081526020016000206002015461239c90919063ffffffff16565b600160003373ffffffffffffffffffffffffffffffffffffffff1673ffffffffffffffffffffffffffffffffffffffff168152602001908152602001600020600201819055506000611d54600554611fcd565b90506000611d7d85611d6f84866122d690919063ffffffff16565b61234690919063ffffffff16565b9050600160003373ffffffffffffffffffffffffffffffffffffffff1673ffffffffffffffffffffffffffffffffffffffff16815260200190815260200160002060040181908060018154018082558091505060019003906000526020600020016000909190919091505560001515600160003373ffffffffffffffffffffffffffffffffffffffff1673ffffffffffffffffffffffffffffffffffffffff16815260200190815260200160002060000160009054906101000a900460ff1615151415611f4a57600a339080600181540180825580915050600190039060005260206000200160009091909190916101000a81548173ffffffffffffffffffffffffffffffffffffffff021916908373ffffffffffffffffffffffffffffffffffffffff16021790555060018060003373ffffffffffffffffffffffffffffffffffffffff1673ffffffffffffffffffffffffffffffffffffffff16815260200190815260200160002060000160006101000a81548160ff0219169083151502179055506000600160003373ffffffffffffffffffffffffffffffffffffffff1673ffffffffffffffffffffffffffffffffffffffff168152602001908152602001600020600101819055505b7fa2f565c4c54c741c5371b9b87afec1b21d46d9a157fd88dd94dc43915a4895613388604051611f7b929190612ee6565b60405180910390a1611f988360085461239c90919063ffffffff16565b60088190555050505050505050565b600360009054906101000a900473ffffffffffffffffffffffffffffffffffffffff1681565b600080620f4240905061205e61204f60646120416004546120336301e13380612025886120176006546120098e4261239c90919063ffffffff16565b6123f190919063ffffffff16565b6122d690919063ffffffff16565b61234690919063ffffffff16565b6122d690919063ffffffff16565b61234690919063ffffffff16565b8261239c90919063ffffffff16565b915050919050565b61206e6126fb565b73ffffffffffffffffffffffffffffffffffffffff1661208c6119ff565b73ffffffffffffffffffffffffffffffffffffffff16146120e2576040517f08c379a00000000000000000000000000000000000000000000000000000000081526004016120d9906130e3565b60405180910390fd5b80600260006101000a81548173ffffffffffffffffffffffffffffffffffffffff021916908373ffffffffffffffffffffffffffffffffffffffff16021790555050565b60075481565b6121346126fb565b73ffffffffffffffffffffffffffffffffffffffff166121526119ff565b73ffffffffffffffffffffffffffffffffffffffff16146121a8576040517f08c379a000000000000000000000000000000000000000000000000000000000815260040161219f906130e3565b60405180910390fd5b600073ffffffffffffffffffffffffffffffffffffffff168173ffffffffffffffffffffffffffffffffffffffff161415612218576040517f08c379a000000000000000000000000000000000000000000000000000000000815260040161220f90613003565b60405180910390fd5b8073ffffffffffffffffffffffffffffffffffffffff166000809054906101000a900473ffffffffffffffffffffffffffffffffffffffff1673ffffffffffffffffffffffffffffffffffffffff167f8be0079c531659141344cd1fd0a4f28419497f9722a3daafe3b4186f6b6457e060405160405180910390a3806000806101000a81548173ffffffffffffffffffffffffffffffffffffffff021916908373ffffffffffffffffffffffffffffffffffffffff16021790555050565b6000808314156122e95760009050612340565b60008284029050828482816122fa57fe5b041461233b576040517f08c379a0000000000000000000000000000000000000000000000000000000008152600401612332906130a3565b60405180910390fd5b809150505b92915050565b600080821161238a576040517f08c379a000000000000000000000000000000000000000000000000000000000815260040161238190613063565b60405180910390fd5b81838161239357fe5b04905092915050565b6000808284019050838110156123e7576040517f08c379a00000000000000000000000000000000000000000000000000000000081526004016123de90613023565b60405180910390fd5b8091505092915050565b600082821115612436576040517f08c379a000000000000000000000000000000000000000000000000000000000815260040161242d90613043565b60405180910390fd5b818303905092915050565b60006124576001836123f190919063ffffffff16565b9050600061246e84836123f190919063ffffffff16565b905060005b818110156126195760006124a36001612495888561239c90919063ffffffff16565b61239c90919063ffffffff16565b9050600160008873ffffffffffffffffffffffffffffffffffffffff1673ffffffffffffffffffffffffffffffffffffffff16815260200190815260200160002060030181815481106124f257fe5b9060005260206000200154600160008973ffffffffffffffffffffffffffffffffffffffff1673ffffffffffffffffffffffffffffffffffffffff168152602001908152602001600020600301838154811061254a57fe5b9060005260206000200181905550600160008873ffffffffffffffffffffffffffffffffffffffff1673ffffffffffffffffffffffffffffffffffffffff16815260200190815260200160002060040181815481106125a557fe5b9060005260206000200154600160008973ffffffffffffffffffffffffffffffffffffffff1673ffffffffffffffffffffffffffffffffffffffff16815260200190815260200160002060040183815481106125fd57fe5b9060005260206000200181905550508080600101915050612473565b5060005b8481116126f357600160008773ffffffffffffffffffffffffffffffffffffffff1673ffffffffffffffffffffffffffffffffffffffff16815260200190815260200160002060030180548061266f57fe5b60019003818190600052602060002001600090559055600160008773ffffffffffffffffffffffffffffffffffffffff1673ffffffffffffffffffffffffffffffffffffffff1681526020019081526020016000206004018054806126d057fe5b60019003818190600052602060002001600090559055808060010191505061261d565b505050505050565b600033905090565b6040518060a00160405280600015158152602001600081526020016000815260200160608152602001606081525090565b600081359050612743816132fc565b92915050565b600081519050612758816132fc565b92915050565b60008151905061276d81613313565b92915050565b6000813590506127828161332a565b92915050565b60008135905061279781613341565b92915050565b6000602082840312156127af57600080fd5b60006127bd84828501612734565b91505092915050565b6000602082840312156127d857600080fd5b60006127e684828501612749565b91505092915050565b60006020828403121561280157600080fd5b600061280f8482850161275e565b91505092915050565b60006020828403121561282a57600080fd5b600061283884828501612773565b91505092915050565b6000806000806080858703121561285757600080fd5b600061286587828801612773565b945050602061287687828801612734565b935050604061288787828801612734565b925050606061289887828801612788565b91505092959194509250565b6000602082840312156128b657600080fd5b60006128c484828501612788565b91505092915050565b60006128d9838361290c565b60208301905092915050565b60006128f18383612e96565b60208301905092915050565b61290681613293565b82525050565b61291581613239565b82525050565b61292481613239565b82525050565b6000612935826131c0565b61293f81856131fb565b935061294a836131a0565b8060005b8381101561297b57815161296288826128cd565b975061296d836131e1565b92505060018101905061294e565b5085935050505092915050565b6000612993826131cb565b61299d818561320c565b93506129a8836131b0565b8060005b838110156129d95781516129c088826128e5565b97506129cb836131ee565b9250506001810190506129ac565b5085935050505092915050565b6129ef8161324b565b82525050565b6129fe8161324b565b82525050565b6000612a0f826131d6565b612a19818561321d565b9350612a298185602086016132c9565b80840191505092915050565b6000612a42601183613228565b91507f63616e206e6f74206465706f73697420300000000000000000000000000000006000830152602082019050919050565b6000612a82602683613228565b91507f4f776e61626c653a206e6577206f776e657220697320746865207a65726f206160008301527f64647265737300000000000000000000000000000000000000000000000000006020830152604082019050919050565b6000612ae8601b83613228565b91507f536166654d6174683a206164646974696f6e206f766572666c6f7700000000006000830152602082019050919050565b6000612b28601e83613228565b91507f536166654d6174683a207375627472616374696f6e206f766572666c6f7700006000830152602082019050919050565b6000612b68601a83613228565b91507f536166654d6174683a206469766973696f6e206279207a65726f0000000000006000830152602082019050919050565b6000612ba8602683613228565b91507f63616e206e6f742077697468647261772066726f6d2061206c6f636b6564206460008301527f65706f73697400000000000000000000000000000000000000000000000000006020830152604082019050919050565b6000612c0e602183613228565b91507f536166654d6174683a206d756c7469706c69636174696f6e206f766572666c6f60008301527f77000000000000000000000000000000000000000000000000000000000000006020830152604082019050919050565b6000612c74602183613228565b91507f63616e206e6f742077697468647261772061206c6f636b6564206465706f736960008301527f74000000000000000000000000000000000000000000000000000000000000006020830152604082019050919050565b6000612cda602083613228565b91507f4f776e61626c653a2063616c6c6572206973206e6f7420746865206f776e65726000830152602082019050919050565b6000612d1a602983613228565b91507f746865206669727374206465706f7369742063616e206e6f7420626520756e6c60008301527f6f636b6564206e6f7700000000000000000000000000000000000000000000006020830152604082019050919050565b6000612d80601183613228565b91507f746f6f206d7563682057697468647261770000000000000000000000000000006000830152602082019050919050565b6000612dc0602883613228565b91507f63616e206e6f74207769746864726177206d6f7265207468616e20796f75206460008301527f65706f73697465640000000000000000000000000000000000000000000000006020830152604082019050919050565b600060a083016000830151612e3160008601826129e6565b506020830151612e446020860182612e96565b506040830151612e576040860182612e96565b5060608301518482036060860152612e6f8282612988565b91505060808301518482036080860152612e898282612988565b9150508091505092915050565b612e9f81613289565b82525050565b612eae81613289565b82525050565b6000612ec08284612a04565b915081905092915050565b6000602082019050612ee0600083018461291b565b92915050565b6000604082019050612efb60008301856128fd565b612f086020830184612ea5565b9392505050565b6000606082019050612f24600083018661291b565b612f31602083018561291b565b612f3e6040830184612ea5565b949350505050565b6000604082019050612f5b600083018561291b565b612f686020830184612ea5565b9392505050565b60006020820190508181036000830152612f89818461292a565b905092915050565b6000602082019050612fa660008301846129f5565b92915050565b6000606082019050612fc160008301866129f5565b612fce6020830185612ea5565b612fdb6040830184612ea5565b949350505050565b60006020820190508181036000830152612ffc81612a35565b9050919050565b6000602082019050818103600083015261301c81612a75565b9050919050565b6000602082019050818103600083015261303c81612adb565b9050919050565b6000602082019050818103600083015261305c81612b1b565b9050919050565b6000602082019050818103600083015261307c81612b5b565b9050919050565b6000602082019050818103600083015261309c81612b9b565b9050919050565b600060208201905081810360008301526130bc81612c01565b9050919050565b600060208201905081810360008301526130dc81612c67565b9050919050565b600060208201905081810360008301526130fc81612ccd565b9050919050565b6000602082019050818103600083015261311c81612d0d565b9050919050565b6000602082019050818103600083015261313c81612d73565b9050919050565b6000602082019050818103600083015261315c81612db3565b9050919050565b6000602082019050818103600083015261317d8184612e19565b905092915050565b600060208201905061319a6000830184612ea5565b92915050565b6000819050602082019050919050565b6000819050602082019050919050565b600081519050919050565b600081519050919050565b600081519050919050565b6000602082019050919050565b6000602082019050919050565b600082825260208201905092915050565b600082825260208201905092915050565b600081905092915050565b600082825260208201905092915050565b600061324482613269565b9050919050565b60008115159050919050565b600061326282613239565b9050919050565b600073ffffffffffffffffffffffffffffffffffffffff82169050919050565b6000819050919050565b600061329e826132a5565b9050919050565b60006132b0826132b7565b9050919050565b60006132c282613269565b9050919050565b60005b838110156132e75780820151818401526020810190506132cc565b838111156132f6576000848401525b50505050565b61330581613239565b811461331057600080fd5b50565b61331c8161324b565b811461332757600080fd5b50565b61333381613257565b811461333e57600080fd5b50565b61334a81613289565b811461335557600080fd5b5056fea26469706673582212208f24e9822a82c2a5961876346ff172512bd816a9535edbf983439eff24f20a8864736f6c634300060b0033",
  "immutableReferences": {},
  "source": "// SPDX-License-Identifier: MIT\npragma solidity 0.6.11;\npragma experimental ABIEncoderV2;\n\nimport \"@openzeppelin/contracts/access/Ownable.sol\";\nimport \"@openzeppelin/contracts/math/SafeMath.sol\";\nimport \"@openzeppelin/contracts/utils/Address.sol\";\nimport \"@openzeppelin/contracts/utils/Context.sol\";\n//import \"@openzeppelin/contracts/token/ERC20/IERC20.sol\";\nimport \"./Stacking.sol\";\nimport \"./interfaces/IBorrow.sol\";\n\n\n\n\ncontract ProxySimple is Ownable{\n  using SafeMath for uint;\n\n\n  // Client Structure\n\n  struct Client {\n    bool lister; // registred in adrClients\n    uint withdrawPending; // total withdraw request\n    uint xTotalDeposit; // total deposit expressed in x value\n    uint[] xDeposit; // array of the differents deposits in x value\n    uint[] DepositLocked; // array of the differents deposits when the deposit could be withdraw\n  }\n\n  // Mapping\n\n  mapping (address => Client) public user;\n\n  // Variable\n\n  // Token address accepted as\n  IERC20 tokenAd;\n\n  // Staking contract address\n  address public stacking;\n\n  // Interest\n  uint apy = 5 ;\n  // Lock times\n  uint timeLock = 10512000;\n  // Contract deployment date\n  uint public xLaunch;\n\n  // Global sum available ready to pay\n  uint public totalWithdrawalAmount;\n\n  uint public totalVotingPower;\n\n  address fundingProject;\n\n  // Customer Tables\n\n  address[] public adrClients;\n\n  // Event\n\n  event validDeposit(address client, uint amount);\n  event authorizedWithdrawal(address client, uint amount);\n  event withdrawn(uint amount);\n\n  // Constructor\n\n  constructor() public{\n    xLaunch = block.timestamp;\n  }\n\n  // This function is just for testing\n  function transferProxy(IERC20 token, address sender, address recipient, uint amount) external onlyOwner{\n    IERC20(token).transferFrom(sender, recipient, amount);\n  }\n\n  /// @notice Define IERC20 token address accepted as deposit\n  /// @dev restricted to the contract's owner\n  /// @param _tokenAd IERC20 the token address\n  function setTokenAd(IERC20 _tokenAd) external onlyOwner{\n    tokenAd=_tokenAd;\n  }\n\n\n  /// @notice Define stacking contract address to send the deposit\n  /// @dev could be upgraded by using an stacking interface ?\n  /// @param contractAddr the address of the stacking contract\n  function setStackingAddress(address contractAddr) external onlyOwner {\n    stacking = contractAddr ;\n  }\n\n  /// @notice fetch the value of x, give actual value if argument equal to zero\n  /// @dev view function usefull for interest computation\n  /// @param date a epoch time to add at the current time to fetch x value in the future\n  ///@return x the value for a given date\n  function updateXprice(uint date) public view returns(uint x){\n    uint z = 1000000;\n    x = z.add((((block.timestamp.add(date)).sub(xLaunch)).mul(z).div(31536000)).mul(apy).div(100));\n  }\n\n  function totalWithdraw() external view returns(uint) {\n    return totalWithdrawalAmount;\n  }\n\n  /// @notice return the client's address aray\n  /// @dev usefull as relay for sending the client addresses to a borrow.sol contract\n  /// @dev could be useless if it is possible access directly to the contract variable\n  /// @return array of client address\n  function getAdrClients() external view returns(address[] memory) {\n    return adrClients;\n  }\n\n  /// @notice return the total voting power\n  /// @dev it represents total summed xDeposit of every client\n  /// @return big number totalVotingPower\n  function getTotalVotingPower() external view returns(uint) {\n    return totalVotingPower;\n  }\n  /// @notice return client object\n  /// @dev usefull as relay for sending the client properties to a borrow.sol contract\n  /// @param _user the client address\n  /// @return client object\n  function getUser(address _user) external view returns(Client memory) {\n    return user[_user];\n  }\n\n\n  /// @dev usefull as relay for sending the client total deposit in x value to a borrow.sol contract\n  /// @param _user the client address\n  /// @return client object\n  function getUserDeposits(address _user) external view returns(uint) {\n    return user[_user].xTotalDeposit;\n  }\n\n  /// @notice Define the project address to receive donations and funds\n  /// @dev the address is set by borrow contract before setting it here\n  /// @param borrowAddress the address of the wining project funding in borrow contract\n  function setFundingProject(address borrowAddress) external onlyOwner returns(address) {\n    fundingProject = IBorrow(borrowAddress).receiverAddress();\n  }\n\n  /// @notice allow the user to send ERC20 to the stacking contract\n  /// @dev use of a delegate call to pass the stacking address as argument for approve function\n  /// @param amount the ERC20 token amount to approve for the stacking contract\n  function approveStacking(uint amount) external returns(bool){\n    (bool success, bytes memory result) = address(tokenAd).delegatecall(abi.encodeWithSignature(\"approve(address,uint256)\", address(this), amount));\n    return success;\n    }\n\n  /* function transferToStacking(address account, uint amount) internal returns(bool) {\n    (bool success, bytes memory result) = address(tokenAd).delegatecall(abi.encodeWithSignature(\"transferFrom(address,address,uint256)\",, stacking, amount));\n    return success;\n  } */\n  /// @notice make a deposit by the user in the staking contract\n  /// @dev set a deposit lock by computation of the deposit value with interests at the unlock date\n  /// and verification when calling withdrawPending\n  /// @param amount the desired amount to deposit by the user\n  function deposit (uint amount) public payable  {\n    require(amount > 0, \"can not deposit 0\");\n    uint x = updateXprice(0);\n    uint z = 1000000;\n    address account = address(msg.sender);\n    IERC20(tokenAd).transferFrom(account, stacking, amount);\n    uint depositToX = (amount.mul(z)).div(x);\n    user[msg.sender].xDeposit.push(depositToX);\n    user[msg.sender].xTotalDeposit = user[msg.sender].xTotalDeposit.add(depositToX);\n    uint y = updateXprice(timeLock);\n    uint lockedAmount =(depositToX.mul(y)).div(z);\n    user[msg.sender].DepositLocked.push(lockedAmount);\n\n    if (user[msg.sender].lister == false) {\n      adrClients.push(msg.sender);\n      user[msg.sender].lister = true;\n      user[msg.sender].withdrawPending = 0;\n    }\n\n    // Event validation\n    emit validDeposit(msg.sender, amount);\n    // Update of the deposit amount\n    totalVotingPower= totalVotingPower.add(depositToX);\n  }\n\n\n  function deleteUserDeposits(address usr, uint to, uint long) internal {\n        uint lastIndex = long.sub(1);\n        uint diff = lastIndex.sub(to);\n        for (uint i; i < diff ; i++) {\n          uint j = i.add(to).add(1);\n          user[usr].xDeposit[i] = user[usr].xDeposit[j];\n          user[usr].DepositLocked[i] = user[usr].DepositLocked[j];\n          }\n          for (uint i; i <= to ; i++) {\n          user[usr].xDeposit.pop();\n          user[usr].DepositLocked.pop();\n        }\n      }\n\n  /// @notice make a withdraw request by the user\n  /// @dev fetch the differents deposits eligible for withdraw\n  /// and delete them from the client array if withdrawn\n  /// @param withdrawAmount the desired amount to withdraw by the user\n  function wantWithdraw (uint withdrawAmount) public returns(uint){\n    uint x = updateXprice(0);\n    uint z = 1000000;\n    uint xWithdraw = withdrawAmount.mul(z).div(x);\n    require(xWithdraw <= user[msg.sender].xTotalDeposit, \"can not withdraw more than you deposited\");\n    uint deposit0 = (user[msg.sender].xDeposit[0]).mul(x).div(z);\n    require(deposit0  >= user[msg.sender].DepositLocked[0], \"the first deposit can not be unlocked now\");\n    uint length = (user[msg.sender].DepositLocked).length;\n    uint withdraw;\n    uint leftovers;\n    uint sumDeposit;\n    for (uint i; i < length; i++) {\n      sumDeposit = sumDeposit.add(user[msg.sender].DepositLocked[i]);\n      uint depositI = (user[msg.sender].xDeposit[i]).mul(x).div(z);\n      if (withdrawAmount >= sumDeposit) {\n        require(depositI >= user[msg.sender].DepositLocked[i],\"can not withdraw a locked deposit\");\n        withdraw = i;\n      } else if (withdrawAmount < sumDeposit && depositI >= user[msg.sender].DepositLocked[i]) {\n        withdraw = i;\n        leftovers = sumDeposit.sub(withdrawAmount);\n      } else {\n        uint overDeposit = sumDeposit.sub(user[msg.sender].DepositLocked[i]);\n        require (withdrawAmount <= overDeposit, \"can not withdraw from a locked deposit\");\n        }\n    }\n\n    user[msg.sender].withdrawPending = user[msg.sender].withdrawPending.add(withdrawAmount);\n    address usr = msg.sender;\n\n    deleteUserDeposits(usr,withdraw,length);\n\n     if (leftovers > 0) {\n      uint xleftovers = leftovers.mul(z).div(x);\n      user[msg.sender].xDeposit.push(xleftovers);\n      user[msg.sender].DepositLocked.push(xleftovers);\n      uint newLenght = user[msg.sender].xDeposit.length;\n      for (uint i = newLenght.sub(1); i > 0; i--) {\n        uint j = i.sub(1);\n        user[msg.sender].xDeposit[i] = user[msg.sender].xDeposit[j];\n        user[msg.sender].DepositLocked[i] = user[msg.sender].DepositLocked[j];\n      }\n    }\n\n    user[msg.sender].xTotalDeposit = user[msg.sender].xTotalDeposit.sub(xWithdraw);\n    // Global payment update\n    totalWithdrawalAmount = totalWithdrawalAmount.add(withdrawAmount);\n\n    IERC20(tokenAd).approve(msg.sender, withdrawAmount);\n\n    totalVotingPower= totalVotingPower.sub(xWithdraw);\n    // Event validation\n    emit authorizedWithdrawal(msg.sender, withdrawAmount);\n  }\n\n\n  /// @notice make an effective withdraw for the user by the contract owner\n  /// @dev fetch the differents pending withdraws from the differents user and pay them\n  /// @param _address the IERC20 token address in use to payback the users\n  function withdraw (IERC20 _address) public payable onlyOwner {\n    uint toPay;\n    uint length = adrClients.length;\n    uint sumWithdraw;\n    // Search for all customers who have requested a withdrawal\n    for(uint i; i < length ; i++) {\n      address usr =  adrClients[i];\n      toPay = user[usr].withdrawPending;\n      sumWithdraw = sumWithdraw.add(toPay);\n\n      require(sumWithdraw <= totalWithdrawalAmount, \"too much Withdraw\");\n\n      IERC20(_address).transfer(usr, toPay);\n      user[usr].withdrawPending = 0;\n    }\n    emit withdrawn(totalWithdrawalAmount);\n    // totalWithdrawalAmount update\n    totalWithdrawalAmount = 0;\n  }\n}\n",
  "sourcePath": "/Users/arnauddauber/Desktop/DEXsoFi/solipay/Solipay/contracts/ProxySimple.sol",
  "compiler": {
    "name": "solc",
    "version": "0.6.11+commit.5ef660b1.Emscripten.clang"
  },
  "schemaVersion": "3.3.4",
  "updatedAt": "2021-05-05T22:16:29.236Z",
  "networkType": "ethereum",
  "devdoc": {
    "kind": "dev",
    "methods": {
      "approveStacking(uint256)": {
        "details": "use of a delegate call to pass the stacking address as argument for approve function",
        "params": {
          "amount": "the ERC20 token amount to approve for the stacking contract"
        }
      },
      "deposit(uint256)": {
        "details": "set a deposit lock by computation of the deposit value with interests at the unlock date and verification when calling withdrawPending",
        "params": {
          "amount": "the desired amount to deposit by the user"
        }
      },
      "getAdrClients()": {
        "details": "usefull as relay for sending the client addresses to a borrow.sol contractcould be useless if it is possible access directly to the contract variable",
        "returns": {
          "_0": "array of client address"
        }
      },
      "getTotalVotingPower()": {
        "details": "it represents total summed xDeposit of every client",
        "returns": {
          "_0": "big number totalVotingPower"
        }
      },
      "getUser(address)": {
        "details": "usefull as relay for sending the client properties to a borrow.sol contract",
        "params": {
          "_user": "the client address"
        },
        "returns": {
          "_0": "client object"
        }
      },
      "getUserDeposits(address)": {
        "details": "usefull as relay for sending the client total deposit in x value to a borrow.sol contract",
        "params": {
          "_user": "the client address"
        },
        "returns": {
          "_0": "client object"
        }
      },
      "owner()": {
        "details": "Returns the address of the current owner."
      },
      "renounceOwnership()": {
        "details": "Leaves the contract without owner. It will not be possible to call `onlyOwner` functions anymore. Can only be called by the current owner. NOTE: Renouncing ownership will leave the contract without an owner, thereby removing any functionality that is only available to the owner."
      },
      "setFundingProject(address)": {
        "details": "the address is set by borrow contract before setting it here",
        "params": {
          "borrowAddress": "the address of the wining project funding in borrow contract"
        }
      },
      "setStackingAddress(address)": {
        "details": "could be upgraded by using an stacking interface ?",
        "params": {
          "contractAddr": "the address of the stacking contract"
        }
      },
      "setTokenAd(address)": {
        "details": "restricted to the contract's owner",
        "params": {
          "_tokenAd": "IERC20 the token address"
        }
      },
      "transferOwnership(address)": {
        "details": "Transfers ownership of the contract to a new account (`newOwner`). Can only be called by the current owner."
      },
      "updateXprice(uint256)": {
        "details": "view function usefull for interest computation",
        "params": {
          "date": "a epoch time to add at the current time to fetch x value in the future"
        },
        "returns": {
          "x": "the value for a given date"
        }
      },
      "wantWithdraw(uint256)": {
        "details": "fetch the differents deposits eligible for withdraw and delete them from the client array if withdrawn",
        "params": {
          "withdrawAmount": "the desired amount to withdraw by the user"
        }
      },
      "withdraw(address)": {
        "details": "fetch the differents pending withdraws from the differents user and pay them",
        "params": {
          "_address": "the IERC20 token address in use to payback the users"
        }
      }
    },
    "version": 1
  },
  "userdoc": {
    "kind": "user",
    "methods": {
      "approveStacking(uint256)": {
        "notice": "allow the user to send ERC20 to the stacking contract"
      },
      "deposit(uint256)": {
        "notice": "make a deposit by the user in the staking contract"
      },
      "getAdrClients()": {
        "notice": "return the client's address aray"
      },
      "getTotalVotingPower()": {
        "notice": "return the total voting power"
      },
      "getUser(address)": {
        "notice": "return client object"
      },
      "setFundingProject(address)": {
        "notice": "Define the project address to receive donations and funds"
      },
      "setStackingAddress(address)": {
        "notice": "Define stacking contract address to send the deposit"
      },
      "setTokenAd(address)": {
        "notice": "Define IERC20 token address accepted as deposit"
      },
      "updateXprice(uint256)": {
        "notice": "fetch the value of x, give actual value if argument equal to zero"
      },
      "wantWithdraw(uint256)": {
        "notice": "make a withdraw request by the user"
      },
      "withdraw(address)": {
        "notice": "make an effective withdraw for the user by the contract owner"
      }
    },
    "version": 1
  }
}