{
  "contractName": "ProxySimple",
  "abi": [
    {
      "inputs": [],
      "stateMutability": "nonpayable",
      "type": "constructor"
    },
    {
      "anonymous": false,
      "inputs": [
        {
          "indexed": true,
          "internalType": "address",
          "name": "previousOwner",
          "type": "address"
        },
        {
          "indexed": true,
          "internalType": "address",
          "name": "newOwner",
          "type": "address"
        }
      ],
      "name": "OwnershipTransferred",
      "type": "event"
    },
    {
      "anonymous": false,
      "inputs": [
        {
          "indexed": false,
          "internalType": "address",
          "name": "client",
          "type": "address"
        },
        {
          "indexed": false,
          "internalType": "uint256",
          "name": "amount",
          "type": "uint256"
        }
      ],
      "name": "authorizedWithdrawal",
      "type": "event"
    },
    {
      "anonymous": false,
      "inputs": [
        {
          "indexed": false,
          "internalType": "address",
          "name": "client",
          "type": "address"
        },
        {
          "indexed": false,
          "internalType": "uint256",
          "name": "amount",
          "type": "uint256"
        }
      ],
      "name": "valideDepot",
      "type": "event"
    },
    {
      "inputs": [
        {
          "internalType": "uint256",
          "name": "",
          "type": "uint256"
        }
      ],
      "name": "adrClients",
      "outputs": [
        {
          "internalType": "address",
          "name": "",
          "type": "address"
        }
      ],
      "stateMutability": "view",
      "type": "function",
      "constant": true
    },
    {
      "inputs": [],
      "name": "owner",
      "outputs": [
        {
          "internalType": "address",
          "name": "",
          "type": "address"
        }
      ],
      "stateMutability": "view",
      "type": "function",
      "constant": true
    },
    {
      "inputs": [],
      "name": "renounceOwnership",
      "outputs": [],
      "stateMutability": "nonpayable",
      "type": "function"
    },
    {
      "inputs": [],
      "name": "stacking",
      "outputs": [
        {
          "internalType": "address",
          "name": "",
          "type": "address"
        }
      ],
      "stateMutability": "view",
      "type": "function",
      "constant": true
    },
    {
      "inputs": [],
      "name": "totalVotingPower",
      "outputs": [
        {
          "internalType": "uint256",
          "name": "",
          "type": "uint256"
        }
      ],
      "stateMutability": "view",
      "type": "function",
      "constant": true
    },
    {
      "inputs": [
        {
          "internalType": "address",
          "name": "newOwner",
          "type": "address"
        }
      ],
      "name": "transferOwnership",
      "outputs": [],
      "stateMutability": "nonpayable",
      "type": "function"
    },
    {
      "inputs": [
        {
          "internalType": "address",
          "name": "",
          "type": "address"
        }
      ],
      "name": "user",
      "outputs": [
        {
          "internalType": "bool",
          "name": "lister",
          "type": "bool"
        },
        {
          "internalType": "uint256",
          "name": "withdrawPending",
          "type": "uint256"
        },
        {
          "internalType": "uint256",
          "name": "xTotalDeposit",
          "type": "uint256"
        }
      ],
      "stateMutability": "view",
      "type": "function",
      "constant": true
    },
    {
      "inputs": [],
      "name": "xLaunch",
      "outputs": [
        {
          "internalType": "uint256",
          "name": "",
          "type": "uint256"
        }
      ],
      "stateMutability": "view",
      "type": "function",
      "constant": true
    },
    {
      "inputs": [
        {
          "internalType": "contract IERC20",
          "name": "_tokenAd",
          "type": "address"
        }
      ],
      "name": "setTokenAd",
      "outputs": [],
      "stateMutability": "nonpayable",
      "type": "function"
    },
    {
      "inputs": [
        {
          "internalType": "address",
          "name": "contractAddr",
          "type": "address"
        }
      ],
      "name": "setStackingAddress",
      "outputs": [],
      "stateMutability": "nonpayable",
      "type": "function"
    },
    {
      "inputs": [
        {
          "internalType": "uint256",
          "name": "date",
          "type": "uint256"
        }
      ],
      "name": "updateXprice",
      "outputs": [
        {
          "internalType": "uint256",
          "name": "x",
          "type": "uint256"
        }
      ],
      "stateMutability": "view",
      "type": "function",
      "constant": true
    },
    {
      "inputs": [],
      "name": "getAdrClients",
      "outputs": [
        {
          "internalType": "address[]",
          "name": "",
          "type": "address[]"
        }
      ],
      "stateMutability": "view",
      "type": "function",
      "constant": true
    },
    {
      "inputs": [
        {
          "internalType": "address",
          "name": "_user",
          "type": "address"
        }
      ],
      "name": "getUser",
      "outputs": [
        {
          "components": [
            {
              "internalType": "bool",
              "name": "lister",
              "type": "bool"
            },
            {
              "internalType": "uint256",
              "name": "withdrawPending",
              "type": "uint256"
            },
            {
              "internalType": "uint256",
              "name": "xTotalDeposit",
              "type": "uint256"
            },
            {
              "internalType": "uint256[]",
              "name": "xDeposit",
              "type": "uint256[]"
            },
            {
              "internalType": "uint256[]",
              "name": "DepositLocked",
              "type": "uint256[]"
            }
          ],
          "internalType": "struct ProxySimple.Client",
          "name": "",
          "type": "tuple"
        }
      ],
      "stateMutability": "view",
      "type": "function",
      "constant": true
    },
    {
      "inputs": [
        {
          "internalType": "address",
          "name": "_user",
          "type": "address"
        }
      ],
      "name": "getUserDeposits",
      "outputs": [
        {
          "internalType": "uint256",
          "name": "",
          "type": "uint256"
        }
      ],
      "stateMutability": "view",
      "type": "function",
      "constant": true
    },
    {
      "inputs": [
        {
          "internalType": "address",
          "name": "borrowAddress",
          "type": "address"
        }
      ],
      "name": "setFundingProject",
      "outputs": [
        {
          "internalType": "address",
          "name": "",
          "type": "address"
        }
      ],
      "stateMutability": "nonpayable",
      "type": "function"
    },
    {
      "inputs": [
        {
          "internalType": "uint256",
          "name": "amount",
          "type": "uint256"
        }
      ],
      "name": "approveStacking",
      "outputs": [
        {
          "internalType": "bool",
          "name": "",
          "type": "bool"
        }
      ],
      "stateMutability": "nonpayable",
      "type": "function"
    },
    {
      "inputs": [
        {
          "internalType": "uint256",
          "name": "amount",
          "type": "uint256"
        }
      ],
      "name": "deposit",
      "outputs": [],
      "stateMutability": "payable",
      "type": "function",
      "payable": true
    },
    {
      "inputs": [
        {
          "internalType": "uint256",
          "name": "withdrawAmount",
          "type": "uint256"
        }
      ],
      "name": "withdrawPending",
      "outputs": [],
      "stateMutability": "nonpayable",
      "type": "function"
    },
    {
      "inputs": [
        {
          "internalType": "contract IERC20",
          "name": "_address",
          "type": "address"
        }
      ],
      "name": "Withdraw",
      "outputs": [],
      "stateMutability": "payable",
      "type": "function",
      "payable": true
    }
  ],
  "bytecode": "0x60806040526005600455603c60055534801561001a57600080fd5b50600061002b6100d560201b60201c565b9050806000806101000a81548173ffffffffffffffffffffffffffffffffffffffff021916908373ffffffffffffffffffffffffffffffffffffffff1602179055508073ffffffffffffffffffffffffffffffffffffffff16600073ffffffffffffffffffffffffffffffffffffffff167f8be0079c531659141344cd1fd0a4f28419497f9722a3daafe3b4186f6b6457e060405160405180910390a350426006819055506100dd565b600033905090565b612b8a80620000ed6000396000f3fe6080604052600436106101145760003560e01c806381e7e20e116100a0578063c62bfd8f11610064578063c62bfd8f146103ba578063db1f497a146103e5578063dea07d4114610422578063f2fde38b1461044b578063f67611511461047457610114565b806381e7e20e146102ce5780638a977b191461030d5780638da5cb5b1461034a5780639cc901bc14610375578063b6b55f251461039e57610114565b80636777f70c116100e75780636777f70c146101e75780636c8751a8146102125780636f77926b1461023d578063715018a61461027a578063771616021461029157610114565b8063164deade146101195780632a5bf6d2146101565780632e585fd814610193578063671b3793146101bc575b600080fd5b34801561012557600080fd5b50610140600480360381019061013b9190612129565b610490565b60405161014d91906126d0565b60405180910390f35b34801561016257600080fd5b5061017d60048036038101906101789190612085565b6104cc565b60405161018a9190612981565b60405180910390f35b34801561019f57600080fd5b506101ba60048036038101906101b59190612129565b610518565b005b3480156101c857600080fd5b506101d1610de4565b6040516101de9190612981565b60405180910390f35b3480156101f357600080fd5b506101fc610dea565b6040516102099190612981565b60405180910390f35b34801561021e57600080fd5b50610227610df0565b60405161023491906127ab565b60405180910390f35b34801561024957600080fd5b50610264600480360381019061025f9190612085565b610e7e565b604051610271919061295f565b60405180910390f35b34801561028657600080fd5b5061028f610fb6565b005b34801561029d57600080fd5b506102b860048036038101906102b39190612129565b6110f1565b6040516102c591906127cd565b60405180910390f35b3480156102da57600080fd5b506102f560048036038101906102f09190612085565b61123d565b604051610304939291906127e8565b60405180910390f35b34801561031957600080fd5b50610334600480360381019061032f9190612085565b611274565b60405161034191906126d0565b60405180910390f35b34801561035657600080fd5b5061035f6113b5565b60405161036c91906126d0565b60405180910390f35b34801561038157600080fd5b5061039c60048036038101906103979190612085565b6113de565b005b6103b860048036038101906103b39190612129565b61149e565b005b3480156103c657600080fd5b506103cf6118e1565b6040516103dc91906126d0565b60405180910390f35b3480156103f157600080fd5b5061040c60048036038101906104079190612129565b611907565b6040516104199190612981565b60405180910390f35b34801561042e57600080fd5b5061044960048036038101906104449190612100565b61198c565b005b34801561045757600080fd5b50610472600480360381019061046d9190612085565b611a4c565b005b61048e60048036038101906104899190612100565b611bf6565b005b600a818154811061049d57fe5b906000526020600020016000915054906101000a900473ffffffffffffffffffffffffffffffffffffffff1681565b6000600160008373ffffffffffffffffffffffffffffffffffffffff1673ffffffffffffffffffffffffffffffffffffffff168152602001908152602001600020600201549050919050565b60006105246000611907565b9050600061053b8284611e7890919063ffffffff16565b9050600160003373ffffffffffffffffffffffffffffffffffffffff1673ffffffffffffffffffffffffffffffffffffffff168152602001908152602001600020600201548111156105c2576040517f08c379a00000000000000000000000000000000000000000000000000000000081526004016105b99061293f565b60405180910390fd5b600160003373ffffffffffffffffffffffffffffffffffffffff1673ffffffffffffffffffffffffffffffffffffffff16815260200190815260200160002060040160008154811061061057fe5b906000526020600020015461068683600160003373ffffffffffffffffffffffffffffffffffffffff1673ffffffffffffffffffffffffffffffffffffffff16815260200190815260200160002060030160008154811061066d57fe5b9060005260206000200154611ece90919063ffffffff16565b10156106c7576040517f08c379a00000000000000000000000000000000000000000000000000000000081526004016106be9061291f565b60405180910390fd5b6000600160003373ffffffffffffffffffffffffffffffffffffffff1673ffffffffffffffffffffffffffffffffffffffff1681526020019081526020016000206004018054905090506000806000805b84811015610a615761078a600160003373ffffffffffffffffffffffffffffffffffffffff1673ffffffffffffffffffffffffffffffffffffffff168152602001908152602001600020600401828154811061077057fe5b906000526020600020015483611f3e90919063ffffffff16565b91508188106108b057600160003373ffffffffffffffffffffffffffffffffffffffff1673ffffffffffffffffffffffffffffffffffffffff16815260200190815260200160002060040181815481106107e057fe5b906000526020600020015461085588600160003373ffffffffffffffffffffffffffffffffffffffff1673ffffffffffffffffffffffffffffffffffffffff168152602001908152602001600020600301848154811061083c57fe5b9060005260206000200154611ece90919063ffffffff16565b1015610896576040517f08c379a000000000000000000000000000000000000000000000000000000000815260040161088d906128df565b60405180910390fd5b6108a98185611f3e90919063ffffffff16565b9350610a54565b600160003373ffffffffffffffffffffffffffffffffffffffff1673ffffffffffffffffffffffffffffffffffffffff16815260200190815260200160002060040181815481106108fd57fe5b906000526020600020015461097288600160003373ffffffffffffffffffffffffffffffffffffffff1673ffffffffffffffffffffffffffffffffffffffff168152602001908152602001600020600301848154811061095957fe5b9060005260206000200154611ece90919063ffffffff16565b106109a65761098a8185611f3e90919063ffffffff16565b935061099f8883611f9390919063ffffffff16565b9250610a53565b610a10600160003373ffffffffffffffffffffffffffffffffffffffff1673ffffffffffffffffffffffffffffffffffffffff16815260200190815260200160002060040182815481106109f657fe5b906000526020600020015483611f9390919063ffffffff16565b881115610a52576040517f08c379a0000000000000000000000000000000000000000000000000000000008152600401610a499061289f565b60405180910390fd5b5b5b8080600101915050610718565b50610ab787600160003373ffffffffffffffffffffffffffffffffffffffff1673ffffffffffffffffffffffffffffffffffffffff16815260200190815260200160002060010154611f3e90919063ffffffff16565b600160003373ffffffffffffffffffffffffffffffffffffffff1673ffffffffffffffffffffffffffffffffffffffff1681526020019081526020016000206001018190555060005b838111610bca57600160003373ffffffffffffffffffffffffffffffffffffffff1673ffffffffffffffffffffffffffffffffffffffff1681526020019081526020016000206003018181548110610b5457fe5b9060005260206000200160009055600160003373ffffffffffffffffffffffffffffffffffffffff1673ffffffffffffffffffffffffffffffffffffffff1681526020019081526020016000206004018181548110610baf57fe5b90600052602060002001600090558080600101915050610b00565b506000821115610cd1576000610be98784611ece90919063ffffffff16565b9050600160003373ffffffffffffffffffffffffffffffffffffffff1673ffffffffffffffffffffffffffffffffffffffff168152602001908152602001600020600301819080600181540180825580915050600190039060005260206000200160009091909190915055600160003373ffffffffffffffffffffffffffffffffffffffff1673ffffffffffffffffffffffffffffffffffffffff168152602001908152602001600020600401610ca98885611ece90919063ffffffff16565b9080600181540180825580915050600190039060005260206000200160009091909190915055505b610d2685600160003373ffffffffffffffffffffffffffffffffffffffff1673ffffffffffffffffffffffffffffffffffffffff16815260200190815260200160002060020154611f9390919063ffffffff16565b600160003373ffffffffffffffffffffffffffffffffffffffff1673ffffffffffffffffffffffffffffffffffffffff16815260200190815260200160002060020181905550610d8187600754611f3e90919063ffffffff16565b600781905550610d9c87600854611f9390919063ffffffff16565b6008819055507f289473d20f7dbb55ce607f3e02b0de290bceb88a7728f441f04f7179c12da5163388604051610dd3929190612722565b60405180910390a150505050505050565b60085481565b60065481565b6060600a805480602002602001604051908101604052809291908181526020018280548015610e7457602002820191906000526020600020905b8160009054906101000a900473ffffffffffffffffffffffffffffffffffffffff1673ffffffffffffffffffffffffffffffffffffffff1681526020019060010190808311610e2a575b5050505050905090565b610e86611feb565b600160008373ffffffffffffffffffffffffffffffffffffffff1673ffffffffffffffffffffffffffffffffffffffff1681526020019081526020016000206040518060a00160405290816000820160009054906101000a900460ff16151515158152602001600182015481526020016002820154815260200160038201805480602002602001604051908101604052809291908181526020018280548015610f4e57602002820191906000526020600020905b815481526020019060010190808311610f3a575b5050505050815260200160048201805480602002602001604051908101604052809291908181526020018280548015610fa657602002820191906000526020600020905b815481526020019060010190808311610f92575b5050505050815250509050919050565b610fbe611fe3565b73ffffffffffffffffffffffffffffffffffffffff16610fdc6113b5565b73ffffffffffffffffffffffffffffffffffffffff1614611032576040517f08c379a0000000000000000000000000000000000000000000000000000000008152600401611029906128ff565b60405180910390fd5b600073ffffffffffffffffffffffffffffffffffffffff166000809054906101000a900473ffffffffffffffffffffffffffffffffffffffff1673ffffffffffffffffffffffffffffffffffffffff167f8be0079c531659141344cd1fd0a4f28419497f9722a3daafe3b4186f6b6457e060405160405180910390a360008060006101000a81548173ffffffffffffffffffffffffffffffffffffffff021916908373ffffffffffffffffffffffffffffffffffffffff160217905550565b6000806060600260009054906101000a900473ffffffffffffffffffffffffffffffffffffffff1673ffffffffffffffffffffffffffffffffffffffff16600360009054906101000a900473ffffffffffffffffffffffffffffffffffffffff1685604051602401611164929190612782565b6040516020818303038152906040527f095ea7b3000000000000000000000000000000000000000000000000000000007bffffffffffffffffffffffffffffffffffffffffffffffffffffffff19166020820180517bffffffffffffffffffffffffffffffffffffffffffffffffffffffff83818316178352505050506040516111ee91906126b9565b600060405180830381855af49150503d8060008114611229576040519150601f19603f3d011682016040523d82523d6000602084013e61122e565b606091505b50915091508192505050919050565b60016020528060005260406000206000915090508060000160009054906101000a900460ff16908060010154908060020154905083565b600061127e611fe3565b73ffffffffffffffffffffffffffffffffffffffff1661129c6113b5565b73ffffffffffffffffffffffffffffffffffffffff16146112f2576040517f08c379a00000000000000000000000000000000000000000000000000000000081526004016112e9906128ff565b60405180910390fd5b8173ffffffffffffffffffffffffffffffffffffffff166316fed3e26040518163ffffffff1660e01b815260040160206040518083038186803b15801561133857600080fd5b505afa15801561134c573d6000803e3d6000fd5b505050506040513d601f19601f8201168201806040525081019061137091906120ae565b600960006101000a81548173ffffffffffffffffffffffffffffffffffffffff021916908373ffffffffffffffffffffffffffffffffffffffff160217905550919050565b60008060009054906101000a900473ffffffffffffffffffffffffffffffffffffffff16905090565b6113e6611fe3565b73ffffffffffffffffffffffffffffffffffffffff166114046113b5565b73ffffffffffffffffffffffffffffffffffffffff161461145a576040517f08c379a0000000000000000000000000000000000000000000000000000000008152600401611451906128ff565b60405180910390fd5b80600360006101000a81548173ffffffffffffffffffffffffffffffffffffffff021916908373ffffffffffffffffffffffffffffffffffffffff16021790555050565b60006114aa6000611907565b9050600260009054906101000a900473ffffffffffffffffffffffffffffffffffffffff1673ffffffffffffffffffffffffffffffffffffffff166323b872dd33600360009054906101000a900473ffffffffffffffffffffffffffffffffffffffff16856040518463ffffffff1660e01b815260040161152d939291906126eb565b602060405180830381600087803b15801561154757600080fd5b505af115801561155b573d6000803e3d6000fd5b505050506040513d601f19601f8201168201806040525081019061157f91906120d7565b5060006115958284611e7890919063ffffffff16565b9050600160003373ffffffffffffffffffffffffffffffffffffffff1673ffffffffffffffffffffffffffffffffffffffff16815260200190815260200160002060030181908060018154018082558091505060019003906000526020600020016000909190919091505561165581600160003373ffffffffffffffffffffffffffffffffffffffff1673ffffffffffffffffffffffffffffffffffffffff16815260200190815260200160002060020154611f3e90919063ffffffff16565b600160003373ffffffffffffffffffffffffffffffffffffffff1673ffffffffffffffffffffffffffffffffffffffff1681526020019081526020016000206002018190555060006116a8600554611907565b9050600160003373ffffffffffffffffffffffffffffffffffffffff1673ffffffffffffffffffffffffffffffffffffffff1681526020019081526020016000206004016116ff8284611ece90919063ffffffff16565b908060018154018082558091505060019003906000526020600020016000909190919091505560001515600160003373ffffffffffffffffffffffffffffffffffffffff1673ffffffffffffffffffffffffffffffffffffffff16815260200190815260200160002060000160009054906101000a900460ff161515141561188757600a339080600181540180825580915050600190039060005260206000200160009091909190916101000a81548173ffffffffffffffffffffffffffffffffffffffff021916908373ffffffffffffffffffffffffffffffffffffffff16021790555060018060003373ffffffffffffffffffffffffffffffffffffffff1673ffffffffffffffffffffffffffffffffffffffff16815260200190815260200160002060000160006101000a81548160ff0219169083151502179055506000600160003373ffffffffffffffffffffffffffffffffffffffff1673ffffffffffffffffffffffffffffffffffffffff168152602001908152602001600020600101819055505b7f6839821ee8329994ce64b70bede16246719daa5bc775fc4e65e5bc1e71ccb79a33856040516118b8929190612722565b60405180910390a16118d584600854611f3e90919063ffffffff16565b60088190555050505050565b600360009054906101000a900473ffffffffffffffffffffffffffffffffffffffff1681565b6000806001905061198461197560646119676004546119596301e1338061194b60065461193d8c42611f3e90919063ffffffff16565b611f9390919063ffffffff16565b611e7890919063ffffffff16565b611ece90919063ffffffff16565b611e7890919063ffffffff16565b82611f3e90919063ffffffff16565b915050919050565b611994611fe3565b73ffffffffffffffffffffffffffffffffffffffff166119b26113b5565b73ffffffffffffffffffffffffffffffffffffffff1614611a08576040517f08c379a00000000000000000000000000000000000000000000000000000000081526004016119ff906128ff565b60405180910390fd5b80600260006101000a81548173ffffffffffffffffffffffffffffffffffffffff021916908373ffffffffffffffffffffffffffffffffffffffff16021790555050565b611a54611fe3565b73ffffffffffffffffffffffffffffffffffffffff16611a726113b5565b73ffffffffffffffffffffffffffffffffffffffff1614611ac8576040517f08c379a0000000000000000000000000000000000000000000000000000000008152600401611abf906128ff565b60405180910390fd5b600073ffffffffffffffffffffffffffffffffffffffff168173ffffffffffffffffffffffffffffffffffffffff161415611b38576040517f08c379a0000000000000000000000000000000000000000000000000000000008152600401611b2f9061281f565b60405180910390fd5b8073ffffffffffffffffffffffffffffffffffffffff166000809054906101000a900473ffffffffffffffffffffffffffffffffffffffff1673ffffffffffffffffffffffffffffffffffffffff167f8be0079c531659141344cd1fd0a4f28419497f9722a3daafe3b4186f6b6457e060405160405180910390a3806000806101000a81548173ffffffffffffffffffffffffffffffffffffffff021916908373ffffffffffffffffffffffffffffffffffffffff16021790555050565b611bfe611fe3565b73ffffffffffffffffffffffffffffffffffffffff16611c1c6113b5565b73ffffffffffffffffffffffffffffffffffffffff1614611c72576040517f08c379a0000000000000000000000000000000000000000000000000000000008152600401611c69906128ff565b60405180910390fd5b600080600a80549050905060005b81811015611e725760016000600a8381548110611c9957fe5b9060005260206000200160009054906101000a900473ffffffffffffffffffffffffffffffffffffffff1673ffffffffffffffffffffffffffffffffffffffff1673ffffffffffffffffffffffffffffffffffffffff1681526020019081526020016000206001015492508373ffffffffffffffffffffffffffffffffffffffff166323b872dd30600a8481548110611d2e57fe5b9060005260206000200160009054906101000a900473ffffffffffffffffffffffffffffffffffffffff16866040518463ffffffff1660e01b8152600401611d789392919061274b565b602060405180830381600087803b158015611d9257600080fd5b505af1158015611da6573d6000803e3d6000fd5b505050506040513d601f19601f82011682018060405250810190611dca91906120d7565b50611de083600754611f9390919063ffffffff16565b600781905550600060016000600a8481548110611df957fe5b9060005260206000200160009054906101000a900473ffffffffffffffffffffffffffffffffffffffff1673ffffffffffffffffffffffffffffffffffffffff1673ffffffffffffffffffffffffffffffffffffffff168152602001908152602001600020600101819055508080600101915050611c80565b50505050565b6000808211611ebc576040517f08c379a0000000000000000000000000000000000000000000000000000000008152600401611eb39061287f565b60405180910390fd5b818381611ec557fe5b04905092915050565b600080831415611ee15760009050611f38565b6000828402905082848281611ef257fe5b0414611f33576040517f08c379a0000000000000000000000000000000000000000000000000000000008152600401611f2a906128bf565b60405180910390fd5b809150505b92915050565b600080828401905083811015611f89576040517f08c379a0000000000000000000000000000000000000000000000000000000008152600401611f809061283f565b60405180910390fd5b8091505092915050565b600082821115611fd8576040517f08c379a0000000000000000000000000000000000000000000000000000000008152600401611fcf9061285f565b60405180910390fd5b818303905092915050565b600033905090565b6040518060a00160405280600015158152602001600081526020016000815260200160608152602001606081525090565b60008135905061202b81612af8565b92915050565b60008151905061204081612af8565b92915050565b60008151905061205581612b0f565b92915050565b60008135905061206a81612b26565b92915050565b60008135905061207f81612b3d565b92915050565b60006020828403121561209757600080fd5b60006120a58482850161201c565b91505092915050565b6000602082840312156120c057600080fd5b60006120ce84828501612031565b91505092915050565b6000602082840312156120e957600080fd5b60006120f784828501612046565b91505092915050565b60006020828403121561211257600080fd5b60006121208482850161205b565b91505092915050565b60006020828403121561213b57600080fd5b600061214984828501612070565b91505092915050565b600061215e8383612191565b60208301905092915050565b6000612176838361269b565b60208301905092915050565b61218b81612a8f565b82525050565b61219a81612a35565b82525050565b6121a981612a35565b82525050565b60006121ba826129bc565b6121c481856129f7565b93506121cf8361299c565b8060005b838110156122005781516121e78882612152565b97506121f2836129dd565b9250506001810190506121d3565b5085935050505092915050565b6000612218826129c7565b6122228185612a08565b935061222d836129ac565b8060005b8381101561225e578151612245888261216a565b9750612250836129ea565b925050600181019050612231565b5085935050505092915050565b61227481612a47565b82525050565b61228381612a47565b82525050565b6000612294826129d2565b61229e8185612a19565b93506122ae818560208601612ac5565b80840191505092915050565b60006122c7602683612a24565b91507f4f776e61626c653a206e6577206f776e657220697320746865207a65726f206160008301527f64647265737300000000000000000000000000000000000000000000000000006020830152604082019050919050565b600061232d601b83612a24565b91507f536166654d6174683a206164646974696f6e206f766572666c6f7700000000006000830152602082019050919050565b600061236d601e83612a24565b91507f536166654d6174683a207375627472616374696f6e206f766572666c6f7700006000830152602082019050919050565b60006123ad601a83612a24565b91507f536166654d6174683a206469766973696f6e206279207a65726f0000000000006000830152602082019050919050565b60006123ed602683612a24565b91507f63616e206e6f742077697468647261772066726f6d2061206c6f636b6564206460008301527f65706f73697400000000000000000000000000000000000000000000000000006020830152604082019050919050565b6000612453602183612a24565b91507f536166654d6174683a206d756c7469706c69636174696f6e206f766572666c6f60008301527f77000000000000000000000000000000000000000000000000000000000000006020830152604082019050919050565b60006124b9602183612a24565b91507f63616e206e6f742077697468647261772061206c6f636b6564206465706f736960008301527f74000000000000000000000000000000000000000000000000000000000000006020830152604082019050919050565b600061251f602083612a24565b91507f4f776e61626c653a2063616c6c6572206973206e6f7420746865206f776e65726000830152602082019050919050565b600061255f602983612a24565b91507f746865206669727374206465706f7369742063616e206e6f7420626520756e6c60008301527f6f636b6564206e6f7700000000000000000000000000000000000000000000006020830152604082019050919050565b60006125c5602883612a24565b91507f63616e206e6f74207769746864726177206d6f7265207468616e20796f75206460008301527f65706f73697465640000000000000000000000000000000000000000000000006020830152604082019050919050565b600060a083016000830151612636600086018261226b565b506020830151612649602086018261269b565b50604083015161265c604086018261269b565b5060608301518482036060860152612674828261220d565b9150506080830151848203608086015261268e828261220d565b9150508091505092915050565b6126a481612a85565b82525050565b6126b381612a85565b82525050565b60006126c58284612289565b915081905092915050565b60006020820190506126e560008301846121a0565b92915050565b60006060820190506127006000830186612182565b61270d60208301856121a0565b61271a60408301846126aa565b949350505050565b60006040820190506127376000830185612182565b61274460208301846126aa565b9392505050565b600060608201905061276060008301866121a0565b61276d60208301856121a0565b61277a60408301846126aa565b949350505050565b600060408201905061279760008301856121a0565b6127a460208301846126aa565b9392505050565b600060208201905081810360008301526127c581846121af565b905092915050565b60006020820190506127e2600083018461227a565b92915050565b60006060820190506127fd600083018661227a565b61280a60208301856126aa565b61281760408301846126aa565b949350505050565b60006020820190508181036000830152612838816122ba565b9050919050565b6000602082019050818103600083015261285881612320565b9050919050565b6000602082019050818103600083015261287881612360565b9050919050565b60006020820190508181036000830152612898816123a0565b9050919050565b600060208201905081810360008301526128b8816123e0565b9050919050565b600060208201905081810360008301526128d881612446565b9050919050565b600060208201905081810360008301526128f8816124ac565b9050919050565b6000602082019050818103600083015261291881612512565b9050919050565b6000602082019050818103600083015261293881612552565b9050919050565b60006020820190508181036000830152612958816125b8565b9050919050565b60006020820190508181036000830152612979818461261e565b905092915050565b600060208201905061299660008301846126aa565b92915050565b6000819050602082019050919050565b6000819050602082019050919050565b600081519050919050565b600081519050919050565b600081519050919050565b6000602082019050919050565b6000602082019050919050565b600082825260208201905092915050565b600082825260208201905092915050565b600081905092915050565b600082825260208201905092915050565b6000612a4082612a65565b9050919050565b60008115159050919050565b6000612a5e82612a35565b9050919050565b600073ffffffffffffffffffffffffffffffffffffffff82169050919050565b6000819050919050565b6000612a9a82612aa1565b9050919050565b6000612aac82612ab3565b9050919050565b6000612abe82612a65565b9050919050565b60005b83811015612ae3578082015181840152602081019050612ac8565b83811115612af2576000848401525b50505050565b612b0181612a35565b8114612b0c57600080fd5b50565b612b1881612a47565b8114612b2357600080fd5b50565b612b2f81612a53565b8114612b3a57600080fd5b50565b612b4681612a85565b8114612b5157600080fd5b5056fea2646970667358221220c781b0b8effa567ecfa5de87c51a3c2d40750128fc4da5e2127e6a9e65e615a664736f6c634300060b0033",
  "immutableReferences": {},
  "source": "// SPDX-License-Identifier: MIT\npragma solidity 0.6.11;\npragma experimental ABIEncoderV2;\n\nimport \"@openzeppelin/contracts/access/Ownable.sol\";\nimport \"@openzeppelin/contracts/math/SafeMath.sol\";\nimport \"@openzeppelin/contracts/utils/Address.sol\";\nimport \"@openzeppelin/contracts/utils/Context.sol\";\n//import \"@openzeppelin/contracts/token/ERC20/IERC20.sol\";\nimport \"./Stacking.sol\";\nimport \"./interfaces/IBorrow.sol\";\n\n\n\n\ncontract ProxySimple is Ownable{\n  using SafeMath for uint;\n\n\n  // Structure Client\n\n  struct Client {\n    bool lister; //registred in adrClients\n    uint withdrawPending; //total withdraw request\n    uint xTotalDeposit; //total deposit expressed in x value\n    uint[] xDeposit; // array of the differents deposits in x value\n    uint[] DepositLocked; // array of the differents deposits when the deposit could be withdraw\n\n  }\n\n  // Mapping\n\n  mapping (address => Client) public user;\n\n  // Variable\n\n\n  IERC20 tokenAd; //token address accepted as\n\n  address public stacking; //Staking contract address\n\n  uint apy = 5 ; // interest\n  uint dayLock = 60 seconds;\n  uint public xLaunch; // contract deployment date\n\n  uint totalWithdrawalAmount;  // Somme Global disponible prt  payer\n\n  uint public totalVotingPower;\n\n  address fundingProject;\n\n  // Tableaux Client\n\n  address[] public adrClients;\n\n  // Event\n\n  event valideDepot(address client, uint amount);\n  event authorizedWithdrawal(address client, uint amount);\n\n  // Constructeur\n  constructor() public{\n    xLaunch = block.timestamp;\n  }\n\n  /// @notice Define IERC20 token address accepted as deposit\n  /// @dev restricted to the contract's owner\n  /// @param _tokenAd IERC20 the token address\n  function setTokenAd (IERC20 _tokenAd) external onlyOwner{\n    tokenAd=_tokenAd;\n  }\n\n\n  /// @notice Define stacking contract address to send the deposit\n  /// @dev could be upgraded by using an stacking interface ?\n  /// @param contractAddr the address of the stacking contract\n  function setStackingAddress(address contractAddr) external onlyOwner {\n    stacking = contractAddr ;\n  }\n\n  /// @notice fetch the value of x, give actual value if argument equal to zero\n  /// @dev view function usefull for interest computation\n  /// @param date a epoch time to add at the current time to fetch x value in the future\n  ///@return x the value for a given date\n  function updateXprice(uint date) public view returns(uint x){\n    uint y = 1;\n    x =  y.add((((block.timestamp.add(date)).sub(xLaunch)).div(31536000)).mul(apy).div(100));\n  }\n\n  /// @notice return the client's address aray\n  /// @dev usefull as relay for sending the client addresses to a borrow.sol contract\n  /// @dev could be useless if it is possible access directly to the contract variable\n  /// @return array of client address\n  function getAdrClients() external view returns(address[] memory) {\n    return adrClients;\n  }\n\n  /// @notice return client object\n  /// @dev usefull as relay for sending the client properties to a borrow.sol contract\n  /// @param _user the client address\n  /// @return client object\n  function getUser(address _user) external view returns(Client memory) {\n    return user[_user];\n  }\n\n\n  /// @dev usefull as relay for sending the client total deposit in x value to a borrow.sol contract\n  /// @param _user the client address\n  /// @return client object\n  function getUserDeposits(address _user) external view returns(uint) {\n    return user[_user].xTotalDeposit;\n  }\n\n  /// @notice Define the project address to receive donations and funds\n  /// @dev the address is set by borrow contract before setting it here\n  /// @param borrowAddress the address of the wining project funding in borrow contract\n  function setFundingProject(address borrowAddress) external onlyOwner returns(address) {\n    fundingProject = IBorrow(borrowAddress).receiverAddress();\n  }\n\n  /// @notice allow the user to send ERC20 to the stacking contract\n  /// @dev use of a delegate call to pass the stacking address as argument for approve function\n  /// @param amount the ERC20 token amount to approve for the stacking contract\n  function approveStacking(uint amount) external returns(bool){\n    (bool success, bytes memory result) = address(tokenAd).delegatecall(abi.encodeWithSignature(\"approve(address,uint256)\", stacking, amount));\n    return success;\n    }\n\n  /// @notice make a deposit by the user in the staking contract\n  /// @dev set a deposit lock by computation of the deposit value with interests at the unlock date\n  /// and verification when calling withdrawPending\n  /// @param amount the desired amount to deposit by the user\n  function deposit (uint amount) public payable  {\n    uint x = updateXprice(0);\n    IERC20(tokenAd).transferFrom(msg.sender, stacking, amount);\n    uint depositToX = amount.div(x);\n    user[msg.sender].xDeposit.push(depositToX);\n    user[msg.sender].xTotalDeposit = user[msg.sender].xTotalDeposit.add(depositToX);\n    uint y = updateXprice(dayLock);\n    user[msg.sender].DepositLocked.push(depositToX.mul(y));\n\n    if (user[msg.sender].lister == false) {\n      adrClients.push(msg.sender);\n      user[msg.sender].lister = true;\n      user[msg.sender].withdrawPending = 0;\n    }\n\n    // Validation de l'event\n    emit valideDepot(msg.sender, amount); //MAPPING DATE D4UNLOCK ???\n    // Maj des amount de dpt\n    totalVotingPower= totalVotingPower.add(amount);\n  }\n\n\n  /// @notice make a withdraw request by the user\n  /// @dev fetch the differents deposits eligible for withdraw\n  /// and delete them from the client array if withdrawn\n  /// @param withdrawAmount the desired amount to withdraw by the user\n  function withdrawPending (uint withdrawAmount) public {\n    uint x = updateXprice(0);\n    uint xWithdraw = withdrawAmount.div(x);\n    require(xWithdraw <= user[msg.sender].xTotalDeposit, \"can not withdraw more than you deposited\");\n    require(user[msg.sender].xDeposit[0].mul(x) >= user[msg.sender].DepositLocked[0], \"the first deposit can not be unlocked now\");\n    uint length = user[msg.sender].DepositLocked.length;\n    uint withdraw;\n    uint leftovers;\n    uint sumDeposit;\n    for (uint i; i < length; i++) {\n      sumDeposit = sumDeposit.add(user[msg.sender].DepositLocked[i]);\n      if (withdrawAmount >= sumDeposit) {\n        require(user[msg.sender].xDeposit[i].mul(x) >= user[msg.sender].DepositLocked[i],\"can not withdraw a locked deposit\");\n        withdraw = withdraw.add(i);\n      } else if (user[msg.sender].xDeposit[i].mul(x) >= user[msg.sender].DepositLocked[i]) {\n        withdraw = withdraw.add(i);\n        leftovers = sumDeposit.sub(withdrawAmount);\n      } else require(withdrawAmount <= sumDeposit.sub(user[msg.sender].DepositLocked[i]), \"can not withdraw from a locked deposit\");\n    }\n\n    user[msg.sender].withdrawPending = user[msg.sender].withdrawPending.add(withdrawAmount);\n\n    for (uint i; i <= withdraw; i++) {\n      delete user[msg.sender].xDeposit[i];\n      delete user[msg.sender].DepositLocked[i];\n    }\n\n    if (leftovers > 0) {\n    uint xleftovers = leftovers.mul(x);\n    user[msg.sender].xDeposit.push(xleftovers);\n    user[msg.sender].DepositLocked.push(leftovers.mul(x));\n    }\n\n    user[msg.sender].xTotalDeposit = user[msg.sender].xTotalDeposit.sub(xWithdraw);\n    // Maj du amount Global Payement\n    totalWithdrawalAmount = totalWithdrawalAmount.add(withdrawAmount);\n    totalVotingPower= totalVotingPower.sub(withdrawAmount);\n    // Validation de l'event\n    emit authorizedWithdrawal(msg.sender, withdrawAmount);\n  }\n\n\n  /// @notice make an effective withdraw for the user by the contract owner\n  /// @dev fetch the differents pending withdraws from the differents user and pay them\n  /// @param _address the IERC20 token address in use to payback the users\n  function Withdraw (IERC20 _address) public payable onlyOwner {\n    uint toPay;\n    uint length = adrClients.length;\n\n    // recherche de tous les clients ayant fait une demande de retrait\n    for(uint i; i < length ; i++) {\n      toPay = user[adrClients[i]].withdrawPending;\n      IERC20(_address).transferFrom(address(this), adrClients[i], toPay);\n      //Maj du totalWithdrawalAmount\n      totalWithdrawalAmount = totalWithdrawalAmount.sub(toPay);\n      user[adrClients[i]].withdrawPending = 0;\n    }\n  }\n}\n",
  "sourcePath": "/Users/hamzamessaoudi/Desktop/Solipay-master/contracts/ProxySimple.sol",
  "compiler": {
    "name": "solc",
    "version": "0.6.11+commit.5ef660b1.Emscripten.clang"
  },
  "schemaVersion": "3.3.4",
  "updatedAt": "2021-04-28T13:19:42.202Z",
  "networkType": "ethereum",
  "devdoc": {
    "kind": "dev",
    "methods": {
      "Withdraw(address)": {
        "details": "fetch the differents pending withdraws from the differents user and pay them",
        "params": {
          "_address": "the IERC20 token address in use to payback the users"
        }
      },
      "approveStacking(uint256)": {
        "details": "use of a delegate call to pass the stacking address as argument for approve function",
        "params": {
          "amount": "the ERC20 token amount to approve for the stacking contract"
        }
      },
      "deposit(uint256)": {
        "details": "set a deposit lock by computation of the deposit value with interests at the unlock date and verification when calling withdrawPending",
        "params": {
          "amount": "the desired amount to deposit by the user"
        }
      },
      "getAdrClients()": {
        "details": "usefull as relay for sending the client addresses to a borrow.sol contractcould be useless if it is possible access directly to the contract variable",
        "returns": {
          "_0": "array of client address"
        }
      },
      "getUser(address)": {
        "details": "usefull as relay for sending the client properties to a borrow.sol contract",
        "params": {
          "_user": "the client address"
        },
        "returns": {
          "_0": "client object"
        }
      },
      "getUserDeposits(address)": {
        "details": "usefull as relay for sending the client total deposit in x value to a borrow.sol contract",
        "params": {
          "_user": "the client address"
        },
        "returns": {
          "_0": "client object"
        }
      },
      "owner()": {
        "details": "Returns the address of the current owner."
      },
      "renounceOwnership()": {
        "details": "Leaves the contract without owner. It will not be possible to call `onlyOwner` functions anymore. Can only be called by the current owner. NOTE: Renouncing ownership will leave the contract without an owner, thereby removing any functionality that is only available to the owner."
      },
      "setFundingProject(address)": {
        "details": "the address is set by borrow contract before setting it here",
        "params": {
          "borrowAddress": "the address of the wining project funding in borrow contract"
        }
      },
      "setStackingAddress(address)": {
        "details": "could be upgraded by using an stacking interface ?",
        "params": {
          "contractAddr": "the address of the stacking contract"
        }
      },
      "setTokenAd(address)": {
        "details": "restricted to the contract's owner",
        "params": {
          "_tokenAd": "IERC20 the token address"
        }
      },
      "transferOwnership(address)": {
        "details": "Transfers ownership of the contract to a new account (`newOwner`). Can only be called by the current owner."
      },
      "updateXprice(uint256)": {
        "details": "view function usefull for interest computation",
        "params": {
          "date": "a epoch time to add at the current time to fetch x value in the future"
        },
        "returns": {
          "x": "the value for a given date"
        }
      },
      "withdrawPending(uint256)": {
        "details": "fetch the differents deposits eligible for withdraw and delete them from the client array if withdrawn",
        "params": {
          "withdrawAmount": "the desired amount to withdraw by the user"
        }
      }
    },
    "version": 1
  },
  "userdoc": {
    "kind": "user",
    "methods": {
      "Withdraw(address)": {
        "notice": "make an effective withdraw for the user by the contract owner"
      },
      "approveStacking(uint256)": {
        "notice": "allow the user to send ERC20 to the stacking contract"
      },
      "deposit(uint256)": {
        "notice": "make a deposit by the user in the staking contract"
      },
      "getAdrClients()": {
        "notice": "return the client's address aray"
      },
      "getUser(address)": {
        "notice": "return client object"
      },
      "setFundingProject(address)": {
        "notice": "Define the project address to receive donations and funds"
      },
      "setStackingAddress(address)": {
        "notice": "Define stacking contract address to send the deposit"
      },
      "setTokenAd(address)": {
        "notice": "Define IERC20 token address accepted as deposit"
      },
      "updateXprice(uint256)": {
        "notice": "fetch the value of x, give actual value if argument equal to zero"
      },
      "withdrawPending(uint256)": {
        "notice": "make a withdraw request by the user"
      }
    },
    "version": 1
  }
}