{
  "contractName": "Stacking",
  "abi": [
    {
      "inputs": [
        {
          "internalType": "address",
          "name": "_uniswap",
          "type": "address"
        }
      ],
      "stateMutability": "nonpayable",
      "type": "constructor"
    },
    {
      "anonymous": false,
      "inputs": [
        {
          "indexed": false,
          "internalType": "address",
          "name": "owner",
          "type": "address"
        },
        {
          "indexed": false,
          "internalType": "uint256",
          "name": "amount",
          "type": "uint256"
        }
      ],
      "name": "LPsended",
      "type": "event"
    },
    {
      "anonymous": false,
      "inputs": [
        {
          "indexed": true,
          "internalType": "address",
          "name": "previousOwner",
          "type": "address"
        },
        {
          "indexed": true,
          "internalType": "address",
          "name": "newOwner",
          "type": "address"
        }
      ],
      "name": "OwnershipTransferred",
      "type": "event"
    },
    {
      "inputs": [],
      "name": "owner",
      "outputs": [
        {
          "internalType": "address",
          "name": "",
          "type": "address"
        }
      ],
      "stateMutability": "view",
      "type": "function",
      "constant": true
    },
    {
      "inputs": [],
      "name": "proxy",
      "outputs": [
        {
          "internalType": "address",
          "name": "",
          "type": "address"
        }
      ],
      "stateMutability": "view",
      "type": "function",
      "constant": true
    },
    {
      "inputs": [],
      "name": "renounceOwnership",
      "outputs": [],
      "stateMutability": "nonpayable",
      "type": "function"
    },
    {
      "inputs": [],
      "name": "stacking",
      "outputs": [
        {
          "internalType": "address",
          "name": "",
          "type": "address"
        }
      ],
      "stateMutability": "view",
      "type": "function",
      "constant": true
    },
    {
      "inputs": [
        {
          "internalType": "address",
          "name": "newOwner",
          "type": "address"
        }
      ],
      "name": "transferOwnership",
      "outputs": [],
      "stateMutability": "nonpayable",
      "type": "function"
    },
    {
      "inputs": [],
      "name": "uniswapRouter",
      "outputs": [
        {
          "internalType": "contract IUniswapV2Router02",
          "name": "",
          "type": "address"
        }
      ],
      "stateMutability": "view",
      "type": "function",
      "constant": true
    },
    {
      "inputs": [
        {
          "internalType": "address",
          "name": "contractAddr",
          "type": "address"
        }
      ],
      "name": "setStackingAddress",
      "outputs": [],
      "stateMutability": "nonpayable",
      "type": "function"
    },
    {
      "inputs": [
        {
          "internalType": "address",
          "name": "contractAddr",
          "type": "address"
        }
      ],
      "name": "setProxyAddress",
      "outputs": [],
      "stateMutability": "nonpayable",
      "type": "function"
    },
    {
      "inputs": [
        {
          "internalType": "uint8",
          "name": "pourcentage",
          "type": "uint8"
        }
      ],
      "name": "setProjectRevenue",
      "outputs": [],
      "stateMutability": "nonpayable",
      "type": "function"
    },
    {
      "inputs": [
        {
          "internalType": "contract IERC20",
          "name": "token",
          "type": "address"
        }
      ],
      "name": "getBalance",
      "outputs": [
        {
          "internalType": "uint256",
          "name": "",
          "type": "uint256"
        }
      ],
      "stateMutability": "view",
      "type": "function",
      "constant": true
    },
    {
      "inputs": [
        {
          "internalType": "address",
          "name": "token",
          "type": "address"
        }
      ],
      "name": "getDecimals",
      "outputs": [
        {
          "internalType": "uint8",
          "name": "decimals",
          "type": "uint8"
        }
      ],
      "stateMutability": "view",
      "type": "function",
      "constant": true
    },
    {
      "inputs": [
        {
          "internalType": "address",
          "name": "token",
          "type": "address"
        }
      ],
      "name": "getSymbol",
      "outputs": [
        {
          "internalType": "string",
          "name": "symbol",
          "type": "string"
        }
      ],
      "stateMutability": "view",
      "type": "function",
      "constant": true
    },
    {
      "inputs": [
        {
          "internalType": "contract IERC20",
          "name": "token",
          "type": "address"
        },
        {
          "internalType": "address",
          "name": "usr",
          "type": "address"
        },
        {
          "internalType": "uint256",
          "name": "amountIn",
          "type": "uint256"
        }
      ],
      "name": "receiveERC20",
      "outputs": [],
      "stateMutability": "nonpayable",
      "type": "function"
    },
    {
      "inputs": [
        {
          "internalType": "contract IERC20",
          "name": "token",
          "type": "address"
        },
        {
          "internalType": "address",
          "name": "voteContract",
          "type": "address"
        }
      ],
      "name": "fooProjects",
      "outputs": [],
      "stateMutability": "nonpayable",
      "type": "function"
    },
    {
      "inputs": [
        {
          "internalType": "contract IERC20",
          "name": "token",
          "type": "address"
        },
        {
          "internalType": "uint256",
          "name": "amountIn",
          "type": "uint256"
        }
      ],
      "name": "approveERC20Uni",
      "outputs": [
        {
          "internalType": "uint256",
          "name": "",
          "type": "uint256"
        }
      ],
      "stateMutability": "nonpayable",
      "type": "function"
    },
    {
      "inputs": [
        {
          "internalType": "address",
          "name": "lpToken",
          "type": "address"
        },
        {
          "internalType": "address",
          "name": "owner",
          "type": "address"
        },
        {
          "internalType": "uint256",
          "name": "amount",
          "type": "uint256"
        }
      ],
      "name": "sendLP",
      "outputs": [],
      "stateMutability": "nonpayable",
      "type": "function"
    },
    {
      "inputs": [
        {
          "internalType": "address",
          "name": "tokenA",
          "type": "address"
        },
        {
          "internalType": "address",
          "name": "tokenB",
          "type": "address"
        },
        {
          "internalType": "uint256",
          "name": "amountIn",
          "type": "uint256"
        },
        {
          "internalType": "uint256",
          "name": "amountOutMin",
          "type": "uint256"
        },
        {
          "internalType": "uint256",
          "name": "deadline",
          "type": "uint256"
        }
      ],
      "name": "swapTokens",
      "outputs": [],
      "stateMutability": "nonpayable",
      "type": "function"
    },
    {
      "inputs": [
        {
          "internalType": "address",
          "name": "tokenA",
          "type": "address"
        },
        {
          "internalType": "address",
          "name": "tokenB",
          "type": "address"
        },
        {
          "internalType": "uint256",
          "name": "amountTokenADesired",
          "type": "uint256"
        },
        {
          "internalType": "uint256",
          "name": "amountTokenBDesired",
          "type": "uint256"
        },
        {
          "internalType": "uint256",
          "name": "amountTokenAMin",
          "type": "uint256"
        },
        {
          "internalType": "uint256",
          "name": "amountTokenBMin",
          "type": "uint256"
        },
        {
          "internalType": "uint256",
          "name": "deadline",
          "type": "uint256"
        }
      ],
      "name": "addLiquidity",
      "outputs": [
        {
          "internalType": "uint256",
          "name": "amountTokenA",
          "type": "uint256"
        },
        {
          "internalType": "uint256",
          "name": "amountTokenB",
          "type": "uint256"
        },
        {
          "internalType": "uint256",
          "name": "liquidity",
          "type": "uint256"
        }
      ],
      "stateMutability": "payable",
      "type": "function",
      "payable": true
    },
    {
      "inputs": [
        {
          "internalType": "address",
          "name": "tokenA",
          "type": "address"
        },
        {
          "internalType": "address",
          "name": "tokenB",
          "type": "address"
        },
        {
          "internalType": "uint256",
          "name": "liquidity",
          "type": "uint256"
        },
        {
          "internalType": "uint256",
          "name": "amountAMin",
          "type": "uint256"
        },
        {
          "internalType": "uint256",
          "name": "amountBMin",
          "type": "uint256"
        },
        {
          "internalType": "uint256",
          "name": "deadline",
          "type": "uint256"
        }
      ],
      "name": "removeLiquidity",
      "outputs": [
        {
          "internalType": "uint256",
          "name": "amountA",
          "type": "uint256"
        },
        {
          "internalType": "uint256",
          "name": "amountB",
          "type": "uint256"
        }
      ],
      "stateMutability": "nonpayable",
      "type": "function"
    }
  ],
  "bytecode": "0x608060405234801561001057600080fd5b506040516125013803806125018339818101604052602081101561003357600080fd5b8101908080519060200190929190505050600061005461013960201b60201c565b9050806000806101000a81548173ffffffffffffffffffffffffffffffffffffffff021916908373ffffffffffffffffffffffffffffffffffffffff1602179055508073ffffffffffffffffffffffffffffffffffffffff16600073ffffffffffffffffffffffffffffffffffffffff167f8be0079c531659141344cd1fd0a4f28419497f9722a3daafe3b4186f6b6457e060405160405180910390a35080600160006101000a81548173ffffffffffffffffffffffffffffffffffffffff021916908373ffffffffffffffffffffffffffffffffffffffff16021790555050610141565b600033905090565b6123b1806101506000396000f3fe6080604052600436106101145760003560e01c80638ccd6128116100a0578063cf54aaa011610064578063cf54aaa014610735578063d0d9e063146107a0578063ec5568891461081b578063f2fde38b14610872578063f8b2cb4f146108c357610114565b80638ccd61281461052e5780638da5cb5b1461056c5780639cc901bc146105c3578063c62bfd8f14610614578063c9b2e5221461066b57610114565b8063715018a6116100e7578063715018a61461031c57806371e2f5ab14610333578063735de9f7146103a45780637560db65146103fb5780637ae06e581461047657610114565b8063351cfe481461011957806343d91bf11461018857806344483d531461021757806346a7dadc146102cb575b600080fd5b34801561012557600080fd5b506101726004803603604081101561013c57600080fd5b81019080803573ffffffffffffffffffffffffffffffffffffffff16906020019092919080359060200190929190505050610928565b6040518082815260200191505060405180910390f35b34801561019457600080fd5b50610215600480360360a08110156101ab57600080fd5b81019080803573ffffffffffffffffffffffffffffffffffffffff169060200190929190803573ffffffffffffffffffffffffffffffffffffffff169060200190929190803590602001909291908035906020019092919080359060200190929190505050610ac7565b005b34801561022357600080fd5b506102ae600480360360c081101561023a57600080fd5b81019080803573ffffffffffffffffffffffffffffffffffffffff169060200190929190803573ffffffffffffffffffffffffffffffffffffffff16906020019092919080359060200190929190803590602001909291908035906020019092919080359060200190929190505050610e54565b604051808381526020018281526020019250505060405180910390f35b3480156102d757600080fd5b5061031a600480360360208110156102ee57600080fd5b81019080803573ffffffffffffffffffffffffffffffffffffffff1690602001909291905050506110a4565b005b34801561032857600080fd5b50610331611197565b005b34801561033f57600080fd5b506103a26004803603604081101561035657600080fd5b81019080803573ffffffffffffffffffffffffffffffffffffffff169060200190929190803573ffffffffffffffffffffffffffffffffffffffff169060200190929190505050611305565b005b3480156103b057600080fd5b506103b9611546565b604051808273ffffffffffffffffffffffffffffffffffffffff1673ffffffffffffffffffffffffffffffffffffffff16815260200191505060405180910390f35b34801561040757600080fd5b506104746004803603606081101561041e57600080fd5b81019080803573ffffffffffffffffffffffffffffffffffffffff169060200190929190803573ffffffffffffffffffffffffffffffffffffffff1690602001909291908035906020019092919050505061156c565b005b61050a600480360360e081101561048c57600080fd5b81019080803573ffffffffffffffffffffffffffffffffffffffff169060200190929190803573ffffffffffffffffffffffffffffffffffffffff1690602001909291908035906020019092919080359060200190929190803590602001909291908035906020019092919080359060200190929190505050611717565b60405180848152602001838152602001828152602001935050505060405180910390f35b34801561053a57600080fd5b5061056a6004803603602081101561055157600080fd5b81019080803560ff169060200190929190505050611980565b005b34801561057857600080fd5b50610581611a4d565b604051808273ffffffffffffffffffffffffffffffffffffffff1673ffffffffffffffffffffffffffffffffffffffff16815260200191505060405180910390f35b3480156105cf57600080fd5b50610612600480360360208110156105e657600080fd5b81019080803573ffffffffffffffffffffffffffffffffffffffff169060200190929190505050611a76565b005b34801561062057600080fd5b50610629611b69565b604051808273ffffffffffffffffffffffffffffffffffffffff1673ffffffffffffffffffffffffffffffffffffffff16815260200191505060405180910390f35b34801561067757600080fd5b506106ba6004803603602081101561068e57600080fd5b81019080803573ffffffffffffffffffffffffffffffffffffffff169060200190929190505050611b8f565b6040518080602001828103825283818151815260200191508051906020019080838360005b838110156106fa5780820151818401526020810190506106df565b50505050905090810190601f1680156107275780820380516001836020036101000a031916815260200191505b509250505060405180910390f35b34801561074157600080fd5b506107846004803603602081101561075857600080fd5b81019080803573ffffffffffffffffffffffffffffffffffffffff169060200190929190505050611cd7565b604051808260ff1660ff16815260200191505060405180910390f35b3480156107ac57600080fd5b50610819600480360360608110156107c357600080fd5b81019080803573ffffffffffffffffffffffffffffffffffffffff169060200190929190803573ffffffffffffffffffffffffffffffffffffffff16906020019092919080359060200190929190505050611d61565b005b34801561082757600080fd5b50610830611f43565b604051808273ffffffffffffffffffffffffffffffffffffffff1673ffffffffffffffffffffffffffffffffffffffff16815260200191505060405180910390f35b34801561087e57600080fd5b506108c16004803603602081101561089557600080fd5b81019080803573ffffffffffffffffffffffffffffffffffffffff169060200190929190505050611f69565b005b3480156108cf57600080fd5b50610912600480360360208110156108e657600080fd5b81019080803573ffffffffffffffffffffffffffffffffffffffff16906020019092919050505061215c565b6040518082815260200191505060405180910390f35b600061093261221d565b73ffffffffffffffffffffffffffffffffffffffff16610950611a4d565b73ffffffffffffffffffffffffffffffffffffffff16146109d9576040517f08c379a00000000000000000000000000000000000000000000000000000000081526004018080602001828103825260208152602001807f4f776e61626c653a2063616c6c6572206973206e6f7420746865206f776e657281525060200191505060405180910390fd5b8273ffffffffffffffffffffffffffffffffffffffff1663095ea7b3600160009054906101000a900473ffffffffffffffffffffffffffffffffffffffff16846040518363ffffffff1660e01b8152600401808373ffffffffffffffffffffffffffffffffffffffff1673ffffffffffffffffffffffffffffffffffffffff16815260200182815260200192505050602060405180830381600087803b158015610a8257600080fd5b505af1158015610a96573d6000803e3d6000fd5b505050506040513d6020811015610aac57600080fd5b81019080805190602001909291905050505081905092915050565b610acf61221d565b73ffffffffffffffffffffffffffffffffffffffff16610aed611a4d565b73ffffffffffffffffffffffffffffffffffffffff1614610b76576040517f08c379a00000000000000000000000000000000000000000000000000000000081526004018080602001828103825260208152602001807f4f776e61626c653a2063616c6c6572206973206e6f7420746865206f776e657281525060200191505060405180910390fd5b6060600267ffffffffffffffff81118015610b9057600080fd5b50604051908082528060200260200182016040528015610bbf5781602001602082028036833780820191505090505b5090508581600081518110610bd057fe5b602002602001019073ffffffffffffffffffffffffffffffffffffffff16908173ffffffffffffffffffffffffffffffffffffffff16815250508481600181518110610c1857fe5b602002602001019073ffffffffffffffffffffffffffffffffffffffff16908173ffffffffffffffffffffffffffffffffffffffff1681525050600160009054906101000a900473ffffffffffffffffffffffffffffffffffffffff1673ffffffffffffffffffffffffffffffffffffffff166338ed1739858584600260009054906101000a900473ffffffffffffffffffffffffffffffffffffffff16876040518663ffffffff1660e01b815260040180868152602001858152602001806020018473ffffffffffffffffffffffffffffffffffffffff1673ffffffffffffffffffffffffffffffffffffffff168152602001838152602001828103825285818151815260200191508051906020019060200280838360005b83811015610d4d578082015181840152602081019050610d32565b505050509050019650505050505050600060405180830381600087803b158015610d7657600080fd5b505af1158015610d8a573d6000803e3d6000fd5b505050506040513d6000823e3d601f19601f820116820180604052506020811015610db457600080fd5b8101908080516040519392919084640100000000821115610dd457600080fd5b83820191506020820185811115610dea57600080fd5b8251866020820283011164010000000082111715610e0757600080fd5b8083526020830192505050908051906020019060200280838360005b83811015610e3e578082015181840152602081019050610e23565b5050505090500160405250505050505050505050565b600080610e5f61221d565b73ffffffffffffffffffffffffffffffffffffffff16610e7d611a4d565b73ffffffffffffffffffffffffffffffffffffffff1614610f06576040517f08c379a00000000000000000000000000000000000000000000000000000000081526004018080602001828103825260208152602001807f4f776e61626c653a2063616c6c6572206973206e6f7420746865206f776e657281525060200191505060405180910390fd5b600160009054906101000a900473ffffffffffffffffffffffffffffffffffffffff1673ffffffffffffffffffffffffffffffffffffffff1663baa2abde8989898989600260009054906101000a900473ffffffffffffffffffffffffffffffffffffffff168a6040518863ffffffff1660e01b8152600401808873ffffffffffffffffffffffffffffffffffffffff1673ffffffffffffffffffffffffffffffffffffffff1681526020018773ffffffffffffffffffffffffffffffffffffffff1673ffffffffffffffffffffffffffffffffffffffff1681526020018681526020018581526020018481526020018373ffffffffffffffffffffffffffffffffffffffff1673ffffffffffffffffffffffffffffffffffffffff1681526020018281526020019750505050505050506040805180830381600087803b15801561105057600080fd5b505af1158015611064573d6000803e3d6000fd5b505050506040513d604081101561107a57600080fd5b81019080805190602001909291908051906020019092919050505091509150965096945050505050565b6110ac61221d565b73ffffffffffffffffffffffffffffffffffffffff166110ca611a4d565b73ffffffffffffffffffffffffffffffffffffffff1614611153576040517f08c379a00000000000000000000000000000000000000000000000000000000081526004018080602001828103825260208152602001807f4f776e61626c653a2063616c6c6572206973206e6f7420746865206f776e657281525060200191505060405180910390fd5b80600360006101000a81548173ffffffffffffffffffffffffffffffffffffffff021916908373ffffffffffffffffffffffffffffffffffffffff16021790555050565b61119f61221d565b73ffffffffffffffffffffffffffffffffffffffff166111bd611a4d565b73ffffffffffffffffffffffffffffffffffffffff1614611246576040517f08c379a00000000000000000000000000000000000000000000000000000000081526004018080602001828103825260208152602001807f4f776e61626c653a2063616c6c6572206973206e6f7420746865206f776e657281525060200191505060405180910390fd5b600073ffffffffffffffffffffffffffffffffffffffff166000809054906101000a900473ffffffffffffffffffffffffffffffffffffffff1673ffffffffffffffffffffffffffffffffffffffff167f8be0079c531659141344cd1fd0a4f28419497f9722a3daafe3b4186f6b6457e060405160405180910390a360008060006101000a81548173ffffffffffffffffffffffffffffffffffffffff021916908373ffffffffffffffffffffffffffffffffffffffff160217905550565b61130d61221d565b73ffffffffffffffffffffffffffffffffffffffff1661132b611a4d565b73ffffffffffffffffffffffffffffffffffffffff16146113b4576040517f08c379a00000000000000000000000000000000000000000000000000000000081526004018080602001828103825260208152602001807f4f776e61626c653a2063616c6c6572206973206e6f7420746865206f776e657281525060200191505060405180910390fd5b60008173ffffffffffffffffffffffffffffffffffffffff166316fed3e26040518163ffffffff1660e01b815260040160206040518083038186803b1580156113fc57600080fd5b505afa158015611410573d6000803e3d6000fd5b505050506040513d602081101561142657600080fd5b81019080805190602001909291905050509050600061147b606461146d600060149054906101000a900460ff1660ff1661145f8861215c565b61222590919063ffffffff16565b6122ab90919063ffffffff16565b90508373ffffffffffffffffffffffffffffffffffffffff1663a9059cbb83836040518363ffffffff1660e01b8152600401808373ffffffffffffffffffffffffffffffffffffffff1673ffffffffffffffffffffffffffffffffffffffff16815260200182815260200192505050602060405180830381600087803b15801561150457600080fd5b505af1158015611518573d6000803e3d6000fd5b505050506040513d602081101561152e57600080fd5b81019080805190602001909291905050505050505050565b600160009054906101000a900473ffffffffffffffffffffffffffffffffffffffff1681565b61157461221d565b73ffffffffffffffffffffffffffffffffffffffff16611592611a4d565b73ffffffffffffffffffffffffffffffffffffffff161461161b576040517f08c379a00000000000000000000000000000000000000000000000000000000081526004018080602001828103825260208152602001807f4f776e61626c653a2063616c6c6572206973206e6f7420746865206f776e657281525060200191505060405180910390fd5b8273ffffffffffffffffffffffffffffffffffffffff166323b872dd3384846040518463ffffffff1660e01b8152600401808473ffffffffffffffffffffffffffffffffffffffff1673ffffffffffffffffffffffffffffffffffffffff1681526020018373ffffffffffffffffffffffffffffffffffffffff1673ffffffffffffffffffffffffffffffffffffffff1681526020018281526020019350505050602060405180830381600087803b1580156116d657600080fd5b505af11580156116ea573d6000803e3d6000fd5b505050506040513d602081101561170057600080fd5b810190808051906020019092919050505050505050565b600080600061172461221d565b73ffffffffffffffffffffffffffffffffffffffff16611742611a4d565b73ffffffffffffffffffffffffffffffffffffffff16146117cb576040517f08c379a00000000000000000000000000000000000000000000000000000000081526004018080602001828103825260208152602001807f4f776e61626c653a2063616c6c6572206973206e6f7420746865206f776e657281525060200191505060405180910390fd5b600160009054906101000a900473ffffffffffffffffffffffffffffffffffffffff1673ffffffffffffffffffffffffffffffffffffffff1663e8e337008b8b8b8b8b8b600260009054906101000a900473ffffffffffffffffffffffffffffffffffffffff168c6040518963ffffffff1660e01b8152600401808973ffffffffffffffffffffffffffffffffffffffff1673ffffffffffffffffffffffffffffffffffffffff1681526020018873ffffffffffffffffffffffffffffffffffffffff1673ffffffffffffffffffffffffffffffffffffffff1681526020018781526020018681526020018581526020018481526020018373ffffffffffffffffffffffffffffffffffffffff1673ffffffffffffffffffffffffffffffffffffffff16815260200182815260200198505050505050505050606060405180830381600087803b15801561191e57600080fd5b505af1158015611932573d6000803e3d6000fd5b505050506040513d606081101561194857600080fd5b810190808051906020019092919080519060200190929190805190602001909291905050509250925092509750975097945050505050565b61198861221d565b73ffffffffffffffffffffffffffffffffffffffff166119a6611a4d565b73ffffffffffffffffffffffffffffffffffffffff1614611a2f576040517f08c379a00000000000000000000000000000000000000000000000000000000081526004018080602001828103825260208152602001807f4f776e61626c653a2063616c6c6572206973206e6f7420746865206f776e657281525060200191505060405180910390fd5b80600060146101000a81548160ff021916908360ff16021790555050565b60008060009054906101000a900473ffffffffffffffffffffffffffffffffffffffff16905090565b611a7e61221d565b73ffffffffffffffffffffffffffffffffffffffff16611a9c611a4d565b73ffffffffffffffffffffffffffffffffffffffff1614611b25576040517f08c379a00000000000000000000000000000000000000000000000000000000081526004018080602001828103825260208152602001807f4f776e61626c653a2063616c6c6572206973206e6f7420746865206f776e657281525060200191505060405180910390fd5b80600260006101000a81548173ffffffffffffffffffffffffffffffffffffffff021916908373ffffffffffffffffffffffffffffffffffffffff16021790555050565b600260009054906101000a900473ffffffffffffffffffffffffffffffffffffffff1681565b60608173ffffffffffffffffffffffffffffffffffffffff166395d89b416040518163ffffffff1660e01b815260040160006040518083038186803b158015611bd757600080fd5b505afa158015611beb573d6000803e3d6000fd5b505050506040513d6000823e3d601f19601f820116820180604052506020811015611c1557600080fd5b8101908080516040519392919084640100000000821115611c3557600080fd5b83820191506020820185811115611c4b57600080fd5b8251866001820283011164010000000082111715611c6857600080fd5b8083526020830192505050908051906020019080838360005b83811015611c9c578082015181840152602081019050611c81565b50505050905090810190601f168015611cc95780820380516001836020036101000a031916815260200191505b506040525050509050919050565b60008173ffffffffffffffffffffffffffffffffffffffff1663313ce5676040518163ffffffff1660e01b815260040160206040518083038186803b158015611d1f57600080fd5b505afa158015611d33573d6000803e3d6000fd5b505050506040513d6020811015611d4957600080fd5b81019080805190602001909291905050509050919050565b611d6961221d565b73ffffffffffffffffffffffffffffffffffffffff16611d87611a4d565b73ffffffffffffffffffffffffffffffffffffffff1614611e10576040517f08c379a00000000000000000000000000000000000000000000000000000000081526004018080602001828103825260208152602001807f4f776e61626c653a2063616c6c6572206973206e6f7420746865206f776e657281525060200191505060405180910390fd5b8273ffffffffffffffffffffffffffffffffffffffff1663a9059cbb83836040518363ffffffff1660e01b8152600401808373ffffffffffffffffffffffffffffffffffffffff1673ffffffffffffffffffffffffffffffffffffffff16815260200182815260200192505050602060405180830381600087803b158015611e9757600080fd5b505af1158015611eab573d6000803e3d6000fd5b505050506040513d6020811015611ec157600080fd5b8101908080519060200190929190505050507f8c7535aa869148760fe84ccb94970653d1d21af2a4051507f8e6696aff5c06048282604051808373ffffffffffffffffffffffffffffffffffffffff1673ffffffffffffffffffffffffffffffffffffffff1681526020018281526020019250505060405180910390a1505050565b600360009054906101000a900473ffffffffffffffffffffffffffffffffffffffff1681565b611f7161221d565b73ffffffffffffffffffffffffffffffffffffffff16611f8f611a4d565b73ffffffffffffffffffffffffffffffffffffffff1614612018576040517f08c379a00000000000000000000000000000000000000000000000000000000081526004018080602001828103825260208152602001807f4f776e61626c653a2063616c6c6572206973206e6f7420746865206f776e657281525060200191505060405180910390fd5b600073ffffffffffffffffffffffffffffffffffffffff168173ffffffffffffffffffffffffffffffffffffffff16141561209e576040517f08c379a00000000000000000000000000000000000000000000000000000000081526004018080602001828103825260268152602001806123356026913960400191505060405180910390fd5b8073ffffffffffffffffffffffffffffffffffffffff166000809054906101000a900473ffffffffffffffffffffffffffffffffffffffff1673ffffffffffffffffffffffffffffffffffffffff167f8be0079c531659141344cd1fd0a4f28419497f9722a3daafe3b4186f6b6457e060405160405180910390a3806000806101000a81548173ffffffffffffffffffffffffffffffffffffffff021916908373ffffffffffffffffffffffffffffffffffffffff16021790555050565b60008173ffffffffffffffffffffffffffffffffffffffff166370a08231306040518263ffffffff1660e01b8152600401808273ffffffffffffffffffffffffffffffffffffffff1673ffffffffffffffffffffffffffffffffffffffff16815260200191505060206040518083038186803b1580156121db57600080fd5b505afa1580156121ef573d6000803e3d6000fd5b505050506040513d602081101561220557600080fd5b81019080805190602001909291905050509050919050565b600033905090565b60008083141561223857600090506122a5565b600082840290508284828161224957fe5b04146122a0576040517f08c379a000000000000000000000000000000000000000000000000000000000815260040180806020018281038252602181526020018061235b6021913960400191505060405180910390fd5b809150505b92915050565b6000808211612322576040517f08c379a000000000000000000000000000000000000000000000000000000000815260040180806020018281038252601a8152602001807f536166654d6174683a206469766973696f6e206279207a65726f00000000000081525060200191505060405180910390fd5b81838161232b57fe5b0490509291505056fe4f776e61626c653a206e6577206f776e657220697320746865207a65726f2061646472657373536166654d6174683a206d756c7469706c69636174696f6e206f766572666c6f77a2646970667358221220eaacdbb4dc83cf8530dea82ec644404d4c7abf08bba3cf50487814824455e20464736f6c634300060b0033",
  "immutableReferences": {},
  "source": "// SPDX-License-Identifier: MIT\npragma solidity 0.6.11;\n\n\nimport \"@uniswap/v2-periphery/contracts/interfaces/IUniswapV2Router02.sol\";\nimport \"@uniswap/v2-periphery/contracts/interfaces/IERC20.sol\";\nimport \"@uniswap/v2-periphery/contracts/interfaces/IWETH.sol\";\nimport \"@openzeppelin/contracts/access/Ownable.sol\";\nimport \"@openzeppelin/contracts/math/SafeMath.sol\";\nimport \"./interfaces/IBorrow.sol\";\n\n\ncontract Stacking is Ownable{\n  using SafeMath for uint;\n\n\n uint8 projectRevenue;\n IUniswapV2Router02 public uniswapRouter; //initialization of Uni Router\n address public stacking; //initialization of the contract address variable\n address public proxy; //initialization of the contract address variable\n\nevent LPsended(address owner, uint amount);\n\n\n constructor(address _uniswap) public {\n   uniswapRouter = IUniswapV2Router02(_uniswap); //set the UNI Router instance with a specific address\n }\n\n/// @notice Define stacking contract address\n/// @param contractAddr the contract address referring to stacking.sol\nfunction setStackingAddress(address contractAddr) external onlyOwner {\n  stacking = contractAddr ;\n}\n\n/// @notice Define proxy contract address\n/// @param contractAddr the contract address referring to ProxySimple.sol\nfunction setProxyAddress(address contractAddr) external onlyOwner {\n  proxy = contractAddr ;\n}\n\n/// @notice Define the pourcentage of teh total balance allocated to project funding\n/// @param pourcentage the amount to divide by 100 when sending funds to projects\nfunction setProjectRevenue(uint8 pourcentage) external onlyOwner {\n  projectRevenue = pourcentage ;\n}\n\n/// @notice fetch an ERC20 balance of the stacking contract\n/// @param token address\n/// @return contract's balance\n function getBalance(IERC20 token) public view returns (uint) {\n   return IERC20(token).balanceOf(address(this));\n }\n\n\n /// @notice fetch an ERC20 token decimals\n /// @param token address\n /// return decimals uint8\n function getDecimals(address token) external view returns(uint8 decimals) {\n   decimals = IERC20(token).decimals();\n\n }\n /// @notice fetch an ERC20 token symbol\n /// @dev\n /// @param token address\n /// return symbol string\n  function getSymbol(address token) external view returns(string memory symbol) {\n    symbol = IERC20(token).symbol();\n  }\n\n  /// @notice transfer an ERC20 token to the addr of your choice\n  /// @dev usefull to send funds to our contracts\n  /// @param token, proxySimple, amountIn\n function receiveERC20(IERC20 token, address usr, uint amountIn) external onlyOwner{\n   IERC20(token).transferFrom(msg.sender,usr,amountIn);\n }\n\n /// @notice send ERC20 tokens to voted projects for fundings\n /// @dev multiplied by a state variable then divided by 100 as a pourcentage\n /// @param token, vote, usr the erc20 token address and project to fund address\n function fooProjects(IERC20 token, address voteContract) external onlyOwner {\n   address toFund = IBorrow(voteContract).receiverAddress();\n   uint rewards = getBalance(token).mul(projectRevenue).div(100);\n  IERC20(token).transfer(toFund,rewards);\n }\n /// @notice approve an ERC20 token amount to uniswap Router\n /// @dev function restricted to the owner of the contract\n /// @param token, amountIn token address and amount to approve\n /// @return amountIn the approved amount for uniswap Router\n function approveERC20Uni(IERC20 token, uint amountIn) onlyOwner external returns(uint){\n   IERC20(token).approve(address(uniswapRouter), amountIn);\n   return amountIn;\n }\n ///@notice send Lp to an address reponsible for placing LP in liquidity pool to gains rewards\n ///@dev the address shoulb be trusted and defined by the contract owner\n ///@param lpToken, owner, amount token address, the account address to receive LPs and the LPs amount\n function sendLP(address lpToken, address owner, uint amount) external onlyOwner {\n   IERC20(lpToken).transfer(owner, amount);\n   emit LPsended(owner, amount);\n }\n /// @notice swap ERC20 tokens with an exact input to a desired ouput\n /// @dev an output minimum amount is required as parameter,\n /// it reverts if the swap give an output below amountOutMin\n /// @param tokenA, tokenB, amountIn, amountOutMin, deadline\n function swapTokens(\n   address tokenA,\n   address tokenB,\n   uint amountIn,\n   uint amountOutMin,\n   uint deadline\n   ) external onlyOwner {\n   address[] memory path = new address[](2); // Cration du path\n   path[0] = address(tokenA); // initialisation du path avec l'address du token  changer\n   path[1] = address(tokenB); // initialisation du path avec l'address du WETH d'Uniswap\n   //approveERC20Uni() before calling this function\n   //fetch uniswap Router function swapExactTokensForTokens() with same params\n   uniswapRouter.swapExactTokensForTokens(\n     amountIn,\n     amountOutMin,\n     path,\n     stacking,\n     deadline\n   ); // effectuer le swap, ETH sera transfrer directement au contrat stacking\n }\n\n /// @notice add ERC20 tokens in liquidity pools\n /// @dev outputs minimum amounts are required as parameter,\n /// it reverts if the swap give an output below amountTokenAMin or amountTokenBMin\n /// @param tokenA, tokenB, amountTokenADesired, amountTokenBDesired, amountTokenAMin, amountTokenBMin, deadline\n /// return amountA, amountB added in liquidity & liquidity tokens received by stacking contract\n function addLiquidity(\n   address tokenA,\n   address tokenB,\n   uint amountTokenADesired,\n   uint amountTokenBDesired,\n   uint amountTokenAMin,\n   uint amountTokenBMin,\n   uint deadline\n  ) external payable onlyOwner returns (uint amountTokenA, uint amountTokenB, uint liquidity) {\n    //fetch uniswap Router function addLiquidity() with same params\n   return uniswapRouter.addLiquidity(tokenA, tokenB, amountTokenADesired,amountTokenBDesired, amountTokenAMin, amountTokenBMin, stacking, deadline);\n }\n\n /// @notice remove ERC20 tokens from liquidity pools\n /// @dev liquidity tokens amount & outputs minimum amounts are required as parameter,\n /// it reverts if the swap give an output below amountAMin or amountBMin\n /// @param tokenA, tokenB, amountTokenADesired, amountTokenBDesired, amountTokenAMin, amountTokenBMin, deadline\n /// @return amountA amountB received by stacking contract\n  function removeLiquidity(\n  address tokenA,\n  address tokenB,\n  uint liquidity,\n  uint amountAMin,\n  uint amountBMin,\n  uint deadline\n  ) external onlyOwner returns (uint amountA, uint amountB) {\n    //fetch uniswap Router function addLiquidity() with same params\n  return uniswapRouter.removeLiquidity(tokenA,tokenB,liquidity,amountAMin,amountBMin,stacking,deadline);\n  }\n}\n",
  "sourcePath": "/Users/arnauddauber/Desktop/DEXsoFi/solipay/Solipay/contracts/Stacking.sol",
  "compiler": {
    "name": "solc",
    "version": "0.6.11+commit.5ef660b1.Emscripten.clang"
  },
  "schemaVersion": "3.3.4",
  "updatedAt": "2021-05-06T23:43:17.340Z",
  "networkType": "ethereum",
  "devdoc": {
    "kind": "dev",
    "methods": {
      "addLiquidity(address,address,uint256,uint256,uint256,uint256,uint256)": {
        "details": "outputs minimum amounts are required as parameter, it reverts if the swap give an output below amountTokenAMin or amountTokenBMin",
        "params": {
          "tokenA": ", tokenB, amountTokenADesired, amountTokenBDesired, amountTokenAMin, amountTokenBMin, deadline return amountA, amountB added in liquidity & liquidity tokens received by stacking contract"
        }
      },
      "approveERC20Uni(address,uint256)": {
        "details": "function restricted to the owner of the contract",
        "params": {
          "token": ", amountIn token address and amount to approve"
        },
        "returns": {
          "_0": "amountIn the approved amount for uniswap Router"
        }
      },
      "fooProjects(address,address)": {
        "details": "multiplied by a state variable then divided by 100 as a pourcentage",
        "params": {
          "token": ", vote, usr the erc20 token address and project to fund address"
        }
      },
      "getBalance(address)": {
        "params": {
          "token": "address"
        },
        "returns": {
          "_0": "contract's balance"
        }
      },
      "getDecimals(address)": {
        "params": {
          "token": "address return decimals uint8"
        }
      },
      "getSymbol(address)": {
        "details": "@param token address return symbol string"
      },
      "owner()": {
        "details": "Returns the address of the current owner."
      },
      "receiveERC20(address,address,uint256)": {
        "details": "usefull to send funds to our contracts",
        "params": {
          "token": ", proxySimple, amountIn"
        }
      },
      "removeLiquidity(address,address,uint256,uint256,uint256,uint256)": {
        "details": "liquidity tokens amount & outputs minimum amounts are required as parameter, it reverts if the swap give an output below amountAMin or amountBMin",
        "params": {
          "tokenA": ", tokenB, amountTokenADesired, amountTokenBDesired, amountTokenAMin, amountTokenBMin, deadline"
        },
        "returns": {
          "amountA": "amountB received by stacking contract"
        }
      },
      "renounceOwnership()": {
        "details": "Leaves the contract without owner. It will not be possible to call `onlyOwner` functions anymore. Can only be called by the current owner. NOTE: Renouncing ownership will leave the contract without an owner, thereby removing any functionality that is only available to the owner."
      },
      "sendLP(address,address,uint256)": {
        "details": "the address shoulb be trusted and defined by the contract owner",
        "params": {
          "lpToken": ", owner, amount token address, the account address to receive LPs and the LPs amount"
        }
      },
      "setProjectRevenue(uint8)": {
        "params": {
          "pourcentage": "the amount to divide by 100 when sending funds to projects"
        }
      },
      "setProxyAddress(address)": {
        "params": {
          "contractAddr": "the contract address referring to ProxySimple.sol"
        }
      },
      "setStackingAddress(address)": {
        "params": {
          "contractAddr": "the contract address referring to stacking.sol"
        }
      },
      "swapTokens(address,address,uint256,uint256,uint256)": {
        "details": "an output minimum amount is required as parameter, it reverts if the swap give an output below amountOutMin",
        "params": {
          "tokenA": ", tokenB, amountIn, amountOutMin, deadline"
        }
      },
      "transferOwnership(address)": {
        "details": "Transfers ownership of the contract to a new account (`newOwner`). Can only be called by the current owner."
      }
    },
    "version": 1
  },
  "userdoc": {
    "kind": "user",
    "methods": {
      "addLiquidity(address,address,uint256,uint256,uint256,uint256,uint256)": {
        "notice": "add ERC20 tokens in liquidity pools"
      },
      "approveERC20Uni(address,uint256)": {
        "notice": "approve an ERC20 token amount to uniswap Router"
      },
      "fooProjects(address,address)": {
        "notice": "send ERC20 tokens to voted projects for fundings"
      },
      "getBalance(address)": {
        "notice": "fetch an ERC20 balance of the stacking contract"
      },
      "getDecimals(address)": {
        "notice": "fetch an ERC20 token decimals"
      },
      "getSymbol(address)": {
        "notice": "fetch an ERC20 token symbol"
      },
      "receiveERC20(address,address,uint256)": {
        "notice": "transfer an ERC20 token to the addr of your choice"
      },
      "removeLiquidity(address,address,uint256,uint256,uint256,uint256)": {
        "notice": "remove ERC20 tokens from liquidity pools"
      },
      "sendLP(address,address,uint256)": {
        "notice": "send Lp to an address reponsible for placing LP in liquidity pool to gains rewards"
      },
      "setProjectRevenue(uint8)": {
        "notice": "Define the pourcentage of teh total balance allocated to project funding"
      },
      "setProxyAddress(address)": {
        "notice": "Define proxy contract address"
      },
      "setStackingAddress(address)": {
        "notice": "Define stacking contract address"
      },
      "swapTokens(address,address,uint256,uint256,uint256)": {
        "notice": "swap ERC20 tokens with an exact input to a desired ouput"
      }
    },
    "version": 1
  }
}