{
  "contractName": "Stacking",
  "abi": [
    {
      "inputs": [
        {
          "internalType": "address",
          "name": "_uniswap",
          "type": "address"
        }
      ],
      "stateMutability": "nonpayable",
      "type": "constructor"
    },
    {
      "anonymous": false,
      "inputs": [
        {
          "indexed": true,
          "internalType": "address",
          "name": "previousOwner",
          "type": "address"
        },
        {
          "indexed": true,
          "internalType": "address",
          "name": "newOwner",
          "type": "address"
        }
      ],
      "name": "OwnershipTransferred",
      "type": "event"
    },
    {
      "inputs": [],
      "name": "owner",
      "outputs": [
        {
          "internalType": "address",
          "name": "",
          "type": "address"
        }
      ],
      "stateMutability": "view",
      "type": "function",
      "constant": true
    },
    {
      "inputs": [],
      "name": "proxy",
      "outputs": [
        {
          "internalType": "address",
          "name": "",
          "type": "address"
        }
      ],
      "stateMutability": "view",
      "type": "function",
      "constant": true
    },
    {
      "inputs": [],
      "name": "renounceOwnership",
      "outputs": [],
      "stateMutability": "nonpayable",
      "type": "function"
    },
    {
      "inputs": [],
      "name": "stacking",
      "outputs": [
        {
          "internalType": "address",
          "name": "",
          "type": "address"
        }
      ],
      "stateMutability": "view",
      "type": "function",
      "constant": true
    },
    {
      "inputs": [
        {
          "internalType": "address",
          "name": "newOwner",
          "type": "address"
        }
      ],
      "name": "transferOwnership",
      "outputs": [],
      "stateMutability": "nonpayable",
      "type": "function"
    },
    {
      "inputs": [],
      "name": "uniswapRouter",
      "outputs": [
        {
          "internalType": "contract IUniswapV2Router02",
          "name": "",
          "type": "address"
        }
      ],
      "stateMutability": "view",
      "type": "function",
      "constant": true
    },
    {
      "stateMutability": "payable",
      "type": "receive",
      "payable": true
    },
    {
      "inputs": [
        {
          "internalType": "address",
          "name": "contractAddr",
          "type": "address"
        }
      ],
      "name": "setStackingAddress",
      "outputs": [],
      "stateMutability": "nonpayable",
      "type": "function"
    },
    {
      "inputs": [
        {
          "internalType": "address",
          "name": "contractAddr",
          "type": "address"
        }
      ],
      "name": "setProxyAddress",
      "outputs": [],
      "stateMutability": "nonpayable",
      "type": "function"
    },
    {
      "inputs": [
        {
          "internalType": "address",
          "name": "token",
          "type": "address"
        },
        {
          "internalType": "uint256",
          "name": "amount",
          "type": "uint256"
        }
      ],
      "name": "approveProxy",
      "outputs": [
        {
          "internalType": "bool",
          "name": "",
          "type": "bool"
        }
      ],
      "stateMutability": "nonpayable",
      "type": "function"
    },
    {
      "inputs": [
        {
          "internalType": "contract IERC20",
          "name": "token",
          "type": "address"
        }
      ],
      "name": "getBalance",
      "outputs": [
        {
          "internalType": "uint256",
          "name": "",
          "type": "uint256"
        }
      ],
      "stateMutability": "view",
      "type": "function",
      "constant": true
    },
    {
      "inputs": [
        {
          "internalType": "address",
          "name": "token",
          "type": "address"
        }
      ],
      "name": "getDecimals",
      "outputs": [
        {
          "internalType": "uint8",
          "name": "decimals",
          "type": "uint8"
        }
      ],
      "stateMutability": "view",
      "type": "function",
      "constant": true
    },
    {
      "inputs": [
        {
          "internalType": "address",
          "name": "token",
          "type": "address"
        }
      ],
      "name": "getSymbol",
      "outputs": [
        {
          "internalType": "string",
          "name": "symbol",
          "type": "string"
        }
      ],
      "stateMutability": "view",
      "type": "function",
      "constant": true
    },
    {
      "inputs": [
        {
          "internalType": "contract IERC20",
          "name": "token",
          "type": "address"
        },
        {
          "internalType": "address",
          "name": "proxySimple",
          "type": "address"
        },
        {
          "internalType": "uint256",
          "name": "amountIn",
          "type": "uint256"
        }
      ],
      "name": "transferERC20",
      "outputs": [],
      "stateMutability": "nonpayable",
      "type": "function"
    },
    {
      "inputs": [
        {
          "internalType": "contract IERC20",
          "name": "token",
          "type": "address"
        },
        {
          "internalType": "uint256",
          "name": "amountIn",
          "type": "uint256"
        }
      ],
      "name": "approveERC20Uni",
      "outputs": [
        {
          "internalType": "uint256",
          "name": "",
          "type": "uint256"
        }
      ],
      "stateMutability": "nonpayable",
      "type": "function"
    },
    {
      "inputs": [
        {
          "internalType": "address",
          "name": "tokenA",
          "type": "address"
        },
        {
          "internalType": "address",
          "name": "tokenB",
          "type": "address"
        },
        {
          "internalType": "uint256",
          "name": "amountIn",
          "type": "uint256"
        },
        {
          "internalType": "uint256",
          "name": "amountOutMin",
          "type": "uint256"
        },
        {
          "internalType": "uint256",
          "name": "deadline",
          "type": "uint256"
        }
      ],
      "name": "swapTokens",
      "outputs": [],
      "stateMutability": "nonpayable",
      "type": "function"
    },
    {
      "inputs": [
        {
          "internalType": "address",
          "name": "tokenA",
          "type": "address"
        },
        {
          "internalType": "address",
          "name": "tokenB",
          "type": "address"
        },
        {
          "internalType": "uint256",
          "name": "amountTokenADesired",
          "type": "uint256"
        },
        {
          "internalType": "uint256",
          "name": "amountTokenBDesired",
          "type": "uint256"
        },
        {
          "internalType": "uint256",
          "name": "amountTokenAMin",
          "type": "uint256"
        },
        {
          "internalType": "uint256",
          "name": "amountTokenBMin",
          "type": "uint256"
        },
        {
          "internalType": "uint256",
          "name": "deadline",
          "type": "uint256"
        }
      ],
      "name": "addLiquidity",
      "outputs": [
        {
          "internalType": "uint256",
          "name": "amountTokenA",
          "type": "uint256"
        },
        {
          "internalType": "uint256",
          "name": "amountTokenB",
          "type": "uint256"
        },
        {
          "internalType": "uint256",
          "name": "liquidity",
          "type": "uint256"
        }
      ],
      "stateMutability": "payable",
      "type": "function",
      "payable": true
    },
    {
      "inputs": [
        {
          "internalType": "address",
          "name": "tokenA",
          "type": "address"
        },
        {
          "internalType": "address",
          "name": "tokenB",
          "type": "address"
        },
        {
          "internalType": "uint256",
          "name": "liquidity",
          "type": "uint256"
        },
        {
          "internalType": "uint256",
          "name": "amountAMin",
          "type": "uint256"
        },
        {
          "internalType": "uint256",
          "name": "amountBMin",
          "type": "uint256"
        },
        {
          "internalType": "uint256",
          "name": "deadline",
          "type": "uint256"
        }
      ],
      "name": "removeLiquidity",
      "outputs": [
        {
          "internalType": "uint256",
          "name": "amountA",
          "type": "uint256"
        },
        {
          "internalType": "uint256",
          "name": "amountB",
          "type": "uint256"
        }
      ],
      "stateMutability": "nonpayable",
      "type": "function"
    }
  ],
  "bytecode": "0x608060405234801561001057600080fd5b50604051611fc7380380611fc78339818101604052602081101561003357600080fd5b8101908080519060200190929190505050600061005461013960201b60201c565b9050806000806101000a81548173ffffffffffffffffffffffffffffffffffffffff021916908373ffffffffffffffffffffffffffffffffffffffff1602179055508073ffffffffffffffffffffffffffffffffffffffff16600073ffffffffffffffffffffffffffffffffffffffff167f8be0079c531659141344cd1fd0a4f28419497f9722a3daafe3b4186f6b6457e060405160405180910390a35080600160006101000a81548173ffffffffffffffffffffffffffffffffffffffff021916908373ffffffffffffffffffffffffffffffffffffffff16021790555050610141565b600033905090565b611e77806101506000396000f3fe6080604052600436106101025760003560e01c80639cc901bc11610095578063cf54aaa011610064578063cf54aaa01461067b578063e406a38d146106e6578063ec55688914610759578063f2fde38b146107b0578063f8b2cb4f1461080157610109565b80639cc901bc1461048e5780639db5dbe4146104df578063c62bfd8f1461055a578063c9b2e522146105b157610109565b8063715018a6116100d1578063715018a614610311578063735de9f7146103285780637ae06e581461037f5780638da5cb5b1461043757610109565b8063351cfe481461010e57806343d91bf11461017d57806344483d531461020c57806346a7dadc146102c057610109565b3661010957005b600080fd5b34801561011a57600080fd5b506101676004803603604081101561013157600080fd5b81019080803573ffffffffffffffffffffffffffffffffffffffff16906020019092919080359060200190929190505050610866565b6040518082815260200191505060405180910390f35b34801561018957600080fd5b5061020a600480360360a08110156101a057600080fd5b81019080803573ffffffffffffffffffffffffffffffffffffffff169060200190929190803573ffffffffffffffffffffffffffffffffffffffff169060200190929190803590602001909291908035906020019092919080359060200190929190505050610a05565b005b34801561021857600080fd5b506102a3600480360360c081101561022f57600080fd5b81019080803573ffffffffffffffffffffffffffffffffffffffff169060200190929190803573ffffffffffffffffffffffffffffffffffffffff16906020019092919080359060200190929190803590602001909291908035906020019092919080359060200190929190505050610d92565b604051808381526020018281526020019250505060405180910390f35b3480156102cc57600080fd5b5061030f600480360360208110156102e357600080fd5b81019080803573ffffffffffffffffffffffffffffffffffffffff169060200190929190505050610fe2565b005b34801561031d57600080fd5b506103266110d5565b005b34801561033457600080fd5b5061033d611243565b604051808273ffffffffffffffffffffffffffffffffffffffff1673ffffffffffffffffffffffffffffffffffffffff16815260200191505060405180910390f35b610413600480360360e081101561039557600080fd5b81019080803573ffffffffffffffffffffffffffffffffffffffff169060200190929190803573ffffffffffffffffffffffffffffffffffffffff1690602001909291908035906020019092919080359060200190929190803590602001909291908035906020019092919080359060200190929190505050611269565b60405180848152602001838152602001828152602001935050505060405180910390f35b34801561044357600080fd5b5061044c6114d2565b604051808273ffffffffffffffffffffffffffffffffffffffff1673ffffffffffffffffffffffffffffffffffffffff16815260200191505060405180910390f35b34801561049a57600080fd5b506104dd600480360360208110156104b157600080fd5b81019080803573ffffffffffffffffffffffffffffffffffffffff1690602001909291905050506114fb565b005b3480156104eb57600080fd5b506105586004803603606081101561050257600080fd5b81019080803573ffffffffffffffffffffffffffffffffffffffff169060200190929190803573ffffffffffffffffffffffffffffffffffffffff169060200190929190803590602001909291905050506115ee565b005b34801561056657600080fd5b5061056f611799565b604051808273ffffffffffffffffffffffffffffffffffffffff1673ffffffffffffffffffffffffffffffffffffffff16815260200191505060405180910390f35b3480156105bd57600080fd5b50610600600480360360208110156105d457600080fd5b81019080803573ffffffffffffffffffffffffffffffffffffffff1690602001909291905050506117bf565b6040518080602001828103825283818151815260200191508051906020019080838360005b83811015610640578082015181840152602081019050610625565b50505050905090810190601f16801561066d5780820380516001836020036101000a031916815260200191505b509250505060405180910390f35b34801561068757600080fd5b506106ca6004803603602081101561069e57600080fd5b81019080803573ffffffffffffffffffffffffffffffffffffffff169060200190929190505050611907565b604051808260ff1660ff16815260200191505060405180910390f35b3480156106f257600080fd5b5061073f6004803603604081101561070957600080fd5b81019080803573ffffffffffffffffffffffffffffffffffffffff16906020019092919080359060200190929190505050611991565b604051808215151515815260200191505060405180910390f35b34801561076557600080fd5b5061076e611b39565b604051808273ffffffffffffffffffffffffffffffffffffffff1673ffffffffffffffffffffffffffffffffffffffff16815260200191505060405180910390f35b3480156107bc57600080fd5b506107ff600480360360208110156107d357600080fd5b81019080803573ffffffffffffffffffffffffffffffffffffffff169060200190929190505050611b5f565b005b34801561080d57600080fd5b506108506004803603602081101561082457600080fd5b81019080803573ffffffffffffffffffffffffffffffffffffffff169060200190929190505050611d52565b6040518082815260200191505060405180910390f35b6000610870611e13565b73ffffffffffffffffffffffffffffffffffffffff1661088e6114d2565b73ffffffffffffffffffffffffffffffffffffffff1614610917576040517f08c379a00000000000000000000000000000000000000000000000000000000081526004018080602001828103825260208152602001807f4f776e61626c653a2063616c6c6572206973206e6f7420746865206f776e657281525060200191505060405180910390fd5b8273ffffffffffffffffffffffffffffffffffffffff1663095ea7b3600160009054906101000a900473ffffffffffffffffffffffffffffffffffffffff16846040518363ffffffff1660e01b8152600401808373ffffffffffffffffffffffffffffffffffffffff1673ffffffffffffffffffffffffffffffffffffffff16815260200182815260200192505050602060405180830381600087803b1580156109c057600080fd5b505af11580156109d4573d6000803e3d6000fd5b505050506040513d60208110156109ea57600080fd5b81019080805190602001909291905050505081905092915050565b610a0d611e13565b73ffffffffffffffffffffffffffffffffffffffff16610a2b6114d2565b73ffffffffffffffffffffffffffffffffffffffff1614610ab4576040517f08c379a00000000000000000000000000000000000000000000000000000000081526004018080602001828103825260208152602001807f4f776e61626c653a2063616c6c6572206973206e6f7420746865206f776e657281525060200191505060405180910390fd5b6060600267ffffffffffffffff81118015610ace57600080fd5b50604051908082528060200260200182016040528015610afd5781602001602082028036833780820191505090505b5090508581600081518110610b0e57fe5b602002602001019073ffffffffffffffffffffffffffffffffffffffff16908173ffffffffffffffffffffffffffffffffffffffff16815250508481600181518110610b5657fe5b602002602001019073ffffffffffffffffffffffffffffffffffffffff16908173ffffffffffffffffffffffffffffffffffffffff1681525050600160009054906101000a900473ffffffffffffffffffffffffffffffffffffffff1673ffffffffffffffffffffffffffffffffffffffff166338ed1739858584600260009054906101000a900473ffffffffffffffffffffffffffffffffffffffff16876040518663ffffffff1660e01b815260040180868152602001858152602001806020018473ffffffffffffffffffffffffffffffffffffffff1673ffffffffffffffffffffffffffffffffffffffff168152602001838152602001828103825285818151815260200191508051906020019060200280838360005b83811015610c8b578082015181840152602081019050610c70565b505050509050019650505050505050600060405180830381600087803b158015610cb457600080fd5b505af1158015610cc8573d6000803e3d6000fd5b505050506040513d6000823e3d601f19601f820116820180604052506020811015610cf257600080fd5b8101908080516040519392919084640100000000821115610d1257600080fd5b83820191506020820185811115610d2857600080fd5b8251866020820283011164010000000082111715610d4557600080fd5b8083526020830192505050908051906020019060200280838360005b83811015610d7c578082015181840152602081019050610d61565b5050505090500160405250505050505050505050565b600080610d9d611e13565b73ffffffffffffffffffffffffffffffffffffffff16610dbb6114d2565b73ffffffffffffffffffffffffffffffffffffffff1614610e44576040517f08c379a00000000000000000000000000000000000000000000000000000000081526004018080602001828103825260208152602001807f4f776e61626c653a2063616c6c6572206973206e6f7420746865206f776e657281525060200191505060405180910390fd5b600160009054906101000a900473ffffffffffffffffffffffffffffffffffffffff1673ffffffffffffffffffffffffffffffffffffffff1663baa2abde8989898989600260009054906101000a900473ffffffffffffffffffffffffffffffffffffffff168a6040518863ffffffff1660e01b8152600401808873ffffffffffffffffffffffffffffffffffffffff1673ffffffffffffffffffffffffffffffffffffffff1681526020018773ffffffffffffffffffffffffffffffffffffffff1673ffffffffffffffffffffffffffffffffffffffff1681526020018681526020018581526020018481526020018373ffffffffffffffffffffffffffffffffffffffff1673ffffffffffffffffffffffffffffffffffffffff1681526020018281526020019750505050505050506040805180830381600087803b158015610f8e57600080fd5b505af1158015610fa2573d6000803e3d6000fd5b505050506040513d6040811015610fb857600080fd5b81019080805190602001909291908051906020019092919050505091509150965096945050505050565b610fea611e13565b73ffffffffffffffffffffffffffffffffffffffff166110086114d2565b73ffffffffffffffffffffffffffffffffffffffff1614611091576040517f08c379a00000000000000000000000000000000000000000000000000000000081526004018080602001828103825260208152602001807f4f776e61626c653a2063616c6c6572206973206e6f7420746865206f776e657281525060200191505060405180910390fd5b80600360006101000a81548173ffffffffffffffffffffffffffffffffffffffff021916908373ffffffffffffffffffffffffffffffffffffffff16021790555050565b6110dd611e13565b73ffffffffffffffffffffffffffffffffffffffff166110fb6114d2565b73ffffffffffffffffffffffffffffffffffffffff1614611184576040517f08c379a00000000000000000000000000000000000000000000000000000000081526004018080602001828103825260208152602001807f4f776e61626c653a2063616c6c6572206973206e6f7420746865206f776e657281525060200191505060405180910390fd5b600073ffffffffffffffffffffffffffffffffffffffff166000809054906101000a900473ffffffffffffffffffffffffffffffffffffffff1673ffffffffffffffffffffffffffffffffffffffff167f8be0079c531659141344cd1fd0a4f28419497f9722a3daafe3b4186f6b6457e060405160405180910390a360008060006101000a81548173ffffffffffffffffffffffffffffffffffffffff021916908373ffffffffffffffffffffffffffffffffffffffff160217905550565b600160009054906101000a900473ffffffffffffffffffffffffffffffffffffffff1681565b6000806000611276611e13565b73ffffffffffffffffffffffffffffffffffffffff166112946114d2565b73ffffffffffffffffffffffffffffffffffffffff161461131d576040517f08c379a00000000000000000000000000000000000000000000000000000000081526004018080602001828103825260208152602001807f4f776e61626c653a2063616c6c6572206973206e6f7420746865206f776e657281525060200191505060405180910390fd5b600160009054906101000a900473ffffffffffffffffffffffffffffffffffffffff1673ffffffffffffffffffffffffffffffffffffffff1663e8e337008b8b8b8b8b8b600260009054906101000a900473ffffffffffffffffffffffffffffffffffffffff168c6040518963ffffffff1660e01b8152600401808973ffffffffffffffffffffffffffffffffffffffff1673ffffffffffffffffffffffffffffffffffffffff1681526020018873ffffffffffffffffffffffffffffffffffffffff1673ffffffffffffffffffffffffffffffffffffffff1681526020018781526020018681526020018581526020018481526020018373ffffffffffffffffffffffffffffffffffffffff1673ffffffffffffffffffffffffffffffffffffffff16815260200182815260200198505050505050505050606060405180830381600087803b15801561147057600080fd5b505af1158015611484573d6000803e3d6000fd5b505050506040513d606081101561149a57600080fd5b810190808051906020019092919080519060200190929190805190602001909291905050509250925092509750975097945050505050565b60008060009054906101000a900473ffffffffffffffffffffffffffffffffffffffff16905090565b611503611e13565b73ffffffffffffffffffffffffffffffffffffffff166115216114d2565b73ffffffffffffffffffffffffffffffffffffffff16146115aa576040517f08c379a00000000000000000000000000000000000000000000000000000000081526004018080602001828103825260208152602001807f4f776e61626c653a2063616c6c6572206973206e6f7420746865206f776e657281525060200191505060405180910390fd5b80600260006101000a81548173ffffffffffffffffffffffffffffffffffffffff021916908373ffffffffffffffffffffffffffffffffffffffff16021790555050565b6115f6611e13565b73ffffffffffffffffffffffffffffffffffffffff166116146114d2565b73ffffffffffffffffffffffffffffffffffffffff161461169d576040517f08c379a00000000000000000000000000000000000000000000000000000000081526004018080602001828103825260208152602001807f4f776e61626c653a2063616c6c6572206973206e6f7420746865206f776e657281525060200191505060405180910390fd5b8273ffffffffffffffffffffffffffffffffffffffff166323b872dd3084846040518463ffffffff1660e01b8152600401808473ffffffffffffffffffffffffffffffffffffffff1673ffffffffffffffffffffffffffffffffffffffff1681526020018373ffffffffffffffffffffffffffffffffffffffff1673ffffffffffffffffffffffffffffffffffffffff1681526020018281526020019350505050602060405180830381600087803b15801561175857600080fd5b505af115801561176c573d6000803e3d6000fd5b505050506040513d602081101561178257600080fd5b810190808051906020019092919050505050505050565b600260009054906101000a900473ffffffffffffffffffffffffffffffffffffffff1681565b60608173ffffffffffffffffffffffffffffffffffffffff166395d89b416040518163ffffffff1660e01b815260040160006040518083038186803b15801561180757600080fd5b505afa15801561181b573d6000803e3d6000fd5b505050506040513d6000823e3d601f19601f82011682018060405250602081101561184557600080fd5b810190808051604051939291908464010000000082111561186557600080fd5b8382019150602082018581111561187b57600080fd5b825186600182028301116401000000008211171561189857600080fd5b8083526020830192505050908051906020019080838360005b838110156118cc5780820151818401526020810190506118b1565b50505050905090810190601f1680156118f95780820380516001836020036101000a031916815260200191505b506040525050509050919050565b60008173ffffffffffffffffffffffffffffffffffffffff1663313ce5676040518163ffffffff1660e01b815260040160206040518083038186803b15801561194f57600080fd5b505afa158015611963573d6000803e3d6000fd5b505050506040513d602081101561197957600080fd5b81019080805190602001909291905050509050919050565b60008060608473ffffffffffffffffffffffffffffffffffffffff16600360009054906101000a900473ffffffffffffffffffffffffffffffffffffffff1685604051602401808373ffffffffffffffffffffffffffffffffffffffff1673ffffffffffffffffffffffffffffffffffffffff168152602001828152602001925050506040516020818303038152906040527f095ea7b3000000000000000000000000000000000000000000000000000000007bffffffffffffffffffffffffffffffffffffffffffffffffffffffff19166020820180517bffffffffffffffffffffffffffffffffffffffffffffffffffffffff83818316178352505050506040518082805190602001908083835b60208310611ac45780518252602082019150602081019050602083039250611aa1565b6001836020036101000a038019825116818451168082178552505050505050905001915050600060405180830381855af49150503d8060008114611b24576040519150601f19603f3d011682016040523d82523d6000602084013e611b29565b606091505b5091509150819250505092915050565b600360009054906101000a900473ffffffffffffffffffffffffffffffffffffffff1681565b611b67611e13565b73ffffffffffffffffffffffffffffffffffffffff16611b856114d2565b73ffffffffffffffffffffffffffffffffffffffff1614611c0e576040517f08c379a00000000000000000000000000000000000000000000000000000000081526004018080602001828103825260208152602001807f4f776e61626c653a2063616c6c6572206973206e6f7420746865206f776e657281525060200191505060405180910390fd5b600073ffffffffffffffffffffffffffffffffffffffff168173ffffffffffffffffffffffffffffffffffffffff161415611c94576040517f08c379a0000000000000000000000000000000000000000000000000000000008152600401808060200182810382526026815260200180611e1c6026913960400191505060405180910390fd5b8073ffffffffffffffffffffffffffffffffffffffff166000809054906101000a900473ffffffffffffffffffffffffffffffffffffffff1673ffffffffffffffffffffffffffffffffffffffff167f8be0079c531659141344cd1fd0a4f28419497f9722a3daafe3b4186f6b6457e060405160405180910390a3806000806101000a81548173ffffffffffffffffffffffffffffffffffffffff021916908373ffffffffffffffffffffffffffffffffffffffff16021790555050565b60008173ffffffffffffffffffffffffffffffffffffffff166370a08231306040518263ffffffff1660e01b8152600401808273ffffffffffffffffffffffffffffffffffffffff1673ffffffffffffffffffffffffffffffffffffffff16815260200191505060206040518083038186803b158015611dd157600080fd5b505afa158015611de5573d6000803e3d6000fd5b505050506040513d6020811015611dfb57600080fd5b81019080805190602001909291905050509050919050565b60003390509056fe4f776e61626c653a206e6577206f776e657220697320746865207a65726f2061646472657373a2646970667358221220d1d0e4124b5eb4bef9ece5d3cf7887498b687c83a6d64c86ac32a27e70aaae3b64736f6c634300060b0033",
  "immutableReferences": {},
  "source": "// SPDX-License-Identifier: MIT\npragma solidity 0.6.11;\n\n\nimport \"@uniswap/v2-periphery/contracts/interfaces/IUniswapV2Router02.sol\";\nimport \"@uniswap/v2-periphery/contracts/interfaces/IERC20.sol\";\nimport \"@uniswap/v2-periphery/contracts/interfaces/IWETH.sol\";\nimport \"@openzeppelin/contracts/access/Ownable.sol\";\nimport \"@openzeppelin/contracts/math/SafeMath.sol\";\n\n\ncontract Stacking is Ownable{\n  using SafeMath for uint;\n\n IUniswapV2Router02 public uniswapRouter; //initialization of Uni Router\n address public stacking; //initialization of the contract address variable\n address public proxy; //initialization of the contract address variable\n\n\n constructor(address _uniswap) public {\n   uniswapRouter = IUniswapV2Router02(_uniswap); //set the UNI Router instance with a specific address\n }\n\nreceive() external payable { }\n\n/// @notice Define stacking contract address\n/// @param contractAddr the contract address referring to stacking.sol\nfunction setStackingAddress(address contractAddr) external onlyOwner {\n  stacking = contractAddr ;\n}\n\n/// @notice Define proxy contract address\n/// @param contractAddr the contract address referring to ProxySimple.sol\nfunction setProxyAddress(address contractAddr) external onlyOwner {\n  proxy = contractAddr ;\n}\n/// @notice allow the user to send ERC20 to the stacking contract\n/// @dev use of a delegate call to pass the stacking address as argument for approve function\n/// @param amount the ERC20 token amount to approve for the stacking contract\nfunction approveProxy(address token, uint amount) external returns(bool){\n  (bool success, bytes memory result) = address(token).delegatecall(abi.encodeWithSignature(\"approve(address,uint256)\",proxy,amount));\n  return success;\n  }\n/// @notice fetch an ERC20 balance of the stacking contract\n/// @param token address\n/// @return contract's balance\n function getBalance(IERC20 token) external view returns (uint) {\n   return IERC20(token).balanceOf(address(this));\n }\n\n /// @notice fetch an ERC20 token decimals\n /// @param token address\n /// return decimals uint8\n function getDecimals(address token) external view returns(uint8 decimals) {\n   decimals = IERC20(token).decimals();\n\n }\n /// @notice fetch an ERC20 token symbol\n /// @dev\n /// @param token address\n /// return symbol string\n  function getSymbol(address token) external view returns(string memory symbol) {\n    symbol = IERC20(token).symbol();\n  }\n  /// @notice transfer an ERC20 token to the stacking contract\n  /// @dev\n  /// @param token, proxySimple, amountIn\n function transferERC20(IERC20 token, address proxySimple, uint amountIn) external onlyOwner{\n   IERC20(token).transferFrom(address(this),proxySimple,amountIn);\n }\n\n /// @notice approve an ERC20 token amount to uniswap Router\n /// @dev function restricted to the owner of the contract\n /// @param token, amountIn\n /// @return amountIn the approved amount for uniswap Router\n function approveERC20Uni(IERC20 token, uint amountIn) onlyOwner external returns(uint){\n   IERC20(token).approve(address(uniswapRouter), amountIn);\n   return amountIn;\n }\n /// @notice swap ERC20 tokens with an exact input to a desired ouput\n /// @dev an output minimum amount is required as parameter,\n /// it reverts if the swap give an output below amountOutMin\n /// @param tokenA, tokenB, amountIn, amountOutMin, deadline\n function swapTokens(\n   address tokenA,\n   address tokenB,\n   uint amountIn,\n   uint amountOutMin,\n   uint deadline\n   ) external onlyOwner {\n   address[] memory path = new address[](2); // Cration du path\n   path[0] = address(tokenA); // initialisation du path avec l'address du token  changer\n   path[1] = address(tokenB); // initialisation du path avec l'address du WETH d'Uniswap\n   //approveERC20Uni() before calling this function\n   //fetch uniswap Router function swapExactTokensForTokens() with same params\n   uniswapRouter.swapExactTokensForTokens(\n     amountIn,\n     amountOutMin,\n     path,\n     stacking,\n     deadline\n   ); // effectuer le swap, ETH sera transfrer directement au contrat stacking\n }\n\n /// @notice add ERC20 tokens in liquidity pools\n /// @dev outputs minimum amounts are required as parameter,\n /// it reverts if the swap give an output below amountTokenAMin or amountTokenBMin\n /// @param tokenA, tokenB, amountTokenADesired, amountTokenBDesired, amountTokenAMin, amountTokenBMin, deadline\n /// return amountA, amountB added in liquidity & liquidity tokens received by stacking contract\n function addLiquidity(\n   address tokenA,\n   address tokenB,\n   uint amountTokenADesired,\n   uint amountTokenBDesired,\n   uint amountTokenAMin,\n   uint amountTokenBMin,\n   uint deadline\n  ) external payable onlyOwner returns (uint amountTokenA, uint amountTokenB, uint liquidity) {\n    //fetch uniswap Router function addLiquidity() with same params\n   return uniswapRouter.addLiquidity(tokenA, tokenB, amountTokenADesired,amountTokenBDesired, amountTokenAMin, amountTokenBMin, stacking, deadline);\n }\n\n /// @notice remove ERC20 tokens from liquidity pools\n /// @dev liquidity tokens amount & outputs minimum amounts are required as parameter,\n /// it reverts if the swap give an output below amountAMin or amountBMin\n /// @param tokenA, tokenB, amountTokenADesired, amountTokenBDesired, amountTokenAMin, amountTokenBMin, deadline\n /// @return amountA amountB received by stacking contract\n  function removeLiquidity(\n  address tokenA,\n  address tokenB,\n  uint liquidity,\n  uint amountAMin,\n  uint amountBMin,\n  uint deadline\n  ) external onlyOwner returns (uint amountA, uint amountB) {\n    //fetch uniswap Router function addLiquidity() with same params\n  return uniswapRouter.removeLiquidity(tokenA,tokenB,liquidity,amountAMin,amountBMin,stacking,deadline);\n  }\n}\n",
  "sourcePath": "/Users/hamzamessaoudi/Desktop/Solipay-master/contracts/Stacking.sol",
  "compiler": {
    "name": "solc",
    "version": "0.6.11+commit.5ef660b1.Emscripten.clang"
  },
  "schemaVersion": "3.3.4",
  "updatedAt": "2021-04-28T13:19:42.179Z",
  "networkType": "ethereum",
  "devdoc": {
    "kind": "dev",
    "methods": {
      "addLiquidity(address,address,uint256,uint256,uint256,uint256,uint256)": {
        "details": "outputs minimum amounts are required as parameter, it reverts if the swap give an output below amountTokenAMin or amountTokenBMin",
        "params": {
          "tokenA": ", tokenB, amountTokenADesired, amountTokenBDesired, amountTokenAMin, amountTokenBMin, deadline return amountA, amountB added in liquidity & liquidity tokens received by stacking contract"
        }
      },
      "approveERC20Uni(address,uint256)": {
        "details": "function restricted to the owner of the contract",
        "params": {
          "token": ", amountIn"
        },
        "returns": {
          "_0": "amountIn the approved amount for uniswap Router"
        }
      },
      "approveProxy(address,uint256)": {
        "details": "use of a delegate call to pass the stacking address as argument for approve function",
        "params": {
          "amount": "the ERC20 token amount to approve for the stacking contract"
        }
      },
      "getBalance(address)": {
        "params": {
          "token": "address"
        },
        "returns": {
          "_0": "contract's balance"
        }
      },
      "getDecimals(address)": {
        "params": {
          "token": "address return decimals uint8"
        }
      },
      "getSymbol(address)": {
        "details": "@param token address return symbol string"
      },
      "owner()": {
        "details": "Returns the address of the current owner."
      },
      "removeLiquidity(address,address,uint256,uint256,uint256,uint256)": {
        "details": "liquidity tokens amount & outputs minimum amounts are required as parameter, it reverts if the swap give an output below amountAMin or amountBMin",
        "params": {
          "tokenA": ", tokenB, amountTokenADesired, amountTokenBDesired, amountTokenAMin, amountTokenBMin, deadline"
        },
        "returns": {
          "amountA": "amountB received by stacking contract"
        }
      },
      "renounceOwnership()": {
        "details": "Leaves the contract without owner. It will not be possible to call `onlyOwner` functions anymore. Can only be called by the current owner. NOTE: Renouncing ownership will leave the contract without an owner, thereby removing any functionality that is only available to the owner."
      },
      "setProxyAddress(address)": {
        "params": {
          "contractAddr": "the contract address referring to ProxySimple.sol"
        }
      },
      "setStackingAddress(address)": {
        "params": {
          "contractAddr": "the contract address referring to stacking.sol"
        }
      },
      "swapTokens(address,address,uint256,uint256,uint256)": {
        "details": "an output minimum amount is required as parameter, it reverts if the swap give an output below amountOutMin",
        "params": {
          "tokenA": ", tokenB, amountIn, amountOutMin, deadline"
        }
      },
      "transferERC20(address,address,uint256)": {
        "details": "@param token, proxySimple, amountIn"
      },
      "transferOwnership(address)": {
        "details": "Transfers ownership of the contract to a new account (`newOwner`). Can only be called by the current owner."
      }
    },
    "version": 1
  },
  "userdoc": {
    "kind": "user",
    "methods": {
      "addLiquidity(address,address,uint256,uint256,uint256,uint256,uint256)": {
        "notice": "add ERC20 tokens in liquidity pools"
      },
      "approveERC20Uni(address,uint256)": {
        "notice": "approve an ERC20 token amount to uniswap Router"
      },
      "approveProxy(address,uint256)": {
        "notice": "allow the user to send ERC20 to the stacking contract"
      },
      "getBalance(address)": {
        "notice": "fetch an ERC20 balance of the stacking contract"
      },
      "getDecimals(address)": {
        "notice": "fetch an ERC20 token decimals"
      },
      "getSymbol(address)": {
        "notice": "fetch an ERC20 token symbol"
      },
      "removeLiquidity(address,address,uint256,uint256,uint256,uint256)": {
        "notice": "remove ERC20 tokens from liquidity pools"
      },
      "setProxyAddress(address)": {
        "notice": "Define proxy contract address"
      },
      "setStackingAddress(address)": {
        "notice": "Define stacking contract address"
      },
      "swapTokens(address,address,uint256,uint256,uint256)": {
        "notice": "swap ERC20 tokens with an exact input to a desired ouput"
      },
      "transferERC20(address,address,uint256)": {
        "notice": "transfer an ERC20 token to the stacking contract"
      }
    },
    "version": 1
  }
}