{
  "contractName": "Stacking",
  "abi": [
    {
      "inputs": [
        {
          "internalType": "address",
          "name": "_uniswap",
          "type": "address"
        }
      ],
      "stateMutability": "nonpayable",
      "type": "constructor"
    },
    {
      "anonymous": false,
      "inputs": [
        {
          "indexed": true,
          "internalType": "address",
          "name": "previousOwner",
          "type": "address"
        },
        {
          "indexed": true,
          "internalType": "address",
          "name": "newOwner",
          "type": "address"
        }
      ],
      "name": "OwnershipTransferred",
      "type": "event"
    },
    {
      "inputs": [],
      "name": "owner",
      "outputs": [
        {
          "internalType": "address",
          "name": "",
          "type": "address"
        }
      ],
      "stateMutability": "view",
      "type": "function",
      "constant": true
    },
    {
      "inputs": [],
      "name": "renounceOwnership",
      "outputs": [],
      "stateMutability": "nonpayable",
      "type": "function"
    },
    {
      "inputs": [
        {
          "internalType": "address",
          "name": "newOwner",
          "type": "address"
        }
      ],
      "name": "transferOwnership",
      "outputs": [],
      "stateMutability": "nonpayable",
      "type": "function"
    },
    {
      "stateMutability": "payable",
      "type": "receive",
      "payable": true
    },
    {
      "inputs": [
        {
          "internalType": "address",
          "name": "token",
          "type": "address"
        }
      ],
      "name": "getBalance",
      "outputs": [
        {
          "internalType": "uint256",
          "name": "",
          "type": "uint256"
        }
      ],
      "stateMutability": "view",
      "type": "function",
      "constant": true
    },
    {
      "inputs": [
        {
          "internalType": "contract IERC20",
          "name": "token",
          "type": "address"
        },
        {
          "internalType": "address",
          "name": "owner",
          "type": "address"
        },
        {
          "internalType": "address",
          "name": "spender",
          "type": "address"
        }
      ],
      "name": "getAllowance",
      "outputs": [
        {
          "internalType": "uint256",
          "name": "",
          "type": "uint256"
        }
      ],
      "stateMutability": "view",
      "type": "function",
      "constant": true
    },
    {
      "inputs": [
        {
          "internalType": "address",
          "name": "token",
          "type": "address"
        },
        {
          "internalType": "uint256",
          "name": "amount",
          "type": "uint256"
        }
      ],
      "name": "getAmountDcm",
      "outputs": [
        {
          "internalType": "uint256",
          "name": "",
          "type": "uint256"
        }
      ],
      "stateMutability": "view",
      "type": "function",
      "constant": true
    },
    {
      "inputs": [
        {
          "internalType": "uint256",
          "name": "amountDesired",
          "type": "uint256"
        },
        {
          "internalType": "uint256",
          "name": "tolerance",
          "type": "uint256"
        }
      ],
      "name": "getAmountMin",
      "outputs": [
        {
          "internalType": "uint256",
          "name": "",
          "type": "uint256"
        }
      ],
      "stateMutability": "pure",
      "type": "function",
      "constant": true
    },
    {
      "inputs": [
        {
          "internalType": "contract IERC20",
          "name": "token",
          "type": "address"
        },
        {
          "internalType": "address",
          "name": "spender",
          "type": "address"
        },
        {
          "internalType": "uint256",
          "name": "value",
          "type": "uint256"
        }
      ],
      "name": "approveStack",
      "outputs": [
        {
          "internalType": "uint256",
          "name": "",
          "type": "uint256"
        }
      ],
      "stateMutability": "nonpayable",
      "type": "function"
    },
    {
      "inputs": [
        {
          "internalType": "contract IERC20",
          "name": "token",
          "type": "address"
        },
        {
          "internalType": "uint256",
          "name": "amountIn",
          "type": "uint256"
        }
      ],
      "name": "transferERC20",
      "outputs": [],
      "stateMutability": "nonpayable",
      "type": "function"
    },
    {
      "inputs": [
        {
          "internalType": "contract IERC20",
          "name": "token",
          "type": "address"
        },
        {
          "internalType": "uint256",
          "name": "amountIn",
          "type": "uint256"
        }
      ],
      "name": "approveERC20Uni",
      "outputs": [
        {
          "internalType": "uint256",
          "name": "",
          "type": "uint256"
        }
      ],
      "stateMutability": "nonpayable",
      "type": "function"
    },
    {
      "inputs": [
        {
          "internalType": "address",
          "name": "tokenA",
          "type": "address"
        },
        {
          "internalType": "address",
          "name": "tokenB",
          "type": "address"
        },
        {
          "internalType": "uint256",
          "name": "amountIn",
          "type": "uint256"
        },
        {
          "internalType": "uint256",
          "name": "amountOutMin",
          "type": "uint256"
        },
        {
          "internalType": "uint256",
          "name": "deadline",
          "type": "uint256"
        }
      ],
      "name": "swapTokens",
      "outputs": [],
      "stateMutability": "nonpayable",
      "type": "function"
    },
    {
      "inputs": [
        {
          "internalType": "address",
          "name": "tokenA",
          "type": "address"
        },
        {
          "internalType": "address",
          "name": "tokenB",
          "type": "address"
        },
        {
          "internalType": "uint256",
          "name": "amountTokenADesired",
          "type": "uint256"
        },
        {
          "internalType": "uint256",
          "name": "amountTokenBDesired",
          "type": "uint256"
        },
        {
          "internalType": "uint256",
          "name": "amountTokenAMin",
          "type": "uint256"
        },
        {
          "internalType": "uint256",
          "name": "amountTokenBMin",
          "type": "uint256"
        },
        {
          "internalType": "uint256",
          "name": "deadline",
          "type": "uint256"
        }
      ],
      "name": "addLiquidity",
      "outputs": [
        {
          "internalType": "uint256",
          "name": "amountTokenA",
          "type": "uint256"
        },
        {
          "internalType": "uint256",
          "name": "amountTokenB",
          "type": "uint256"
        },
        {
          "internalType": "uint256",
          "name": "liquidity",
          "type": "uint256"
        }
      ],
      "stateMutability": "payable",
      "type": "function",
      "payable": true
    },
    {
      "inputs": [
        {
          "internalType": "address",
          "name": "tokenA",
          "type": "address"
        },
        {
          "internalType": "address",
          "name": "tokenB",
          "type": "address"
        },
        {
          "internalType": "uint256",
          "name": "liquidity",
          "type": "uint256"
        },
        {
          "internalType": "uint256",
          "name": "amountAMin",
          "type": "uint256"
        },
        {
          "internalType": "uint256",
          "name": "amountBMin",
          "type": "uint256"
        },
        {
          "internalType": "address",
          "name": "to",
          "type": "address"
        },
        {
          "internalType": "uint256",
          "name": "deadline",
          "type": "uint256"
        }
      ],
      "name": "removeLiquidity",
      "outputs": [
        {
          "internalType": "uint256",
          "name": "amountA",
          "type": "uint256"
        },
        {
          "internalType": "uint256",
          "name": "amountB",
          "type": "uint256"
        }
      ],
      "stateMutability": "nonpayable",
      "type": "function"
    }
  ],
  "bytecode": "0x608060405234801561001057600080fd5b50604051611c88380380611c888339818101604052602081101561003357600080fd5b8101908080519060200190929190505050600061005461013960201b60201c565b9050806000806101000a81548173ffffffffffffffffffffffffffffffffffffffff021916908373ffffffffffffffffffffffffffffffffffffffff1602179055508073ffffffffffffffffffffffffffffffffffffffff16600073ffffffffffffffffffffffffffffffffffffffff167f8be0079c531659141344cd1fd0a4f28419497f9722a3daafe3b4186f6b6457e060405160405180910390a35080600160006101000a81548173ffffffffffffffffffffffffffffffffffffffff021916908373ffffffffffffffffffffffffffffffffffffffff16021790555050610141565b600033905090565b611b38806101506000396000f3fe6080604052600436106100c65760003560e01c80637ae06e581161007f578063e7092b4111610059578063e7092b411461050b578063f2fde38b146105b0578063f7448a3114610601578063f8b2cb4f1461065c576100cd565b80637ae06e581461033e5780638da5cb5b146103f6578063baa2abde14610437576100cd565b806309b26bb4146100d25780632ad7107d14610161578063351cfe48146101d057806343d91bf11461023f5780636f9cba45146102ce578063715018a614610327576100cd565b366100cd57005b600080fd5b3480156100de57600080fd5b5061014b600480360360608110156100f557600080fd5b81019080803573ffffffffffffffffffffffffffffffffffffffff169060200190929190803573ffffffffffffffffffffffffffffffffffffffff169060200190929190803590602001909291905050506106c1565b6040518082815260200191505060405180910390f35b34801561016d57600080fd5b506101ba6004803603604081101561018457600080fd5b81019080803573ffffffffffffffffffffffffffffffffffffffff1690602001909291908035906020019092919050505061097a565b6040518082815260200191505060405180910390f35b3480156101dc57600080fd5b50610229600480360360408110156101f357600080fd5b81019080803573ffffffffffffffffffffffffffffffffffffffff16906020019092919080359060200190929190505050610a12565b6040518082815260200191505060405180910390f35b34801561024b57600080fd5b506102cc600480360360a081101561026257600080fd5b81019080803573ffffffffffffffffffffffffffffffffffffffff169060200190929190803573ffffffffffffffffffffffffffffffffffffffff169060200190929190803590602001909291908035906020019092919080359060200190929190505050610b9b565b005b3480156102da57600080fd5b50610311600480360360408110156102f157600080fd5b810190808035906020019092919080359060200190929190505050610ef0565b6040518082815260200191505060405180910390f35b34801561033357600080fd5b5061033c610f3a565b005b6103d2600480360360e081101561035457600080fd5b81019080803573ffffffffffffffffffffffffffffffffffffffff169060200190929190803573ffffffffffffffffffffffffffffffffffffffff16906020019092919080359060200190929190803590602001909291908035906020019092919080359060200190929190803590602001909291905050506110a7565b60405180848152602001838152602001828152602001935050505060405180910390f35b34801561040257600080fd5b5061040b6112ac565b604051808273ffffffffffffffffffffffffffffffffffffffff16815260200191505060405180910390f35b34801561044357600080fd5b506104ee600480360360e081101561045a57600080fd5b81019080803573ffffffffffffffffffffffffffffffffffffffff169060200190929190803573ffffffffffffffffffffffffffffffffffffffff169060200190929190803590602001909291908035906020019092919080359060200190929190803573ffffffffffffffffffffffffffffffffffffffff169060200190929190803590602001909291905050506112d5565b604051808381526020018281526020019250505060405180910390f35b34801561051757600080fd5b5061059a6004803603606081101561052e57600080fd5b81019080803573ffffffffffffffffffffffffffffffffffffffff169060200190929190803573ffffffffffffffffffffffffffffffffffffffff169060200190929190803573ffffffffffffffffffffffffffffffffffffffff1690602001909291905050506114c2565b6040518082815260200191505060405180910390f35b3480156105bc57600080fd5b506105ff600480360360208110156105d357600080fd5b81019080803573ffffffffffffffffffffffffffffffffffffffff16906020019092919050505061158d565b005b34801561060d57600080fd5b5061065a6004803603604081101561062457600080fd5b81019080803573ffffffffffffffffffffffffffffffffffffffff1690602001909291908035906020019092919050505061177f565b005b34801561066857600080fd5b506106ab6004803603602081101561067f57600080fd5b81019080803573ffffffffffffffffffffffffffffffffffffffff1690602001909291905050506118fd565b6040518082815260200191505060405180910390f35b60006106cb6119a8565b73ffffffffffffffffffffffffffffffffffffffff166106e96112ac565b73ffffffffffffffffffffffffffffffffffffffff1614610772576040517f08c379a00000000000000000000000000000000000000000000000000000000081526004018080602001828103825260208152602001807f4f776e61626c653a2063616c6c6572206973206e6f7420746865206f776e657281525060200191505060405180910390fd5b600060608573ffffffffffffffffffffffffffffffffffffffff168585604051602401808373ffffffffffffffffffffffffffffffffffffffff168152602001828152602001925050506040516020818303038152906040527f095ea7b3000000000000000000000000000000000000000000000000000000007bffffffffffffffffffffffffffffffffffffffffffffffffffffffff19166020820180517bffffffffffffffffffffffffffffffffffffffffffffffffffffffff83818316178352505050506040518082805190602001908083835b6020831061086c5780518252602082019150602081019050602083039250610849565b6001836020036101000a038019825116818451168082178552505050505050905001915050600060405180830381855af49150503d80600081146108cc576040519150601f19603f3d011682016040523d82523d6000602084013e6108d1565b606091505b509150915081610949576040517f08c379a000000000000000000000000000000000000000000000000000000000815260040180806020018281038252600c8152602001807f6e6f7420617070726f766564000000000000000000000000000000000000000081525060200191505060405180910390fd5b80806020019051602081101561095e57600080fd5b8101908080519060200190929190505050925050509392505050565b6000808373ffffffffffffffffffffffffffffffffffffffff1663313ce5676040518163ffffffff1660e01b815260040160206040518083038186803b1580156109c357600080fd5b505afa1580156109d7573d6000803e3d6000fd5b505050506040513d60208110156109ed57600080fd5b810190808051906020019092919050505060ff16905080600a0a830291505092915050565b6000610a1c6119a8565b73ffffffffffffffffffffffffffffffffffffffff16610a3a6112ac565b73ffffffffffffffffffffffffffffffffffffffff1614610ac3576040517f08c379a00000000000000000000000000000000000000000000000000000000081526004018080602001828103825260208152602001807f4f776e61626c653a2063616c6c6572206973206e6f7420746865206f776e657281525060200191505060405180910390fd5b8273ffffffffffffffffffffffffffffffffffffffff1663095ea7b3600160009054906101000a900473ffffffffffffffffffffffffffffffffffffffff16846040518363ffffffff1660e01b8152600401808373ffffffffffffffffffffffffffffffffffffffff16815260200182815260200192505050602060405180830381600087803b158015610b5657600080fd5b505af1158015610b6a573d6000803e3d6000fd5b505050506040513d6020811015610b8057600080fd5b81019080805190602001909291905050505081905092915050565b610ba36119a8565b73ffffffffffffffffffffffffffffffffffffffff16610bc16112ac565b73ffffffffffffffffffffffffffffffffffffffff1614610c4a576040517f08c379a00000000000000000000000000000000000000000000000000000000081526004018080602001828103825260208152602001807f4f776e61626c653a2063616c6c6572206973206e6f7420746865206f776e657281525060200191505060405180910390fd5b6060600267ffffffffffffffff81118015610c6457600080fd5b50604051908082528060200260200182016040528015610c935781602001602082028036833780820191505090505b5090508581600081518110610ca457fe5b602002602001019073ffffffffffffffffffffffffffffffffffffffff16908173ffffffffffffffffffffffffffffffffffffffff16815250508481600181518110610cec57fe5b602002602001019073ffffffffffffffffffffffffffffffffffffffff16908173ffffffffffffffffffffffffffffffffffffffff1681525050600160009054906101000a900473ffffffffffffffffffffffffffffffffffffffff1673ffffffffffffffffffffffffffffffffffffffff166338ed173985858433876040518663ffffffff1660e01b815260040180868152602001858152602001806020018473ffffffffffffffffffffffffffffffffffffffff168152602001838152602001828103825285818151815260200191508051906020019060200280838360005b83811015610de9578082015181840152602081019050610dce565b505050509050019650505050505050600060405180830381600087803b158015610e1257600080fd5b505af1158015610e26573d6000803e3d6000fd5b505050506040513d6000823e3d601f19601f820116820180604052506020811015610e5057600080fd5b8101908080516040519392919084640100000000821115610e7057600080fd5b83820191506020820185811115610e8657600080fd5b8251866020820283011164010000000082111715610ea357600080fd5b8083526020830192505050908051906020019060200280838360005b83811015610eda578082015181840152602081019050610ebf565b5050505090500160405250505050505050505050565b600080610f196064610f0b85876119b090919063ffffffff16565b611a4590919063ffffffff16565b90506000610f308286611a5990919063ffffffff16565b9050505092915050565b610f426119a8565b73ffffffffffffffffffffffffffffffffffffffff16610f606112ac565b73ffffffffffffffffffffffffffffffffffffffff1614610fe9576040517f08c379a00000000000000000000000000000000000000000000000000000000081526004018080602001828103825260208152602001807f4f776e61626c653a2063616c6c6572206973206e6f7420746865206f776e657281525060200191505060405180910390fd5b600073ffffffffffffffffffffffffffffffffffffffff1660008054906101000a900473ffffffffffffffffffffffffffffffffffffffff1673ffffffffffffffffffffffffffffffffffffffff167f8be0079c531659141344cd1fd0a4f28419497f9722a3daafe3b4186f6b6457e060405160405180910390a360008060006101000a81548173ffffffffffffffffffffffffffffffffffffffff021916908373ffffffffffffffffffffffffffffffffffffffff160217905550565b60008060006110b46119a8565b73ffffffffffffffffffffffffffffffffffffffff166110d26112ac565b73ffffffffffffffffffffffffffffffffffffffff161461115b576040517f08c379a00000000000000000000000000000000000000000000000000000000081526004018080602001828103825260208152602001807f4f776e61626c653a2063616c6c6572206973206e6f7420746865206f776e657281525060200191505060405180910390fd5b600160009054906101000a900473ffffffffffffffffffffffffffffffffffffffff1673ffffffffffffffffffffffffffffffffffffffff1663e8e337008b8b8b8b8b8b338c6040518963ffffffff1660e01b8152600401808973ffffffffffffffffffffffffffffffffffffffff1681526020018873ffffffffffffffffffffffffffffffffffffffff1681526020018781526020018681526020018581526020018481526020018373ffffffffffffffffffffffffffffffffffffffff16815260200182815260200198505050505050505050606060405180830381600087803b15801561124a57600080fd5b505af115801561125e573d6000803e3d6000fd5b505050506040513d606081101561127457600080fd5b810190808051906020019092919080519060200190929190805190602001909291905050509250925092509750975097945050505050565b60008060009054906101000a900473ffffffffffffffffffffffffffffffffffffffff16905090565b6000806112e06119a8565b73ffffffffffffffffffffffffffffffffffffffff166112fe6112ac565b73ffffffffffffffffffffffffffffffffffffffff1614611387576040517f08c379a00000000000000000000000000000000000000000000000000000000081526004018080602001828103825260208152602001807f4f776e61626c653a2063616c6c6572206973206e6f7420746865206f776e657281525060200191505060405180910390fd5b600160009054906101000a900473ffffffffffffffffffffffffffffffffffffffff1673ffffffffffffffffffffffffffffffffffffffff1663baa2abde8a8a8a8a8a8a8a6040518863ffffffff1660e01b8152600401808873ffffffffffffffffffffffffffffffffffffffff1681526020018773ffffffffffffffffffffffffffffffffffffffff1681526020018681526020018581526020018481526020018373ffffffffffffffffffffffffffffffffffffffff1681526020018281526020019750505050505050506040805180830381600087803b15801561146d57600080fd5b505af1158015611481573d6000803e3d6000fd5b505050506040513d604081101561149757600080fd5b8101908080519060200190929190805190602001909291905050509150915097509795505050505050565b60008373ffffffffffffffffffffffffffffffffffffffff1663dd62ed3e84846040518363ffffffff1660e01b8152600401808373ffffffffffffffffffffffffffffffffffffffff1681526020018273ffffffffffffffffffffffffffffffffffffffff1681526020019250505060206040518083038186803b15801561154957600080fd5b505afa15801561155d573d6000803e3d6000fd5b505050506040513d602081101561157357600080fd5b810190808051906020019092919050505090509392505050565b6115956119a8565b73ffffffffffffffffffffffffffffffffffffffff166115b36112ac565b73ffffffffffffffffffffffffffffffffffffffff161461163c576040517f08c379a00000000000000000000000000000000000000000000000000000000081526004018080602001828103825260208152602001807f4f776e61626c653a2063616c6c6572206973206e6f7420746865206f776e657281525060200191505060405180910390fd5b600073ffffffffffffffffffffffffffffffffffffffff168173ffffffffffffffffffffffffffffffffffffffff1614156116c2576040517f08c379a0000000000000000000000000000000000000000000000000000000008152600401808060200182810382526026815260200180611add6026913960400191505060405180910390fd5b8073ffffffffffffffffffffffffffffffffffffffff1660008054906101000a900473ffffffffffffffffffffffffffffffffffffffff1673ffffffffffffffffffffffffffffffffffffffff167f8be0079c531659141344cd1fd0a4f28419497f9722a3daafe3b4186f6b6457e060405160405180910390a3806000806101000a81548173ffffffffffffffffffffffffffffffffffffffff021916908373ffffffffffffffffffffffffffffffffffffffff16021790555050565b6117876119a8565b73ffffffffffffffffffffffffffffffffffffffff166117a56112ac565b73ffffffffffffffffffffffffffffffffffffffff161461182e576040517f08c379a00000000000000000000000000000000000000000000000000000000081526004018080602001828103825260208152602001807f4f776e61626c653a2063616c6c6572206973206e6f7420746865206f776e657281525060200191505060405180910390fd5b8173ffffffffffffffffffffffffffffffffffffffff166323b872dd3330846040518463ffffffff1660e01b8152600401808473ffffffffffffffffffffffffffffffffffffffff1681526020018373ffffffffffffffffffffffffffffffffffffffff1681526020018281526020019350505050602060405180830381600087803b1580156118bd57600080fd5b505af11580156118d1573d6000803e3d6000fd5b505050506040513d60208110156118e757600080fd5b8101908080519060200190929190505050505050565b60008173ffffffffffffffffffffffffffffffffffffffff166370a08231306040518263ffffffff1660e01b8152600401808273ffffffffffffffffffffffffffffffffffffffff16815260200191505060206040518083038186803b15801561196657600080fd5b505afa15801561197a573d6000803e3d6000fd5b505050506040513d602081101561199057600080fd5b81019080805190602001909291905050509050919050565b600033905090565b6000808214806119cd57508282838502925082816119ca57fe5b04145b611a3f576040517f08c379a00000000000000000000000000000000000000000000000000000000081526004018080602001828103825260148152602001807f64732d6d6174682d6d756c2d6f766572666c6f7700000000000000000000000081525060200191505060405180910390fd5b92915050565b6000818381611a5057fe5b04905092915050565b6000828284039150811115611ad6576040517f08c379a00000000000000000000000000000000000000000000000000000000081526004018080602001828103825260158152602001807f64732d6d6174682d7375622d756e646572666c6f77000000000000000000000081525060200191505060405180910390fd5b9291505056fe4f776e61626c653a206e6577206f776e657220697320746865207a65726f2061646472657373a26469706673582212200a1aa90c8f7df2e8fdd8cb8cbdbdcf9e85ae688668f7595ae856c899c677147a64736f6c63430007040033",
  "immutableReferences": {},
  "source": "pragma solidity 0.7.4;\n\n\nimport \"@uniswap/v2-periphery/contracts/interfaces/IUniswapV2Router02.sol\";\nimport \"@uniswap/v2-periphery/contracts/interfaces/IERC20.sol\";\nimport \"@uniswap/v2-periphery/contracts/interfaces/IWETH.sol\";\nimport \"@openzeppelin/contracts/access/Ownable.sol\";\nimport \"@uniswap/v2-core/contracts/libraries/SafeMath.sol\";\n\n\ncontract Stacking is Ownable{\n  using SafeMath for uint;\n  \n IUniswapV2Router02 uniswapRouter;\n\n\n\n constructor(address _uniswap) public {\n   uniswapRouter = IUniswapV2Router02(_uniswap);\n }\n\nreceive() external payable { }\n\n function getBalance(address token) external view returns (uint) {\n   return IERC20(token).balanceOf(address(this));\n }\n\n function getAllowance(IERC20 token,address owner, address spender) external view returns(uint) {\n   return token.allowance(owner, spender);\n\n }\n\n function getAmountDcm(address token, uint amount) external view returns(uint) {\n   uint decimals = IERC20(token).decimals();\n   return amount*10**(decimals);\n }\n\n function getAmountMin(uint amountDesired, uint tolerance) external pure returns (uint) {\n   uint tolerated = amountDesired.mul(tolerance).div(100);\n   uint amountMin = amountDesired.sub(tolerated);\n }\n function approveStack(IERC20 token, address spender, uint value) external onlyOwner returns(uint)  {\n   //IERC20(token).approve(spender, value);\n   (bool success, bytes memory data) = address(token).delegatecall(abi.encodeWithSignature(\"approve(address,uint256)\",spender,value));\n   require(success, \"not approved\");\n   return abi.decode(data, (uint));\n }\n function transferERC20(IERC20 token, uint amountIn) onlyOwner external {\n   IERC20(token).transferFrom(msg.sender,address(this),amountIn);\n }\n\n function approveERC20Uni(IERC20 token, uint amountIn) onlyOwner external returns(uint){\n   IERC20(token).approve(address(uniswapRouter), amountIn);\n   return amountIn;\n }\n  // La fonction qui va permettre le swap\n function swapTokens(\n   address tokenA,\n   address tokenB,\n   uint amountIn,\n   uint amountOutMin,\n   uint deadline\n   ) external onlyOwner {\n   //transferFromER20\n   address[] memory path = new address[](2); // Cration du path\n   path[0] = address(tokenA); // initialisation du path avec l'address du token  changer\n   path[1] = address(tokenB); // initialisation du path avec l'address du WETH d'Uniswap\n   //approveERC20Uni\n   uniswapRouter.swapExactTokensForTokens(\n     amountIn,\n     amountOutMin,\n     path,\n     msg.sender,\n     deadline\n   ); // effectuer le swap, ETH sera transfrer directement au msg.sender\n }\n\n function addLiquidity(\n   address tokenA,\n   address tokenB,\n   uint amountTokenADesired,\n   uint amountTokenBDesired,\n   uint amountTokenAMin,\n   uint amountTokenBMin,\n   uint deadline\n  ) external payable onlyOwner returns (uint amountTokenA, uint amountTokenB, uint liquidity) {\n   return uniswapRouter.addLiquidity(tokenA, tokenB, amountTokenADesired,amountTokenBDesired, amountTokenAMin, amountTokenBMin, msg.sender, deadline);\n }\n\n  function removeLiquidity(\n  address tokenA,\n  address tokenB,\n  uint liquidity,\n  uint amountAMin,\n  uint amountBMin,\n  address to,\n  uint deadline\n  ) external onlyOwner returns (uint amountA, uint amountB) {\n  return uniswapRouter.removeLiquidity(tokenA,tokenB,liquidity,amountAMin,amountBMin,to,deadline);\n  }\n}\n",
  "sourcePath": "/Users/arnauddauber/Desktop/DEXsoFi/DEXSO/contracts/Stacking.sol",
  "compiler": {
    "name": "solc",
    "version": "0.7.4+commit.3f05b770.Emscripten.clang"
  },
  "schemaVersion": "3.3.4",
  "updatedAt": "2021-04-15T13:49:33.446Z",
  "networkType": "ethereum",
  "devdoc": {
    "kind": "dev",
    "methods": {
      "owner()": {
        "details": "Returns the address of the current owner."
      },
      "renounceOwnership()": {
        "details": "Leaves the contract without owner. It will not be possible to call `onlyOwner` functions anymore. Can only be called by the current owner. NOTE: Renouncing ownership will leave the contract without an owner, thereby removing any functionality that is only available to the owner."
      },
      "transferOwnership(address)": {
        "details": "Transfers ownership of the contract to a new account (`newOwner`). Can only be called by the current owner."
      }
    },
    "version": 1
  },
  "userdoc": {
    "kind": "user",
    "methods": {},
    "version": 1
  }
}