{
  "contractName": "Loan",
  "abi": [
    {
      "anonymous": false,
      "inputs": [
        {
          "indexed": false,
          "internalType": "address",
          "name": "entitiesAddress",
          "type": "address"
        }
      ],
      "name": "EntityRegistered",
      "type": "event"
    },
    {
      "anonymous": false,
      "inputs": [
        {
          "indexed": false,
          "internalType": "uint256",
          "name": "loanRequestId",
          "type": "uint256"
        }
      ],
      "name": "LoanRequestRegistered",
      "type": "event"
    },
    {
      "anonymous": false,
      "inputs": [],
      "name": "LoanRequestRegistrationEnded",
      "type": "event"
    },
    {
      "anonymous": false,
      "inputs": [],
      "name": "LoanRequestRegistrationStarted",
      "type": "event"
    },
    {
      "anonymous": false,
      "inputs": [
        {
          "indexed": true,
          "internalType": "address",
          "name": "previousOwner",
          "type": "address"
        },
        {
          "indexed": true,
          "internalType": "address",
          "name": "newOwner",
          "type": "address"
        }
      ],
      "name": "OwnershipTransferred",
      "type": "event"
    },
    {
      "anonymous": false,
      "inputs": [
        {
          "indexed": false,
          "internalType": "address",
          "name": "entity",
          "type": "address"
        },
        {
          "indexed": false,
          "internalType": "uint256",
          "name": "loanRequestId",
          "type": "uint256"
        }
      ],
      "name": "Voted",
      "type": "event"
    },
    {
      "anonymous": false,
      "inputs": [],
      "name": "VotesTallied",
      "type": "event"
    },
    {
      "anonymous": false,
      "inputs": [],
      "name": "VotingSessionEnded",
      "type": "event"
    },
    {
      "anonymous": false,
      "inputs": [],
      "name": "VotingSessionStarted",
      "type": "event"
    },
    {
      "anonymous": false,
      "inputs": [
        {
          "indexed": false,
          "internalType": "enum Loan.WorkflowStatus",
          "name": "previousStatus",
          "type": "uint8"
        },
        {
          "indexed": false,
          "internalType": "enum Loan.WorkflowStatus",
          "name": "newStatus",
          "type": "uint8"
        }
      ],
      "name": "WorkflowStatusChange",
      "type": "event"
    },
    {
      "anonymous": false,
      "inputs": [
        {
          "indexed": false,
          "internalType": "address",
          "name": "client",
          "type": "address"
        },
        {
          "indexed": false,
          "internalType": "uint256",
          "name": "amount",
          "type": "uint256"
        }
      ],
      "name": "authorizedWithdrawal",
      "type": "event"
    },
    {
      "anonymous": false,
      "inputs": [
        {
          "indexed": false,
          "internalType": "address",
          "name": "client",
          "type": "address"
        },
        {
          "indexed": false,
          "internalType": "uint256",
          "name": "amount",
          "type": "uint256"
        }
      ],
      "name": "valideDepot",
      "type": "event"
    },
    {
      "inputs": [
        {
          "internalType": "address",
          "name": "",
          "type": "address"
        }
      ],
      "name": "User",
      "outputs": [
        {
          "internalType": "bool",
          "name": "lister",
          "type": "bool"
        },
        {
          "internalType": "uint256",
          "name": "totalDeposit",
          "type": "uint256"
        },
        {
          "internalType": "uint256",
          "name": "withdrawalPending",
          "type": "uint256"
        }
      ],
      "stateMutability": "view",
      "type": "function"
    },
    {
      "inputs": [
        {
          "internalType": "contract IERC20",
          "name": "_address",
          "type": "address"
        }
      ],
      "name": "Withdraw",
      "outputs": [],
      "stateMutability": "payable",
      "type": "function"
    },
    {
      "inputs": [
        {
          "internalType": "uint256",
          "name": "",
          "type": "uint256"
        }
      ],
      "name": "backToUser",
      "outputs": [
        {
          "internalType": "address",
          "name": "",
          "type": "address"
        }
      ],
      "stateMutability": "view",
      "type": "function"
    },
    {
      "inputs": [
        {
          "internalType": "uint256",
          "name": "",
          "type": "uint256"
        }
      ],
      "name": "borrowers",
      "outputs": [
        {
          "internalType": "address",
          "name": "",
          "type": "address"
        }
      ],
      "stateMutability": "view",
      "type": "function"
    },
    {
      "inputs": [
        {
          "internalType": "uint256",
          "name": "",
          "type": "uint256"
        }
      ],
      "name": "clients",
      "outputs": [
        {
          "internalType": "bool",
          "name": "lister",
          "type": "bool"
        },
        {
          "internalType": "uint256",
          "name": "totalDeposit",
          "type": "uint256"
        },
        {
          "internalType": "uint256",
          "name": "withdrawalPending",
          "type": "uint256"
        }
      ],
      "stateMutability": "view",
      "type": "function"
    },
    {
      "inputs": [
        {
          "internalType": "address",
          "name": "",
          "type": "address"
        }
      ],
      "name": "debts",
      "outputs": [
        {
          "internalType": "uint256",
          "name": "",
          "type": "uint256"
        }
      ],
      "stateMutability": "view",
      "type": "function"
    },
    {
      "inputs": [
        {
          "internalType": "uint256",
          "name": "amount",
          "type": "uint256"
        }
      ],
      "name": "deposite",
      "outputs": [],
      "stateMutability": "payable",
      "type": "function"
    },
    {
      "inputs": [],
      "name": "getClients",
      "outputs": [
        {
          "components": [
            {
              "internalType": "bool",
              "name": "lister",
              "type": "bool"
            },
            {
              "internalType": "uint256[]",
              "name": "amounts",
              "type": "uint256[]"
            },
            {
              "internalType": "uint256[]",
              "name": "depositData",
              "type": "uint256[]"
            },
            {
              "internalType": "uint256",
              "name": "totalDeposit",
              "type": "uint256"
            },
            {
              "internalType": "uint256",
              "name": "withdrawalPending",
              "type": "uint256"
            }
          ],
          "internalType": "struct ProxySimple.Client[]",
          "name": "",
          "type": "tuple[]"
        }
      ],
      "stateMutability": "view",
      "type": "function"
    },
    {
      "inputs": [
        {
          "internalType": "uint256",
          "name": "",
          "type": "uint256"
        }
      ],
      "name": "loans",
      "outputs": [
        {
          "internalType": "string",
          "name": "description",
          "type": "string"
        },
        {
          "internalType": "uint256",
          "name": "voteCount",
          "type": "uint256"
        },
        {
          "internalType": "uint256",
          "name": "amountRequest",
          "type": "uint256"
        },
        {
          "internalType": "bool",
          "name": "state",
          "type": "bool"
        }
      ],
      "stateMutability": "view",
      "type": "function"
    },
    {
      "inputs": [],
      "name": "owner",
      "outputs": [
        {
          "internalType": "address",
          "name": "",
          "type": "address"
        }
      ],
      "stateMutability": "view",
      "type": "function"
    },
    {
      "inputs": [],
      "name": "renounceOwnership",
      "outputs": [],
      "stateMutability": "nonpayable",
      "type": "function"
    },
    {
      "inputs": [],
      "name": "status",
      "outputs": [
        {
          "internalType": "enum Loan.WorkflowStatus",
          "name": "",
          "type": "uint8"
        }
      ],
      "stateMutability": "view",
      "type": "function"
    },
    {
      "inputs": [
        {
          "internalType": "address",
          "name": "newOwner",
          "type": "address"
        }
      ],
      "name": "transferOwnership",
      "outputs": [],
      "stateMutability": "nonpayable",
      "type": "function"
    },
    {
      "inputs": [
        {
          "internalType": "address",
          "name": "",
          "type": "address"
        }
      ],
      "name": "voters",
      "outputs": [
        {
          "internalType": "bool",
          "name": "isRegistered",
          "type": "bool"
        },
        {
          "internalType": "bool",
          "name": "hasVoted",
          "type": "bool"
        },
        {
          "internalType": "uint256",
          "name": "votingPower",
          "type": "uint256"
        },
        {
          "internalType": "uint256",
          "name": "loanRequestID",
          "type": "uint256"
        }
      ],
      "stateMutability": "view",
      "type": "function"
    },
    {
      "inputs": [
        {
          "internalType": "uint256",
          "name": "",
          "type": "uint256"
        }
      ],
      "name": "votes",
      "outputs": [
        {
          "internalType": "bool",
          "name": "isRegistered",
          "type": "bool"
        },
        {
          "internalType": "bool",
          "name": "hasVoted",
          "type": "bool"
        },
        {
          "internalType": "uint256",
          "name": "votingPower",
          "type": "uint256"
        },
        {
          "internalType": "uint256",
          "name": "loanRequestID",
          "type": "uint256"
        }
      ],
      "stateMutability": "view",
      "type": "function"
    },
    {
      "inputs": [
        {
          "internalType": "uint256",
          "name": "withdrawalAmount",
          "type": "uint256"
        }
      ],
      "name": "withdrawPending",
      "outputs": [],
      "stateMutability": "payable",
      "type": "function"
    },
    {
      "inputs": [
        {
          "internalType": "string",
          "name": "_description",
          "type": "string"
        },
        {
          "internalType": "uint256",
          "name": "_amount",
          "type": "uint256"
        }
      ],
      "name": "registerLoanRequest",
      "outputs": [],
      "stateMutability": "nonpayable",
      "type": "function"
    },
    {
      "inputs": [
        {
          "internalType": "address",
          "name": "_addr",
          "type": "address"
        }
      ],
      "name": "setEntity",
      "outputs": [],
      "stateMutability": "nonpayable",
      "type": "function"
    },
    {
      "inputs": [
        {
          "internalType": "uint256",
          "name": "_loanRequestId",
          "type": "uint256"
        }
      ],
      "name": "vote",
      "outputs": [],
      "stateMutability": "nonpayable",
      "type": "function"
    },
    {
      "inputs": [
        {
          "internalType": "uint256",
          "name": "_loanRequestId",
          "type": "uint256"
        }
      ],
      "name": "okLoans",
      "outputs": [],
      "stateMutability": "nonpayable",
      "type": "function"
    },
    {
      "inputs": [],
      "name": "changeToNextStatus",
      "outputs": [],
      "stateMutability": "nonpayable",
      "type": "function"
    }
  ],
  "bytecode": "0x608060405260056003556283d6006004553480156200001d57600080fd5b50600062000030620000d460201b60201c565b9050806000806101000a81548173ffffffffffffffffffffffffffffffffffffffff021916908373ffffffffffffffffffffffffffffffffffffffff1602179055508073ffffffffffffffffffffffffffffffffffffffff16600073ffffffffffffffffffffffffffffffffffffffff167f8be0079c531659141344cd1fd0a4f28419497f9722a3daafe3b4186f6b6457e060405160405180910390a350620000dc565b600033905090565b6134b480620000ec6000396000f3fe60806040526004361061012a5760003560e01c80637924d93f116100ab578063bf69bb861161006f578063bf69bb86146103de578063c5bc26bf14610407578063e1ec3c6814610430578063f2fde38b14610470578063f676115114610499578063f88af21d146104b55761012a565b80637924d93f146102d057806388e7fb3f1461030d5780638d403b291461034a5780638da5cb5b14610373578063a3ec138d1461039e5761012a565b80633104562b116100f25780633104562b1461021b5780633fcba4eb146102375780635df813301461024e5780636db809951461028e578063715018a6146102b95761012a565b80630121b93f1461012f578063200d2ed214610158578063230eb9c6146101835780632e585fd8146101c25780632ecd4e7d146101de575b600080fd5b34801561013b57600080fd5b50610156600480360381019061015191906129bf565b6104f4565b005b34801561016457600080fd5b5061016d6107ee565b60405161017a9190612feb565b60405180910390f35b34801561018f57600080fd5b506101aa60048036038101906101a59190612886565b610801565b6040516101b993929190612fb4565b60405180910390f35b6101dc60048036038101906101d791906129bf565b610838565b005b3480156101ea57600080fd5b5061020560048036038101906102009190612886565b610c1e565b60405161021291906131bb565b60405180910390f35b610235600480360381019061023091906129bf565b610c36565b005b34801561024357600080fd5b5061024c61107f565b005b34801561025a57600080fd5b50610275600480360381019061027091906129bf565b6112de565b6040516102859493929190612f6f565b60405180910390f35b34801561029a57600080fd5b506102a3611335565b6040516102b09190612f4d565b60405180910390f35b3480156102c557600080fd5b506102ce611473565b005b3480156102dc57600080fd5b506102f760048036038101906102f291906129bf565b6115ae565b6040516103049190612ed2565b60405180910390f35b34801561031957600080fd5b50610334600480360381019061032f91906129bf565b6115e1565b6040516103419190612ed2565b60405180910390f35b34801561035657600080fd5b50610371600480360381019061036c919061296b565b611614565b005b34801561037f57600080fd5b5061038861182e565b6040516103959190612ed2565b60405180910390f35b3480156103aa57600080fd5b506103c560048036038101906103c09190612886565b611857565b6040516103d59493929190612f6f565b60405180910390f35b3480156103ea57600080fd5b5061040560048036038101906104009190612886565b6118a1565b005b34801561041357600080fd5b5061042e600480360381019061042991906129bf565b611bcc565b005b34801561043c57600080fd5b50610457600480360381019061045291906129bf565b611d7a565b604051610467949392919061302f565b60405180910390f35b34801561047c57600080fd5b5061049760048036038101906104929190612886565b611e5c565b005b6104b360048036038101906104ae9190612942565b612006565b005b3480156104c157600080fd5b506104dc60048036038101906104d791906129bf565b6121d4565b6040516104eb93929190612fb4565b60405180910390f35b6003600581111561050157fe5b600a60019054906101000a900460ff16600581111561051c57fe5b1461055c576040517f08c379a00000000000000000000000000000000000000000000000000000000081526004016105539061315b565b60405180910390fd5b600b60003373ffffffffffffffffffffffffffffffffffffffff1673ffffffffffffffffffffffffffffffffffffffff16815260200190815260200160002060000160009054906101000a900460ff166105eb576040517f08c379a00000000000000000000000000000000000000000000000000000000081526004016105e29061307b565b60405180910390fd5b600b60003373ffffffffffffffffffffffffffffffffffffffff1673ffffffffffffffffffffffffffffffffffffffff16815260200190815260200160002060000160019054906101000a900460ff161561067b576040517f08c379a0000000000000000000000000000000000000000000000000000000008152600401610672906130fb565b60405180910390fd5b6001600b60003373ffffffffffffffffffffffffffffffffffffffff1673ffffffffffffffffffffffffffffffffffffffff16815260200190815260200160002060000160016101000a81548160ff02191690831515021790555080600b60003373ffffffffffffffffffffffffffffffffffffffff1673ffffffffffffffffffffffffffffffffffffffff168152602001908152602001600020600201819055507f4d99b957a2bc29a30ebd96a7be8e68fe50a3c701db28a91436490b7d53870ca4338260405161074e929190612f24565b60405180910390a16107c9600b60003373ffffffffffffffffffffffffffffffffffffffff1673ffffffffffffffffffffffffffffffffffffffff16815260200190815260200160002060010154600f83815481106107a957fe5b90600052602060002090600402016001015461221890919063ffffffff16565b600f82815481106107d657fe5b90600052602060002090600402016001018190555050565b600a60019054906101000a900460ff1681565b60016020528060005260406000206000915090508060000160009054906101000a900460ff16908060030154908060040154905083565b6000806000600160003373ffffffffffffffffffffffffffffffffffffffff1673ffffffffffffffffffffffffffffffffffffffff16815260200190815260200160002060020180549050905060005b818114156109cb576108fc600454600160003373ffffffffffffffffffffffffffffffffffffffff1673ffffffffffffffffffffffffffffffffffffffff16815260200190815260200160002060020183815481106108e357fe5b906000526020600020015461221890919063ffffffff16565b93504284101561090e578092506109be565b4261097c600454600160003373ffffffffffffffffffffffffffffffffffffffff1673ffffffffffffffffffffffffffffffffffffffff16815260200190815260200160002060020160008154811061096357fe5b906000526020600020015461221890919063ffffffff16565b11156109bd576040517f08c379a00000000000000000000000000000000000000000000000000000000081526004016109b49061319b565b60405180910390fd5b5b8080600101915050610888565b506000805b83811415610b9a576000600160003373ffffffffffffffffffffffffffffffffffffffff1673ffffffffffffffffffffffffffffffffffffffff1681526020019081526020016000206002018281548110610a2757fe5b9060005260206000200154420390506000610b056064610af76064610ae9600160003373ffffffffffffffffffffffffffffffffffffffff1673ffffffffffffffffffffffffffffffffffffffff1681526020019081526020016000206001018881548110610a9257fe5b9060005260206000200154610adb600354610acd6312cc0300610abf60648d61226d90919063ffffffff16565b6122dd90919063ffffffff16565b61226d90919063ffffffff16565b61226d90919063ffffffff16565b61226d90919063ffffffff16565b6122dd90919063ffffffff16565b90506000610b7382600160003373ffffffffffffffffffffffffffffffffffffffff1673ffffffffffffffffffffffffffffffffffffffff1681526020019081526020016000206001018681548110610b5a57fe5b906000526020600020015461221890919063ffffffff16565b9050610b88818661221890919063ffffffff16565b945050505080806001019150506109d0565b5080851115610ba857600080fd5b610bbd8560055461221890919063ffffffff16565b6005819055507f289473d20f7dbb55ce607f3e02b0de290bceb88a7728f441f04f7179c12da5163386604051610bf4929190612f24565b60405180910390a1610c118560065461233390919063ffffffff16565b6006819055505050505050565b600c6020528060005260406000206000915090505481565b60011515600160003373ffffffffffffffffffffffffffffffffffffffff1673ffffffffffffffffffffffffffffffffffffffff16815260200190815260200160002060000160009054906101000a900460ff1615151415610d8a57600160003373ffffffffffffffffffffffffffffffffffffffff1673ffffffffffffffffffffffffffffffffffffffff1681526020019081526020016000206001018190806001815401808255809150506001900390600052602060002001600090919091909150556000429050600160003373ffffffffffffffffffffffffffffffffffffffff1673ffffffffffffffffffffffffffffffffffffffff168152602001908152602001600020600201819080600181540180825580915050600190039060005260206000200160009091909190915055610d7e8260065461221890919063ffffffff16565b6006819055505061107c565b6000429050610d97612466565b6060808481600081518110610da857fe5b6020026020010181815250508382600081518110610dc257fe5b6020026020010181815250506040518060a001604052806001151581526020018281526020018381526020016000815260200160008152509250600783908060018154018082558091505060019003906000526020600020906005020160009091909190915060008201518160000160006101000a81548160ff0219169083151502179055506020820151816001019080519060200190610e64929190612497565b506040820151816002019080519060200190610e81929190612497565b50606082015181600301556080820151816004015550506000610eb3600160078054905061233390919063ffffffff16565b905060078181548110610ec257fe5b9060005260206000209060050201600160003373ffffffffffffffffffffffffffffffffffffffff1673ffffffffffffffffffffffffffffffffffffffff1681526020019081526020016000206000820160009054906101000a900460ff168160000160006101000a81548160ff0219169083151502179055506001820181600101908054610f529291906124e4565b506002820181600201908054610f699291906124e4565b506003820154816003015560048201548160040155905050336002600083815260200190815260200160002060006101000a81548173ffffffffffffffffffffffffffffffffffffffff021916908373ffffffffffffffffffffffffffffffffffffffff160217905550610fdc33612383565b600160003373ffffffffffffffffffffffffffffffffffffffff1673ffffffffffffffffffffffffffffffffffffffff168152602001908152602001600020600301819055507f6839821ee8329994ce64b70bede16246719daa5bc775fc4e65e5bc1e71ccb79a3387604051611053929190612f24565b60405180910390a16110708660065461221890919063ffffffff16565b60068190555050505050505b50565b61108761245e565b73ffffffffffffffffffffffffffffffffffffffff166110a561182e565b73ffffffffffffffffffffffffffffffffffffffff16146110fb576040517f08c379a00000000000000000000000000000000000000000000000000000000081526004016110f29061317b565b60405180910390fd5b6000600a60019054906101000a900460ff1690506000600581111561111c57fe5b600a60019054906101000a900460ff16600581111561113757fe5b1415611166576001600a60016101000a81548160ff0219169083600581111561115c57fe5b0217905550611293565b6001600581111561117357fe5b600a60019054906101000a900460ff16600581111561118e57fe5b14156111bd576002600a60016101000a81548160ff021916908360058111156111b357fe5b0217905550611292565b600260058111156111ca57fe5b600a60019054906101000a900460ff1660058111156111e557fe5b1415611214576003600a60016101000a81548160ff0219169083600581111561120a57fe5b0217905550611291565b6003600581111561122157fe5b600a60019054906101000a900460ff16600581111561123c57fe5b141561126b576004600a60016101000a81548160ff0219169083600581111561126157fe5b0217905550611290565b6005600a60016101000a81548160ff0219169083600581111561128a57fe5b02179055505b5b5b5b7f0a97a4ee45751e2abf3e4fc8946939630b11b371ea8ae39ccdc3056e98f5cc3f81600a60019054906101000a900460ff166040516112d3929190613006565b60405180910390a150565b600e81815481106112eb57fe5b90600052602060002090600302016000915090508060000160009054906101000a900460ff16908060000160019054906101000a900460ff16908060010154908060020154905084565b60606007805480602002602001604051908101604052809291908181526020016000905b8282101561146a57838290600052602060002090600502016040518060a00160405290816000820160009054906101000a900460ff16151515158152602001600182018054806020026020016040519081016040528092919081815260200182805480156113e657602002820191906000526020600020905b8154815260200190600101908083116113d2575b505050505081526020016002820180548060200260200160405190810160405280929190818152602001828054801561143e57602002820191906000526020600020905b81548152602001906001019080831161142a575b505050505081526020016003820154815260200160048201548152505081526020019060010190611359565b50505050905090565b61147b61245e565b73ffffffffffffffffffffffffffffffffffffffff1661149961182e565b73ffffffffffffffffffffffffffffffffffffffff16146114ef576040517f08c379a00000000000000000000000000000000000000000000000000000000081526004016114e69061317b565b60405180910390fd5b600073ffffffffffffffffffffffffffffffffffffffff166000809054906101000a900473ffffffffffffffffffffffffffffffffffffffff1673ffffffffffffffffffffffffffffffffffffffff167f8be0079c531659141344cd1fd0a4f28419497f9722a3daafe3b4186f6b6457e060405160405180910390a360008060006101000a81548173ffffffffffffffffffffffffffffffffffffffff021916908373ffffffffffffffffffffffffffffffffffffffff160217905550565b600d6020528060005260406000206000915054906101000a900473ffffffffffffffffffffffffffffffffffffffff1681565b60026020528060005260406000206000915054906101000a900473ffffffffffffffffffffffffffffffffffffffff1681565b6001600581111561162157fe5b600a60019054906101000a900460ff16600581111561163c57fe5b1461167c576040517f08c379a00000000000000000000000000000000000000000000000000000000081526004016116739061315b565b60405180910390fd5b600b60003373ffffffffffffffffffffffffffffffffffffffff1673ffffffffffffffffffffffffffffffffffffffff16815260200190815260200160002060000160009054906101000a900460ff1661170b576040517f08c379a00000000000000000000000000000000000000000000000000000000081526004016117029061307b565b60405180910390fd5b611713612536565b604051806080016040528084815260200160008152602001838152602001600015158152509050600f8190806001815401808255809150506001900390600052602060002090600402016000909190919091506000820151816000019080519060200190611782929190612560565b50602082015181600101556040820151816002015560608201518160030160006101000a81548160ff021916908315150217905550505060006117d46001600f8054905061233390919063ffffffff16565b905033600d600083815260200190815260200160002060006101000a81548173ffffffffffffffffffffffffffffffffffffffff021916908373ffffffffffffffffffffffffffffffffffffffff16021790555050505050565b60008060009054906101000a900473ffffffffffffffffffffffffffffffffffffffff16905090565b600b6020528060005260406000206000915090508060000160009054906101000a900460ff16908060000160019054906101000a900460ff16908060010154908060020154905084565b6118a961245e565b73ffffffffffffffffffffffffffffffffffffffff166118c761182e565b73ffffffffffffffffffffffffffffffffffffffff161461191d576040517f08c379a00000000000000000000000000000000000000000000000000000000081526004016119149061317b565b60405180910390fd5b60608173ffffffffffffffffffffffffffffffffffffffff16636db809956040518163ffffffff1660e01b815260040160006040518083038186803b15801561196557600080fd5b505afa158015611979573d6000803e3d6000fd5b505050506040513d6000823e3d601f19601f820116820180604052508101906119a291906128d8565b905060005b8151811415611bc75760405180608001604052806001151581526020016000151581526020018383815181106119d957fe5b60200260200101516060015181526020016000815250600e82815481106119fc57fe5b906000526020600020906003020160008201518160000160006101000a81548160ff02191690831515021790555060208201518160000160016101000a81548160ff021916908315150217905550604082015181600101556060820151816002015590505060008373ffffffffffffffffffffffffffffffffffffffff166388e7fb3f836040518263ffffffff1660e01b8152600401611a9c91906131bb565b60206040518083038186803b158015611ab457600080fd5b505afa158015611ac8573d6000803e3d6000fd5b505050506040513d601f19601f82011682018060405250810190611aec91906128af565b9050600e8281548110611afb57fe5b9060005260206000209060030201600b60008373ffffffffffffffffffffffffffffffffffffffff1673ffffffffffffffffffffffffffffffffffffffff1681526020019081526020016000206000820160009054906101000a900460ff168160000160006101000a81548160ff0219169083151502179055506000820160019054906101000a900460ff168160000160016101000a81548160ff02191690831515021790555060018201548160010155600282015481600201559050505080806001019150506119a7565b505050565b611bd461245e565b73ffffffffffffffffffffffffffffffffffffffff16611bf261182e565b73ffffffffffffffffffffffffffffffffffffffff1614611c48576040517f08c379a0000000000000000000000000000000000000000000000000000000008152600401611c3f9061317b565b60405180910390fd5b60046005811115611c5557fe5b600a60019054906101000a900460ff166005811115611c7057fe5b14611cb0576040517f08c379a0000000000000000000000000000000000000000000000000000000008152600401611ca79061315b565b60405180910390fd5b600080611cc960026006546122dd90919063ffffffff16565b905060005b600f80549050811415611d4857600f8181548110611ce857fe5b9060005260206000209060040201600101549250818311611d3b576001600f8281548110611d1257fe5b906000526020600020906004020160030160006101000a81548160ff0219169083151502179055505b8080600101915050611cce565b507f0e5e95ff8725ab3e7a4b6b59998a4c344c2aa8d1485f5e60cb7f337768e6134760405160405180910390a1505050565b600f8181548110611d8757fe5b9060005260206000209060040201600091509050806000018054600181600116156101000203166002900480601f016020809104026020016040519081016040528092919081815260200182805460018160011615610100020316600290048015611e335780601f10611e0857610100808354040283529160200191611e33565b820191906000526020600020905b815481529060010190602001808311611e1657829003601f168201915b5050505050908060010154908060020154908060030160009054906101000a900460ff16905084565b611e6461245e565b73ffffffffffffffffffffffffffffffffffffffff16611e8261182e565b73ffffffffffffffffffffffffffffffffffffffff1614611ed8576040517f08c379a0000000000000000000000000000000000000000000000000000000008152600401611ecf9061317b565b60405180910390fd5b600073ffffffffffffffffffffffffffffffffffffffff168173ffffffffffffffffffffffffffffffffffffffff161415611f48576040517f08c379a0000000000000000000000000000000000000000000000000000000008152600401611f3f9061309b565b60405180910390fd5b8073ffffffffffffffffffffffffffffffffffffffff166000809054906101000a900473ffffffffffffffffffffffffffffffffffffffff1673ffffffffffffffffffffffffffffffffffffffff167f8be0079c531659141344cd1fd0a4f28419497f9722a3daafe3b4186f6b6457e060405160405180910390a3806000806101000a81548173ffffffffffffffffffffffffffffffffffffffff021916908373ffffffffffffffffffffffffffffffffffffffff16021790555050565b61200e61245e565b73ffffffffffffffffffffffffffffffffffffffff1661202c61182e565b73ffffffffffffffffffffffffffffffffffffffff1614612082576040517f08c379a00000000000000000000000000000000000000000000000000000000081526004016120799061317b565b60405180910390fd5b6000806000600780549050905060005b818114156121cd57600781815481106120a757fe5b90600052602060002090600502016004015493506002600082815260200190815260200160002060009054906101000a900473ffffffffffffffffffffffffffffffffffffffff1692508473ffffffffffffffffffffffffffffffffffffffff166323b872dd3385876040518463ffffffff1660e01b815260040161212e93929190612eed565b602060405180830381600087803b15801561214857600080fd5b505af115801561215c573d6000803e3d6000fd5b505050506040513d601f19601f820116820180604052508101906121809190612919565b506121968460055461233390919063ffffffff16565b6005819055506000600782815481106121ab57fe5b9060005260206000209060050201600401819055508080600101915050612092565b5050505050565b600781815481106121e157fe5b90600052602060002090600502016000915090508060000160009054906101000a900460ff16908060030154908060040154905083565b600080828401905083811015612263576040517f08c379a000000000000000000000000000000000000000000000000000000000815260040161225a906130bb565b60405180910390fd5b8091505092915050565b60008083141561228057600090506122d7565b600082840290508284828161229157fe5b04146122d2576040517f08c379a00000000000000000000000000000000000000000000000000000000081526004016122c99061313b565b60405180910390fd5b809150505b92915050565b6000808211612321576040517f08c379a00000000000000000000000000000000000000000000000000000000081526004016123189061311b565b60405180910390fd5b81838161232a57fe5b04905092915050565b600082821115612378576040517f08c379a000000000000000000000000000000000000000000000000000000000815260040161236f906130db565b60405180910390fd5b818303905092915050565b600080600160008473ffffffffffffffffffffffffffffffffffffffff1673ffffffffffffffffffffffffffffffffffffffff1681526020019081526020016000206001018054905090506000805b8281141561245357612444600160008773ffffffffffffffffffffffffffffffffffffffff1673ffffffffffffffffffffffffffffffffffffffff168152602001908152602001600020600101828154811061242a57fe5b90600052602060002001548361221890919063ffffffff16565b915080806001019150506123d2565b508092505050919050565b600033905090565b6040518060a00160405280600015158152602001606081526020016060815260200160008152602001600081525090565b8280548282559060005260206000209081019282156124d3579160200282015b828111156124d25782518255916020019190600101906124b7565b5b5090506124e091906125e0565b5090565b8280548282559060005260206000209081019282156125255760005260206000209182015b82811115612524578254825591600101919060010190612509565b5b50905061253291906125e0565b5090565b60405180608001604052806060815260200160008152602001600081526020016000151581525090565b828054600181600116156101000203166002900490600052602060002090601f016020900481019282601f106125a157805160ff19168380011785556125cf565b828001600101855582156125cf579182015b828111156125ce5782518255916020019190600101906125b3565b5b5090506125dc91906125e0565b5090565b61260291905b808211156125fe5760008160009055506001016125e6565b5090565b90565b60008135905061261481613422565b92915050565b60008151905061262981613422565b92915050565b600082601f83011261264057600080fd5b815161265361264e82613203565b6131d6565b9150818183526020840193506020810190508360005b83811015612699578151860161267f88826127a4565b845260208401935060208301925050600181019050612669565b5050505092915050565b600082601f8301126126b457600080fd5b81516126c76126c28261322b565b6131d6565b915081818352602084019350602081019050838560208402820111156126ec57600080fd5b60005b8381101561271c57816127028882612871565b8452602084019350602083019250506001810190506126ef565b5050505092915050565b60008151905061273581613439565b92915050565b60008135905061274a81613450565b92915050565b600082601f83011261276157600080fd5b813561277461276f82613253565b6131d6565b9150808252602083016020830185838301111561279057600080fd5b61279b8382846133c2565b50505092915050565b600060a082840312156127b657600080fd5b6127c060a06131d6565b905060006127d084828501612726565b600083015250602082015167ffffffffffffffff8111156127f057600080fd5b6127fc848285016126a3565b602083015250604082015167ffffffffffffffff81111561281c57600080fd5b612828848285016126a3565b604083015250606061283c84828501612871565b606083015250608061285084828501612871565b60808301525092915050565b60008135905061286b81613467565b92915050565b60008151905061288081613467565b92915050565b60006020828403121561289857600080fd5b60006128a684828501612605565b91505092915050565b6000602082840312156128c157600080fd5b60006128cf8482850161261a565b91505092915050565b6000602082840312156128ea57600080fd5b600082015167ffffffffffffffff81111561290457600080fd5b6129108482850161262f565b91505092915050565b60006020828403121561292b57600080fd5b600061293984828501612726565b91505092915050565b60006020828403121561295457600080fd5b60006129628482850161273b565b91505092915050565b6000806040838503121561297e57600080fd5b600083013567ffffffffffffffff81111561299857600080fd5b6129a485828601612750565b92505060206129b58582860161285c565b9150509250929050565b6000602082840312156129d157600080fd5b60006129df8482850161285c565b91505092915050565b60006129f48383612e37565b905092915050565b6000612a088383612eb4565b60208301905092915050565b612a1d8161337a565b82525050565b612a2c8161330d565b82525050565b6000612a3d8261329f565b612a4781856132da565b935083602082028501612a598561327f565b8060005b85811015612a955784840389528151612a7685826129e8565b9450612a81836132c0565b925060208a01995050600181019050612a5d565b50829750879550505050505092915050565b6000612ab2826132aa565b612abc81856132eb565b9350612ac78361328f565b8060005b83811015612af8578151612adf88826129fc565b9750612aea836132cd565b925050600181019050612acb565b5085935050505092915050565b612b0e8161331f565b82525050565b612b1d8161331f565b82525050565b612b2c8161338c565b82525050565b6000612b3d826132b5565b612b4781856132fc565b9350612b578185602086016133d1565b612b6081613404565b840191505092915050565b6000612b786015836132fc565b91507f596f7520617265206e6f742072656769737472656400000000000000000000006000830152602082019050919050565b6000612bb86026836132fc565b91507f4f776e61626c653a206e6577206f776e657220697320746865207a65726f206160008301527f64647265737300000000000000000000000000000000000000000000000000006020830152604082019050919050565b6000612c1e601b836132fc565b91507f536166654d6174683a206164646974696f6e206f766572666c6f7700000000006000830152602082019050919050565b6000612c5e601e836132fc565b91507f536166654d6174683a207375627472616374696f6e206f766572666c6f7700006000830152602082019050919050565b6000612c9e600d836132fc565b91507f416c726561647920766f746564000000000000000000000000000000000000006000830152602082019050919050565b6000612cde601a836132fc565b91507f536166654d6174683a206469766973696f6e206279207a65726f0000000000006000830152602082019050919050565b6000612d1e6021836132fc565b91507f536166654d6174683a206d756c7469706c69636174696f6e206f766572666c6f60008301527f77000000000000000000000000000000000000000000000000000000000000006020830152604082019050919050565b6000612d84600b836132fc565b91507f4e6f7420616c6c6f7765640000000000000000000000000000000000000000006000830152602082019050919050565b6000612dc46020836132fc565b91507f4f776e61626c653a2063616c6c6572206973206e6f7420746865206f776e65726000830152602082019050919050565b6000612e046020836132fc565b91507f776974686472617720646561646c696e65206973206e6f7420726561636865646000830152602082019050919050565b600060a083016000830151612e4f6000860182612b05565b5060208301518482036020860152612e678282612aa7565b91505060408301518482036040860152612e818282612aa7565b9150506060830151612e966060860182612eb4565b506080830151612ea96080860182612eb4565b508091505092915050565b612ebd81613370565b82525050565b612ecc81613370565b82525050565b6000602082019050612ee76000830184612a23565b92915050565b6000606082019050612f026000830186612a14565b612f0f6020830185612a23565b612f1c6040830184612ec3565b949350505050565b6000604082019050612f396000830185612a14565b612f466020830184612ec3565b9392505050565b60006020820190508181036000830152612f678184612a32565b905092915050565b6000608082019050612f846000830187612b14565b612f916020830186612b14565b612f9e6040830185612ec3565b612fab6060830184612ec3565b95945050505050565b6000606082019050612fc96000830186612b14565b612fd66020830185612ec3565b612fe36040830184612ec3565b949350505050565b60006020820190506130006000830184612b23565b92915050565b600060408201905061301b6000830185612b23565b6130286020830184612b23565b9392505050565b600060808201905081810360008301526130498187612b32565b90506130586020830186612ec3565b6130656040830185612ec3565b6130726060830184612b14565b95945050505050565b6000602082019050818103600083015261309481612b6b565b9050919050565b600060208201905081810360008301526130b481612bab565b9050919050565b600060208201905081810360008301526130d481612c11565b9050919050565b600060208201905081810360008301526130f481612c51565b9050919050565b6000602082019050818103600083015261311481612c91565b9050919050565b6000602082019050818103600083015261313481612cd1565b9050919050565b6000602082019050818103600083015261315481612d11565b9050919050565b6000602082019050818103600083015261317481612d77565b9050919050565b6000602082019050818103600083015261319481612db7565b9050919050565b600060208201905081810360008301526131b481612df7565b9050919050565b60006020820190506131d06000830184612ec3565b92915050565b6000604051905081810181811067ffffffffffffffff821117156131f957600080fd5b8060405250919050565b600067ffffffffffffffff82111561321a57600080fd5b602082029050602081019050919050565b600067ffffffffffffffff82111561324257600080fd5b602082029050602081019050919050565b600067ffffffffffffffff82111561326a57600080fd5b601f19601f8301169050602081019050919050565b6000819050602082019050919050565b6000819050602082019050919050565b600081519050919050565b600081519050919050565b600081519050919050565b6000602082019050919050565b6000602082019050919050565b600082825260208201905092915050565b600082825260208201905092915050565b600082825260208201905092915050565b600061331882613350565b9050919050565b60008115159050919050565b60006133368261330d565b9050919050565b600081905061334b82613415565b919050565b600073ffffffffffffffffffffffffffffffffffffffff82169050919050565b6000819050919050565b60006133858261339e565b9050919050565b60006133978261333d565b9050919050565b60006133a9826133b0565b9050919050565b60006133bb82613350565b9050919050565b82818337600083830152505050565b60005b838110156133ef5780820151818401526020810190506133d4565b838111156133fe576000848401525b50505050565b6000601f19601f8301169050919050565b6006811061341f57fe5b50565b61342b8161330d565b811461343657600080fd5b50565b6134428161331f565b811461344d57600080fd5b50565b6134598161332b565b811461346457600080fd5b50565b61347081613370565b811461347b57600080fd5b5056fea26469706673582212205a02b19bf6bf3229bde8e986a7fa4ae9aa379bab61eacdc140001cf84393cb5064736f6c634300060b0033",
  "immutableReferences": {},
  "source": "pragma solidity 0.6.11;\npragma experimental ABIEncoderV2;\nimport \"@openzeppelin/contracts/access/Ownable.sol\";\nimport \"@openzeppelin/contracts/math/SafeMath.sol\";\nimport \"./ProxySimple.sol\";\n\n/// @title A contract for the management of votes\n/// @dev The contract can still be improved\ncontract Loan is ProxySimple {\n    using SafeMath for uint;\n\n//Enum\n    enum WorkflowStatus {\n        RegisteringEntities,\n        LoanRequestStarted,\n        LoanRequestEnded,\n        VotingSessionStarted,\n        VotingSessionEnded,\n        VotesTallied\n    }\n\n//Struct\n    struct Voter {\n        bool isRegistered;\n        bool hasVoted;\n        uint votingPower;\n        uint loanRequestID;\n    }\n\n\n    struct LoanRequest {\n        string description;\n        uint voteCount;\n        uint amountRequest;\n        bool state;\n    }\n\n//Variable\n    uint numberOfLoanRequest;\n    uint numberOfEntity;\n    bool borrowOpen;\n    WorkflowStatus public status;\n    //uint coffre;\n\n//Mapping\n    mapping(address => Voter) public voters;\n    mapping(address => uint) public debts;\n    mapping(uint => address) public borrowers; // LoanRequest est un struct\n\n//Tableau\n    Voter[] public votes;\n    LoanRequest[] public loans;\n\n//Event\n    event EntityRegistered(address entitiesAddress);\n    event LoanRequestRegistrationStarted();\n    event LoanRequestRegistrationEnded();\n    event LoanRequestRegistered(uint loanRequestId);\n    event VotingSessionStarted();\n    event VotingSessionEnded();\n    event Voted (address entity, uint loanRequestId);\n    event VotesTallied();\n    event WorkflowStatusChange(WorkflowStatus previousStatus, WorkflowStatus newStatus);\n\n//Function\n\n\n    /// @notice Records loan requests\n    /// @dev\n    /// @param _description Borrower motivation\n    /// @param _amount Amount requested\n    function registerLoanRequest(string memory _description, uint _amount) external {\n\n        require(status == WorkflowStatus.LoanRequestStarted, \"Not allowed\");\n        require(voters[msg.sender].isRegistered,\"You are not registred\");\n\n        LoanRequest memory loanR = LoanRequest(_description, 0, _amount, false);\n        loans.push(loanR);\n\n        uint loanRequestId = loans.length.sub(1);\n        borrowers[loanRequestId] = msg.sender;\n    }\n\n    /// @notice Records the addresses of participants\n    /// @dev Copy the array of users to the proxy, Error with Client call in ProxySimple.sol\n    /// @param _addr proxy address\n    function setEntity(address _addr) public onlyOwner {\n      Client[] memory copyTab = ProxySimple(_addr).getClients();\n        for(uint i; i == copyTab.length; i++) {\n            votes[i] = Voter(true,false,copyTab[i].totalDeposit,0);\n            address voterAddr = ProxySimple(_addr).backToUser(i); //backToUser est un getter dans ce contrat(borrow)\n            voters[voterAddr] = votes[i];\n        }\n    }\n\n    /// @notice Function to vote, Id 0 for blank vote\n    /// @dev For the moment we only vote once\n    /// @param _loanRequestId Proxy address\n    function vote(uint _loanRequestId) external {\n        require(status == WorkflowStatus.VotingSessionStarted, \"Not allowed\");\n        require(voters[msg.sender].isRegistered,\"You are not registred\");\n        require(!voters[msg.sender].hasVoted, \"Already voted\");\n\n        voters[msg.sender].hasVoted = true;\n        voters[msg.sender].loanRequestID = _loanRequestId;\n\n        emit Voted(msg.sender, _loanRequestId);\n\n        loans[_loanRequestId].voteCount = loans[_loanRequestId].voteCount.add(voters[msg.sender].votingPower);\n    }\n\n  //function borrowMode\n  //( change le bool)\n\n    /// @notice See if the loan is possible\n    /// @dev For the moment we only vote once\n    /// @param _loanRequestId of the loan request\n\n    function okLoans(uint _loanRequestId) external onlyOwner {\n        //require (borrowOpen == true);\n        require(status == WorkflowStatus.VotingSessionEnded, \"Not allowed\");\n        //require(voteCount>((votingPowerTotal/2),\"pas assez de vote pour vous\");\n\n        uint count;\n        uint quorum = ProxySimple.totalVotingPower.div(2);\n        for(uint i; i == loans.length; i++) {\n            count = loans[i].voteCount;\n            if( count <= quorum){\n                loans[i].state = true;\n            }\n        }\n\n        emit VotesTallied();\n    }\n\n    /// @notice Change the current status\n    /// @dev\n\n    function changeToNextStatus() external onlyOwner {\n        WorkflowStatus previousStatus = status;\n\n        if (status == WorkflowStatus.RegisteringEntities) {\n            status = WorkflowStatus.LoanRequestStarted;\n        }\n        else if (status == WorkflowStatus.LoanRequestStarted) {\n            status = WorkflowStatus.LoanRequestEnded;\n        }\n        else if (status == WorkflowStatus.LoanRequestEnded) {\n            status = WorkflowStatus.VotingSessionStarted;\n        }\n        else if (status == WorkflowStatus.VotingSessionStarted) {\n            status = WorkflowStatus.VotingSessionEnded;\n        }\n        else {\n            status = WorkflowStatus.VotesTallied;\n        }\n\n        emit WorkflowStatusChange(previousStatus, status);\n    }\n}\n",
  "sourcePath": "/Users/hamzamessaoudi/Desktop/DEXSOdernier/contracts/Borrow.sol",
  "compiler": {
    "name": "solc",
    "version": "0.6.11+commit.5ef660b1.Emscripten.clang"
  },
  "schemaVersion": "3.3.4",
  "updatedAt": "2021-04-20T06:25:35.163Z",
  "devdoc": {
    "details": "The contract can still be improved",
    "kind": "dev",
    "methods": {
      "okLoans(uint256)": {
        "details": "For the moment we only vote once",
        "params": {
          "_loanRequestId": "of the loan request"
        }
      },
      "owner()": {
        "details": "Returns the address of the current owner."
      },
      "registerLoanRequest(string,uint256)": {
        "details": "@param _description Borrower motivation",
        "params": {
          "_amount": "Amount requested"
        }
      },
      "renounceOwnership()": {
        "details": "Leaves the contract without owner. It will not be possible to call `onlyOwner` functions anymore. Can only be called by the current owner. NOTE: Renouncing ownership will leave the contract without an owner, thereby removing any functionality that is only available to the owner."
      },
      "setEntity(address)": {
        "details": "Copy the array of users to the proxy, Error with Client call in ProxySimple.sol",
        "params": {
          "_addr": "proxy address"
        }
      },
      "transferOwnership(address)": {
        "details": "Transfers ownership of the contract to a new account (`newOwner`). Can only be called by the current owner."
      },
      "vote(uint256)": {
        "details": "For the moment we only vote once",
        "params": {
          "_loanRequestId": "Proxy address"
        }
      }
    },
    "title": "A contract for the management of votes",
    "version": 1
  },
  "userdoc": {
    "kind": "user",
    "methods": {
      "changeToNextStatus()": {
        "notice": "Change the current status"
      },
      "okLoans(uint256)": {
        "notice": "See if the loan is possible"
      },
      "registerLoanRequest(string,uint256)": {
        "notice": "Records loan requests"
      },
      "setEntity(address)": {
        "notice": "Records the addresses of participants"
      },
      "vote(uint256)": {
        "notice": "Function to vote, Id 0 for blank vote"
      }
    },
    "version": 1
  }
}