{
  "contractName": "Loan",
  "abi": [
    {
      "anonymous": false,
      "inputs": [
        {
          "indexed": false,
          "internalType": "address",
          "name": "entitiesAddress",
          "type": "address"
        }
      ],
      "name": "EntityRegistered",
      "type": "event"
    },
    {
      "anonymous": false,
      "inputs": [
        {
          "indexed": false,
          "internalType": "uint256",
          "name": "loanRequestId",
          "type": "uint256"
        }
      ],
      "name": "LoanRequestRegistered",
      "type": "event"
    },
    {
      "anonymous": false,
      "inputs": [],
      "name": "LoanRequestRegistrationEnded",
      "type": "event"
    },
    {
      "anonymous": false,
      "inputs": [],
      "name": "LoanRequestRegistrationStarted",
      "type": "event"
    },
    {
      "anonymous": false,
      "inputs": [
        {
          "indexed": true,
          "internalType": "address",
          "name": "previousOwner",
          "type": "address"
        },
        {
          "indexed": true,
          "internalType": "address",
          "name": "newOwner",
          "type": "address"
        }
      ],
      "name": "OwnershipTransferred",
      "type": "event"
    },
    {
      "anonymous": false,
      "inputs": [
        {
          "indexed": false,
          "internalType": "address",
          "name": "entity",
          "type": "address"
        },
        {
          "indexed": false,
          "internalType": "uint256",
          "name": "loanRequestId",
          "type": "uint256"
        }
      ],
      "name": "Voted",
      "type": "event"
    },
    {
      "anonymous": false,
      "inputs": [],
      "name": "VotesTallied",
      "type": "event"
    },
    {
      "anonymous": false,
      "inputs": [],
      "name": "VotingSessionEnded",
      "type": "event"
    },
    {
      "anonymous": false,
      "inputs": [],
      "name": "VotingSessionStarted",
      "type": "event"
    },
    {
      "anonymous": false,
      "inputs": [
        {
          "indexed": false,
          "internalType": "enum Loan.WorkflowStatus",
          "name": "previousStatus",
          "type": "uint8"
        },
        {
          "indexed": false,
          "internalType": "enum Loan.WorkflowStatus",
          "name": "newStatus",
          "type": "uint8"
        }
      ],
      "name": "WorkflowStatusChange",
      "type": "event"
    },
    {
      "anonymous": false,
      "inputs": [
        {
          "indexed": false,
          "internalType": "address",
          "name": "client",
          "type": "address"
        },
        {
          "indexed": false,
          "internalType": "uint256",
          "name": "amount",
          "type": "uint256"
        }
      ],
      "name": "authorizedWithdrawal",
      "type": "event"
    },
    {
      "anonymous": false,
      "inputs": [
        {
          "indexed": false,
          "internalType": "address",
          "name": "client",
          "type": "address"
        },
        {
          "indexed": false,
          "internalType": "uint256",
          "name": "amount",
          "type": "uint256"
        }
      ],
      "name": "valideDepot",
      "type": "event"
    },
    {
      "inputs": [
        {
          "internalType": "address",
          "name": "",
          "type": "address"
        }
      ],
      "name": "User",
      "outputs": [
        {
          "internalType": "bool",
          "name": "lister",
          "type": "bool"
        },
        {
          "internalType": "uint256",
          "name": "dayLock",
          "type": "uint256"
        },
        {
          "internalType": "uint256",
          "name": "amount",
          "type": "uint256"
        },
        {
          "internalType": "uint256",
          "name": "depositData",
          "type": "uint256"
        },
        {
          "internalType": "uint256",
          "name": "withdrawalPending",
          "type": "uint256"
        }
      ],
      "stateMutability": "view",
      "type": "function"
    },
    {
      "inputs": [
        {
          "internalType": "contract IERC20",
          "name": "_address",
          "type": "address"
        }
      ],
      "name": "Withdraw",
      "outputs": [],
      "stateMutability": "payable",
      "type": "function"
    },
    {
      "inputs": [
        {
          "internalType": "uint256",
          "name": "",
          "type": "uint256"
        }
      ],
      "name": "backToUser",
      "outputs": [
        {
          "internalType": "address",
          "name": "",
          "type": "address"
        }
      ],
      "stateMutability": "view",
      "type": "function"
    },
    {
      "inputs": [
        {
          "internalType": "uint256",
          "name": "",
          "type": "uint256"
        }
      ],
      "name": "borrowers",
      "outputs": [
        {
          "internalType": "address",
          "name": "",
          "type": "address"
        }
      ],
      "stateMutability": "view",
      "type": "function"
    },
    {
      "inputs": [
        {
          "internalType": "uint256",
          "name": "",
          "type": "uint256"
        }
      ],
      "name": "clients",
      "outputs": [
        {
          "internalType": "bool",
          "name": "lister",
          "type": "bool"
        },
        {
          "internalType": "uint256",
          "name": "dayLock",
          "type": "uint256"
        },
        {
          "internalType": "uint256",
          "name": "amount",
          "type": "uint256"
        },
        {
          "internalType": "uint256",
          "name": "depositData",
          "type": "uint256"
        },
        {
          "internalType": "uint256",
          "name": "withdrawalPending",
          "type": "uint256"
        }
      ],
      "stateMutability": "view",
      "type": "function"
    },
    {
      "inputs": [
        {
          "internalType": "address",
          "name": "",
          "type": "address"
        }
      ],
      "name": "debts",
      "outputs": [
        {
          "internalType": "uint256",
          "name": "",
          "type": "uint256"
        }
      ],
      "stateMutability": "view",
      "type": "function"
    },
    {
      "inputs": [
        {
          "internalType": "uint256",
          "name": "nb_dayLock",
          "type": "uint256"
        },
        {
          "internalType": "uint256",
          "name": "amount",
          "type": "uint256"
        }
      ],
      "name": "deposite",
      "outputs": [],
      "stateMutability": "payable",
      "type": "function"
    },
    {
      "inputs": [],
      "name": "getClients",
      "outputs": [
        {
          "components": [
            {
              "internalType": "bool",
              "name": "lister",
              "type": "bool"
            },
            {
              "internalType": "uint256",
              "name": "dayLock",
              "type": "uint256"
            },
            {
              "internalType": "uint256",
              "name": "amount",
              "type": "uint256"
            },
            {
              "internalType": "uint256",
              "name": "depositData",
              "type": "uint256"
            },
            {
              "internalType": "uint256",
              "name": "withdrawalPending",
              "type": "uint256"
            }
          ],
          "internalType": "struct ProxySimple.Client[]",
          "name": "",
          "type": "tuple[]"
        }
      ],
      "stateMutability": "view",
      "type": "function"
    },
    {
      "inputs": [
        {
          "internalType": "uint256",
          "name": "",
          "type": "uint256"
        }
      ],
      "name": "loans",
      "outputs": [
        {
          "internalType": "string",
          "name": "description",
          "type": "string"
        },
        {
          "internalType": "uint256",
          "name": "voteCount",
          "type": "uint256"
        },
        {
          "internalType": "uint256",
          "name": "amountRequest",
          "type": "uint256"
        },
        {
          "internalType": "bool",
          "name": "state",
          "type": "bool"
        }
      ],
      "stateMutability": "view",
      "type": "function"
    },
    {
      "inputs": [],
      "name": "owner",
      "outputs": [
        {
          "internalType": "address",
          "name": "",
          "type": "address"
        }
      ],
      "stateMutability": "view",
      "type": "function"
    },
    {
      "inputs": [],
      "name": "renounceOwnership",
      "outputs": [],
      "stateMutability": "nonpayable",
      "type": "function"
    },
    {
      "inputs": [],
      "name": "status",
      "outputs": [
        {
          "internalType": "enum Loan.WorkflowStatus",
          "name": "",
          "type": "uint8"
        }
      ],
      "stateMutability": "view",
      "type": "function"
    },
    {
      "inputs": [
        {
          "internalType": "address",
          "name": "newOwner",
          "type": "address"
        }
      ],
      "name": "transferOwnership",
      "outputs": [],
      "stateMutability": "nonpayable",
      "type": "function"
    },
    {
      "inputs": [
        {
          "internalType": "address",
          "name": "",
          "type": "address"
        }
      ],
      "name": "voters",
      "outputs": [
        {
          "internalType": "bool",
          "name": "isRegistered",
          "type": "bool"
        },
        {
          "internalType": "bool",
          "name": "hasVoted",
          "type": "bool"
        },
        {
          "internalType": "uint256",
          "name": "votingPower",
          "type": "uint256"
        },
        {
          "internalType": "uint256",
          "name": "loanRequestID",
          "type": "uint256"
        }
      ],
      "stateMutability": "view",
      "type": "function"
    },
    {
      "inputs": [
        {
          "internalType": "uint256",
          "name": "",
          "type": "uint256"
        }
      ],
      "name": "votes",
      "outputs": [
        {
          "internalType": "bool",
          "name": "isRegistered",
          "type": "bool"
        },
        {
          "internalType": "bool",
          "name": "hasVoted",
          "type": "bool"
        },
        {
          "internalType": "uint256",
          "name": "votingPower",
          "type": "uint256"
        },
        {
          "internalType": "uint256",
          "name": "loanRequestID",
          "type": "uint256"
        }
      ],
      "stateMutability": "view",
      "type": "function"
    },
    {
      "inputs": [
        {
          "internalType": "uint256",
          "name": "withdrawalAmount",
          "type": "uint256"
        }
      ],
      "name": "withdrawPending",
      "outputs": [],
      "stateMutability": "payable",
      "type": "function"
    },
    {
      "inputs": [
        {
          "internalType": "string",
          "name": "_description",
          "type": "string"
        },
        {
          "internalType": "uint256",
          "name": "_amount",
          "type": "uint256"
        }
      ],
      "name": "registerLoanRequest",
      "outputs": [],
      "stateMutability": "nonpayable",
      "type": "function"
    },
    {
      "inputs": [
        {
          "internalType": "address",
          "name": "_addr",
          "type": "address"
        }
      ],
      "name": "setEntity",
      "outputs": [],
      "stateMutability": "nonpayable",
      "type": "function"
    },
    {
      "inputs": [
        {
          "internalType": "uint256",
          "name": "_loanRequestId",
          "type": "uint256"
        }
      ],
      "name": "vote",
      "outputs": [],
      "stateMutability": "nonpayable",
      "type": "function"
    },
    {
      "inputs": [
        {
          "internalType": "uint256",
          "name": "_loanRequestId",
          "type": "uint256"
        }
      ],
      "name": "okLoans",
      "outputs": [],
      "stateMutability": "nonpayable",
      "type": "function"
    },
    {
      "inputs": [],
      "name": "changeToNextStatus",
      "outputs": [],
      "stateMutability": "nonpayable",
      "type": "function"
    }
  ],
  "bytecode": "0x6080604052600560035534801561001557600080fd5b5060006100266100c960201b60201c565b9050806000806101000a81548173ffffffffffffffffffffffffffffffffffffffff021916908373ffffffffffffffffffffffffffffffffffffffff1602179055508073ffffffffffffffffffffffffffffffffffffffff16600073ffffffffffffffffffffffffffffffffffffffff167f8be0079c531659141344cd1fd0a4f28419497f9722a3daafe3b4186f6b6457e060405160405180910390a3506100d1565b600033905090565b612e9380620000e16000396000f3fe60806040526004361061012a5760003560e01c806388e7fb3f116100ab578063bf69bb861161006f578063bf69bb86146103e0578063c5bc26bf14610409578063e1ec3c6814610432578063f2fde38b14610472578063f67611511461049b578063f88af21d146104b75761012a565b806388e7fb3f146102f35780638d403b29146103305780638da5cb5b14610359578063a2c2f1b014610384578063a3ec138d146103a05761012a565b80633fcba4eb116100f25780633fcba4eb1461021d5780635df81330146102345780636db8099514610274578063715018a61461029f5780637924d93f146102b65761012a565b80630121b93f1461012f578063200d2ed214610158578063230eb9c6146101835780632e585fd8146101c45780632ecd4e7d146101e0575b600080fd5b34801561013b57600080fd5b506101566004803603810190610151919061241f565b6104f8565b005b34801561016457600080fd5b5061016d6107f2565b60405161017a9190612a2b565b60405180910390f35b34801561018f57600080fd5b506101aa60048036038101906101a591906122e6565b610805565b6040516101bb9594939291906129d8565b60405180910390f35b6101de60048036038101906101d9919061241f565b610848565b005b3480156101ec57600080fd5b50610207600480360381019061020291906122e6565b610b49565b6040516102149190612bfb565b60405180910390f35b34801561022957600080fd5b50610232610b61565b005b34801561024057600080fd5b5061025b6004803603810190610256919061241f565b610dc0565b60405161026b9493929190612993565b60405180910390f35b34801561028057600080fd5b50610289610e17565b6040516102969190612971565b60405180910390f35b3480156102ab57600080fd5b506102b4610eb9565b005b3480156102c257600080fd5b506102dd60048036038101906102d8919061241f565b610ff4565b6040516102ea91906128f6565b60405180910390f35b3480156102ff57600080fd5b5061031a6004803603810190610315919061241f565b611027565b60405161032791906128f6565b60405180910390f35b34801561033c57600080fd5b50610357600480360381019061035291906123cb565b61105a565b005b34801561036557600080fd5b5061036e611274565b60405161037b91906128f6565b60405180910390f35b61039e60048036038101906103999190612448565b61129d565b005b3480156103ac57600080fd5b506103c760048036038101906103c291906122e6565b6114c9565b6040516103d79493929190612993565b60405180910390f35b3480156103ec57600080fd5b50610407600480360381019061040291906122e6565b611513565b005b34801561041557600080fd5b50610430600480360381019061042b919061241f565b61183e565b005b34801561043e57600080fd5b506104596004803603810190610454919061241f565b6119ec565b6040516104699493929190612a6f565b60405180910390f35b34801561047e57600080fd5b50610499600480360381019061049491906122e6565b611ace565b005b6104b560048036038101906104b091906123a2565b611c78565b005b3480156104c357600080fd5b506104de60048036038101906104d9919061241f565b611e46565b6040516104ef9594939291906129d8565b60405180910390f35b6003600581111561050557fe5b600960019054906101000a900460ff16600581111561052057fe5b14610560576040517f08c379a000000000000000000000000000000000000000000000000000000000815260040161055790612bbb565b60405180910390fd5b600a60003373ffffffffffffffffffffffffffffffffffffffff1673ffffffffffffffffffffffffffffffffffffffff16815260200190815260200160002060000160009054906101000a900460ff166105ef576040517f08c379a00000000000000000000000000000000000000000000000000000000081526004016105e690612abb565b60405180910390fd5b600a60003373ffffffffffffffffffffffffffffffffffffffff1673ffffffffffffffffffffffffffffffffffffffff16815260200190815260200160002060000160019054906101000a900460ff161561067f576040517f08c379a000000000000000000000000000000000000000000000000000000000815260040161067690612b3b565b60405180910390fd5b6001600a60003373ffffffffffffffffffffffffffffffffffffffff1673ffffffffffffffffffffffffffffffffffffffff16815260200190815260200160002060000160016101000a81548160ff02191690831515021790555080600a60003373ffffffffffffffffffffffffffffffffffffffff1673ffffffffffffffffffffffffffffffffffffffff168152602001908152602001600020600201819055507f4d99b957a2bc29a30ebd96a7be8e68fe50a3c701db28a91436490b7d53870ca43382604051610752929190612948565b60405180910390a16107cd600a60003373ffffffffffffffffffffffffffffffffffffffff1673ffffffffffffffffffffffffffffffffffffffff16815260200190815260200160002060010154600e83815481106107ad57fe5b906000526020600020906004020160010154611e9690919063ffffffff16565b600e82815481106107da57fe5b90600052602060002090600402016001018190555050565b600960019054906101000a900460ff1681565b60016020528060005260406000206000915090508060000160009054906101000a900460ff16908060010154908060020154908060030154908060040154905085565b60006108e1600160003373ffffffffffffffffffffffffffffffffffffffff1673ffffffffffffffffffffffffffffffffffffffff16815260200190815260200160002060010154600160003373ffffffffffffffffffffffffffffffffffffffff1673ffffffffffffffffffffffffffffffffffffffff16815260200190815260200160002060030154611e9690919063ffffffff16565b905042811115610926576040517f08c379a000000000000000000000000000000000000000000000000000000000815260040161091d90612b7b565b60405180910390fd5b6000600160003373ffffffffffffffffffffffffffffffffffffffff1673ffffffffffffffffffffffffffffffffffffffff16815260200190815260200160002060030154420390506000610a296064610a1b6064610a0d600160003373ffffffffffffffffffffffffffffffffffffffff1673ffffffffffffffffffffffffffffffffffffffff168152602001908152602001600020600201546109ff6003546109f16312cc03006109e360648d611eeb90919063ffffffff16565b611f5b90919063ffffffff16565b611eeb90919063ffffffff16565b611eeb90919063ffffffff16565b611eeb90919063ffffffff16565b611f5b90919063ffffffff16565b90506000610a8282600160003373ffffffffffffffffffffffffffffffffffffffff1673ffffffffffffffffffffffffffffffffffffffff16815260200190815260200160002060020154611e9690919063ffffffff16565b905080851115610a9157600080fd5b610aa685600454611e9690919063ffffffff16565b6004819055507f289473d20f7dbb55ce607f3e02b0de290bceb88a7728f441f04f7179c12da5163386604051610add929190612948565b60405180910390a1610b3c600160003373ffffffffffffffffffffffffffffffffffffffff1673ffffffffffffffffffffffffffffffffffffffff16815260200190815260200160002060020154600554611fb190919063ffffffff16565b6005819055505050505050565b600b6020528060005260406000206000915090505481565b610b69612001565b73ffffffffffffffffffffffffffffffffffffffff16610b87611274565b73ffffffffffffffffffffffffffffffffffffffff1614610bdd576040517f08c379a0000000000000000000000000000000000000000000000000000000008152600401610bd490612bdb565b60405180910390fd5b6000600960019054906101000a900460ff16905060006005811115610bfe57fe5b600960019054906101000a900460ff166005811115610c1957fe5b1415610c48576001600960016101000a81548160ff02191690836005811115610c3e57fe5b0217905550610d75565b60016005811115610c5557fe5b600960019054906101000a900460ff166005811115610c7057fe5b1415610c9f576002600960016101000a81548160ff02191690836005811115610c9557fe5b0217905550610d74565b60026005811115610cac57fe5b600960019054906101000a900460ff166005811115610cc757fe5b1415610cf6576003600960016101000a81548160ff02191690836005811115610cec57fe5b0217905550610d73565b60036005811115610d0357fe5b600960019054906101000a900460ff166005811115610d1e57fe5b1415610d4d576004600960016101000a81548160ff02191690836005811115610d4357fe5b0217905550610d72565b6005600960016101000a81548160ff02191690836005811115610d6c57fe5b02179055505b5b5b5b7f0a97a4ee45751e2abf3e4fc8946939630b11b371ea8ae39ccdc3056e98f5cc3f81600960019054906101000a900460ff16604051610db5929190612a46565b60405180910390a150565b600d8181548110610dcd57fe5b90600052602060002090600302016000915090508060000160009054906101000a900460ff16908060000160019054906101000a900460ff16908060010154908060020154905084565b60606006805480602002602001604051908101604052809291908181526020016000905b82821015610eb057838290600052602060002090600502016040518060a00160405290816000820160009054906101000a900460ff1615151515815260200160018201548152602001600282015481526020016003820154815260200160048201548152505081526020019060010190610e3b565b50505050905090565b610ec1612001565b73ffffffffffffffffffffffffffffffffffffffff16610edf611274565b73ffffffffffffffffffffffffffffffffffffffff1614610f35576040517f08c379a0000000000000000000000000000000000000000000000000000000008152600401610f2c90612bdb565b60405180910390fd5b600073ffffffffffffffffffffffffffffffffffffffff166000809054906101000a900473ffffffffffffffffffffffffffffffffffffffff1673ffffffffffffffffffffffffffffffffffffffff167f8be0079c531659141344cd1fd0a4f28419497f9722a3daafe3b4186f6b6457e060405160405180910390a360008060006101000a81548173ffffffffffffffffffffffffffffffffffffffff021916908373ffffffffffffffffffffffffffffffffffffffff160217905550565b600c6020528060005260406000206000915054906101000a900473ffffffffffffffffffffffffffffffffffffffff1681565b60026020528060005260406000206000915054906101000a900473ffffffffffffffffffffffffffffffffffffffff1681565b6001600581111561106757fe5b600960019054906101000a900460ff16600581111561108257fe5b146110c2576040517f08c379a00000000000000000000000000000000000000000000000000000000081526004016110b990612bbb565b60405180910390fd5b600a60003373ffffffffffffffffffffffffffffffffffffffff1673ffffffffffffffffffffffffffffffffffffffff16815260200190815260200160002060000160009054906101000a900460ff16611151576040517f08c379a000000000000000000000000000000000000000000000000000000000815260040161114890612abb565b60405180910390fd5b611159612009565b604051806080016040528084815260200160008152602001838152602001600015158152509050600e81908060018154018082558091505060019003906000526020600020906004020160009091909190915060008201518160000190805190602001906111c8929190612033565b50602082015181600101556040820151816002015560608201518160030160006101000a81548160ff0219169083151502179055505050600061121a6001600e80549050611fb190919063ffffffff16565b905033600c600083815260200190815260200160002060006101000a81548173ffffffffffffffffffffffffffffffffffffffff021916908373ffffffffffffffffffffffffffffffffffffffff16021790555050505050565b60008060009054906101000a900473ffffffffffffffffffffffffffffffffffffffff16905090565b60004290506112aa6120b3565b6040518060a0016040528060011515815260200185815260200184815260200183815260200160008152509050600681908060018154018082558091505060019003906000526020600020906005020160009091909190915060008201518160000160006101000a81548160ff02191690831515021790555060208201518160010155604082015181600201556060820151816003015560808201518160040155505060006113686001600680549050611fb190919063ffffffff16565b90506006818154811061137757fe5b9060005260206000209060050201600160003373ffffffffffffffffffffffffffffffffffffffff1673ffffffffffffffffffffffffffffffffffffffff1681526020019081526020016000206000820160009054906101000a900460ff168160000160006101000a81548160ff02191690831515021790555060018201548160010155600282015481600201556003820154816003015560048201548160040155905050336002600083815260200190815260200160002060006101000a81548173ffffffffffffffffffffffffffffffffffffffff021916908373ffffffffffffffffffffffffffffffffffffffff1602179055507f6839821ee8329994ce64b70bede16246719daa5bc775fc4e65e5bc1e71ccb79a338560405161149f929190612948565b60405180910390a16114bc84600554611e9690919063ffffffff16565b6005819055505050505050565b600a6020528060005260406000206000915090508060000160009054906101000a900460ff16908060000160019054906101000a900460ff16908060010154908060020154905084565b61151b612001565b73ffffffffffffffffffffffffffffffffffffffff16611539611274565b73ffffffffffffffffffffffffffffffffffffffff161461158f576040517f08c379a000000000000000000000000000000000000000000000000000000000815260040161158690612bdb565b60405180910390fd5b60608173ffffffffffffffffffffffffffffffffffffffff16636db809956040518163ffffffff1660e01b815260040160006040518083038186803b1580156115d757600080fd5b505afa1580156115eb573d6000803e3d6000fd5b505050506040513d6000823e3d601f19601f820116820180604052508101906116149190612338565b905060005b815181141561183957604051806080016040528060011515815260200160001515815260200183838151811061164b57fe5b60200260200101516040015181526020016000815250600d828154811061166e57fe5b906000526020600020906003020160008201518160000160006101000a81548160ff02191690831515021790555060208201518160000160016101000a81548160ff021916908315150217905550604082015181600101556060820151816002015590505060008373ffffffffffffffffffffffffffffffffffffffff166388e7fb3f836040518263ffffffff1660e01b815260040161170e9190612bfb565b60206040518083038186803b15801561172657600080fd5b505afa15801561173a573d6000803e3d6000fd5b505050506040513d601f19601f8201168201806040525081019061175e919061230f565b9050600d828154811061176d57fe5b9060005260206000209060030201600a60008373ffffffffffffffffffffffffffffffffffffffff1673ffffffffffffffffffffffffffffffffffffffff1681526020019081526020016000206000820160009054906101000a900460ff168160000160006101000a81548160ff0219169083151502179055506000820160019054906101000a900460ff168160000160016101000a81548160ff0219169083151502179055506001820154816001015560028201548160020155905050508080600101915050611619565b505050565b611846612001565b73ffffffffffffffffffffffffffffffffffffffff16611864611274565b73ffffffffffffffffffffffffffffffffffffffff16146118ba576040517f08c379a00000000000000000000000000000000000000000000000000000000081526004016118b190612bdb565b60405180910390fd5b600460058111156118c757fe5b600960019054906101000a900460ff1660058111156118e257fe5b14611922576040517f08c379a000000000000000000000000000000000000000000000000000000000815260040161191990612bbb565b60405180910390fd5b60008061193b6002600554611f5b90919063ffffffff16565b905060005b600e805490508114156119ba57600e818154811061195a57fe5b90600052602060002090600402016001015492508183116119ad576001600e828154811061198457fe5b906000526020600020906004020160030160006101000a81548160ff0219169083151502179055505b8080600101915050611940565b507f0e5e95ff8725ab3e7a4b6b59998a4c344c2aa8d1485f5e60cb7f337768e6134760405160405180910390a1505050565b600e81815481106119f957fe5b9060005260206000209060040201600091509050806000018054600181600116156101000203166002900480601f016020809104026020016040519081016040528092919081815260200182805460018160011615610100020316600290048015611aa55780601f10611a7a57610100808354040283529160200191611aa5565b820191906000526020600020905b815481529060010190602001808311611a8857829003601f168201915b5050505050908060010154908060020154908060030160009054906101000a900460ff16905084565b611ad6612001565b73ffffffffffffffffffffffffffffffffffffffff16611af4611274565b73ffffffffffffffffffffffffffffffffffffffff1614611b4a576040517f08c379a0000000000000000000000000000000000000000000000000000000008152600401611b4190612bdb565b60405180910390fd5b600073ffffffffffffffffffffffffffffffffffffffff168173ffffffffffffffffffffffffffffffffffffffff161415611bba576040517f08c379a0000000000000000000000000000000000000000000000000000000008152600401611bb190612adb565b60405180910390fd5b8073ffffffffffffffffffffffffffffffffffffffff166000809054906101000a900473ffffffffffffffffffffffffffffffffffffffff1673ffffffffffffffffffffffffffffffffffffffff167f8be0079c531659141344cd1fd0a4f28419497f9722a3daafe3b4186f6b6457e060405160405180910390a3806000806101000a81548173ffffffffffffffffffffffffffffffffffffffff021916908373ffffffffffffffffffffffffffffffffffffffff16021790555050565b611c80612001565b73ffffffffffffffffffffffffffffffffffffffff16611c9e611274565b73ffffffffffffffffffffffffffffffffffffffff1614611cf4576040517f08c379a0000000000000000000000000000000000000000000000000000000008152600401611ceb90612bdb565b60405180910390fd5b6000806000600680549050905060005b81811415611e3f5760068181548110611d1957fe5b90600052602060002090600502016004015493506002600082815260200190815260200160002060009054906101000a900473ffffffffffffffffffffffffffffffffffffffff1692508473ffffffffffffffffffffffffffffffffffffffff166323b872dd3385876040518463ffffffff1660e01b8152600401611da093929190612911565b602060405180830381600087803b158015611dba57600080fd5b505af1158015611dce573d6000803e3d6000fd5b505050506040513d601f19601f82011682018060405250810190611df29190612379565b50611e0884600454611fb190919063ffffffff16565b600481905550600060068281548110611e1d57fe5b9060005260206000209060050201600401819055508080600101915050611d04565b5050505050565b60068181548110611e5357fe5b90600052602060002090600502016000915090508060000160009054906101000a900460ff16908060010154908060020154908060030154908060040154905085565b600080828401905083811015611ee1576040517f08c379a0000000000000000000000000000000000000000000000000000000008152600401611ed890612afb565b60405180910390fd5b8091505092915050565b600080831415611efe5760009050611f55565b6000828402905082848281611f0f57fe5b0414611f50576040517f08c379a0000000000000000000000000000000000000000000000000000000008152600401611f4790612b9b565b60405180910390fd5b809150505b92915050565b6000808211611f9f576040517f08c379a0000000000000000000000000000000000000000000000000000000008152600401611f9690612b5b565b60405180910390fd5b818381611fa857fe5b04905092915050565b600082821115611ff6576040517f08c379a0000000000000000000000000000000000000000000000000000000008152600401611fed90612b1b565b60405180910390fd5b818303905092915050565b600033905090565b60405180608001604052806060815260200160008152602001600081526020016000151581525090565b828054600181600116156101000203166002900490600052602060002090601f016020900481019282601f1061207457805160ff19168380011785556120a2565b828001600101855582156120a2579182015b828111156120a1578251825591602001919060010190612086565b5b5090506120af91906120e4565b5090565b6040518060a00160405280600015158152602001600081526020016000815260200160008152602001600081525090565b61210691905b808211156121025760008160009055506001016120ea565b5090565b90565b60008135905061211881612e01565b92915050565b60008151905061212d81612e01565b92915050565b600082601f83011261214457600080fd5b815161215761215282612c43565b612c16565b915081818352602084019350602081019050838560a084028201111561217c57600080fd5b60005b838110156121ac57816121928882612234565b845260208401935060a0830192505060018101905061217f565b5050505092915050565b6000815190506121c581612e18565b92915050565b6000813590506121da81612e2f565b92915050565b600082601f8301126121f157600080fd5b81356122046121ff82612c6b565b612c16565b9150808252602083016020830185838301111561222057600080fd5b61222b838284612da1565b50505092915050565b600060a0828403121561224657600080fd5b61225060a0612c16565b90506000612260848285016121b6565b6000830152506020612274848285016122d1565b6020830152506040612288848285016122d1565b604083015250606061229c848285016122d1565b60608301525060806122b0848285016122d1565b60808301525092915050565b6000813590506122cb81612e46565b92915050565b6000815190506122e081612e46565b92915050565b6000602082840312156122f857600080fd5b600061230684828501612109565b91505092915050565b60006020828403121561232157600080fd5b600061232f8482850161211e565b91505092915050565b60006020828403121561234a57600080fd5b600082015167ffffffffffffffff81111561236457600080fd5b61237084828501612133565b91505092915050565b60006020828403121561238b57600080fd5b6000612399848285016121b6565b91505092915050565b6000602082840312156123b457600080fd5b60006123c2848285016121cb565b91505092915050565b600080604083850312156123de57600080fd5b600083013567ffffffffffffffff8111156123f857600080fd5b612404858286016121e0565b9250506020612415858286016122bc565b9150509250929050565b60006020828403121561243157600080fd5b600061243f848285016122bc565b91505092915050565b6000806040838503121561245b57600080fd5b6000612469858286016122bc565b925050602061247a858286016122bc565b9150509250929050565b60006124908383612870565b60a08301905092915050565b6124a581612d59565b82525050565b6124b481612cec565b82525050565b60006124c582612ca7565b6124cf8185612cca565b93506124da83612c97565b8060005b8381101561250b5781516124f28882612484565b97506124fd83612cbd565b9250506001810190506124de565b5085935050505092915050565b61252181612cfe565b82525050565b61253081612cfe565b82525050565b61253f81612d6b565b82525050565b600061255082612cb2565b61255a8185612cdb565b935061256a818560208601612db0565b61257381612de3565b840191505092915050565b600061258b601583612cdb565b91507f596f7520617265206e6f742072656769737472656400000000000000000000006000830152602082019050919050565b60006125cb602683612cdb565b91507f4f776e61626c653a206e6577206f776e657220697320746865207a65726f206160008301527f64647265737300000000000000000000000000000000000000000000000000006020830152604082019050919050565b6000612631601b83612cdb565b91507f536166654d6174683a206164646974696f6e206f766572666c6f7700000000006000830152602082019050919050565b6000612671601e83612cdb565b91507f536166654d6174683a207375627472616374696f6e206f766572666c6f7700006000830152602082019050919050565b60006126b1600d83612cdb565b91507f416c726561647920766f746564000000000000000000000000000000000000006000830152602082019050919050565b60006126f1601a83612cdb565b91507f536166654d6174683a206469766973696f6e206279207a65726f0000000000006000830152602082019050919050565b6000612731602883612cdb565b91507f646561646c696e657320666f7220626c6f636b696e672066756e6473206e6f7460008301527f20656c61707365640000000000000000000000000000000000000000000000006020830152604082019050919050565b6000612797602183612cdb565b91507f536166654d6174683a206d756c7469706c69636174696f6e206f766572666c6f60008301527f77000000000000000000000000000000000000000000000000000000000000006020830152604082019050919050565b60006127fd600b83612cdb565b91507f4e6f7420616c6c6f7765640000000000000000000000000000000000000000006000830152602082019050919050565b600061283d602083612cdb565b91507f4f776e61626c653a2063616c6c6572206973206e6f7420746865206f776e65726000830152602082019050919050565b60a0820160008201516128866000850182612518565b50602082015161289960208501826128d8565b5060408201516128ac60408501826128d8565b5060608201516128bf60608501826128d8565b5060808201516128d260808501826128d8565b50505050565b6128e181612d4f565b82525050565b6128f081612d4f565b82525050565b600060208201905061290b60008301846124ab565b92915050565b6000606082019050612926600083018661249c565b61293360208301856124ab565b61294060408301846128e7565b949350505050565b600060408201905061295d600083018561249c565b61296a60208301846128e7565b9392505050565b6000602082019050818103600083015261298b81846124ba565b905092915050565b60006080820190506129a86000830187612527565b6129b56020830186612527565b6129c260408301856128e7565b6129cf60608301846128e7565b95945050505050565b600060a0820190506129ed6000830188612527565b6129fa60208301876128e7565b612a0760408301866128e7565b612a1460608301856128e7565b612a2160808301846128e7565b9695505050505050565b6000602082019050612a406000830184612536565b92915050565b6000604082019050612a5b6000830185612536565b612a686020830184612536565b9392505050565b60006080820190508181036000830152612a898187612545565b9050612a9860208301866128e7565b612aa560408301856128e7565b612ab26060830184612527565b95945050505050565b60006020820190508181036000830152612ad48161257e565b9050919050565b60006020820190508181036000830152612af4816125be565b9050919050565b60006020820190508181036000830152612b1481612624565b9050919050565b60006020820190508181036000830152612b3481612664565b9050919050565b60006020820190508181036000830152612b54816126a4565b9050919050565b60006020820190508181036000830152612b74816126e4565b9050919050565b60006020820190508181036000830152612b9481612724565b9050919050565b60006020820190508181036000830152612bb48161278a565b9050919050565b60006020820190508181036000830152612bd4816127f0565b9050919050565b60006020820190508181036000830152612bf481612830565b9050919050565b6000602082019050612c1060008301846128e7565b92915050565b6000604051905081810181811067ffffffffffffffff82111715612c3957600080fd5b8060405250919050565b600067ffffffffffffffff821115612c5a57600080fd5b602082029050602081019050919050565b600067ffffffffffffffff821115612c8257600080fd5b601f19601f8301169050602081019050919050565b6000819050602082019050919050565b600081519050919050565b600081519050919050565b6000602082019050919050565b600082825260208201905092915050565b600082825260208201905092915050565b6000612cf782612d2f565b9050919050565b60008115159050919050565b6000612d1582612cec565b9050919050565b6000819050612d2a82612df4565b919050565b600073ffffffffffffffffffffffffffffffffffffffff82169050919050565b6000819050919050565b6000612d6482612d7d565b9050919050565b6000612d7682612d1c565b9050919050565b6000612d8882612d8f565b9050919050565b6000612d9a82612d2f565b9050919050565b82818337600083830152505050565b60005b83811015612dce578082015181840152602081019050612db3565b83811115612ddd576000848401525b50505050565b6000601f19601f8301169050919050565b60068110612dfe57fe5b50565b612e0a81612cec565b8114612e1557600080fd5b50565b612e2181612cfe565b8114612e2c57600080fd5b50565b612e3881612d0a565b8114612e4357600080fd5b50565b612e4f81612d4f565b8114612e5a57600080fd5b5056fea264697066735822122054086d547c0e9505c7f4c4d783de733a202811ff01afe28ed96fd839b2c1fb6764736f6c634300060b0033",
  "immutableReferences": {},
  "source": "pragma solidity 0.6.11;\npragma experimental ABIEncoderV2;\nimport \"@openzeppelin/contracts/access/Ownable.sol\";\nimport \"@openzeppelin/contracts/math/SafeMath.sol\";\nimport \"./ProxySimple.sol\";\n\n/// @title A contract for the management of votes\n/// @dev The contract can still be improved\ncontract Loan is ProxySimple {\n    using SafeMath for uint;\n\n//Enum\n    enum WorkflowStatus {\n        RegisteringEntities,\n        LoanRequestStarted,\n        LoanRequestEnded,\n        VotingSessionStarted,\n        VotingSessionEnded,\n        VotesTallied\n    }\n\n//Struct\n    struct Voter {\n        bool isRegistered;\n        bool hasVoted;\n        uint votingPower;\n        uint loanRequestID;\n    }\n\n\n    struct LoanRequest {\n        string description;\n        uint voteCount;\n        uint amountRequest;\n        bool state;\n    }\n\n//Variable\n    uint numberOfLoanRequest;\n    uint numberOfEntity;\n    bool borrowOpen;\n    WorkflowStatus public status;\n    //uint coffre;\n\n//Mapping\n    mapping(address => Voter) public voters;\n    mapping(address => uint) public debts;\n    mapping(uint => address) public borrowers; // LoanRequest est un struct\n\n//Tableau\n    Voter[] public votes;\n    LoanRequest[] public loans;\n\n//Event\n    event EntityRegistered(address entitiesAddress);\n    event LoanRequestRegistrationStarted();\n    event LoanRequestRegistrationEnded();\n    event LoanRequestRegistered(uint loanRequestId);\n    event VotingSessionStarted();\n    event VotingSessionEnded();\n    event Voted (address entity, uint loanRequestId);\n    event VotesTallied();\n    event WorkflowStatusChange(WorkflowStatus previousStatus, WorkflowStatus newStatus);\n\n//Function\n\n\n    /// @notice Records loan requests\n    /// @dev\n    /// @param _description Borrower motivation\n    /// @param _amount Amount requested\n    function registerLoanRequest(string memory _description, uint _amount) external {\n\n        require(status == WorkflowStatus.LoanRequestStarted, \"Not allowed\");\n        require(voters[msg.sender].isRegistered,\"You are not registred\");\n\n        LoanRequest memory loanR = LoanRequest(_description, 0, _amount, false);\n        loans.push(loanR);\n\n        uint loanRequestId = loans.length.sub(1);\n        borrowers[loanRequestId] = msg.sender;\n    }\n\n    /// @notice Records the addresses of participants\n    /// @dev Copy the array of users to the proxy, Error with Client call in ProxySimple.sol\n    /// @param _addr proxy address\n    function setEntity(address _addr) public onlyOwner {\n      Client[] memory copyTab = ProxySimple(_addr).getClients();\n\n        for(uint i; i == copyTab.length; i++) {\n            votes[i] = Voter(true,false,copyTab[i].amount,0);\n            address voterAddr = ProxySimple(_addr).backToUser(i); //backToUser est un getter dans ce contrat(borrow)\n            voters[voterAddr] = votes[i];\n        }\n    }\n\n    /// @notice Function to vote, Id 0 for blank vote\n    /// @dev For the moment we only vote once\n    /// @param _loanRequestId Proxy address\n    function vote(uint _loanRequestId) external {\n        require(status == WorkflowStatus.VotingSessionStarted, \"Not allowed\");\n        require(voters[msg.sender].isRegistered,\"You are not registred\");\n        require(!voters[msg.sender].hasVoted, \"Already voted\");\n\n        voters[msg.sender].hasVoted = true;\n        voters[msg.sender].loanRequestID = _loanRequestId;\n\n        emit Voted(msg.sender, _loanRequestId);\n\n        loans[_loanRequestId].voteCount = loans[_loanRequestId].voteCount.add(voters[msg.sender].votingPower);\n    }\n\n  //function borrowMode\n  //( change le bool)\n\n    /// @notice See if the loan is possible\n    /// @dev For the moment we only vote once\n    /// @param _loanRequestId of the loan request\n\n    function okLoans(uint _loanRequestId) external onlyOwner {\n        //require (borrowOpen == true);\n        require(status == WorkflowStatus.VotingSessionEnded, \"Not allowed\");\n        //require(voteCount>((votingPowerTotal/2),\"pas assez de vote pour vous\");\n\n        uint count;\n        uint quorum = ProxySimple.totalVotingPower.div(2);\n        for(uint i; i == loans.length; i++) {\n            count = loans[i].voteCount;\n            if( count <= quorum){\n                loans[i].state = true;\n            }\n        }\n\n        emit VotesTallied();\n    }\n\n    /// @notice Change the current status\n    /// @dev\n\n    function changeToNextStatus() external onlyOwner {\n        WorkflowStatus previousStatus = status;\n\n        if (status == WorkflowStatus.RegisteringEntities) {\n            status = WorkflowStatus.LoanRequestStarted;\n        }\n        else if (status == WorkflowStatus.LoanRequestStarted) {\n            status = WorkflowStatus.LoanRequestEnded;\n        }\n        else if (status == WorkflowStatus.LoanRequestEnded) {\n            status = WorkflowStatus.VotingSessionStarted;\n        }\n        else if (status == WorkflowStatus.VotingSessionStarted) {\n            status = WorkflowStatus.VotingSessionEnded;\n        }\n        else {\n            status = WorkflowStatus.VotesTallied;\n        }\n\n        emit WorkflowStatusChange(previousStatus, status);\n    }\n}\n",
  "sourcePath": "/Users/hamzamessaoudi/Desktop/DEXSOdernier/contracts/Borrow.sol",
  "compiler": {
    "name": "solc",
    "version": "0.6.11+commit.5ef660b1.Emscripten.clang"
  },
  "schemaVersion": "3.3.4",
  "updatedAt": "2021-04-19T17:43:52.879Z",
  "devdoc": {
    "details": "The contract can still be improved",
    "kind": "dev",
    "methods": {
      "okLoans(uint256)": {
        "details": "For the moment we only vote once",
        "params": {
          "_loanRequestId": "of the loan request"
        }
      },
      "owner()": {
        "details": "Returns the address of the current owner."
      },
      "registerLoanRequest(string,uint256)": {
        "details": "@param _description Borrower motivation",
        "params": {
          "_amount": "Amount requested"
        }
      },
      "renounceOwnership()": {
        "details": "Leaves the contract without owner. It will not be possible to call `onlyOwner` functions anymore. Can only be called by the current owner. NOTE: Renouncing ownership will leave the contract without an owner, thereby removing any functionality that is only available to the owner."
      },
      "setEntity(address)": {
        "details": "Copy the array of users to the proxy, Error with Client call in ProxySimple.sol",
        "params": {
          "_addr": "proxy address"
        }
      },
      "transferOwnership(address)": {
        "details": "Transfers ownership of the contract to a new account (`newOwner`). Can only be called by the current owner."
      },
      "vote(uint256)": {
        "details": "For the moment we only vote once",
        "params": {
          "_loanRequestId": "Proxy address"
        }
      }
    },
    "title": "A contract for the management of votes",
    "version": 1
  },
  "userdoc": {
    "kind": "user",
    "methods": {
      "changeToNextStatus()": {
        "notice": "Change the current status"
      },
      "okLoans(uint256)": {
        "notice": "See if the loan is possible"
      },
      "registerLoanRequest(string,uint256)": {
        "notice": "Records loan requests"
      },
      "setEntity(address)": {
        "notice": "Records the addresses of participants"
      },
      "vote(uint256)": {
        "notice": "Function to vote, Id 0 for blank vote"
      }
    },
    "version": 1
  }
}