{
  "contractName": "ProxySimple",
  "abi": [
    {
      "anonymous": false,
      "inputs": [
        {
          "indexed": true,
          "internalType": "address",
          "name": "previousOwner",
          "type": "address"
        },
        {
          "indexed": true,
          "internalType": "address",
          "name": "newOwner",
          "type": "address"
        }
      ],
      "name": "OwnershipTransferred",
      "type": "event"
    },
    {
      "anonymous": false,
      "inputs": [
        {
          "indexed": false,
          "internalType": "address",
          "name": "client",
          "type": "address"
        },
        {
          "indexed": false,
          "internalType": "uint256",
          "name": "amount",
          "type": "uint256"
        }
      ],
      "name": "authorizedWithdrawal",
      "type": "event"
    },
    {
      "anonymous": false,
      "inputs": [
        {
          "indexed": false,
          "internalType": "address",
          "name": "client",
          "type": "address"
        },
        {
          "indexed": false,
          "internalType": "uint256",
          "name": "amount",
          "type": "uint256"
        }
      ],
      "name": "valideDepot",
      "type": "event"
    },
    {
      "inputs": [
        {
          "internalType": "address",
          "name": "",
          "type": "address"
        }
      ],
      "name": "User",
      "outputs": [
        {
          "internalType": "bool",
          "name": "lister",
          "type": "bool"
        },
        {
          "internalType": "uint256",
          "name": "totalDeposit",
          "type": "uint256"
        },
        {
          "internalType": "uint256",
          "name": "withdrawalPending",
          "type": "uint256"
        }
      ],
      "stateMutability": "view",
      "type": "function",
      "constant": true
    },
    {
      "inputs": [
        {
          "internalType": "uint256",
          "name": "",
          "type": "uint256"
        }
      ],
      "name": "backToUser",
      "outputs": [
        {
          "internalType": "address",
          "name": "",
          "type": "address"
        }
      ],
      "stateMutability": "view",
      "type": "function",
      "constant": true
    },
    {
      "inputs": [
        {
          "internalType": "uint256",
          "name": "",
          "type": "uint256"
        }
      ],
      "name": "clients",
      "outputs": [
        {
          "internalType": "bool",
          "name": "lister",
          "type": "bool"
        },
        {
          "internalType": "uint256",
          "name": "totalDeposit",
          "type": "uint256"
        },
        {
          "internalType": "uint256",
          "name": "withdrawalPending",
          "type": "uint256"
        }
      ],
      "stateMutability": "view",
      "type": "function",
      "constant": true
    },
    {
      "inputs": [],
      "name": "owner",
      "outputs": [
        {
          "internalType": "address",
          "name": "",
          "type": "address"
        }
      ],
      "stateMutability": "view",
      "type": "function",
      "constant": true
    },
    {
      "inputs": [],
      "name": "renounceOwnership",
      "outputs": [],
      "stateMutability": "nonpayable",
      "type": "function"
    },
    {
      "inputs": [
        {
          "internalType": "address",
          "name": "newOwner",
          "type": "address"
        }
      ],
      "name": "transferOwnership",
      "outputs": [],
      "stateMutability": "nonpayable",
      "type": "function"
    },
    {
      "inputs": [
        {
          "internalType": "uint256",
          "name": "amount",
          "type": "uint256"
        }
      ],
      "name": "deposite",
      "outputs": [],
      "stateMutability": "payable",
      "type": "function",
      "payable": true
    },
    {
      "inputs": [
        {
          "internalType": "uint256",
          "name": "withdrawalAmount",
          "type": "uint256"
        }
      ],
      "name": "withdrawPending",
      "outputs": [],
      "stateMutability": "payable",
      "type": "function",
      "payable": true
    },
    {
      "inputs": [],
      "name": "getClients",
      "outputs": [
        {
          "components": [
            {
              "internalType": "bool",
              "name": "lister",
              "type": "bool"
            },
            {
              "internalType": "uint256[]",
              "name": "amounts",
              "type": "uint256[]"
            },
            {
              "internalType": "uint256[]",
              "name": "depositData",
              "type": "uint256[]"
            },
            {
              "internalType": "uint256",
              "name": "totalDeposit",
              "type": "uint256"
            },
            {
              "internalType": "uint256",
              "name": "withdrawalPending",
              "type": "uint256"
            }
          ],
          "internalType": "struct ProxySimple.Client[]",
          "name": "",
          "type": "tuple[]"
        }
      ],
      "stateMutability": "view",
      "type": "function",
      "constant": true
    },
    {
      "inputs": [
        {
          "internalType": "contract IERC20",
          "name": "_address",
          "type": "address"
        }
      ],
      "name": "Withdraw",
      "outputs": [],
      "stateMutability": "payable",
      "type": "function",
      "payable": true
    }
  ],
  "bytecode": "0x608060405260056003556283d60060045534801561001c57600080fd5b50600061002d6100d060201b60201c565b9050806000806101000a81548173ffffffffffffffffffffffffffffffffffffffff021916908373ffffffffffffffffffffffffffffffffffffffff1602179055508073ffffffffffffffffffffffffffffffffffffffff16600073ffffffffffffffffffffffffffffffffffffffff167f8be0079c531659141344cd1fd0a4f28419497f9722a3daafe3b4186f6b6457e060405160405180910390a3506100d8565b600033905090565b611ca8806100e76000396000f3fe6080604052600436106100915760003560e01c806388e7fb3f1161005957806388e7fb3f1461014f5780638da5cb5b1461018c578063f2fde38b146101b7578063f6761151146101e0578063f88af21d146101fc57610091565b8063230eb9c6146100965780632e585fd8146100d55780633104562b146100f15780636db809951461010d578063715018a614610138575b600080fd5b3480156100a257600080fd5b506100bd60048036038101906100b891906114c9565b61023b565b6040516100cc939291906119ec565b60405180910390f35b6100ef60048036038101906100ea9190611544565b610272565b005b61010b60048036038101906101069190611544565b610658565b005b34801561011957600080fd5b50610122610aa1565b60405161012f91906119ca565b60405180910390f35b34801561014457600080fd5b5061014d610bdf565b005b34801561015b57600080fd5b5061017660048036038101906101719190611544565b610d1a565b604051610183919061194f565b60405180910390f35b34801561019857600080fd5b506101a1610d4d565b6040516101ae919061194f565b60405180910390f35b3480156101c357600080fd5b506101de60048036038101906101d991906114c9565b610d76565b005b6101fa60048036038101906101f5919061151b565b610f20565b005b34801561020857600080fd5b50610223600480360381019061021e9190611544565b6110ee565b604051610232939291906119ec565b60405180910390f35b60016020528060005260406000206000915090508060000160009054906101000a900460ff16908060030154908060040154905083565b6000806000600160003373ffffffffffffffffffffffffffffffffffffffff1673ffffffffffffffffffffffffffffffffffffffff16815260200190815260200160002060020180549050905060005b8181141561040557610336600454600160003373ffffffffffffffffffffffffffffffffffffffff1673ffffffffffffffffffffffffffffffffffffffff168152602001908152602001600020600201838154811061031d57fe5b906000526020600020015461113290919063ffffffff16565b935042841015610348578092506103f8565b426103b6600454600160003373ffffffffffffffffffffffffffffffffffffffff1673ffffffffffffffffffffffffffffffffffffffff16815260200190815260200160002060020160008154811061039d57fe5b906000526020600020015461113290919063ffffffff16565b11156103f7576040517f08c379a00000000000000000000000000000000000000000000000000000000081526004016103ee90611ae3565b60405180910390fd5b5b80806001019150506102c2565b506000805b838114156105d4576000600160003373ffffffffffffffffffffffffffffffffffffffff1673ffffffffffffffffffffffffffffffffffffffff168152602001908152602001600020600201828154811061046157fe5b906000526020600020015442039050600061053f60646105316064610523600160003373ffffffffffffffffffffffffffffffffffffffff1673ffffffffffffffffffffffffffffffffffffffff16815260200190815260200160002060010188815481106104cc57fe5b90600052602060002001546105156003546105076312cc03006104f960648d61118790919063ffffffff16565b6111f790919063ffffffff16565b61118790919063ffffffff16565b61118790919063ffffffff16565b61118790919063ffffffff16565b6111f790919063ffffffff16565b905060006105ad82600160003373ffffffffffffffffffffffffffffffffffffffff1673ffffffffffffffffffffffffffffffffffffffff168152602001908152602001600020600101868154811061059457fe5b906000526020600020015461113290919063ffffffff16565b90506105c2818661113290919063ffffffff16565b9450505050808060010191505061040a565b50808511156105e257600080fd5b6105f78560055461113290919063ffffffff16565b6005819055507f289473d20f7dbb55ce607f3e02b0de290bceb88a7728f441f04f7179c12da516338660405161062e9291906119a1565b60405180910390a161064b8560065461124d90919063ffffffff16565b6006819055505050505050565b60011515600160003373ffffffffffffffffffffffffffffffffffffffff1673ffffffffffffffffffffffffffffffffffffffff16815260200190815260200160002060000160009054906101000a900460ff16151514156107ac57600160003373ffffffffffffffffffffffffffffffffffffffff1673ffffffffffffffffffffffffffffffffffffffff1681526020019081526020016000206001018190806001815401808255809150506001900390600052602060002001600090919091909150556000429050600160003373ffffffffffffffffffffffffffffffffffffffff1673ffffffffffffffffffffffffffffffffffffffff1681526020019081526020016000206002018190806001815401808255809150506001900390600052602060002001600090919091909150556107a08260065461113290919063ffffffff16565b60068190555050610a9e565b60004290506107b9611380565b60608084816000815181106107ca57fe5b60200260200101818152505083826000815181106107e457fe5b6020026020010181815250506040518060a001604052806001151581526020018281526020018381526020016000815260200160008152509250600783908060018154018082558091505060019003906000526020600020906005020160009091909190915060008201518160000160006101000a81548160ff02191690831515021790555060208201518160010190805190602001906108869291906113b1565b5060408201518160020190805190602001906108a39291906113b1565b506060820151816003015560808201518160040155505060006108d5600160078054905061124d90919063ffffffff16565b9050600781815481106108e457fe5b9060005260206000209060050201600160003373ffffffffffffffffffffffffffffffffffffffff1673ffffffffffffffffffffffffffffffffffffffff1681526020019081526020016000206000820160009054906101000a900460ff168160000160006101000a81548160ff02191690831515021790555060018201816001019080546109749291906113fe565b50600282018160020190805461098b9291906113fe565b506003820154816003015560048201548160040155905050336002600083815260200190815260200160002060006101000a81548173ffffffffffffffffffffffffffffffffffffffff021916908373ffffffffffffffffffffffffffffffffffffffff1602179055506109fe3361129d565b600160003373ffffffffffffffffffffffffffffffffffffffff1673ffffffffffffffffffffffffffffffffffffffff168152602001908152602001600020600301819055507f6839821ee8329994ce64b70bede16246719daa5bc775fc4e65e5bc1e71ccb79a3387604051610a759291906119a1565b60405180910390a1610a928660065461113290919063ffffffff16565b60068190555050505050505b50565b60606007805480602002602001604051908101604052809291908181526020016000905b82821015610bd657838290600052602060002090600502016040518060a00160405290816000820160009054906101000a900460ff1615151515815260200160018201805480602002602001604051908101604052809291908181526020018280548015610b5257602002820191906000526020600020905b815481526020019060010190808311610b3e575b5050505050815260200160028201805480602002602001604051908101604052809291908181526020018280548015610baa57602002820191906000526020600020905b815481526020019060010190808311610b96575b505050505081526020016003820154815260200160048201548152505081526020019060010190610ac5565b50505050905090565b610be7611378565b73ffffffffffffffffffffffffffffffffffffffff16610c05610d4d565b73ffffffffffffffffffffffffffffffffffffffff1614610c5b576040517f08c379a0000000000000000000000000000000000000000000000000000000008152600401610c5290611ac3565b60405180910390fd5b600073ffffffffffffffffffffffffffffffffffffffff166000809054906101000a900473ffffffffffffffffffffffffffffffffffffffff1673ffffffffffffffffffffffffffffffffffffffff167f8be0079c531659141344cd1fd0a4f28419497f9722a3daafe3b4186f6b6457e060405160405180910390a360008060006101000a81548173ffffffffffffffffffffffffffffffffffffffff021916908373ffffffffffffffffffffffffffffffffffffffff160217905550565b60026020528060005260406000206000915054906101000a900473ffffffffffffffffffffffffffffffffffffffff1681565b60008060009054906101000a900473ffffffffffffffffffffffffffffffffffffffff16905090565b610d7e611378565b73ffffffffffffffffffffffffffffffffffffffff16610d9c610d4d565b73ffffffffffffffffffffffffffffffffffffffff1614610df2576040517f08c379a0000000000000000000000000000000000000000000000000000000008152600401610de990611ac3565b60405180910390fd5b600073ffffffffffffffffffffffffffffffffffffffff168173ffffffffffffffffffffffffffffffffffffffff161415610e62576040517f08c379a0000000000000000000000000000000000000000000000000000000008152600401610e5990611a23565b60405180910390fd5b8073ffffffffffffffffffffffffffffffffffffffff166000809054906101000a900473ffffffffffffffffffffffffffffffffffffffff1673ffffffffffffffffffffffffffffffffffffffff167f8be0079c531659141344cd1fd0a4f28419497f9722a3daafe3b4186f6b6457e060405160405180910390a3806000806101000a81548173ffffffffffffffffffffffffffffffffffffffff021916908373ffffffffffffffffffffffffffffffffffffffff16021790555050565b610f28611378565b73ffffffffffffffffffffffffffffffffffffffff16610f46610d4d565b73ffffffffffffffffffffffffffffffffffffffff1614610f9c576040517f08c379a0000000000000000000000000000000000000000000000000000000008152600401610f9390611ac3565b60405180910390fd5b6000806000600780549050905060005b818114156110e75760078181548110610fc157fe5b90600052602060002090600502016004015493506002600082815260200190815260200160002060009054906101000a900473ffffffffffffffffffffffffffffffffffffffff1692508473ffffffffffffffffffffffffffffffffffffffff166323b872dd3385876040518463ffffffff1660e01b81526004016110489392919061196a565b602060405180830381600087803b15801561106257600080fd5b505af1158015611076573d6000803e3d6000fd5b505050506040513d601f19601f8201168201806040525081019061109a91906114f2565b506110b08460055461124d90919063ffffffff16565b6005819055506000600782815481106110c557fe5b9060005260206000209060050201600401819055508080600101915050610fac565b5050505050565b600781815481106110fb57fe5b90600052602060002090600502016000915090508060000160009054906101000a900460ff16908060030154908060040154905083565b60008082840190508381101561117d576040517f08c379a000000000000000000000000000000000000000000000000000000000815260040161117490611a43565b60405180910390fd5b8091505092915050565b60008083141561119a57600090506111f1565b60008284029050828482816111ab57fe5b04146111ec576040517f08c379a00000000000000000000000000000000000000000000000000000000081526004016111e390611aa3565b60405180910390fd5b809150505b92915050565b600080821161123b576040517f08c379a000000000000000000000000000000000000000000000000000000000815260040161123290611a83565b60405180910390fd5b81838161124457fe5b04905092915050565b600082821115611292576040517f08c379a000000000000000000000000000000000000000000000000000000000815260040161128990611a63565b60405180910390fd5b818303905092915050565b600080600160008473ffffffffffffffffffffffffffffffffffffffff1673ffffffffffffffffffffffffffffffffffffffff1681526020019081526020016000206001018054905090506000805b8281141561136d5761135e600160008773ffffffffffffffffffffffffffffffffffffffff1673ffffffffffffffffffffffffffffffffffffffff168152602001908152602001600020600101828154811061134457fe5b90600052602060002001548361113290919063ffffffff16565b915080806001019150506112ec565b508092505050919050565b600033905090565b6040518060a00160405280600015158152602001606081526020016060815260200160008152602001600081525090565b8280548282559060005260206000209081019282156113ed579160200282015b828111156113ec5782518255916020019190600101906113d1565b5b5090506113fa9190611450565b5090565b82805482825590600052602060002090810192821561143f5760005260206000209182015b8281111561143e578254825591600101919060010190611423565b5b50905061144c9190611450565b5090565b61147291905b8082111561146e576000816000905550600101611456565b5090565b90565b60008135905061148481611c16565b92915050565b60008151905061149981611c2d565b92915050565b6000813590506114ae81611c44565b92915050565b6000813590506114c381611c5b565b92915050565b6000602082840312156114db57600080fd5b60006114e984828501611475565b91505092915050565b60006020828403121561150457600080fd5b60006115128482850161148a565b91505092915050565b60006020828403121561152d57600080fd5b600061153b8482850161149f565b91505092915050565b60006020828403121561155657600080fd5b6000611564848285016114b4565b91505092915050565b600061157983836118b4565b905092915050565b600061158d8383611931565b60208301905092915050565b6115a281611be0565b82525050565b6115b181611b86565b82525050565b60006115c282611b23565b6115cc8185611b53565b9350836020820285016115de85611b03565b8060005b8581101561161a57848403895281516115fb858261156d565b945061160683611b39565b925060208a019950506001810190506115e2565b50829750879550505050505092915050565b600061163782611b2e565b6116418185611b64565b935061164c83611b13565b8060005b8381101561167d5781516116648882611581565b975061166f83611b46565b925050600181019050611650565b5085935050505092915050565b61169381611b98565b82525050565b6116a281611b98565b82525050565b60006116b5602683611b75565b91507f4f776e61626c653a206e6577206f776e657220697320746865207a65726f206160008301527f64647265737300000000000000000000000000000000000000000000000000006020830152604082019050919050565b600061171b601b83611b75565b91507f536166654d6174683a206164646974696f6e206f766572666c6f7700000000006000830152602082019050919050565b600061175b601e83611b75565b91507f536166654d6174683a207375627472616374696f6e206f766572666c6f7700006000830152602082019050919050565b600061179b601a83611b75565b91507f536166654d6174683a206469766973696f6e206279207a65726f0000000000006000830152602082019050919050565b60006117db602183611b75565b91507f536166654d6174683a206d756c7469706c69636174696f6e206f766572666c6f60008301527f77000000000000000000000000000000000000000000000000000000000000006020830152604082019050919050565b6000611841602083611b75565b91507f4f776e61626c653a2063616c6c6572206973206e6f7420746865206f776e65726000830152602082019050919050565b6000611881602083611b75565b91507f776974686472617720646561646c696e65206973206e6f7420726561636865646000830152602082019050919050565b600060a0830160008301516118cc600086018261168a565b50602083015184820360208601526118e4828261162c565b915050604083015184820360408601526118fe828261162c565b91505060608301516119136060860182611931565b5060808301516119266080860182611931565b508091505092915050565b61193a81611bd6565b82525050565b61194981611bd6565b82525050565b600060208201905061196460008301846115a8565b92915050565b600060608201905061197f6000830186611599565b61198c60208301856115a8565b6119996040830184611940565b949350505050565b60006040820190506119b66000830185611599565b6119c36020830184611940565b9392505050565b600060208201905081810360008301526119e481846115b7565b905092915050565b6000606082019050611a016000830186611699565b611a0e6020830185611940565b611a1b6040830184611940565b949350505050565b60006020820190508181036000830152611a3c816116a8565b9050919050565b60006020820190508181036000830152611a5c8161170e565b9050919050565b60006020820190508181036000830152611a7c8161174e565b9050919050565b60006020820190508181036000830152611a9c8161178e565b9050919050565b60006020820190508181036000830152611abc816117ce565b9050919050565b60006020820190508181036000830152611adc81611834565b9050919050565b60006020820190508181036000830152611afc81611874565b9050919050565b6000819050602082019050919050565b6000819050602082019050919050565b600081519050919050565b600081519050919050565b6000602082019050919050565b6000602082019050919050565b600082825260208201905092915050565b600082825260208201905092915050565b600082825260208201905092915050565b6000611b9182611bb6565b9050919050565b60008115159050919050565b6000611baf82611b86565b9050919050565b600073ffffffffffffffffffffffffffffffffffffffff82169050919050565b6000819050919050565b6000611beb82611bf2565b9050919050565b6000611bfd82611c04565b9050919050565b6000611c0f82611bb6565b9050919050565b611c1f81611b86565b8114611c2a57600080fd5b50565b611c3681611b98565b8114611c4157600080fd5b50565b611c4d81611ba4565b8114611c5857600080fd5b50565b611c6481611bd6565b8114611c6f57600080fd5b5056fea26469706673582212201d182db682e303ae1e2a046fafd5d795f2a4b5861cd5e34658a4cf0e88ec814964736f6c634300060b0033",
  "immutableReferences": {},
  "source": "// SPDX-License-Identifier: MIT\npragma solidity 0.6.11;\npragma experimental ABIEncoderV2;\n\nimport \"@openzeppelin/contracts/access/Ownable.sol\";\nimport \"@openzeppelin/contracts/math/SafeMath.sol\";\nimport \"@openzeppelin/contracts/utils/Address.sol\";\nimport \"@openzeppelin/contracts/utils/Context.sol\";\nimport \"@openzeppelin/contracts/token/ERC20/IERC20.sol\";\n\n\ncontract ProxySimple is Ownable{\nusing SafeMath for uint;\n\n// Structure Client\n\n    struct Client {\n        bool lister;\n        uint[] amounts;\n        uint[] depositData;\n        uint totalDeposit;\n        uint withdrawalPending;\n    }\n\n// Mapping\n\n    mapping (address => Client) public User;\n\n    // client\n    mapping (uint => address) public backToUser;\n\n// Variable\n\n    // Taux d'interet\n    uint apy = 5 ;\n    uint dayLock = 100 days;\n    // Somme Global disponible prt  payer\n    uint totalWithdrawalAmount;\n\n    uint totalVotingPower;\n\n// Tableaux Client\n\n    Client[] public clients;\n\n// Event\n\n     event valideDepot(address client, uint amount);\n     event authorizedWithdrawal(address client, uint amount);\n\n// Function dposer des fonds - parametre nombre de jours bloqu =>(nb_dayLock) et le amount\n\n    function deposite (uint amount)  public payable  {\n      if (User[msg.sender].lister == true) {\n      User[msg.sender].amounts.push(amount);\n      uint depositDate = uint(block.timestamp);\n      User[msg.sender].depositData.push(depositDate);\n      totalVotingPower= totalVotingPower.add(amount);\n      } else {\n    // Initialisation d'un variable  \"now\"\n    uint depositDate = uint(block.timestamp);\n\n    // Enregistrement(blockChain) dans le Tableau Client\n    Client memory _client;\n    uint[] memory depositData;\n    uint[] memory amounts;\n    amounts[0] = amount;\n    depositData[0] = depositDate;\n\n    // Variable _client = aux params(struct)\n    _client = Client(true, amounts, depositData,0,0);\n\n    // Push les elements dans le Client[] public clients;\n    clients.push(_client);\n    uint Id = clients.length.sub(1);\n    User[msg.sender]=clients[Id];\n    backToUser[Id] = msg.sender;\n    User[msg.sender].totalDeposit = getVotingPower(msg.sender);\n\n    // Validation de l'event\n    emit valideDepot(msg.sender, amount);\n\n    // Maj des amount de dpt\n    totalVotingPower= totalVotingPower.add(amount);\n    }\n  }\n    function getVotingPower(address owner) internal view returns(uint) {\n      uint length = User[owner].amounts.length;\n      uint amountTotal;\n      for (uint i; i == length; i++) {\n        amountTotal = amountTotal.add(User[owner].amounts[i]);\n      }\n      return amountTotal;\n    }\n// Function demande de retrait - parametre amount souhaitant retirer\n\n    function withdrawPending (uint withdrawalAmount) public payable {\n        uint minWithdrawalDate;\n        uint withdrawable;\n        uint length = User[msg.sender].depositData.length;\n        for(uint i; i == length ; i++) {\n          minWithdrawalDate = User[msg.sender].depositData[i].add(dayLock);\n          if (minWithdrawalDate < uint(block.timestamp)) {\n           withdrawable = i;\n          } else {\n            require(User[msg.sender].depositData[0].add(dayLock) <= uint(block.timestamp), \"withdraw deadline is not reached\");\n          }\n        }\n\n        uint withdrawableTotal;\n    // Calcule du amount des interets disponible + le amount de depot initial = amount Total Disponible  l'instant\n    for (uint i ; i == withdrawable ; i++) {\n        uint depositTime = uint(block.timestamp) - User[msg.sender].depositData[i];\n        uint interestAmount = ((depositTime.mul(100).div(315360000)).mul(apy).mul(User[msg.sender].amounts[i]).mul(100)).div(100);\n        uint amountTotal = User[msg.sender].amounts[i].add(interestAmount);\n        withdrawableTotal = withdrawableTotal.add(amountTotal);\n      }\n        require(withdrawalAmount <=  withdrawableTotal);\n\n    // Maj du amount Global Payement\n        totalWithdrawalAmount = totalWithdrawalAmount.add(withdrawalAmount);\n\n    // Validation de l'event\n        emit authorizedWithdrawal(msg.sender, withdrawalAmount);\n\n    // Maj des amount de dpt\n       totalVotingPower= totalVotingPower.sub(withdrawalAmount);\n  }\n\n  function getClients() external view returns(Client[] memory) {\n    return clients;\n  }\n\n// Function de Retrait\n\n    function Withdraw (IERC20 _address) public payable onlyOwner {\n\n    uint aPayer;\n    address userRefund;\n    uint length = clients.length;\n    // recherche de tous les clients ayant fait une demande de retrait\n    for(uint i; i == length ; i++) {\n      aPayer = clients[i].withdrawalPending;\n      userRefund = backToUser[i];\n\n      IERC20(_address).transferFrom(msg.sender, userRefund, aPayer);\n\n    //Maj du totalWithdrawalAmount\n    totalWithdrawalAmount = totalWithdrawalAmount.sub(aPayer);\n    clients[i].withdrawalPending = 0;\n    }\n  }\n}\n",
  "sourcePath": "/Users/hamzamessaoudi/Desktop/DEXSOdernier/contracts/ProxySimple.sol",
  "compiler": {
    "name": "solc",
    "version": "0.6.11+commit.5ef660b1.Emscripten.clang"
  },
  "schemaVersion": "3.3.4",
  "updatedAt": "2021-04-20T06:27:46.680Z",
  "networkType": "ethereum",
  "devdoc": {
    "kind": "dev",
    "methods": {
      "owner()": {
        "details": "Returns the address of the current owner."
      },
      "renounceOwnership()": {
        "details": "Leaves the contract without owner. It will not be possible to call `onlyOwner` functions anymore. Can only be called by the current owner. NOTE: Renouncing ownership will leave the contract without an owner, thereby removing any functionality that is only available to the owner."
      },
      "transferOwnership(address)": {
        "details": "Transfers ownership of the contract to a new account (`newOwner`). Can only be called by the current owner."
      }
    },
    "version": 1
  },
  "userdoc": {
    "kind": "user",
    "methods": {},
    "version": 1
  }
}