{
  "contractName": "ProxySimple",
  "abi": [
    {
      "anonymous": false,
      "inputs": [
        {
          "indexed": true,
          "internalType": "address",
          "name": "previousOwner",
          "type": "address"
        },
        {
          "indexed": true,
          "internalType": "address",
          "name": "newOwner",
          "type": "address"
        }
      ],
      "name": "OwnershipTransferred",
      "type": "event"
    },
    {
      "anonymous": false,
      "inputs": [
        {
          "indexed": false,
          "internalType": "address",
          "name": "client",
          "type": "address"
        },
        {
          "indexed": false,
          "internalType": "uint256",
          "name": "amount",
          "type": "uint256"
        }
      ],
      "name": "authorizedWithdrawal",
      "type": "event"
    },
    {
      "anonymous": false,
      "inputs": [
        {
          "indexed": false,
          "internalType": "address",
          "name": "client",
          "type": "address"
        },
        {
          "indexed": false,
          "internalType": "uint256",
          "name": "amount",
          "type": "uint256"
        }
      ],
      "name": "valideDepot",
      "type": "event"
    },
    {
      "inputs": [
        {
          "internalType": "address",
          "name": "",
          "type": "address"
        }
      ],
      "name": "User",
      "outputs": [
        {
          "internalType": "bool",
          "name": "lister",
          "type": "bool"
        },
        {
          "internalType": "uint256",
          "name": "dayLock",
          "type": "uint256"
        },
        {
          "internalType": "uint256",
          "name": "amount",
          "type": "uint256"
        },
        {
          "internalType": "uint256",
          "name": "depositData",
          "type": "uint256"
        },
        {
          "internalType": "uint256",
          "name": "withdrawalPending",
          "type": "uint256"
        }
      ],
      "stateMutability": "view",
      "type": "function"
    },
    {
      "inputs": [
        {
          "internalType": "uint256",
          "name": "",
          "type": "uint256"
        }
      ],
      "name": "backToUser",
      "outputs": [
        {
          "internalType": "address",
          "name": "",
          "type": "address"
        }
      ],
      "stateMutability": "view",
      "type": "function"
    },
    {
      "inputs": [
        {
          "internalType": "uint256",
          "name": "",
          "type": "uint256"
        }
      ],
      "name": "clients",
      "outputs": [
        {
          "internalType": "bool",
          "name": "lister",
          "type": "bool"
        },
        {
          "internalType": "uint256",
          "name": "dayLock",
          "type": "uint256"
        },
        {
          "internalType": "uint256",
          "name": "amount",
          "type": "uint256"
        },
        {
          "internalType": "uint256",
          "name": "depositData",
          "type": "uint256"
        },
        {
          "internalType": "uint256",
          "name": "withdrawalPending",
          "type": "uint256"
        }
      ],
      "stateMutability": "view",
      "type": "function"
    },
    {
      "inputs": [],
      "name": "owner",
      "outputs": [
        {
          "internalType": "address",
          "name": "",
          "type": "address"
        }
      ],
      "stateMutability": "view",
      "type": "function"
    },
    {
      "inputs": [],
      "name": "renounceOwnership",
      "outputs": [],
      "stateMutability": "nonpayable",
      "type": "function"
    },
    {
      "inputs": [
        {
          "internalType": "address",
          "name": "newOwner",
          "type": "address"
        }
      ],
      "name": "transferOwnership",
      "outputs": [],
      "stateMutability": "nonpayable",
      "type": "function"
    },
    {
      "inputs": [
        {
          "internalType": "uint256",
          "name": "nb_dayLock",
          "type": "uint256"
        },
        {
          "internalType": "uint256",
          "name": "amount",
          "type": "uint256"
        }
      ],
      "name": "deposite",
      "outputs": [],
      "stateMutability": "payable",
      "type": "function"
    },
    {
      "inputs": [
        {
          "internalType": "uint256",
          "name": "withdrawalAmount",
          "type": "uint256"
        }
      ],
      "name": "withdrawPending",
      "outputs": [],
      "stateMutability": "payable",
      "type": "function"
    },
    {
      "inputs": [],
      "name": "getClients",
      "outputs": [
        {
          "components": [
            {
              "internalType": "bool",
              "name": "lister",
              "type": "bool"
            },
            {
              "internalType": "uint256",
              "name": "dayLock",
              "type": "uint256"
            },
            {
              "internalType": "uint256",
              "name": "amount",
              "type": "uint256"
            },
            {
              "internalType": "uint256",
              "name": "depositData",
              "type": "uint256"
            },
            {
              "internalType": "uint256",
              "name": "withdrawalPending",
              "type": "uint256"
            }
          ],
          "internalType": "struct ProxySimple.Client[]",
          "name": "",
          "type": "tuple[]"
        }
      ],
      "stateMutability": "view",
      "type": "function"
    },
    {
      "inputs": [
        {
          "internalType": "contract IERC20",
          "name": "_address",
          "type": "address"
        }
      ],
      "name": "Withdraw",
      "outputs": [],
      "stateMutability": "payable",
      "type": "function"
    }
  ],
  "bytecode": "0x6080604052600560035534801561001557600080fd5b5060006100266100c960201b60201c565b9050806000806101000a81548173ffffffffffffffffffffffffffffffffffffffff021916908373ffffffffffffffffffffffffffffffffffffffff1602179055508073ffffffffffffffffffffffffffffffffffffffff16600073ffffffffffffffffffffffffffffffffffffffff167f8be0079c531659141344cd1fd0a4f28419497f9722a3daafe3b4186f6b6457e060405160405180910390a3506100d1565b600033905090565b61172e806100e06000396000f3fe6080604052600436106100915760003560e01c80638da5cb5b116100595780638da5cb5b14610172578063a2c2f1b01461019d578063f2fde38b146101b9578063f6761151146101e2578063f88af21d146101fe57610091565b8063230eb9c6146100965780632e585fd8146100d75780636db80995146100f3578063715018a61461011e57806388e7fb3f14610135575b600080fd5b3480156100a257600080fd5b506100bd60048036038101906100b89190610fa8565b61023f565b6040516100ce95949392919061148f565b60405180910390f35b6100f160048036038101906100ec9190611023565b610282565b005b3480156100ff57600080fd5b50610108610583565b604051610115919061146d565b60405180910390f35b34801561012a57600080fd5b50610133610625565b005b34801561014157600080fd5b5061015c60048036038101906101579190611023565b610760565b60405161016991906113f2565b60405180910390f35b34801561017e57600080fd5b50610187610793565b60405161019491906113f2565b60405180910390f35b6101b760048036038101906101b2919061104c565b6107bc565b005b3480156101c557600080fd5b506101e060048036038101906101db9190610fa8565b6109e8565b005b6101fc60048036038101906101f79190610ffa565b610b92565b005b34801561020a57600080fd5b5061022560048036038101906102209190611023565b610d60565b60405161023695949392919061148f565b60405180910390f35b60016020528060005260406000206000915090508060000160009054906101000a900460ff16908060010154908060020154908060030154908060040154905085565b600061031b600160003373ffffffffffffffffffffffffffffffffffffffff1673ffffffffffffffffffffffffffffffffffffffff16815260200190815260200160002060010154600160003373ffffffffffffffffffffffffffffffffffffffff1673ffffffffffffffffffffffffffffffffffffffff16815260200190815260200160002060030154610db090919063ffffffff16565b905042811115610360576040517f08c379a000000000000000000000000000000000000000000000000000000000815260040161035790611562565b60405180910390fd5b6000600160003373ffffffffffffffffffffffffffffffffffffffff1673ffffffffffffffffffffffffffffffffffffffff1681526020019081526020016000206003015442039050600061046360646104556064610447600160003373ffffffffffffffffffffffffffffffffffffffff1673ffffffffffffffffffffffffffffffffffffffff1681526020019081526020016000206002015461043960035461042b6312cc030061041d60648d610e0590919063ffffffff16565b610e7590919063ffffffff16565b610e0590919063ffffffff16565b610e0590919063ffffffff16565b610e0590919063ffffffff16565b610e7590919063ffffffff16565b905060006104bc82600160003373ffffffffffffffffffffffffffffffffffffffff1673ffffffffffffffffffffffffffffffffffffffff16815260200190815260200160002060020154610db090919063ffffffff16565b9050808511156104cb57600080fd5b6104e085600454610db090919063ffffffff16565b6004819055507f289473d20f7dbb55ce607f3e02b0de290bceb88a7728f441f04f7179c12da5163386604051610517929190611444565b60405180910390a1610576600160003373ffffffffffffffffffffffffffffffffffffffff1673ffffffffffffffffffffffffffffffffffffffff16815260200190815260200160002060020154600554610ecb90919063ffffffff16565b6005819055505050505050565b60606006805480602002602001604051908101604052809291908181526020016000905b8282101561061c57838290600052602060002090600502016040518060a00160405290816000820160009054906101000a900460ff16151515158152602001600182015481526020016002820154815260200160038201548152602001600482015481525050815260200190600101906105a7565b50505050905090565b61062d610f1b565b73ffffffffffffffffffffffffffffffffffffffff1661064b610793565b73ffffffffffffffffffffffffffffffffffffffff16146106a1576040517f08c379a0000000000000000000000000000000000000000000000000000000008152600401610698906115a2565b60405180910390fd5b600073ffffffffffffffffffffffffffffffffffffffff166000809054906101000a900473ffffffffffffffffffffffffffffffffffffffff1673ffffffffffffffffffffffffffffffffffffffff167f8be0079c531659141344cd1fd0a4f28419497f9722a3daafe3b4186f6b6457e060405160405180910390a360008060006101000a81548173ffffffffffffffffffffffffffffffffffffffff021916908373ffffffffffffffffffffffffffffffffffffffff160217905550565b60026020528060005260406000206000915054906101000a900473ffffffffffffffffffffffffffffffffffffffff1681565b60008060009054906101000a900473ffffffffffffffffffffffffffffffffffffffff16905090565b60004290506107c9610f23565b6040518060a0016040528060011515815260200185815260200184815260200183815260200160008152509050600681908060018154018082558091505060019003906000526020600020906005020160009091909190915060008201518160000160006101000a81548160ff02191690831515021790555060208201518160010155604082015181600201556060820151816003015560808201518160040155505060006108876001600680549050610ecb90919063ffffffff16565b90506006818154811061089657fe5b9060005260206000209060050201600160003373ffffffffffffffffffffffffffffffffffffffff1673ffffffffffffffffffffffffffffffffffffffff1681526020019081526020016000206000820160009054906101000a900460ff168160000160006101000a81548160ff02191690831515021790555060018201548160010155600282015481600201556003820154816003015560048201548160040155905050336002600083815260200190815260200160002060006101000a81548173ffffffffffffffffffffffffffffffffffffffff021916908373ffffffffffffffffffffffffffffffffffffffff1602179055507f6839821ee8329994ce64b70bede16246719daa5bc775fc4e65e5bc1e71ccb79a33856040516109be929190611444565b60405180910390a16109db84600554610db090919063ffffffff16565b6005819055505050505050565b6109f0610f1b565b73ffffffffffffffffffffffffffffffffffffffff16610a0e610793565b73ffffffffffffffffffffffffffffffffffffffff1614610a64576040517f08c379a0000000000000000000000000000000000000000000000000000000008152600401610a5b906115a2565b60405180910390fd5b600073ffffffffffffffffffffffffffffffffffffffff168173ffffffffffffffffffffffffffffffffffffffff161415610ad4576040517f08c379a0000000000000000000000000000000000000000000000000000000008152600401610acb906114e2565b60405180910390fd5b8073ffffffffffffffffffffffffffffffffffffffff166000809054906101000a900473ffffffffffffffffffffffffffffffffffffffff1673ffffffffffffffffffffffffffffffffffffffff167f8be0079c531659141344cd1fd0a4f28419497f9722a3daafe3b4186f6b6457e060405160405180910390a3806000806101000a81548173ffffffffffffffffffffffffffffffffffffffff021916908373ffffffffffffffffffffffffffffffffffffffff16021790555050565b610b9a610f1b565b73ffffffffffffffffffffffffffffffffffffffff16610bb8610793565b73ffffffffffffffffffffffffffffffffffffffff1614610c0e576040517f08c379a0000000000000000000000000000000000000000000000000000000008152600401610c05906115a2565b60405180910390fd5b6000806000600680549050905060005b81811415610d595760068181548110610c3357fe5b90600052602060002090600502016004015493506002600082815260200190815260200160002060009054906101000a900473ffffffffffffffffffffffffffffffffffffffff1692508473ffffffffffffffffffffffffffffffffffffffff166323b872dd3385876040518463ffffffff1660e01b8152600401610cba9392919061140d565b602060405180830381600087803b158015610cd457600080fd5b505af1158015610ce8573d6000803e3d6000fd5b505050506040513d601f19601f82011682018060405250810190610d0c9190610fd1565b50610d2284600454610ecb90919063ffffffff16565b600481905550600060068281548110610d3757fe5b9060005260206000209060050201600401819055508080600101915050610c1e565b5050505050565b60068181548110610d6d57fe5b90600052602060002090600502016000915090508060000160009054906101000a900460ff16908060010154908060020154908060030154908060040154905085565b600080828401905083811015610dfb576040517f08c379a0000000000000000000000000000000000000000000000000000000008152600401610df290611502565b60405180910390fd5b8091505092915050565b600080831415610e185760009050610e6f565b6000828402905082848281610e2957fe5b0414610e6a576040517f08c379a0000000000000000000000000000000000000000000000000000000008152600401610e6190611582565b60405180910390fd5b809150505b92915050565b6000808211610eb9576040517f08c379a0000000000000000000000000000000000000000000000000000000008152600401610eb090611542565b60405180910390fd5b818381610ec257fe5b04905092915050565b600082821115610f10576040517f08c379a0000000000000000000000000000000000000000000000000000000008152600401610f0790611522565b60405180910390fd5b818303905092915050565b600033905090565b6040518060a00160405280600015158152602001600081526020016000815260200160008152602001600081525090565b600081359050610f638161169c565b92915050565b600081519050610f78816116b3565b92915050565b600081359050610f8d816116ca565b92915050565b600081359050610fa2816116e1565b92915050565b600060208284031215610fba57600080fd5b6000610fc884828501610f54565b91505092915050565b600060208284031215610fe357600080fd5b6000610ff184828501610f69565b91505092915050565b60006020828403121561100c57600080fd5b600061101a84828501610f7e565b91505092915050565b60006020828403121561103557600080fd5b600061104384828501610f93565b91505092915050565b6000806040838503121561105f57600080fd5b600061106d85828601610f93565b925050602061107e85828601610f93565b9150509250929050565b6000611094838361136c565b60a08301905092915050565b6110a981611666565b82525050565b6110b88161160c565b82525050565b60006110c9826115d2565b6110d381856115ea565b93506110de836115c2565b8060005b8381101561110f5781516110f68882611088565b9750611101836115dd565b9250506001810190506110e2565b5085935050505092915050565b6111258161161e565b82525050565b6111348161161e565b82525050565b60006111476026836115fb565b91507f4f776e61626c653a206e6577206f776e657220697320746865207a65726f206160008301527f64647265737300000000000000000000000000000000000000000000000000006020830152604082019050919050565b60006111ad601b836115fb565b91507f536166654d6174683a206164646974696f6e206f766572666c6f7700000000006000830152602082019050919050565b60006111ed601e836115fb565b91507f536166654d6174683a207375627472616374696f6e206f766572666c6f7700006000830152602082019050919050565b600061122d601a836115fb565b91507f536166654d6174683a206469766973696f6e206279207a65726f0000000000006000830152602082019050919050565b600061126d6028836115fb565b91507f646561646c696e657320666f7220626c6f636b696e672066756e6473206e6f7460008301527f20656c61707365640000000000000000000000000000000000000000000000006020830152604082019050919050565b60006112d36021836115fb565b91507f536166654d6174683a206d756c7469706c69636174696f6e206f766572666c6f60008301527f77000000000000000000000000000000000000000000000000000000000000006020830152604082019050919050565b60006113396020836115fb565b91507f4f776e61626c653a2063616c6c6572206973206e6f7420746865206f776e65726000830152602082019050919050565b60a082016000820151611382600085018261111c565b50602082015161139560208501826113d4565b5060408201516113a860408501826113d4565b5060608201516113bb60608501826113d4565b5060808201516113ce60808501826113d4565b50505050565b6113dd8161165c565b82525050565b6113ec8161165c565b82525050565b600060208201905061140760008301846110af565b92915050565b600060608201905061142260008301866110a0565b61142f60208301856110af565b61143c60408301846113e3565b949350505050565b600060408201905061145960008301856110a0565b61146660208301846113e3565b9392505050565b6000602082019050818103600083015261148781846110be565b905092915050565b600060a0820190506114a4600083018861112b565b6114b160208301876113e3565b6114be60408301866113e3565b6114cb60608301856113e3565b6114d860808301846113e3565b9695505050505050565b600060208201905081810360008301526114fb8161113a565b9050919050565b6000602082019050818103600083015261151b816111a0565b9050919050565b6000602082019050818103600083015261153b816111e0565b9050919050565b6000602082019050818103600083015261155b81611220565b9050919050565b6000602082019050818103600083015261157b81611260565b9050919050565b6000602082019050818103600083015261159b816112c6565b9050919050565b600060208201905081810360008301526115bb8161132c565b9050919050565b6000819050602082019050919050565b600081519050919050565b6000602082019050919050565b600082825260208201905092915050565b600082825260208201905092915050565b60006116178261163c565b9050919050565b60008115159050919050565b60006116358261160c565b9050919050565b600073ffffffffffffffffffffffffffffffffffffffff82169050919050565b6000819050919050565b600061167182611678565b9050919050565b60006116838261168a565b9050919050565b60006116958261163c565b9050919050565b6116a58161160c565b81146116b057600080fd5b50565b6116bc8161161e565b81146116c757600080fd5b50565b6116d38161162a565b81146116de57600080fd5b50565b6116ea8161165c565b81146116f557600080fd5b5056fea2646970667358221220146bf637dea9286b861791a82780fcee20a0bb3d3524f24a09556fce2e5fb23064736f6c634300060b0033",
  "immutableReferences": {},
  "source": "// SPDX-License-Identifier: MIT\npragma solidity 0.6.11;\npragma experimental ABIEncoderV2;\n\nimport \"@openzeppelin/contracts/access/Ownable.sol\";\nimport \"@openzeppelin/contracts/math/SafeMath.sol\";\nimport \"@openzeppelin/contracts/utils/Address.sol\";\nimport \"@openzeppelin/contracts/utils/Context.sol\";\nimport \"@openzeppelin/contracts/token/ERC20/IERC20.sol\";\n\n\ncontract ProxySimple is Ownable{\nusing SafeMath for uint;\n\n// Structure Client\n\n    struct Client {\n        bool lister;\n        uint dayLock;\n        uint amount;\n        uint depositData;\n        uint withdrawalPending;\n    }\n\n// Mapping\n\n    mapping (address => Client) public User;\n\n    // client\n    mapping (uint => address) public backToUser;\n\n// Variable\n\n    // Taux d'interet\n    uint apy = 5 ;\n\n    // Somme Global disponible prt  payer\n    uint totalWithdrawalAmount;\n\n    uint totalVotingPower;\n\n// Tableaux Client\n\n    Client[] public clients;\n\n// Event\n\n     event valideDepot(address client, uint amount);\n     event authorizedWithdrawal(address client, uint amount);\n\n// Function dposer des fonds - parametre nombre de jours bloqu =>(nb_dayLock) et le amount\n\n    function deposite (uint nb_dayLock, uint amount)  public payable  {\n\n    // Initialisation d'un variable  \"now\"\n    uint depositData = uint(block.timestamp);\n\n    // Enregistrement(blockChain) dans le Tableau Client\n    Client memory _client ;\n\n    // Variable _client = aux params(struct)\n    _client = Client(true, nb_dayLock, amount, depositData,0);\n\n    // Push les elements dans le Client[] public clients;\n    clients.push(_client);\n    uint Id = clients.length.sub(1);\n    User[msg.sender]=clients[Id];\n    backToUser[Id] = msg.sender;\n\n    // Validation de l'event\n    emit valideDepot(msg.sender, amount);\n\n    // Maj des amount de dpt\n    totalVotingPower= totalVotingPower.add(amount);\n  }\n\n// Function demande de retrait - parametre amount souhaitant retirer\n\n    function withdrawPending (uint withdrawalAmount) public payable {\n\n    // Verification du DayLock\n        uint minWithdrawalDate =User[msg.sender].depositData.add(User[msg.sender].dayLock);\n        require(minWithdrawalDate <= uint(block.timestamp),\"deadlines for blocking funds not elapsed\");\n\n    // Calcule du amount des interets disponible + le amount de depot initial = amount Total Disponible  l'instant\n        uint depositTime = uint(block.timestamp) - User[msg.sender].depositData;\n        uint interestAmount = ((depositTime.mul(100).div(315360000)).mul(apy).mul(User[msg.sender].amount).mul(100)).div(100);\n        uint amountTotal = User[msg.sender].amount.add(interestAmount);\n\n        require(withdrawalAmount <=  amountTotal);\n\n    // Maj du amount Global Payement\n        totalWithdrawalAmount = totalWithdrawalAmount.add(withdrawalAmount);\n\n    // Validation de l'event\n        emit authorizedWithdrawal(msg.sender, withdrawalAmount);\n\n    // Maj des amount de dpt\n       totalVotingPower= totalVotingPower.sub(User[msg.sender].amount);\n  }\n\n  function getClients() external view returns(Client[] memory) {\n    return clients;\n  }\n\n// Function de Retrait\n\n    function Withdraw (IERC20 _address) public payable onlyOwner {\n\n    uint aPayer;\n    address userRefund;\n    uint length = clients.length;\n    // recherche de tous les clients ayant fait une demande de retrait\n    for(uint i; i == length ; i++) {\n      aPayer = clients[i].withdrawalPending;\n      userRefund = backToUser[i];\n\n      IERC20(_address).transferFrom(msg.sender, userRefund, aPayer);\n\n    //Maj du totalWithdrawalAmount\n    totalWithdrawalAmount = totalWithdrawalAmount.sub(aPayer);\n    clients[i].withdrawalPending = 0;\n    }\n  }\n}\n",
  "sourcePath": "/Users/hamzamessaoudi/Desktop/DEXSOdernier/contracts/ProxySimple.sol",
  "compiler": {
    "name": "solc",
    "version": "0.6.11+commit.5ef660b1.Emscripten.clang"
  },
  "schemaVersion": "3.3.4",
  "updatedAt": "2021-04-18T17:06:10.776Z",
  "devdoc": {
    "kind": "dev",
    "methods": {
      "owner()": {
        "details": "Returns the address of the current owner."
      },
      "renounceOwnership()": {
        "details": "Leaves the contract without owner. It will not be possible to call `onlyOwner` functions anymore. Can only be called by the current owner. NOTE: Renouncing ownership will leave the contract without an owner, thereby removing any functionality that is only available to the owner."
      },
      "transferOwnership(address)": {
        "details": "Transfers ownership of the contract to a new account (`newOwner`). Can only be called by the current owner."
      }
    },
    "version": 1
  },
  "userdoc": {
    "kind": "user",
    "methods": {},
    "version": 1
  }
}